{
	"UserManager.sol": {
		"UserManager": {
			"abi": [
				{
					"inputs": [
						{
							"internalType": "address",
							"name": "_userAddress",
							"type": "address"
						}
					],
					"name": "banUser",
					"outputs": [],
					"stateMutability": "nonpayable",
					"type": "function"
				},
				{
					"inputs": [
						{
							"internalType": "address",
							"name": "_userAddress",
							"type": "address"
						},
						{
							"internalType": "string",
							"name": "_newRole",
							"type": "string"
						}
					],
					"name": "changeUserRole",
					"outputs": [],
					"stateMutability": "nonpayable",
					"type": "function"
				},
				{
					"inputs": [],
					"name": "getAllUsers",
					"outputs": [
						{
							"internalType": "address[]",
							"name": "",
							"type": "address[]"
						}
					],
					"stateMutability": "view",
					"type": "function"
				},
				{
					"inputs": [
						{
							"internalType": "address",
							"name": "_userAddress",
							"type": "address"
						}
					],
					"name": "getUserInfo",
					"outputs": [
						{
							"components": [
								{
									"internalType": "string",
									"name": "nickname",
									"type": "string"
								},
								{
									"internalType": "bool",
									"name": "gender",
									"type": "bool"
								},
								{
									"internalType": "string",
									"name": "email",
									"type": "string"
								},
								{
									"internalType": "string",
									"name": "bio",
									"type": "string"
								},
								{
									"internalType": "string",
									"name": "phone",
									"type": "string"
								},
								{
									"internalType": "bool",
									"name": "isBanned",
									"type": "bool"
								},
								{
									"internalType": "string",
									"name": "role",
									"type": "string"
								}
							],
							"internalType": "struct UserManager.User",
							"name": "",
							"type": "tuple"
						}
					],
					"stateMutability": "view",
					"type": "function"
				},
				{
					"inputs": [
						{
							"internalType": "address",
							"name": "_userAddress",
							"type": "address"
						}
					],
					"name": "getUserRole",
					"outputs": [
						{
							"internalType": "string",
							"name": "",
							"type": "string"
						}
					],
					"stateMutability": "view",
					"type": "function"
				},
				{
					"inputs": [
						{
							"internalType": "string",
							"name": "_nickname",
							"type": "string"
						},
						{
							"internalType": "bool",
							"name": "_gender",
							"type": "bool"
						},
						{
							"internalType": "string",
							"name": "_email",
							"type": "string"
						},
						{
							"internalType": "string",
							"name": "_bio",
							"type": "string"
						},
						{
							"internalType": "string",
							"name": "_phone",
							"type": "string"
						},
						{
							"internalType": "string",
							"name": "_role",
							"type": "string"
						}
					],
					"name": "registerUser",
					"outputs": [],
					"stateMutability": "nonpayable",
					"type": "function"
				},
				{
					"inputs": [
						{
							"internalType": "address",
							"name": "_user",
							"type": "address"
						},
						{
							"internalType": "string",
							"name": "_nickname",
							"type": "string"
						},
						{
							"internalType": "bool",
							"name": "_gender",
							"type": "bool"
						},
						{
							"internalType": "string",
							"name": "_email",
							"type": "string"
						},
						{
							"internalType": "string",
							"name": "_bio",
							"type": "string"
						},
						{
							"internalType": "string",
							"name": "_phone",
							"type": "string"
						},
						{
							"internalType": "string",
							"name": "_role",
							"type": "string"
						},
						{
							"internalType": "bool",
							"name": "_isBanned",
							"type": "bool"
						}
					],
					"name": "updateUser",
					"outputs": [],
					"stateMutability": "nonpayable",
					"type": "function"
				}
			],
			"devdoc": {
				"kind": "dev",
				"methods": {},
				"version": 1
			},
			"evm": {
				"assembly": "    /* \"UserManager.sol\":61:2555  contract UserManager {... */\n  mstore(0x40, 0x80)\n  callvalue\n  dup1\n  iszero\n  tag_1\n  jumpi\n  0x00\n  dup1\n  revert\ntag_1:\n  pop\n  dataSize(sub_0)\n  dup1\n  dataOffset(sub_0)\n  0x00\n  codecopy\n  0x00\n  return\nstop\n\nsub_0: assembly {\n        /* \"UserManager.sol\":61:2555  contract UserManager {... */\n      mstore(0x40, 0x80)\n      callvalue\n      dup1\n      iszero\n      tag_1\n      jumpi\n      0x00\n      dup1\n      revert\n    tag_1:\n      pop\n      jumpi(tag_2, lt(calldatasize, 0x04))\n      shr(0xe0, calldataload(0x00))\n      dup1\n      0x7cbd4322\n      gt\n      tag_10\n      jumpi\n      dup1\n      0x7cbd4322\n      eq\n      tag_6\n      jumpi\n      dup1\n      0x860c0611\n      eq\n      tag_7\n      jumpi\n      dup1\n      0xe2842d79\n      eq\n      tag_8\n      jumpi\n      dup1\n      0xf79dbf8c\n      eq\n      tag_9\n      jumpi\n      jump(tag_2)\n    tag_10:\n      dup1\n      0x10d86b1f\n      eq\n      tag_3\n      jumpi\n      dup1\n      0x27820851\n      eq\n      tag_4\n      jumpi\n      dup1\n      0x6386c1c7\n      eq\n      tag_5\n      jumpi\n    tag_2:\n      0x00\n      dup1\n      revert\n        /* \"UserManager.sol\":1952:2137  function banUser(address _userAddress) public {... */\n    tag_3:\n      tag_11\n      0x04\n      dup1\n      calldatasize\n      sub\n      dup2\n      add\n      swap1\n      tag_12\n      swap2\n      swap1\n      tag_13\n      jump\t// in\n    tag_12:\n      tag_14\n      jump\t// in\n    tag_11:\n      stop\n        /* \"UserManager.sol\":2423:2552  function getUserRole(address _userAddress) public view returns (string memory) {... */\n    tag_4:\n      tag_15\n      0x04\n      dup1\n      calldatasize\n      sub\n      dup2\n      add\n      swap1\n      tag_16\n      swap2\n      swap1\n      tag_13\n      jump\t// in\n    tag_16:\n      tag_17\n      jump\t// in\n    tag_15:\n      mload(0x40)\n      tag_18\n      swap2\n      swap1\n      tag_19\n      jump\t// in\n    tag_18:\n      mload(0x40)\n      dup1\n      swap2\n      sub\n      swap1\n      return\n        /* \"UserManager.sol\":1591:1781  function getUserInfo(address _userAddress) public view returns (User memory) {... */\n    tag_5:\n      tag_20\n      0x04\n      dup1\n      calldatasize\n      sub\n      dup2\n      add\n      swap1\n      tag_21\n      swap2\n      swap1\n      tag_13\n      jump\t// in\n    tag_21:\n      tag_22\n      jump\t// in\n    tag_20:\n      mload(0x40)\n      tag_23\n      swap2\n      swap1\n      tag_24\n      jump\t// in\n    tag_23:\n      mload(0x40)\n      dup1\n      swap2\n      sub\n      swap1\n      return\n        /* \"UserManager.sol\":1040:1558  function updateUser(... */\n    tag_6:\n      tag_25\n      0x04\n      dup1\n      calldatasize\n      sub\n      dup2\n      add\n      swap1\n      tag_26\n      swap2\n      swap1\n      tag_27\n      jump\t// in\n    tag_26:\n      tag_28\n      jump\t// in\n    tag_25:\n      stop\n        /* \"UserManager.sol\":387:995  function registerUser(... */\n    tag_7:\n      tag_29\n      0x04\n      dup1\n      calldatasize\n      sub\n      dup2\n      add\n      swap1\n      tag_30\n      swap2\n      swap1\n      tag_31\n      jump\t// in\n    tag_30:\n      tag_32\n      jump\t// in\n    tag_29:\n      stop\n        /* \"UserManager.sol\":1822:1923  function getAllUsers() public view returns (address[] memory) {... */\n    tag_8:\n      tag_33\n      tag_34\n      jump\t// in\n    tag_33:\n      mload(0x40)\n      tag_35\n      swap2\n      swap1\n      tag_36\n      jump\t// in\n    tag_35:\n      mload(0x40)\n      dup1\n      swap2\n      sub\n      swap1\n      return\n        /* \"UserManager.sol\":2172:2388  function changeUserRole(address _userAddress, string memory _newRole) public {... */\n    tag_9:\n      tag_37\n      0x04\n      dup1\n      calldatasize\n      sub\n      dup2\n      add\n      swap1\n      tag_38\n      swap2\n      swap1\n      tag_39\n      jump\t// in\n    tag_38:\n      tag_40\n      jump\t// in\n    tag_37:\n      stop\n        /* \"UserManager.sol\":1952:2137  function banUser(address _userAddress) public {... */\n    tag_14:\n        /* \"UserManager.sol\":2125:2129  true */\n      0x01\n        /* \"UserManager.sol\":2094:2099  users */\n      0x00\n        /* \"UserManager.sol\":2094:2113  users[_userAddress] */\n      dup1\n        /* \"UserManager.sol\":2100:2112  _userAddress */\n      dup4\n        /* \"UserManager.sol\":2094:2113  users[_userAddress] */\n      0xffffffffffffffffffffffffffffffffffffffff\n      and\n      0xffffffffffffffffffffffffffffffffffffffff\n      and\n      dup2\n      mstore\n      0x20\n      add\n      swap1\n      dup2\n      mstore\n      0x20\n      add\n      0x00\n      keccak256\n        /* \"UserManager.sol\":2094:2122  users[_userAddress].isBanned */\n      0x05\n      add\n      0x00\n        /* \"UserManager.sol\":2094:2129  users[_userAddress].isBanned = true */\n      0x0100\n      exp\n      dup2\n      sload\n      dup2\n      0xff\n      mul\n      not\n      and\n      swap1\n      dup4\n      iszero\n      iszero\n      mul\n      or\n      swap1\n      sstore\n      pop\n        /* \"UserManager.sol\":1952:2137  function banUser(address _userAddress) public {... */\n      pop\n      jump\t// out\n        /* \"UserManager.sol\":2423:2552  function getUserRole(address _userAddress) public view returns (string memory) {... */\n    tag_17:\n        /* \"UserManager.sol\":2487:2500  string memory */\n      0x60\n        /* \"UserManager.sol\":2520:2525  users */\n      0x00\n        /* \"UserManager.sol\":2520:2539  users[_userAddress] */\n      dup1\n        /* \"UserManager.sol\":2526:2538  _userAddress */\n      dup4\n        /* \"UserManager.sol\":2520:2539  users[_userAddress] */\n      0xffffffffffffffffffffffffffffffffffffffff\n      and\n      0xffffffffffffffffffffffffffffffffffffffff\n      and\n      dup2\n      mstore\n      0x20\n      add\n      swap1\n      dup2\n      mstore\n      0x20\n      add\n      0x00\n      keccak256\n        /* \"UserManager.sol\":2520:2544  users[_userAddress].role */\n      0x06\n      add\n        /* \"UserManager.sol\":2513:2544  return users[_userAddress].role */\n      dup1\n      sload\n      tag_43\n      swap1\n      tag_44\n      jump\t// in\n    tag_43:\n      dup1\n      0x1f\n      add\n      0x20\n      dup1\n      swap2\n      div\n      mul\n      0x20\n      add\n      mload(0x40)\n      swap1\n      dup2\n      add\n      0x40\n      mstore\n      dup1\n      swap3\n      swap2\n      swap1\n      dup2\n      dup2\n      mstore\n      0x20\n      add\n      dup3\n      dup1\n      sload\n      tag_45\n      swap1\n      tag_44\n      jump\t// in\n    tag_45:\n      dup1\n      iszero\n      tag_46\n      jumpi\n      dup1\n      0x1f\n      lt\n      tag_47\n      jumpi\n      0x0100\n      dup1\n      dup4\n      sload\n      div\n      mul\n      dup4\n      mstore\n      swap2\n      0x20\n      add\n      swap2\n      jump(tag_46)\n    tag_47:\n      dup3\n      add\n      swap2\n      swap1\n      0x00\n      mstore\n      keccak256(0x00, 0x20)\n      swap1\n    tag_48:\n      dup2\n      sload\n      dup2\n      mstore\n      swap1\n      0x01\n      add\n      swap1\n      0x20\n      add\n      dup1\n      dup4\n      gt\n      tag_48\n      jumpi\n      dup3\n      swap1\n      sub\n      0x1f\n      and\n      dup3\n      add\n      swap2\n    tag_46:\n      pop\n      pop\n      pop\n      pop\n      pop\n      swap1\n      pop\n        /* \"UserManager.sol\":2423:2552  function getUserRole(address _userAddress) public view returns (string memory) {... */\n      swap2\n      swap1\n      pop\n      jump\t// out\n        /* \"UserManager.sol\":1591:1781  function getUserInfo(address _userAddress) public view returns (User memory) {... */\n    tag_22:\n        /* \"UserManager.sol\":1655:1666  User memory */\n      tag_49\n      tag_50\n      jump\t// in\n    tag_49:\n        /* \"UserManager.sol\":1688:1693  users */\n      0x00\n        /* \"UserManager.sol\":1688:1707  users[_userAddress] */\n      dup1\n        /* \"UserManager.sol\":1694:1706  _userAddress */\n      dup4\n        /* \"UserManager.sol\":1688:1707  users[_userAddress] */\n      0xffffffffffffffffffffffffffffffffffffffff\n      and\n      0xffffffffffffffffffffffffffffffffffffffff\n      and\n      dup2\n      mstore\n      0x20\n      add\n      swap1\n      dup2\n      mstore\n      0x20\n      add\n      0x00\n      keccak256\n        /* \"UserManager.sol\":1688:1716  users[_userAddress].isBanned */\n      0x05\n      add\n      0x00\n      swap1\n      sload\n      swap1\n      0x0100\n      exp\n      swap1\n      div\n      0xff\n      and\n        /* \"UserManager.sol\":1687:1716  !users[_userAddress].isBanned */\n      iszero\n        /* \"UserManager.sol\":1679:1736  require(!users[_userAddress].isBanned, \"User is banned.\") */\n      tag_52\n      jumpi\n      mload(0x40)\n      0x08c379a000000000000000000000000000000000000000000000000000000000\n      dup2\n      mstore\n      0x04\n      add\n      tag_53\n      swap1\n      tag_54\n      jump\t// in\n    tag_53:\n      mload(0x40)\n      dup1\n      swap2\n      sub\n      swap1\n      revert\n    tag_52:\n        /* \"UserManager.sol\":1754:1759  users */\n      0x00\n        /* \"UserManager.sol\":1754:1773  users[_userAddress] */\n      dup1\n        /* \"UserManager.sol\":1760:1772  _userAddress */\n      dup4\n        /* \"UserManager.sol\":1754:1773  users[_userAddress] */\n      0xffffffffffffffffffffffffffffffffffffffff\n      and\n      0xffffffffffffffffffffffffffffffffffffffff\n      and\n      dup2\n      mstore\n      0x20\n      add\n      swap1\n      dup2\n      mstore\n      0x20\n      add\n      0x00\n      keccak256\n        /* \"UserManager.sol\":1747:1773  return users[_userAddress] */\n      mload(0x40)\n      dup1\n      0xe0\n      add\n      0x40\n      mstore\n      swap1\n      dup2\n      0x00\n      dup3\n      add\n      dup1\n      sload\n      tag_55\n      swap1\n      tag_44\n      jump\t// in\n    tag_55:\n      dup1\n      0x1f\n      add\n      0x20\n      dup1\n      swap2\n      div\n      mul\n      0x20\n      add\n      mload(0x40)\n      swap1\n      dup2\n      add\n      0x40\n      mstore\n      dup1\n      swap3\n      swap2\n      swap1\n      dup2\n      dup2\n      mstore\n      0x20\n      add\n      dup3\n      dup1\n      sload\n      tag_56\n      swap1\n      tag_44\n      jump\t// in\n    tag_56:\n      dup1\n      iszero\n      tag_57\n      jumpi\n      dup1\n      0x1f\n      lt\n      tag_58\n      jumpi\n      0x0100\n      dup1\n      dup4\n      sload\n      div\n      mul\n      dup4\n      mstore\n      swap2\n      0x20\n      add\n      swap2\n      jump(tag_57)\n    tag_58:\n      dup3\n      add\n      swap2\n      swap1\n      0x00\n      mstore\n      keccak256(0x00, 0x20)\n      swap1\n    tag_59:\n      dup2\n      sload\n      dup2\n      mstore\n      swap1\n      0x01\n      add\n      swap1\n      0x20\n      add\n      dup1\n      dup4\n      gt\n      tag_59\n      jumpi\n      dup3\n      swap1\n      sub\n      0x1f\n      and\n      dup3\n      add\n      swap2\n    tag_57:\n      pop\n      pop\n      pop\n      pop\n      pop\n      dup2\n      mstore\n      0x20\n      add\n      0x01\n      dup3\n      add\n      0x00\n      swap1\n      sload\n      swap1\n      0x0100\n      exp\n      swap1\n      div\n      0xff\n      and\n      iszero\n      iszero\n      iszero\n      iszero\n      dup2\n      mstore\n      0x20\n      add\n      0x02\n      dup3\n      add\n      dup1\n      sload\n      tag_60\n      swap1\n      tag_44\n      jump\t// in\n    tag_60:\n      dup1\n      0x1f\n      add\n      0x20\n      dup1\n      swap2\n      div\n      mul\n      0x20\n      add\n      mload(0x40)\n      swap1\n      dup2\n      add\n      0x40\n      mstore\n      dup1\n      swap3\n      swap2\n      swap1\n      dup2\n      dup2\n      mstore\n      0x20\n      add\n      dup3\n      dup1\n      sload\n      tag_61\n      swap1\n      tag_44\n      jump\t// in\n    tag_61:\n      dup1\n      iszero\n      tag_62\n      jumpi\n      dup1\n      0x1f\n      lt\n      tag_63\n      jumpi\n      0x0100\n      dup1\n      dup4\n      sload\n      div\n      mul\n      dup4\n      mstore\n      swap2\n      0x20\n      add\n      swap2\n      jump(tag_62)\n    tag_63:\n      dup3\n      add\n      swap2\n      swap1\n      0x00\n      mstore\n      keccak256(0x00, 0x20)\n      swap1\n    tag_64:\n      dup2\n      sload\n      dup2\n      mstore\n      swap1\n      0x01\n      add\n      swap1\n      0x20\n      add\n      dup1\n      dup4\n      gt\n      tag_64\n      jumpi\n      dup3\n      swap1\n      sub\n      0x1f\n      and\n      dup3\n      add\n      swap2\n    tag_62:\n      pop\n      pop\n      pop\n      pop\n      pop\n      dup2\n      mstore\n      0x20\n      add\n      0x03\n      dup3\n      add\n      dup1\n      sload\n      tag_65\n      swap1\n      tag_44\n      jump\t// in\n    tag_65:\n      dup1\n      0x1f\n      add\n      0x20\n      dup1\n      swap2\n      div\n      mul\n      0x20\n      add\n      mload(0x40)\n      swap1\n      dup2\n      add\n      0x40\n      mstore\n      dup1\n      swap3\n      swap2\n      swap1\n      dup2\n      dup2\n      mstore\n      0x20\n      add\n      dup3\n      dup1\n      sload\n      tag_66\n      swap1\n      tag_44\n      jump\t// in\n    tag_66:\n      dup1\n      iszero\n      tag_67\n      jumpi\n      dup1\n      0x1f\n      lt\n      tag_68\n      jumpi\n      0x0100\n      dup1\n      dup4\n      sload\n      div\n      mul\n      dup4\n      mstore\n      swap2\n      0x20\n      add\n      swap2\n      jump(tag_67)\n    tag_68:\n      dup3\n      add\n      swap2\n      swap1\n      0x00\n      mstore\n      keccak256(0x00, 0x20)\n      swap1\n    tag_69:\n      dup2\n      sload\n      dup2\n      mstore\n      swap1\n      0x01\n      add\n      swap1\n      0x20\n      add\n      dup1\n      dup4\n      gt\n      tag_69\n      jumpi\n      dup3\n      swap1\n      sub\n      0x1f\n      and\n      dup3\n      add\n      swap2\n    tag_67:\n      pop\n      pop\n      pop\n      pop\n      pop\n      dup2\n      mstore\n      0x20\n      add\n      0x04\n      dup3\n      add\n      dup1\n      sload\n      tag_70\n      swap1\n      tag_44\n      jump\t// in\n    tag_70:\n      dup1\n      0x1f\n      add\n      0x20\n      dup1\n      swap2\n      div\n      mul\n      0x20\n      add\n      mload(0x40)\n      swap1\n      dup2\n      add\n      0x40\n      mstore\n      dup1\n      swap3\n      swap2\n      swap1\n      dup2\n      dup2\n      mstore\n      0x20\n      add\n      dup3\n      dup1\n      sload\n      tag_71\n      swap1\n      tag_44\n      jump\t// in\n    tag_71:\n      dup1\n      iszero\n      tag_72\n      jumpi\n      dup1\n      0x1f\n      lt\n      tag_73\n      jumpi\n      0x0100\n      dup1\n      dup4\n      sload\n      div\n      mul\n      dup4\n      mstore\n      swap2\n      0x20\n      add\n      swap2\n      jump(tag_72)\n    tag_73:\n      dup3\n      add\n      swap2\n      swap1\n      0x00\n      mstore\n      keccak256(0x00, 0x20)\n      swap1\n    tag_74:\n      dup2\n      sload\n      dup2\n      mstore\n      swap1\n      0x01\n      add\n      swap1\n      0x20\n      add\n      dup1\n      dup4\n      gt\n      tag_74\n      jumpi\n      dup3\n      swap1\n      sub\n      0x1f\n      and\n      dup3\n      add\n      swap2\n    tag_72:\n      pop\n      pop\n      pop\n      pop\n      pop\n      dup2\n      mstore\n      0x20\n      add\n      0x05\n      dup3\n      add\n      0x00\n      swap1\n      sload\n      swap1\n      0x0100\n      exp\n      swap1\n      div\n      0xff\n      and\n      iszero\n      iszero\n      iszero\n      iszero\n      dup2\n      mstore\n      0x20\n      add\n      0x06\n      dup3\n      add\n      dup1\n      sload\n      tag_75\n      swap1\n      tag_44\n      jump\t// in\n    tag_75:\n      dup1\n      0x1f\n      add\n      0x20\n      dup1\n      swap2\n      div\n      mul\n      0x20\n      add\n      mload(0x40)\n      swap1\n      dup2\n      add\n      0x40\n      mstore\n      dup1\n      swap3\n      swap2\n      swap1\n      dup2\n      dup2\n      mstore\n      0x20\n      add\n      dup3\n      dup1\n      sload\n      tag_76\n      swap1\n      tag_44\n      jump\t// in\n    tag_76:\n      dup1\n      iszero\n      tag_77\n      jumpi\n      dup1\n      0x1f\n      lt\n      tag_78\n      jumpi\n      0x0100\n      dup1\n      dup4\n      sload\n      div\n      mul\n      dup4\n      mstore\n      swap2\n      0x20\n      add\n      swap2\n      jump(tag_77)\n    tag_78:\n      dup3\n      add\n      swap2\n      swap1\n      0x00\n      mstore\n      keccak256(0x00, 0x20)\n      swap1\n    tag_79:\n      dup2\n      sload\n      dup2\n      mstore\n      swap1\n      0x01\n      add\n      swap1\n      0x20\n      add\n      dup1\n      dup4\n      gt\n      tag_79\n      jumpi\n      dup3\n      swap1\n      sub\n      0x1f\n      and\n      dup3\n      add\n      swap2\n    tag_77:\n      pop\n      pop\n      pop\n      pop\n      pop\n      dup2\n      mstore\n      pop\n      pop\n      swap1\n      pop\n        /* \"UserManager.sol\":1591:1781  function getUserInfo(address _userAddress) public view returns (User memory) {... */\n      swap2\n      swap1\n      pop\n      jump\t// out\n        /* \"UserManager.sol\":1040:1558  function updateUser(... */\n    tag_28:\n        /* \"UserManager.sol\":1329:1550  User({... */\n      mload(0x40)\n      dup1\n      0xe0\n      add\n      0x40\n      mstore\n      dup1\n        /* \"UserManager.sol\":1359:1368  _nickname */\n      dup9\n        /* \"UserManager.sol\":1329:1550  User({... */\n      dup2\n      mstore\n      0x20\n      add\n        /* \"UserManager.sol\":1391:1398  _gender */\n      dup8\n        /* \"UserManager.sol\":1329:1550  User({... */\n      iszero\n      iszero\n      dup2\n      mstore\n      0x20\n      add\n        /* \"UserManager.sol\":1420:1426  _email */\n      dup7\n        /* \"UserManager.sol\":1329:1550  User({... */\n      dup2\n      mstore\n      0x20\n      add\n        /* \"UserManager.sol\":1446:1450  _bio */\n      dup6\n        /* \"UserManager.sol\":1329:1550  User({... */\n      dup2\n      mstore\n      0x20\n      add\n        /* \"UserManager.sol\":1472:1478  _phone */\n      dup5\n        /* \"UserManager.sol\":1329:1550  User({... */\n      dup2\n      mstore\n      0x20\n      add\n        /* \"UserManager.sol\":1503:1512  _isBanned */\n      dup3\n        /* \"UserManager.sol\":1329:1550  User({... */\n      iszero\n      iszero\n      dup2\n      mstore\n      0x20\n      add\n        /* \"UserManager.sol\":1533:1538  _role */\n      dup4\n        /* \"UserManager.sol\":1329:1550  User({... */\n      dup2\n      mstore\n      pop\n        /* \"UserManager.sol\":1314:1319  users */\n      0x00\n        /* \"UserManager.sol\":1314:1326  users[_user] */\n      dup1\n        /* \"UserManager.sol\":1320:1325  _user */\n      dup11\n        /* \"UserManager.sol\":1314:1326  users[_user] */\n      0xffffffffffffffffffffffffffffffffffffffff\n      and\n      0xffffffffffffffffffffffffffffffffffffffff\n      and\n      dup2\n      mstore\n      0x20\n      add\n      swap1\n      dup2\n      mstore\n      0x20\n      add\n      0x00\n      keccak256\n        /* \"UserManager.sol\":1314:1550  users[_user] = User({... */\n      0x00\n      dup3\n      add\n      mload\n      dup2\n      0x00\n      add\n      swap1\n      dup2\n      tag_81\n      swap2\n      swap1\n      tag_82\n      jump\t// in\n    tag_81:\n      pop\n      0x20\n      dup3\n      add\n      mload\n      dup2\n      0x01\n      add\n      exp(0x0100, 0x00)\n      dup2\n      sload\n      dup2\n      0xff\n      mul\n      not\n      and\n      swap1\n      dup4\n      iszero\n      iszero\n      mul\n      or\n      swap1\n      sstore\n      pop\n      0x40\n      dup3\n      add\n      mload\n      dup2\n      0x02\n      add\n      swap1\n      dup2\n      tag_83\n      swap2\n      swap1\n      tag_82\n      jump\t// in\n    tag_83:\n      pop\n      0x60\n      dup3\n      add\n      mload\n      dup2\n      0x03\n      add\n      swap1\n      dup2\n      tag_84\n      swap2\n      swap1\n      tag_82\n      jump\t// in\n    tag_84:\n      pop\n      0x80\n      dup3\n      add\n      mload\n      dup2\n      0x04\n      add\n      swap1\n      dup2\n      tag_85\n      swap2\n      swap1\n      tag_82\n      jump\t// in\n    tag_85:\n      pop\n      0xa0\n      dup3\n      add\n      mload\n      dup2\n      0x05\n      add\n      exp(0x0100, 0x00)\n      dup2\n      sload\n      dup2\n      0xff\n      mul\n      not\n      and\n      swap1\n      dup4\n      iszero\n      iszero\n      mul\n      or\n      swap1\n      sstore\n      pop\n      0xc0\n      dup3\n      add\n      mload\n      dup2\n      0x06\n      add\n      swap1\n      dup2\n      tag_86\n      swap2\n      swap1\n      tag_82\n      jump\t// in\n    tag_86:\n      pop\n      swap1\n      pop\n      pop\n        /* \"UserManager.sol\":1040:1558  function updateUser(... */\n      pop\n      pop\n      pop\n      pop\n      pop\n      pop\n      pop\n      pop\n      jump\t// out\n        /* \"UserManager.sol\":387:995  function registerUser(... */\n    tag_32:\n        /* \"UserManager.sol\":664:665  0 */\n      0x00\n        /* \"UserManager.sol\":626:631  users */\n      dup1\n        /* \"UserManager.sol\":626:643  users[msg.sender] */\n      0x00\n        /* \"UserManager.sol\":632:642  msg.sender */\n      caller\n        /* \"UserManager.sol\":626:643  users[msg.sender] */\n      0xffffffffffffffffffffffffffffffffffffffff\n      and\n      0xffffffffffffffffffffffffffffffffffffffff\n      and\n      dup2\n      mstore\n      0x20\n      add\n      swap1\n      dup2\n      mstore\n      0x20\n      add\n      0x00\n      keccak256\n        /* \"UserManager.sol\":626:652  users[msg.sender].nickname */\n      0x00\n      add\n        /* \"UserManager.sol\":620:660  bytes(users[msg.sender].nickname).length */\n      dup1\n      sload\n      tag_88\n      swap1\n      tag_44\n      jump\t// in\n    tag_88:\n      swap1\n      pop\n        /* \"UserManager.sol\":620:665  bytes(users[msg.sender].nickname).length == 0 */\n      eq\n        /* \"UserManager.sol\":612:694  require(bytes(users[msg.sender].nickname).length == 0, \"User already registered.\") */\n      tag_89\n      jumpi\n      mload(0x40)\n      0x08c379a000000000000000000000000000000000000000000000000000000000\n      dup2\n      mstore\n      0x04\n      add\n      tag_90\n      swap1\n      tag_91\n      jump\t// in\n    tag_90:\n      mload(0x40)\n      dup1\n      swap2\n      sub\n      swap1\n      revert\n    tag_89:\n        /* \"UserManager.sol\":727:944  User({... */\n      mload(0x40)\n      dup1\n      0xe0\n      add\n      0x40\n      mstore\n      dup1\n        /* \"UserManager.sol\":757:766  _nickname */\n      dup8\n        /* \"UserManager.sol\":727:944  User({... */\n      dup2\n      mstore\n      0x20\n      add\n        /* \"UserManager.sol\":789:796  _gender */\n      dup7\n        /* \"UserManager.sol\":727:944  User({... */\n      iszero\n      iszero\n      dup2\n      mstore\n      0x20\n      add\n        /* \"UserManager.sol\":818:824  _email */\n      dup6\n        /* \"UserManager.sol\":727:944  User({... */\n      dup2\n      mstore\n      0x20\n      add\n        /* \"UserManager.sol\":844:848  _bio */\n      dup5\n        /* \"UserManager.sol\":727:944  User({... */\n      dup2\n      mstore\n      0x20\n      add\n        /* \"UserManager.sol\":870:876  _phone */\n      dup4\n        /* \"UserManager.sol\":727:944  User({... */\n      dup2\n      mstore\n      0x20\n      add\n        /* \"UserManager.sol\":901:906  false */\n      0x00\n        /* \"UserManager.sol\":727:944  User({... */\n      iszero\n      iszero\n      dup2\n      mstore\n      0x20\n      add\n        /* \"UserManager.sol\":927:932  _role */\n      dup3\n        /* \"UserManager.sol\":727:944  User({... */\n      dup2\n      mstore\n      pop\n        /* \"UserManager.sol\":707:712  users */\n      0x00\n        /* \"UserManager.sol\":707:724  users[msg.sender] */\n      dup1\n        /* \"UserManager.sol\":713:723  msg.sender */\n      caller\n        /* \"UserManager.sol\":707:724  users[msg.sender] */\n      0xffffffffffffffffffffffffffffffffffffffff\n      and\n      0xffffffffffffffffffffffffffffffffffffffff\n      and\n      dup2\n      mstore\n      0x20\n      add\n      swap1\n      dup2\n      mstore\n      0x20\n      add\n      0x00\n      keccak256\n        /* \"UserManager.sol\":707:944  users[msg.sender] = User({... */\n      0x00\n      dup3\n      add\n      mload\n      dup2\n      0x00\n      add\n      swap1\n      dup2\n      tag_92\n      swap2\n      swap1\n      tag_82\n      jump\t// in\n    tag_92:\n      pop\n      0x20\n      dup3\n      add\n      mload\n      dup2\n      0x01\n      add\n      exp(0x0100, 0x00)\n      dup2\n      sload\n      dup2\n      0xff\n      mul\n      not\n      and\n      swap1\n      dup4\n      iszero\n      iszero\n      mul\n      or\n      swap1\n      sstore\n      pop\n      0x40\n      dup3\n      add\n      mload\n      dup2\n      0x02\n      add\n      swap1\n      dup2\n      tag_93\n      swap2\n      swap1\n      tag_82\n      jump\t// in\n    tag_93:\n      pop\n      0x60\n      dup3\n      add\n      mload\n      dup2\n      0x03\n      add\n      swap1\n      dup2\n      tag_94\n      swap2\n      swap1\n      tag_82\n      jump\t// in\n    tag_94:\n      pop\n      0x80\n      dup3\n      add\n      mload\n      dup2\n      0x04\n      add\n      swap1\n      dup2\n      tag_95\n      swap2\n      swap1\n      tag_82\n      jump\t// in\n    tag_95:\n      pop\n      0xa0\n      dup3\n      add\n      mload\n      dup2\n      0x05\n      add\n      exp(0x0100, 0x00)\n      dup2\n      sload\n      dup2\n      0xff\n      mul\n      not\n      and\n      swap1\n      dup4\n      iszero\n      iszero\n      mul\n      or\n      swap1\n      sstore\n      pop\n      0xc0\n      dup3\n      add\n      mload\n      dup2\n      0x06\n      add\n      swap1\n      dup2\n      tag_96\n      swap2\n      swap1\n      tag_82\n      jump\t// in\n    tag_96:\n      pop\n      swap1\n      pop\n      pop\n        /* \"UserManager.sol\":957:970  userAddresses */\n      0x01\n        /* \"UserManager.sol\":976:986  msg.sender */\n      caller\n        /* \"UserManager.sol\":957:987  userAddresses.push(msg.sender) */\n      swap1\n      dup1\n      0x01\n      dup2\n      sload\n      add\n      dup1\n      dup3\n      sstore\n      dup1\n      swap2\n      pop\n      pop\n      0x01\n      swap1\n      sub\n      swap1\n      0x00\n      mstore\n      keccak256(0x00, 0x20)\n      add\n      0x00\n      swap1\n      swap2\n      swap1\n      swap2\n      swap1\n      swap2\n      0x0100\n      exp\n      dup2\n      sload\n      dup2\n      0xffffffffffffffffffffffffffffffffffffffff\n      mul\n      not\n      and\n      swap1\n      dup4\n      0xffffffffffffffffffffffffffffffffffffffff\n      and\n      mul\n      or\n      swap1\n      sstore\n      pop\n        /* \"UserManager.sol\":387:995  function registerUser(... */\n      pop\n      pop\n      pop\n      pop\n      pop\n      pop\n      jump\t// out\n        /* \"UserManager.sol\":1822:1923  function getAllUsers() public view returns (address[] memory) {... */\n    tag_34:\n        /* \"UserManager.sol\":1866:1882  address[] memory */\n      0x60\n        /* \"UserManager.sol\":1902:1915  userAddresses */\n      0x01\n        /* \"UserManager.sol\":1895:1915  return userAddresses */\n      dup1\n      sload\n      dup1\n      0x20\n      mul\n      0x20\n      add\n      mload(0x40)\n      swap1\n      dup2\n      add\n      0x40\n      mstore\n      dup1\n      swap3\n      swap2\n      swap1\n      dup2\n      dup2\n      mstore\n      0x20\n      add\n      dup3\n      dup1\n      sload\n      dup1\n      iszero\n      tag_99\n      jumpi\n      0x20\n      mul\n      dup3\n      add\n      swap2\n      swap1\n      0x00\n      mstore\n      keccak256(0x00, 0x20)\n      swap1\n    tag_100:\n      dup2\n      0x00\n      swap1\n      sload\n      swap1\n      0x0100\n      exp\n      swap1\n      div\n      0xffffffffffffffffffffffffffffffffffffffff\n      and\n      0xffffffffffffffffffffffffffffffffffffffff\n      and\n      dup2\n      mstore\n      0x20\n      add\n      swap1\n      0x01\n      add\n      swap1\n      dup1\n      dup4\n      gt\n      tag_100\n      jumpi\n    tag_99:\n      pop\n      pop\n      pop\n      pop\n      pop\n      swap1\n      pop\n        /* \"UserManager.sol\":1822:1923  function getAllUsers() public view returns (address[] memory) {... */\n      swap1\n      jump\t// out\n        /* \"UserManager.sol\":2172:2388  function changeUserRole(address _userAddress, string memory _newRole) public {... */\n    tag_40:\n        /* \"UserManager.sol\":2372:2380  _newRole */\n      dup1\n        /* \"UserManager.sol\":2345:2350  users */\n      0x00\n        /* \"UserManager.sol\":2345:2364  users[_userAddress] */\n      dup1\n        /* \"UserManager.sol\":2351:2363  _userAddress */\n      dup5\n        /* \"UserManager.sol\":2345:2364  users[_userAddress] */\n      0xffffffffffffffffffffffffffffffffffffffff\n      and\n      0xffffffffffffffffffffffffffffffffffffffff\n      and\n      dup2\n      mstore\n      0x20\n      add\n      swap1\n      dup2\n      mstore\n      0x20\n      add\n      0x00\n      keccak256\n        /* \"UserManager.sol\":2345:2369  users[_userAddress].role */\n      0x06\n      add\n        /* \"UserManager.sol\":2345:2380  users[_userAddress].role = _newRole */\n      swap1\n      dup2\n      tag_102\n      swap2\n      swap1\n      tag_82\n      jump\t// in\n    tag_102:\n      pop\n        /* \"UserManager.sol\":2172:2388  function changeUserRole(address _userAddress, string memory _newRole) public {... */\n      pop\n      pop\n      jump\t// out\n    tag_50:\n      mload(0x40)\n      dup1\n      0xe0\n      add\n      0x40\n      mstore\n      dup1\n      0x60\n      dup2\n      mstore\n      0x20\n      add\n      iszero(iszero(0x00))\n      dup2\n      mstore\n      0x20\n      add\n      0x60\n      dup2\n      mstore\n      0x20\n      add\n      0x60\n      dup2\n      mstore\n      0x20\n      add\n      0x60\n      dup2\n      mstore\n      0x20\n      add\n      iszero(iszero(0x00))\n      dup2\n      mstore\n      0x20\n      add\n      0x60\n      dup2\n      mstore\n      pop\n      swap1\n      jump\t// out\n        /* \"#utility.yul\":7:82   */\n    tag_103:\n        /* \"#utility.yul\":40:46   */\n      0x00\n        /* \"#utility.yul\":73:75   */\n      0x40\n        /* \"#utility.yul\":67:76   */\n      mload\n        /* \"#utility.yul\":57:76   */\n      swap1\n      pop\n        /* \"#utility.yul\":7:82   */\n      swap1\n      jump\t// out\n        /* \"#utility.yul\":88:205   */\n    tag_104:\n        /* \"#utility.yul\":197:198   */\n      0x00\n        /* \"#utility.yul\":194:195   */\n      dup1\n        /* \"#utility.yul\":187:199   */\n      revert\n        /* \"#utility.yul\":211:328   */\n    tag_105:\n        /* \"#utility.yul\":320:321   */\n      0x00\n        /* \"#utility.yul\":317:318   */\n      dup1\n        /* \"#utility.yul\":310:322   */\n      revert\n        /* \"#utility.yul\":334:460   */\n    tag_106:\n        /* \"#utility.yul\":371:378   */\n      0x00\n        /* \"#utility.yul\":411:453   */\n      0xffffffffffffffffffffffffffffffffffffffff\n        /* \"#utility.yul\":404:409   */\n      dup3\n        /* \"#utility.yul\":400:454   */\n      and\n        /* \"#utility.yul\":389:454   */\n      swap1\n      pop\n        /* \"#utility.yul\":334:460   */\n      swap2\n      swap1\n      pop\n      jump\t// out\n        /* \"#utility.yul\":466:562   */\n    tag_107:\n        /* \"#utility.yul\":503:510   */\n      0x00\n        /* \"#utility.yul\":532:556   */\n      tag_165\n        /* \"#utility.yul\":550:555   */\n      dup3\n        /* \"#utility.yul\":532:556   */\n      tag_106\n      jump\t// in\n    tag_165:\n        /* \"#utility.yul\":521:556   */\n      swap1\n      pop\n        /* \"#utility.yul\":466:562   */\n      swap2\n      swap1\n      pop\n      jump\t// out\n        /* \"#utility.yul\":568:690   */\n    tag_108:\n        /* \"#utility.yul\":641:665   */\n      tag_167\n        /* \"#utility.yul\":659:664   */\n      dup2\n        /* \"#utility.yul\":641:665   */\n      tag_107\n      jump\t// in\n    tag_167:\n        /* \"#utility.yul\":634:639   */\n      dup2\n        /* \"#utility.yul\":631:666   */\n      eq\n        /* \"#utility.yul\":621:684   */\n      tag_168\n      jumpi\n        /* \"#utility.yul\":680:681   */\n      0x00\n        /* \"#utility.yul\":677:678   */\n      dup1\n        /* \"#utility.yul\":670:682   */\n      revert\n        /* \"#utility.yul\":621:684   */\n    tag_168:\n        /* \"#utility.yul\":568:690   */\n      pop\n      jump\t// out\n        /* \"#utility.yul\":696:835   */\n    tag_109:\n        /* \"#utility.yul\":742:747   */\n      0x00\n        /* \"#utility.yul\":780:786   */\n      dup2\n        /* \"#utility.yul\":767:787   */\n      calldataload\n        /* \"#utility.yul\":758:787   */\n      swap1\n      pop\n        /* \"#utility.yul\":796:829   */\n      tag_170\n        /* \"#utility.yul\":823:828   */\n      dup2\n        /* \"#utility.yul\":796:829   */\n      tag_108\n      jump\t// in\n    tag_170:\n        /* \"#utility.yul\":696:835   */\n      swap3\n      swap2\n      pop\n      pop\n      jump\t// out\n        /* \"#utility.yul\":841:1170   */\n    tag_13:\n        /* \"#utility.yul\":900:906   */\n      0x00\n        /* \"#utility.yul\":949:951   */\n      0x20\n        /* \"#utility.yul\":937:946   */\n      dup3\n        /* \"#utility.yul\":928:935   */\n      dup5\n        /* \"#utility.yul\":924:947   */\n      sub\n        /* \"#utility.yul\":920:952   */\n      slt\n        /* \"#utility.yul\":917:1036   */\n      iszero\n      tag_172\n      jumpi\n        /* \"#utility.yul\":955:1034   */\n      tag_173\n      tag_104\n      jump\t// in\n    tag_173:\n        /* \"#utility.yul\":917:1036   */\n    tag_172:\n        /* \"#utility.yul\":1075:1076   */\n      0x00\n        /* \"#utility.yul\":1100:1153   */\n      tag_174\n        /* \"#utility.yul\":1145:1152   */\n      dup5\n        /* \"#utility.yul\":1136:1142   */\n      dup3\n        /* \"#utility.yul\":1125:1134   */\n      dup6\n        /* \"#utility.yul\":1121:1143   */\n      add\n        /* \"#utility.yul\":1100:1153   */\n      tag_109\n      jump\t// in\n    tag_174:\n        /* \"#utility.yul\":1090:1153   */\n      swap2\n      pop\n        /* \"#utility.yul\":1046:1163   */\n      pop\n        /* \"#utility.yul\":841:1170   */\n      swap3\n      swap2\n      pop\n      pop\n      jump\t// out\n        /* \"#utility.yul\":1176:1275   */\n    tag_110:\n        /* \"#utility.yul\":1228:1234   */\n      0x00\n        /* \"#utility.yul\":1262:1267   */\n      dup2\n        /* \"#utility.yul\":1256:1268   */\n      mload\n        /* \"#utility.yul\":1246:1268   */\n      swap1\n      pop\n        /* \"#utility.yul\":1176:1275   */\n      swap2\n      swap1\n      pop\n      jump\t// out\n        /* \"#utility.yul\":1281:1450   */\n    tag_111:\n        /* \"#utility.yul\":1365:1376   */\n      0x00\n        /* \"#utility.yul\":1399:1405   */\n      dup3\n        /* \"#utility.yul\":1394:1397   */\n      dup3\n        /* \"#utility.yul\":1387:1406   */\n      mstore\n        /* \"#utility.yul\":1439:1443   */\n      0x20\n        /* \"#utility.yul\":1434:1437   */\n      dup3\n        /* \"#utility.yul\":1430:1444   */\n      add\n        /* \"#utility.yul\":1415:1444   */\n      swap1\n      pop\n        /* \"#utility.yul\":1281:1450   */\n      swap3\n      swap2\n      pop\n      pop\n      jump\t// out\n        /* \"#utility.yul\":1456:1702   */\n    tag_112:\n        /* \"#utility.yul\":1537:1538   */\n      0x00\n        /* \"#utility.yul\":1547:1660   */\n    tag_178:\n        /* \"#utility.yul\":1561:1567   */\n      dup4\n        /* \"#utility.yul\":1558:1559   */\n      dup2\n        /* \"#utility.yul\":1555:1568   */\n      lt\n        /* \"#utility.yul\":1547:1660   */\n      iszero\n      tag_180\n      jumpi\n        /* \"#utility.yul\":1646:1647   */\n      dup1\n        /* \"#utility.yul\":1641:1644   */\n      dup3\n        /* \"#utility.yul\":1637:1648   */\n      add\n        /* \"#utility.yul\":1631:1649   */\n      mload\n        /* \"#utility.yul\":1627:1628   */\n      dup2\n        /* \"#utility.yul\":1622:1625   */\n      dup5\n        /* \"#utility.yul\":1618:1629   */\n      add\n        /* \"#utility.yul\":1611:1650   */\n      mstore\n        /* \"#utility.yul\":1583:1585   */\n      0x20\n        /* \"#utility.yul\":1580:1581   */\n      dup2\n        /* \"#utility.yul\":1576:1586   */\n      add\n        /* \"#utility.yul\":1571:1586   */\n      swap1\n      pop\n        /* \"#utility.yul\":1547:1660   */\n      jump(tag_178)\n    tag_180:\n        /* \"#utility.yul\":1694:1695   */\n      0x00\n        /* \"#utility.yul\":1685:1691   */\n      dup5\n        /* \"#utility.yul\":1680:1683   */\n      dup5\n        /* \"#utility.yul\":1676:1692   */\n      add\n        /* \"#utility.yul\":1669:1696   */\n      mstore\n        /* \"#utility.yul\":1518:1702   */\n      pop\n        /* \"#utility.yul\":1456:1702   */\n      pop\n      pop\n      pop\n      jump\t// out\n        /* \"#utility.yul\":1708:1810   */\n    tag_113:\n        /* \"#utility.yul\":1749:1755   */\n      0x00\n        /* \"#utility.yul\":1800:1802   */\n      0x1f\n        /* \"#utility.yul\":1796:1803   */\n      not\n        /* \"#utility.yul\":1791:1793   */\n      0x1f\n        /* \"#utility.yul\":1784:1789   */\n      dup4\n        /* \"#utility.yul\":1780:1794   */\n      add\n        /* \"#utility.yul\":1776:1804   */\n      and\n        /* \"#utility.yul\":1766:1804   */\n      swap1\n      pop\n        /* \"#utility.yul\":1708:1810   */\n      swap2\n      swap1\n      pop\n      jump\t// out\n        /* \"#utility.yul\":1816:2193   */\n    tag_114:\n        /* \"#utility.yul\":1904:1907   */\n      0x00\n        /* \"#utility.yul\":1932:1971   */\n      tag_183\n        /* \"#utility.yul\":1965:1970   */\n      dup3\n        /* \"#utility.yul\":1932:1971   */\n      tag_110\n      jump\t// in\n    tag_183:\n        /* \"#utility.yul\":1987:2058   */\n      tag_184\n        /* \"#utility.yul\":2051:2057   */\n      dup2\n        /* \"#utility.yul\":2046:2049   */\n      dup6\n        /* \"#utility.yul\":1987:2058   */\n      tag_111\n      jump\t// in\n    tag_184:\n        /* \"#utility.yul\":1980:2058   */\n      swap4\n      pop\n        /* \"#utility.yul\":2067:2132   */\n      tag_185\n        /* \"#utility.yul\":2125:2131   */\n      dup2\n        /* \"#utility.yul\":2120:2123   */\n      dup6\n        /* \"#utility.yul\":2113:2117   */\n      0x20\n        /* \"#utility.yul\":2106:2111   */\n      dup7\n        /* \"#utility.yul\":2102:2118   */\n      add\n        /* \"#utility.yul\":2067:2132   */\n      tag_112\n      jump\t// in\n    tag_185:\n        /* \"#utility.yul\":2157:2186   */\n      tag_186\n        /* \"#utility.yul\":2179:2185   */\n      dup2\n        /* \"#utility.yul\":2157:2186   */\n      tag_113\n      jump\t// in\n    tag_186:\n        /* \"#utility.yul\":2152:2155   */\n      dup5\n        /* \"#utility.yul\":2148:2187   */\n      add\n        /* \"#utility.yul\":2141:2187   */\n      swap2\n      pop\n        /* \"#utility.yul\":1908:2193   */\n      pop\n        /* \"#utility.yul\":1816:2193   */\n      swap3\n      swap2\n      pop\n      pop\n      jump\t// out\n        /* \"#utility.yul\":2199:2512   */\n    tag_19:\n        /* \"#utility.yul\":2312:2316   */\n      0x00\n        /* \"#utility.yul\":2350:2352   */\n      0x20\n        /* \"#utility.yul\":2339:2348   */\n      dup3\n        /* \"#utility.yul\":2335:2353   */\n      add\n        /* \"#utility.yul\":2327:2353   */\n      swap1\n      pop\n        /* \"#utility.yul\":2399:2408   */\n      dup2\n        /* \"#utility.yul\":2393:2397   */\n      dup2\n        /* \"#utility.yul\":2389:2409   */\n      sub\n        /* \"#utility.yul\":2385:2386   */\n      0x00\n        /* \"#utility.yul\":2374:2383   */\n      dup4\n        /* \"#utility.yul\":2370:2387   */\n      add\n        /* \"#utility.yul\":2363:2410   */\n      mstore\n        /* \"#utility.yul\":2427:2505   */\n      tag_188\n        /* \"#utility.yul\":2500:2504   */\n      dup2\n        /* \"#utility.yul\":2491:2497   */\n      dup5\n        /* \"#utility.yul\":2427:2505   */\n      tag_114\n      jump\t// in\n    tag_188:\n        /* \"#utility.yul\":2419:2505   */\n      swap1\n      pop\n        /* \"#utility.yul\":2199:2512   */\n      swap3\n      swap2\n      pop\n      pop\n      jump\t// out\n        /* \"#utility.yul\":2518:2677   */\n    tag_115:\n        /* \"#utility.yul\":2592:2603   */\n      0x00\n        /* \"#utility.yul\":2626:2632   */\n      dup3\n        /* \"#utility.yul\":2621:2624   */\n      dup3\n        /* \"#utility.yul\":2614:2633   */\n      mstore\n        /* \"#utility.yul\":2666:2670   */\n      0x20\n        /* \"#utility.yul\":2661:2664   */\n      dup3\n        /* \"#utility.yul\":2657:2671   */\n      add\n        /* \"#utility.yul\":2642:2671   */\n      swap1\n      pop\n        /* \"#utility.yul\":2518:2677   */\n      swap3\n      swap2\n      pop\n      pop\n      jump\t// out\n        /* \"#utility.yul\":2683:3040   */\n    tag_116:\n        /* \"#utility.yul\":2761:2764   */\n      0x00\n        /* \"#utility.yul\":2789:2828   */\n      tag_191\n        /* \"#utility.yul\":2822:2827   */\n      dup3\n        /* \"#utility.yul\":2789:2828   */\n      tag_110\n      jump\t// in\n    tag_191:\n        /* \"#utility.yul\":2844:2905   */\n      tag_192\n        /* \"#utility.yul\":2898:2904   */\n      dup2\n        /* \"#utility.yul\":2893:2896   */\n      dup6\n        /* \"#utility.yul\":2844:2905   */\n      tag_115\n      jump\t// in\n    tag_192:\n        /* \"#utility.yul\":2837:2905   */\n      swap4\n      pop\n        /* \"#utility.yul\":2914:2979   */\n      tag_193\n        /* \"#utility.yul\":2972:2978   */\n      dup2\n        /* \"#utility.yul\":2967:2970   */\n      dup6\n        /* \"#utility.yul\":2960:2964   */\n      0x20\n        /* \"#utility.yul\":2953:2958   */\n      dup7\n        /* \"#utility.yul\":2949:2965   */\n      add\n        /* \"#utility.yul\":2914:2979   */\n      tag_112\n      jump\t// in\n    tag_193:\n        /* \"#utility.yul\":3004:3033   */\n      tag_194\n        /* \"#utility.yul\":3026:3032   */\n      dup2\n        /* \"#utility.yul\":3004:3033   */\n      tag_113\n      jump\t// in\n    tag_194:\n        /* \"#utility.yul\":2999:3002   */\n      dup5\n        /* \"#utility.yul\":2995:3034   */\n      add\n        /* \"#utility.yul\":2988:3034   */\n      swap2\n      pop\n        /* \"#utility.yul\":2765:3040   */\n      pop\n        /* \"#utility.yul\":2683:3040   */\n      swap3\n      swap2\n      pop\n      pop\n      jump\t// out\n        /* \"#utility.yul\":3046:3136   */\n    tag_117:\n        /* \"#utility.yul\":3080:3087   */\n      0x00\n        /* \"#utility.yul\":3123:3128   */\n      dup2\n        /* \"#utility.yul\":3116:3129   */\n      iszero\n        /* \"#utility.yul\":3109:3130   */\n      iszero\n        /* \"#utility.yul\":3098:3130   */\n      swap1\n      pop\n        /* \"#utility.yul\":3046:3136   */\n      swap2\n      swap1\n      pop\n      jump\t// out\n        /* \"#utility.yul\":3142:3241   */\n    tag_118:\n        /* \"#utility.yul\":3213:3234   */\n      tag_197\n        /* \"#utility.yul\":3228:3233   */\n      dup2\n        /* \"#utility.yul\":3213:3234   */\n      tag_117\n      jump\t// in\n    tag_197:\n        /* \"#utility.yul\":3208:3211   */\n      dup3\n        /* \"#utility.yul\":3201:3235   */\n      mstore\n        /* \"#utility.yul\":3142:3241   */\n      pop\n      pop\n      jump\t// out\n        /* \"#utility.yul\":3305:5054   */\n    tag_119:\n        /* \"#utility.yul\":3414:3417   */\n      0x00\n        /* \"#utility.yul\":3450:3454   */\n      0xe0\n        /* \"#utility.yul\":3445:3448   */\n      dup4\n        /* \"#utility.yul\":3441:3455   */\n      add\n        /* \"#utility.yul\":3541:3545   */\n      0x00\n        /* \"#utility.yul\":3534:3539   */\n      dup4\n        /* \"#utility.yul\":3530:3546   */\n      add\n        /* \"#utility.yul\":3524:3547   */\n      mload\n        /* \"#utility.yul\":3594:3597   */\n      dup5\n        /* \"#utility.yul\":3588:3592   */\n      dup3\n        /* \"#utility.yul\":3584:3598   */\n      sub\n        /* \"#utility.yul\":3577:3581   */\n      0x00\n        /* \"#utility.yul\":3572:3575   */\n      dup7\n        /* \"#utility.yul\":3568:3582   */\n      add\n        /* \"#utility.yul\":3561:3599   */\n      mstore\n        /* \"#utility.yul\":3620:3693   */\n      tag_199\n        /* \"#utility.yul\":3688:3692   */\n      dup3\n        /* \"#utility.yul\":3674:3686   */\n      dup3\n        /* \"#utility.yul\":3620:3693   */\n      tag_116\n      jump\t// in\n    tag_199:\n        /* \"#utility.yul\":3612:3693   */\n      swap2\n      pop\n        /* \"#utility.yul\":3465:3704   */\n      pop\n        /* \"#utility.yul\":3788:3792   */\n      0x20\n        /* \"#utility.yul\":3781:3786   */\n      dup4\n        /* \"#utility.yul\":3777:3793   */\n      add\n        /* \"#utility.yul\":3771:3794   */\n      mload\n        /* \"#utility.yul\":3807:3864   */\n      tag_200\n        /* \"#utility.yul\":3858:3862   */\n      0x20\n        /* \"#utility.yul\":3853:3856   */\n      dup7\n        /* \"#utility.yul\":3849:3863   */\n      add\n        /* \"#utility.yul\":3835:3847   */\n      dup3\n        /* \"#utility.yul\":3807:3864   */\n      tag_118\n      jump\t// in\n    tag_200:\n        /* \"#utility.yul\":3714:3874   */\n      pop\n        /* \"#utility.yul\":3957:3961   */\n      0x40\n        /* \"#utility.yul\":3950:3955   */\n      dup4\n        /* \"#utility.yul\":3946:3962   */\n      add\n        /* \"#utility.yul\":3940:3963   */\n      mload\n        /* \"#utility.yul\":4010:4013   */\n      dup5\n        /* \"#utility.yul\":4004:4008   */\n      dup3\n        /* \"#utility.yul\":4000:4014   */\n      sub\n        /* \"#utility.yul\":3993:3997   */\n      0x40\n        /* \"#utility.yul\":3988:3991   */\n      dup7\n        /* \"#utility.yul\":3984:3998   */\n      add\n        /* \"#utility.yul\":3977:4015   */\n      mstore\n        /* \"#utility.yul\":4036:4109   */\n      tag_201\n        /* \"#utility.yul\":4104:4108   */\n      dup3\n        /* \"#utility.yul\":4090:4102   */\n      dup3\n        /* \"#utility.yul\":4036:4109   */\n      tag_116\n      jump\t// in\n    tag_201:\n        /* \"#utility.yul\":4028:4109   */\n      swap2\n      pop\n        /* \"#utility.yul\":3884:4120   */\n      pop\n        /* \"#utility.yul\":4201:4205   */\n      0x60\n        /* \"#utility.yul\":4194:4199   */\n      dup4\n        /* \"#utility.yul\":4190:4206   */\n      add\n        /* \"#utility.yul\":4184:4207   */\n      mload\n        /* \"#utility.yul\":4254:4257   */\n      dup5\n        /* \"#utility.yul\":4248:4252   */\n      dup3\n        /* \"#utility.yul\":4244:4258   */\n      sub\n        /* \"#utility.yul\":4237:4241   */\n      0x60\n        /* \"#utility.yul\":4232:4235   */\n      dup7\n        /* \"#utility.yul\":4228:4242   */\n      add\n        /* \"#utility.yul\":4221:4259   */\n      mstore\n        /* \"#utility.yul\":4280:4353   */\n      tag_202\n        /* \"#utility.yul\":4348:4352   */\n      dup3\n        /* \"#utility.yul\":4334:4346   */\n      dup3\n        /* \"#utility.yul\":4280:4353   */\n      tag_116\n      jump\t// in\n    tag_202:\n        /* \"#utility.yul\":4272:4353   */\n      swap2\n      pop\n        /* \"#utility.yul\":4130:4364   */\n      pop\n        /* \"#utility.yul\":4447:4451   */\n      0x80\n        /* \"#utility.yul\":4440:4445   */\n      dup4\n        /* \"#utility.yul\":4436:4452   */\n      add\n        /* \"#utility.yul\":4430:4453   */\n      mload\n        /* \"#utility.yul\":4500:4503   */\n      dup5\n        /* \"#utility.yul\":4494:4498   */\n      dup3\n        /* \"#utility.yul\":4490:4504   */\n      sub\n        /* \"#utility.yul\":4483:4487   */\n      0x80\n        /* \"#utility.yul\":4478:4481   */\n      dup7\n        /* \"#utility.yul\":4474:4488   */\n      add\n        /* \"#utility.yul\":4467:4505   */\n      mstore\n        /* \"#utility.yul\":4526:4599   */\n      tag_203\n        /* \"#utility.yul\":4594:4598   */\n      dup3\n        /* \"#utility.yul\":4580:4592   */\n      dup3\n        /* \"#utility.yul\":4526:4599   */\n      tag_116\n      jump\t// in\n    tag_203:\n        /* \"#utility.yul\":4518:4599   */\n      swap2\n      pop\n        /* \"#utility.yul\":4374:4610   */\n      pop\n        /* \"#utility.yul\":4696:4700   */\n      0xa0\n        /* \"#utility.yul\":4689:4694   */\n      dup4\n        /* \"#utility.yul\":4685:4701   */\n      add\n        /* \"#utility.yul\":4679:4702   */\n      mload\n        /* \"#utility.yul\":4715:4772   */\n      tag_204\n        /* \"#utility.yul\":4766:4770   */\n      0xa0\n        /* \"#utility.yul\":4761:4764   */\n      dup7\n        /* \"#utility.yul\":4757:4771   */\n      add\n        /* \"#utility.yul\":4743:4755   */\n      dup3\n        /* \"#utility.yul\":4715:4772   */\n      tag_118\n      jump\t// in\n    tag_204:\n        /* \"#utility.yul\":4620:4782   */\n      pop\n        /* \"#utility.yul\":4864:4868   */\n      0xc0\n        /* \"#utility.yul\":4857:4862   */\n      dup4\n        /* \"#utility.yul\":4853:4869   */\n      add\n        /* \"#utility.yul\":4847:4870   */\n      mload\n        /* \"#utility.yul\":4917:4920   */\n      dup5\n        /* \"#utility.yul\":4911:4915   */\n      dup3\n        /* \"#utility.yul\":4907:4921   */\n      sub\n        /* \"#utility.yul\":4900:4904   */\n      0xc0\n        /* \"#utility.yul\":4895:4898   */\n      dup7\n        /* \"#utility.yul\":4891:4905   */\n      add\n        /* \"#utility.yul\":4884:4922   */\n      mstore\n        /* \"#utility.yul\":4943:5016   */\n      tag_205\n        /* \"#utility.yul\":5011:5015   */\n      dup3\n        /* \"#utility.yul\":4997:5009   */\n      dup3\n        /* \"#utility.yul\":4943:5016   */\n      tag_116\n      jump\t// in\n    tag_205:\n        /* \"#utility.yul\":4935:5016   */\n      swap2\n      pop\n        /* \"#utility.yul\":4792:5027   */\n      pop\n        /* \"#utility.yul\":5044:5048   */\n      dup1\n        /* \"#utility.yul\":5037:5048   */\n      swap2\n      pop\n        /* \"#utility.yul\":3419:5054   */\n      pop\n        /* \"#utility.yul\":3305:5054   */\n      swap3\n      swap2\n      pop\n      pop\n      jump\t// out\n        /* \"#utility.yul\":5060:5413   */\n    tag_24:\n        /* \"#utility.yul\":5193:5197   */\n      0x00\n        /* \"#utility.yul\":5231:5233   */\n      0x20\n        /* \"#utility.yul\":5220:5229   */\n      dup3\n        /* \"#utility.yul\":5216:5234   */\n      add\n        /* \"#utility.yul\":5208:5234   */\n      swap1\n      pop\n        /* \"#utility.yul\":5280:5289   */\n      dup2\n        /* \"#utility.yul\":5274:5278   */\n      dup2\n        /* \"#utility.yul\":5270:5290   */\n      sub\n        /* \"#utility.yul\":5266:5267   */\n      0x00\n        /* \"#utility.yul\":5255:5264   */\n      dup4\n        /* \"#utility.yul\":5251:5268   */\n      add\n        /* \"#utility.yul\":5244:5291   */\n      mstore\n        /* \"#utility.yul\":5308:5406   */\n      tag_207\n        /* \"#utility.yul\":5401:5405   */\n      dup2\n        /* \"#utility.yul\":5392:5398   */\n      dup5\n        /* \"#utility.yul\":5308:5406   */\n      tag_119\n      jump\t// in\n    tag_207:\n        /* \"#utility.yul\":5300:5406   */\n      swap1\n      pop\n        /* \"#utility.yul\":5060:5413   */\n      swap3\n      swap2\n      pop\n      pop\n      jump\t// out\n        /* \"#utility.yul\":5419:5536   */\n    tag_120:\n        /* \"#utility.yul\":5528:5529   */\n      0x00\n        /* \"#utility.yul\":5525:5526   */\n      dup1\n        /* \"#utility.yul\":5518:5530   */\n      revert\n        /* \"#utility.yul\":5542:5659   */\n    tag_121:\n        /* \"#utility.yul\":5651:5652   */\n      0x00\n        /* \"#utility.yul\":5648:5649   */\n      dup1\n        /* \"#utility.yul\":5641:5653   */\n      revert\n        /* \"#utility.yul\":5665:5845   */\n    tag_122:\n        /* \"#utility.yul\":5713:5790   */\n      0x4e487b7100000000000000000000000000000000000000000000000000000000\n        /* \"#utility.yul\":5710:5711   */\n      0x00\n        /* \"#utility.yul\":5703:5791   */\n      mstore\n        /* \"#utility.yul\":5810:5814   */\n      0x41\n        /* \"#utility.yul\":5807:5808   */\n      0x04\n        /* \"#utility.yul\":5800:5815   */\n      mstore\n        /* \"#utility.yul\":5834:5838   */\n      0x24\n        /* \"#utility.yul\":5831:5832   */\n      0x00\n        /* \"#utility.yul\":5824:5839   */\n      revert\n        /* \"#utility.yul\":5851:6132   */\n    tag_123:\n        /* \"#utility.yul\":5934:5961   */\n      tag_212\n        /* \"#utility.yul\":5956:5960   */\n      dup3\n        /* \"#utility.yul\":5934:5961   */\n      tag_113\n      jump\t// in\n    tag_212:\n        /* \"#utility.yul\":5926:5932   */\n      dup2\n        /* \"#utility.yul\":5922:5962   */\n      add\n        /* \"#utility.yul\":6064:6070   */\n      dup2\n        /* \"#utility.yul\":6052:6062   */\n      dup2\n        /* \"#utility.yul\":6049:6071   */\n      lt\n        /* \"#utility.yul\":6028:6046   */\n      0xffffffffffffffff\n        /* \"#utility.yul\":6016:6026   */\n      dup3\n        /* \"#utility.yul\":6013:6047   */\n      gt\n        /* \"#utility.yul\":6010:6072   */\n      or\n        /* \"#utility.yul\":6007:6095   */\n      iszero\n      tag_213\n      jumpi\n        /* \"#utility.yul\":6075:6093   */\n      tag_214\n      tag_122\n      jump\t// in\n    tag_214:\n        /* \"#utility.yul\":6007:6095   */\n    tag_213:\n        /* \"#utility.yul\":6115:6125   */\n      dup1\n        /* \"#utility.yul\":6111:6113   */\n      0x40\n        /* \"#utility.yul\":6104:6126   */\n      mstore\n        /* \"#utility.yul\":5894:6132   */\n      pop\n        /* \"#utility.yul\":5851:6132   */\n      pop\n      pop\n      jump\t// out\n        /* \"#utility.yul\":6138:6267   */\n    tag_124:\n        /* \"#utility.yul\":6172:6178   */\n      0x00\n        /* \"#utility.yul\":6199:6219   */\n      tag_216\n      tag_103\n      jump\t// in\n    tag_216:\n        /* \"#utility.yul\":6189:6219   */\n      swap1\n      pop\n        /* \"#utility.yul\":6228:6261   */\n      tag_217\n        /* \"#utility.yul\":6256:6260   */\n      dup3\n        /* \"#utility.yul\":6248:6254   */\n      dup3\n        /* \"#utility.yul\":6228:6261   */\n      tag_123\n      jump\t// in\n    tag_217:\n        /* \"#utility.yul\":6138:6267   */\n      swap2\n      swap1\n      pop\n      jump\t// out\n        /* \"#utility.yul\":6273:6581   */\n    tag_125:\n        /* \"#utility.yul\":6335:6339   */\n      0x00\n        /* \"#utility.yul\":6425:6443   */\n      0xffffffffffffffff\n        /* \"#utility.yul\":6417:6423   */\n      dup3\n        /* \"#utility.yul\":6414:6444   */\n      gt\n        /* \"#utility.yul\":6411:6467   */\n      iszero\n      tag_219\n      jumpi\n        /* \"#utility.yul\":6447:6465   */\n      tag_220\n      tag_122\n      jump\t// in\n    tag_220:\n        /* \"#utility.yul\":6411:6467   */\n    tag_219:\n        /* \"#utility.yul\":6485:6514   */\n      tag_221\n        /* \"#utility.yul\":6507:6513   */\n      dup3\n        /* \"#utility.yul\":6485:6514   */\n      tag_113\n      jump\t// in\n    tag_221:\n        /* \"#utility.yul\":6477:6514   */\n      swap1\n      pop\n        /* \"#utility.yul\":6569:6573   */\n      0x20\n        /* \"#utility.yul\":6563:6567   */\n      dup2\n        /* \"#utility.yul\":6559:6574   */\n      add\n        /* \"#utility.yul\":6551:6574   */\n      swap1\n      pop\n        /* \"#utility.yul\":6273:6581   */\n      swap2\n      swap1\n      pop\n      jump\t// out\n        /* \"#utility.yul\":6587:6733   */\n    tag_126:\n        /* \"#utility.yul\":6684:6690   */\n      dup3\n        /* \"#utility.yul\":6679:6682   */\n      dup2\n        /* \"#utility.yul\":6674:6677   */\n      dup4\n        /* \"#utility.yul\":6661:6691   */\n      calldatacopy\n        /* \"#utility.yul\":6725:6726   */\n      0x00\n        /* \"#utility.yul\":6716:6722   */\n      dup4\n        /* \"#utility.yul\":6711:6714   */\n      dup4\n        /* \"#utility.yul\":6707:6723   */\n      add\n        /* \"#utility.yul\":6700:6727   */\n      mstore\n        /* \"#utility.yul\":6587:6733   */\n      pop\n      pop\n      pop\n      jump\t// out\n        /* \"#utility.yul\":6739:7164   */\n    tag_127:\n        /* \"#utility.yul\":6817:6822   */\n      0x00\n        /* \"#utility.yul\":6842:6908   */\n      tag_224\n        /* \"#utility.yul\":6858:6907   */\n      tag_225\n        /* \"#utility.yul\":6900:6906   */\n      dup5\n        /* \"#utility.yul\":6858:6907   */\n      tag_125\n      jump\t// in\n    tag_225:\n        /* \"#utility.yul\":6842:6908   */\n      tag_124\n      jump\t// in\n    tag_224:\n        /* \"#utility.yul\":6833:6908   */\n      swap1\n      pop\n        /* \"#utility.yul\":6931:6937   */\n      dup3\n        /* \"#utility.yul\":6924:6929   */\n      dup2\n        /* \"#utility.yul\":6917:6938   */\n      mstore\n        /* \"#utility.yul\":6969:6973   */\n      0x20\n        /* \"#utility.yul\":6962:6967   */\n      dup2\n        /* \"#utility.yul\":6958:6974   */\n      add\n        /* \"#utility.yul\":7007:7010   */\n      dup5\n        /* \"#utility.yul\":6998:7004   */\n      dup5\n        /* \"#utility.yul\":6993:6996   */\n      dup5\n        /* \"#utility.yul\":6989:7005   */\n      add\n        /* \"#utility.yul\":6986:7011   */\n      gt\n        /* \"#utility.yul\":6983:7095   */\n      iszero\n      tag_226\n      jumpi\n        /* \"#utility.yul\":7014:7093   */\n      tag_227\n      tag_121\n      jump\t// in\n    tag_227:\n        /* \"#utility.yul\":6983:7095   */\n    tag_226:\n        /* \"#utility.yul\":7104:7158   */\n      tag_228\n        /* \"#utility.yul\":7151:7157   */\n      dup5\n        /* \"#utility.yul\":7146:7149   */\n      dup3\n        /* \"#utility.yul\":7141:7144   */\n      dup6\n        /* \"#utility.yul\":7104:7158   */\n      tag_126\n      jump\t// in\n    tag_228:\n        /* \"#utility.yul\":6823:7164   */\n      pop\n        /* \"#utility.yul\":6739:7164   */\n      swap4\n      swap3\n      pop\n      pop\n      pop\n      jump\t// out\n        /* \"#utility.yul\":7184:7524   */\n    tag_128:\n        /* \"#utility.yul\":7240:7245   */\n      0x00\n        /* \"#utility.yul\":7289:7292   */\n      dup3\n        /* \"#utility.yul\":7282:7286   */\n      0x1f\n        /* \"#utility.yul\":7274:7280   */\n      dup4\n        /* \"#utility.yul\":7270:7287   */\n      add\n        /* \"#utility.yul\":7266:7293   */\n      slt\n        /* \"#utility.yul\":7256:7378   */\n      tag_230\n      jumpi\n        /* \"#utility.yul\":7297:7376   */\n      tag_231\n      tag_120\n      jump\t// in\n    tag_231:\n        /* \"#utility.yul\":7256:7378   */\n    tag_230:\n        /* \"#utility.yul\":7414:7420   */\n      dup2\n        /* \"#utility.yul\":7401:7421   */\n      calldataload\n        /* \"#utility.yul\":7439:7518   */\n      tag_232\n        /* \"#utility.yul\":7514:7517   */\n      dup5\n        /* \"#utility.yul\":7506:7512   */\n      dup3\n        /* \"#utility.yul\":7499:7503   */\n      0x20\n        /* \"#utility.yul\":7491:7497   */\n      dup7\n        /* \"#utility.yul\":7487:7504   */\n      add\n        /* \"#utility.yul\":7439:7518   */\n      tag_127\n      jump\t// in\n    tag_232:\n        /* \"#utility.yul\":7430:7518   */\n      swap2\n      pop\n        /* \"#utility.yul\":7246:7524   */\n      pop\n        /* \"#utility.yul\":7184:7524   */\n      swap3\n      swap2\n      pop\n      pop\n      jump\t// out\n        /* \"#utility.yul\":7530:7646   */\n    tag_129:\n        /* \"#utility.yul\":7600:7621   */\n      tag_234\n        /* \"#utility.yul\":7615:7620   */\n      dup2\n        /* \"#utility.yul\":7600:7621   */\n      tag_117\n      jump\t// in\n    tag_234:\n        /* \"#utility.yul\":7593:7598   */\n      dup2\n        /* \"#utility.yul\":7590:7622   */\n      eq\n        /* \"#utility.yul\":7580:7640   */\n      tag_235\n      jumpi\n        /* \"#utility.yul\":7636:7637   */\n      0x00\n        /* \"#utility.yul\":7633:7634   */\n      dup1\n        /* \"#utility.yul\":7626:7638   */\n      revert\n        /* \"#utility.yul\":7580:7640   */\n    tag_235:\n        /* \"#utility.yul\":7530:7646   */\n      pop\n      jump\t// out\n        /* \"#utility.yul\":7652:7785   */\n    tag_130:\n        /* \"#utility.yul\":7695:7700   */\n      0x00\n        /* \"#utility.yul\":7733:7739   */\n      dup2\n        /* \"#utility.yul\":7720:7740   */\n      calldataload\n        /* \"#utility.yul\":7711:7740   */\n      swap1\n      pop\n        /* \"#utility.yul\":7749:7779   */\n      tag_237\n        /* \"#utility.yul\":7773:7778   */\n      dup2\n        /* \"#utility.yul\":7749:7779   */\n      tag_129\n      jump\t// in\n    tag_237:\n        /* \"#utility.yul\":7652:7785   */\n      swap3\n      swap2\n      pop\n      pop\n      jump\t// out\n        /* \"#utility.yul\":7791:10028   */\n    tag_27:\n        /* \"#utility.yul\":7957:7963   */\n      0x00\n        /* \"#utility.yul\":7965:7971   */\n      dup1\n        /* \"#utility.yul\":7973:7979   */\n      0x00\n        /* \"#utility.yul\":7981:7987   */\n      dup1\n        /* \"#utility.yul\":7989:7995   */\n      0x00\n        /* \"#utility.yul\":7997:8003   */\n      dup1\n        /* \"#utility.yul\":8005:8011   */\n      0x00\n        /* \"#utility.yul\":8013:8019   */\n      dup1\n        /* \"#utility.yul\":8062:8065   */\n      0x0100\n        /* \"#utility.yul\":8050:8059   */\n      dup10\n        /* \"#utility.yul\":8041:8048   */\n      dup12\n        /* \"#utility.yul\":8037:8060   */\n      sub\n        /* \"#utility.yul\":8033:8066   */\n      slt\n        /* \"#utility.yul\":8030:8150   */\n      iszero\n      tag_239\n      jumpi\n        /* \"#utility.yul\":8069:8148   */\n      tag_240\n      tag_104\n      jump\t// in\n    tag_240:\n        /* \"#utility.yul\":8030:8150   */\n    tag_239:\n        /* \"#utility.yul\":8189:8190   */\n      0x00\n        /* \"#utility.yul\":8214:8267   */\n      tag_241\n        /* \"#utility.yul\":8259:8266   */\n      dup12\n        /* \"#utility.yul\":8250:8256   */\n      dup3\n        /* \"#utility.yul\":8239:8248   */\n      dup13\n        /* \"#utility.yul\":8235:8257   */\n      add\n        /* \"#utility.yul\":8214:8267   */\n      tag_109\n      jump\t// in\n    tag_241:\n        /* \"#utility.yul\":8204:8267   */\n      swap9\n      pop\n        /* \"#utility.yul\":8160:8277   */\n      pop\n        /* \"#utility.yul\":8344:8346   */\n      0x20\n        /* \"#utility.yul\":8333:8342   */\n      dup10\n        /* \"#utility.yul\":8329:8347   */\n      add\n        /* \"#utility.yul\":8316:8348   */\n      calldataload\n        /* \"#utility.yul\":8375:8393   */\n      0xffffffffffffffff\n        /* \"#utility.yul\":8367:8373   */\n      dup2\n        /* \"#utility.yul\":8364:8394   */\n      gt\n        /* \"#utility.yul\":8361:8478   */\n      iszero\n      tag_242\n      jumpi\n        /* \"#utility.yul\":8397:8476   */\n      tag_243\n      tag_105\n      jump\t// in\n    tag_243:\n        /* \"#utility.yul\":8361:8478   */\n    tag_242:\n        /* \"#utility.yul\":8502:8565   */\n      tag_244\n        /* \"#utility.yul\":8557:8564   */\n      dup12\n        /* \"#utility.yul\":8548:8554   */\n      dup3\n        /* \"#utility.yul\":8537:8546   */\n      dup13\n        /* \"#utility.yul\":8533:8555   */\n      add\n        /* \"#utility.yul\":8502:8565   */\n      tag_128\n      jump\t// in\n    tag_244:\n        /* \"#utility.yul\":8492:8565   */\n      swap8\n      pop\n        /* \"#utility.yul\":8287:8575   */\n      pop\n        /* \"#utility.yul\":8614:8616   */\n      0x40\n        /* \"#utility.yul\":8640:8690   */\n      tag_245\n        /* \"#utility.yul\":8682:8689   */\n      dup12\n        /* \"#utility.yul\":8673:8679   */\n      dup3\n        /* \"#utility.yul\":8662:8671   */\n      dup13\n        /* \"#utility.yul\":8658:8680   */\n      add\n        /* \"#utility.yul\":8640:8690   */\n      tag_130\n      jump\t// in\n    tag_245:\n        /* \"#utility.yul\":8630:8690   */\n      swap7\n      pop\n        /* \"#utility.yul\":8585:8700   */\n      pop\n        /* \"#utility.yul\":8767:8769   */\n      0x60\n        /* \"#utility.yul\":8756:8765   */\n      dup10\n        /* \"#utility.yul\":8752:8770   */\n      add\n        /* \"#utility.yul\":8739:8771   */\n      calldataload\n        /* \"#utility.yul\":8798:8816   */\n      0xffffffffffffffff\n        /* \"#utility.yul\":8790:8796   */\n      dup2\n        /* \"#utility.yul\":8787:8817   */\n      gt\n        /* \"#utility.yul\":8784:8901   */\n      iszero\n      tag_246\n      jumpi\n        /* \"#utility.yul\":8820:8899   */\n      tag_247\n      tag_105\n      jump\t// in\n    tag_247:\n        /* \"#utility.yul\":8784:8901   */\n    tag_246:\n        /* \"#utility.yul\":8925:8988   */\n      tag_248\n        /* \"#utility.yul\":8980:8987   */\n      dup12\n        /* \"#utility.yul\":8971:8977   */\n      dup3\n        /* \"#utility.yul\":8960:8969   */\n      dup13\n        /* \"#utility.yul\":8956:8978   */\n      add\n        /* \"#utility.yul\":8925:8988   */\n      tag_128\n      jump\t// in\n    tag_248:\n        /* \"#utility.yul\":8915:8988   */\n      swap6\n      pop\n        /* \"#utility.yul\":8710:8998   */\n      pop\n        /* \"#utility.yul\":9065:9068   */\n      0x80\n        /* \"#utility.yul\":9054:9063   */\n      dup10\n        /* \"#utility.yul\":9050:9069   */\n      add\n        /* \"#utility.yul\":9037:9070   */\n      calldataload\n        /* \"#utility.yul\":9097:9115   */\n      0xffffffffffffffff\n        /* \"#utility.yul\":9089:9095   */\n      dup2\n        /* \"#utility.yul\":9086:9116   */\n      gt\n        /* \"#utility.yul\":9083:9200   */\n      iszero\n      tag_249\n      jumpi\n        /* \"#utility.yul\":9119:9198   */\n      tag_250\n      tag_105\n      jump\t// in\n    tag_250:\n        /* \"#utility.yul\":9083:9200   */\n    tag_249:\n        /* \"#utility.yul\":9224:9287   */\n      tag_251\n        /* \"#utility.yul\":9279:9286   */\n      dup12\n        /* \"#utility.yul\":9270:9276   */\n      dup3\n        /* \"#utility.yul\":9259:9268   */\n      dup13\n        /* \"#utility.yul\":9255:9277   */\n      add\n        /* \"#utility.yul\":9224:9287   */\n      tag_128\n      jump\t// in\n    tag_251:\n        /* \"#utility.yul\":9214:9287   */\n      swap5\n      pop\n        /* \"#utility.yul\":9008:9297   */\n      pop\n        /* \"#utility.yul\":9364:9367   */\n      0xa0\n        /* \"#utility.yul\":9353:9362   */\n      dup10\n        /* \"#utility.yul\":9349:9368   */\n      add\n        /* \"#utility.yul\":9336:9369   */\n      calldataload\n        /* \"#utility.yul\":9396:9414   */\n      0xffffffffffffffff\n        /* \"#utility.yul\":9388:9394   */\n      dup2\n        /* \"#utility.yul\":9385:9415   */\n      gt\n        /* \"#utility.yul\":9382:9499   */\n      iszero\n      tag_252\n      jumpi\n        /* \"#utility.yul\":9418:9497   */\n      tag_253\n      tag_105\n      jump\t// in\n    tag_253:\n        /* \"#utility.yul\":9382:9499   */\n    tag_252:\n        /* \"#utility.yul\":9523:9586   */\n      tag_254\n        /* \"#utility.yul\":9578:9585   */\n      dup12\n        /* \"#utility.yul\":9569:9575   */\n      dup3\n        /* \"#utility.yul\":9558:9567   */\n      dup13\n        /* \"#utility.yul\":9554:9576   */\n      add\n        /* \"#utility.yul\":9523:9586   */\n      tag_128\n      jump\t// in\n    tag_254:\n        /* \"#utility.yul\":9513:9586   */\n      swap4\n      pop\n        /* \"#utility.yul\":9307:9596   */\n      pop\n        /* \"#utility.yul\":9663:9666   */\n      0xc0\n        /* \"#utility.yul\":9652:9661   */\n      dup10\n        /* \"#utility.yul\":9648:9667   */\n      add\n        /* \"#utility.yul\":9635:9668   */\n      calldataload\n        /* \"#utility.yul\":9695:9713   */\n      0xffffffffffffffff\n        /* \"#utility.yul\":9687:9693   */\n      dup2\n        /* \"#utility.yul\":9684:9714   */\n      gt\n        /* \"#utility.yul\":9681:9798   */\n      iszero\n      tag_255\n      jumpi\n        /* \"#utility.yul\":9717:9796   */\n      tag_256\n      tag_105\n      jump\t// in\n    tag_256:\n        /* \"#utility.yul\":9681:9798   */\n    tag_255:\n        /* \"#utility.yul\":9822:9885   */\n      tag_257\n        /* \"#utility.yul\":9877:9884   */\n      dup12\n        /* \"#utility.yul\":9868:9874   */\n      dup3\n        /* \"#utility.yul\":9857:9866   */\n      dup13\n        /* \"#utility.yul\":9853:9875   */\n      add\n        /* \"#utility.yul\":9822:9885   */\n      tag_128\n      jump\t// in\n    tag_257:\n        /* \"#utility.yul\":9812:9885   */\n      swap3\n      pop\n        /* \"#utility.yul\":9606:9895   */\n      pop\n        /* \"#utility.yul\":9934:9937   */\n      0xe0\n        /* \"#utility.yul\":9961:10011   */\n      tag_258\n        /* \"#utility.yul\":10003:10010   */\n      dup12\n        /* \"#utility.yul\":9994:10000   */\n      dup3\n        /* \"#utility.yul\":9983:9992   */\n      dup13\n        /* \"#utility.yul\":9979:10001   */\n      add\n        /* \"#utility.yul\":9961:10011   */\n      tag_130\n      jump\t// in\n    tag_258:\n        /* \"#utility.yul\":9951:10011   */\n      swap2\n      pop\n        /* \"#utility.yul\":9905:10021   */\n      pop\n        /* \"#utility.yul\":7791:10028   */\n      swap3\n      swap6\n      swap9\n      pop\n      swap3\n      swap6\n      swap9\n      swap1\n      swap4\n      swap7\n      pop\n      jump\t// out\n        /* \"#utility.yul\":10034:11985   */\n    tag_31:\n        /* \"#utility.yul\":10185:10191   */\n      0x00\n        /* \"#utility.yul\":10193:10199   */\n      dup1\n        /* \"#utility.yul\":10201:10207   */\n      0x00\n        /* \"#utility.yul\":10209:10215   */\n      dup1\n        /* \"#utility.yul\":10217:10223   */\n      0x00\n        /* \"#utility.yul\":10225:10231   */\n      dup1\n        /* \"#utility.yul\":10274:10277   */\n      0xc0\n        /* \"#utility.yul\":10262:10271   */\n      dup8\n        /* \"#utility.yul\":10253:10260   */\n      dup10\n        /* \"#utility.yul\":10249:10272   */\n      sub\n        /* \"#utility.yul\":10245:10278   */\n      slt\n        /* \"#utility.yul\":10242:10362   */\n      iszero\n      tag_260\n      jumpi\n        /* \"#utility.yul\":10281:10360   */\n      tag_261\n      tag_104\n      jump\t// in\n    tag_261:\n        /* \"#utility.yul\":10242:10362   */\n    tag_260:\n        /* \"#utility.yul\":10429:10430   */\n      0x00\n        /* \"#utility.yul\":10418:10427   */\n      dup8\n        /* \"#utility.yul\":10414:10431   */\n      add\n        /* \"#utility.yul\":10401:10432   */\n      calldataload\n        /* \"#utility.yul\":10459:10477   */\n      0xffffffffffffffff\n        /* \"#utility.yul\":10451:10457   */\n      dup2\n        /* \"#utility.yul\":10448:10478   */\n      gt\n        /* \"#utility.yul\":10445:10562   */\n      iszero\n      tag_262\n      jumpi\n        /* \"#utility.yul\":10481:10560   */\n      tag_263\n      tag_105\n      jump\t// in\n    tag_263:\n        /* \"#utility.yul\":10445:10562   */\n    tag_262:\n        /* \"#utility.yul\":10586:10649   */\n      tag_264\n        /* \"#utility.yul\":10641:10648   */\n      dup10\n        /* \"#utility.yul\":10632:10638   */\n      dup3\n        /* \"#utility.yul\":10621:10630   */\n      dup11\n        /* \"#utility.yul\":10617:10639   */\n      add\n        /* \"#utility.yul\":10586:10649   */\n      tag_128\n      jump\t// in\n    tag_264:\n        /* \"#utility.yul\":10576:10649   */\n      swap7\n      pop\n        /* \"#utility.yul\":10372:10659   */\n      pop\n        /* \"#utility.yul\":10698:10700   */\n      0x20\n        /* \"#utility.yul\":10724:10774   */\n      tag_265\n        /* \"#utility.yul\":10766:10773   */\n      dup10\n        /* \"#utility.yul\":10757:10763   */\n      dup3\n        /* \"#utility.yul\":10746:10755   */\n      dup11\n        /* \"#utility.yul\":10742:10764   */\n      add\n        /* \"#utility.yul\":10724:10774   */\n      tag_130\n      jump\t// in\n    tag_265:\n        /* \"#utility.yul\":10714:10774   */\n      swap6\n      pop\n        /* \"#utility.yul\":10669:10784   */\n      pop\n        /* \"#utility.yul\":10851:10853   */\n      0x40\n        /* \"#utility.yul\":10840:10849   */\n      dup8\n        /* \"#utility.yul\":10836:10854   */\n      add\n        /* \"#utility.yul\":10823:10855   */\n      calldataload\n        /* \"#utility.yul\":10882:10900   */\n      0xffffffffffffffff\n        /* \"#utility.yul\":10874:10880   */\n      dup2\n        /* \"#utility.yul\":10871:10901   */\n      gt\n        /* \"#utility.yul\":10868:10985   */\n      iszero\n      tag_266\n      jumpi\n        /* \"#utility.yul\":10904:10983   */\n      tag_267\n      tag_105\n      jump\t// in\n    tag_267:\n        /* \"#utility.yul\":10868:10985   */\n    tag_266:\n        /* \"#utility.yul\":11009:11072   */\n      tag_268\n        /* \"#utility.yul\":11064:11071   */\n      dup10\n        /* \"#utility.yul\":11055:11061   */\n      dup3\n        /* \"#utility.yul\":11044:11053   */\n      dup11\n        /* \"#utility.yul\":11040:11062   */\n      add\n        /* \"#utility.yul\":11009:11072   */\n      tag_128\n      jump\t// in\n    tag_268:\n        /* \"#utility.yul\":10999:11072   */\n      swap5\n      pop\n        /* \"#utility.yul\":10794:11082   */\n      pop\n        /* \"#utility.yul\":11149:11151   */\n      0x60\n        /* \"#utility.yul\":11138:11147   */\n      dup8\n        /* \"#utility.yul\":11134:11152   */\n      add\n        /* \"#utility.yul\":11121:11153   */\n      calldataload\n        /* \"#utility.yul\":11180:11198   */\n      0xffffffffffffffff\n        /* \"#utility.yul\":11172:11178   */\n      dup2\n        /* \"#utility.yul\":11169:11199   */\n      gt\n        /* \"#utility.yul\":11166:11283   */\n      iszero\n      tag_269\n      jumpi\n        /* \"#utility.yul\":11202:11281   */\n      tag_270\n      tag_105\n      jump\t// in\n    tag_270:\n        /* \"#utility.yul\":11166:11283   */\n    tag_269:\n        /* \"#utility.yul\":11307:11370   */\n      tag_271\n        /* \"#utility.yul\":11362:11369   */\n      dup10\n        /* \"#utility.yul\":11353:11359   */\n      dup3\n        /* \"#utility.yul\":11342:11351   */\n      dup11\n        /* \"#utility.yul\":11338:11360   */\n      add\n        /* \"#utility.yul\":11307:11370   */\n      tag_128\n      jump\t// in\n    tag_271:\n        /* \"#utility.yul\":11297:11370   */\n      swap4\n      pop\n        /* \"#utility.yul\":11092:11380   */\n      pop\n        /* \"#utility.yul\":11447:11450   */\n      0x80\n        /* \"#utility.yul\":11436:11445   */\n      dup8\n        /* \"#utility.yul\":11432:11451   */\n      add\n        /* \"#utility.yul\":11419:11452   */\n      calldataload\n        /* \"#utility.yul\":11479:11497   */\n      0xffffffffffffffff\n        /* \"#utility.yul\":11471:11477   */\n      dup2\n        /* \"#utility.yul\":11468:11498   */\n      gt\n        /* \"#utility.yul\":11465:11582   */\n      iszero\n      tag_272\n      jumpi\n        /* \"#utility.yul\":11501:11580   */\n      tag_273\n      tag_105\n      jump\t// in\n    tag_273:\n        /* \"#utility.yul\":11465:11582   */\n    tag_272:\n        /* \"#utility.yul\":11606:11669   */\n      tag_274\n        /* \"#utility.yul\":11661:11668   */\n      dup10\n        /* \"#utility.yul\":11652:11658   */\n      dup3\n        /* \"#utility.yul\":11641:11650   */\n      dup11\n        /* \"#utility.yul\":11637:11659   */\n      add\n        /* \"#utility.yul\":11606:11669   */\n      tag_128\n      jump\t// in\n    tag_274:\n        /* \"#utility.yul\":11596:11669   */\n      swap3\n      pop\n        /* \"#utility.yul\":11390:11679   */\n      pop\n        /* \"#utility.yul\":11746:11749   */\n      0xa0\n        /* \"#utility.yul\":11735:11744   */\n      dup8\n        /* \"#utility.yul\":11731:11750   */\n      add\n        /* \"#utility.yul\":11718:11751   */\n      calldataload\n        /* \"#utility.yul\":11778:11796   */\n      0xffffffffffffffff\n        /* \"#utility.yul\":11770:11776   */\n      dup2\n        /* \"#utility.yul\":11767:11797   */\n      gt\n        /* \"#utility.yul\":11764:11881   */\n      iszero\n      tag_275\n      jumpi\n        /* \"#utility.yul\":11800:11879   */\n      tag_276\n      tag_105\n      jump\t// in\n    tag_276:\n        /* \"#utility.yul\":11764:11881   */\n    tag_275:\n        /* \"#utility.yul\":11905:11968   */\n      tag_277\n        /* \"#utility.yul\":11960:11967   */\n      dup10\n        /* \"#utility.yul\":11951:11957   */\n      dup3\n        /* \"#utility.yul\":11940:11949   */\n      dup11\n        /* \"#utility.yul\":11936:11958   */\n      add\n        /* \"#utility.yul\":11905:11968   */\n      tag_128\n      jump\t// in\n    tag_277:\n        /* \"#utility.yul\":11895:11968   */\n      swap2\n      pop\n        /* \"#utility.yul\":11689:11978   */\n      pop\n        /* \"#utility.yul\":10034:11985   */\n      swap3\n      swap6\n      pop\n      swap3\n      swap6\n      pop\n      swap3\n      swap6\n      jump\t// out\n        /* \"#utility.yul\":11991:12105   */\n    tag_131:\n        /* \"#utility.yul\":12058:12064   */\n      0x00\n        /* \"#utility.yul\":12092:12097   */\n      dup2\n        /* \"#utility.yul\":12086:12098   */\n      mload\n        /* \"#utility.yul\":12076:12098   */\n      swap1\n      pop\n        /* \"#utility.yul\":11991:12105   */\n      swap2\n      swap1\n      pop\n      jump\t// out\n        /* \"#utility.yul\":12111:12295   */\n    tag_132:\n        /* \"#utility.yul\":12210:12221   */\n      0x00\n        /* \"#utility.yul\":12244:12250   */\n      dup3\n        /* \"#utility.yul\":12239:12242   */\n      dup3\n        /* \"#utility.yul\":12232:12251   */\n      mstore\n        /* \"#utility.yul\":12284:12288   */\n      0x20\n        /* \"#utility.yul\":12279:12282   */\n      dup3\n        /* \"#utility.yul\":12275:12289   */\n      add\n        /* \"#utility.yul\":12260:12289   */\n      swap1\n      pop\n        /* \"#utility.yul\":12111:12295   */\n      swap3\n      swap2\n      pop\n      pop\n      jump\t// out\n        /* \"#utility.yul\":12301:12433   */\n    tag_133:\n        /* \"#utility.yul\":12368:12372   */\n      0x00\n        /* \"#utility.yul\":12391:12394   */\n      dup2\n        /* \"#utility.yul\":12383:12394   */\n      swap1\n      pop\n        /* \"#utility.yul\":12421:12425   */\n      0x20\n        /* \"#utility.yul\":12416:12419   */\n      dup3\n        /* \"#utility.yul\":12412:12426   */\n      add\n        /* \"#utility.yul\":12404:12426   */\n      swap1\n      pop\n        /* \"#utility.yul\":12301:12433   */\n      swap2\n      swap1\n      pop\n      jump\t// out\n        /* \"#utility.yul\":12439:12547   */\n    tag_134:\n        /* \"#utility.yul\":12516:12540   */\n      tag_282\n        /* \"#utility.yul\":12534:12539   */\n      dup2\n        /* \"#utility.yul\":12516:12540   */\n      tag_107\n      jump\t// in\n    tag_282:\n        /* \"#utility.yul\":12511:12514   */\n      dup3\n        /* \"#utility.yul\":12504:12541   */\n      mstore\n        /* \"#utility.yul\":12439:12547   */\n      pop\n      pop\n      jump\t// out\n        /* \"#utility.yul\":12553:12732   */\n    tag_135:\n        /* \"#utility.yul\":12622:12632   */\n      0x00\n        /* \"#utility.yul\":12643:12689   */\n      tag_284\n        /* \"#utility.yul\":12685:12688   */\n      dup4\n        /* \"#utility.yul\":12677:12683   */\n      dup4\n        /* \"#utility.yul\":12643:12689   */\n      tag_134\n      jump\t// in\n    tag_284:\n        /* \"#utility.yul\":12721:12725   */\n      0x20\n        /* \"#utility.yul\":12716:12719   */\n      dup4\n        /* \"#utility.yul\":12712:12726   */\n      add\n        /* \"#utility.yul\":12698:12726   */\n      swap1\n      pop\n        /* \"#utility.yul\":12553:12732   */\n      swap3\n      swap2\n      pop\n      pop\n      jump\t// out\n        /* \"#utility.yul\":12738:12851   */\n    tag_136:\n        /* \"#utility.yul\":12808:12812   */\n      0x00\n        /* \"#utility.yul\":12840:12844   */\n      0x20\n        /* \"#utility.yul\":12835:12838   */\n      dup3\n        /* \"#utility.yul\":12831:12845   */\n      add\n        /* \"#utility.yul\":12823:12845   */\n      swap1\n      pop\n        /* \"#utility.yul\":12738:12851   */\n      swap2\n      swap1\n      pop\n      jump\t// out\n        /* \"#utility.yul\":12887:13619   */\n    tag_137:\n        /* \"#utility.yul\":13006:13009   */\n      0x00\n        /* \"#utility.yul\":13035:13089   */\n      tag_287\n        /* \"#utility.yul\":13083:13088   */\n      dup3\n        /* \"#utility.yul\":13035:13089   */\n      tag_131\n      jump\t// in\n    tag_287:\n        /* \"#utility.yul\":13105:13191   */\n      tag_288\n        /* \"#utility.yul\":13184:13190   */\n      dup2\n        /* \"#utility.yul\":13179:13182   */\n      dup6\n        /* \"#utility.yul\":13105:13191   */\n      tag_132\n      jump\t// in\n    tag_288:\n        /* \"#utility.yul\":13098:13191   */\n      swap4\n      pop\n        /* \"#utility.yul\":13215:13271   */\n      tag_289\n        /* \"#utility.yul\":13265:13270   */\n      dup4\n        /* \"#utility.yul\":13215:13271   */\n      tag_133\n      jump\t// in\n    tag_289:\n        /* \"#utility.yul\":13294:13301   */\n      dup1\n        /* \"#utility.yul\":13325:13326   */\n      0x00\n        /* \"#utility.yul\":13310:13594   */\n    tag_290:\n        /* \"#utility.yul\":13335:13341   */\n      dup4\n        /* \"#utility.yul\":13332:13333   */\n      dup2\n        /* \"#utility.yul\":13329:13342   */\n      lt\n        /* \"#utility.yul\":13310:13594   */\n      iszero\n      tag_292\n      jumpi\n        /* \"#utility.yul\":13411:13417   */\n      dup2\n        /* \"#utility.yul\":13405:13418   */\n      mload\n        /* \"#utility.yul\":13438:13501   */\n      tag_293\n        /* \"#utility.yul\":13497:13500   */\n      dup9\n        /* \"#utility.yul\":13482:13495   */\n      dup3\n        /* \"#utility.yul\":13438:13501   */\n      tag_135\n      jump\t// in\n    tag_293:\n        /* \"#utility.yul\":13431:13501   */\n      swap8\n      pop\n        /* \"#utility.yul\":13524:13584   */\n      tag_294\n        /* \"#utility.yul\":13577:13583   */\n      dup4\n        /* \"#utility.yul\":13524:13584   */\n      tag_136\n      jump\t// in\n    tag_294:\n        /* \"#utility.yul\":13514:13584   */\n      swap3\n      pop\n        /* \"#utility.yul\":13370:13594   */\n      pop\n        /* \"#utility.yul\":13357:13358   */\n      0x01\n        /* \"#utility.yul\":13354:13355   */\n      dup2\n        /* \"#utility.yul\":13350:13359   */\n      add\n        /* \"#utility.yul\":13345:13359   */\n      swap1\n      pop\n        /* \"#utility.yul\":13310:13594   */\n      jump(tag_290)\n    tag_292:\n        /* \"#utility.yul\":13314:13328   */\n      pop\n        /* \"#utility.yul\":13610:13613   */\n      dup6\n        /* \"#utility.yul\":13603:13613   */\n      swap4\n      pop\n        /* \"#utility.yul\":13011:13619   */\n      pop\n      pop\n      pop\n        /* \"#utility.yul\":12887:13619   */\n      swap3\n      swap2\n      pop\n      pop\n      jump\t// out\n        /* \"#utility.yul\":13625:13998   */\n    tag_36:\n        /* \"#utility.yul\":13768:13772   */\n      0x00\n        /* \"#utility.yul\":13806:13808   */\n      0x20\n        /* \"#utility.yul\":13795:13804   */\n      dup3\n        /* \"#utility.yul\":13791:13809   */\n      add\n        /* \"#utility.yul\":13783:13809   */\n      swap1\n      pop\n        /* \"#utility.yul\":13855:13864   */\n      dup2\n        /* \"#utility.yul\":13849:13853   */\n      dup2\n        /* \"#utility.yul\":13845:13865   */\n      sub\n        /* \"#utility.yul\":13841:13842   */\n      0x00\n        /* \"#utility.yul\":13830:13839   */\n      dup4\n        /* \"#utility.yul\":13826:13843   */\n      add\n        /* \"#utility.yul\":13819:13866   */\n      mstore\n        /* \"#utility.yul\":13883:13991   */\n      tag_296\n        /* \"#utility.yul\":13986:13990   */\n      dup2\n        /* \"#utility.yul\":13977:13983   */\n      dup5\n        /* \"#utility.yul\":13883:13991   */\n      tag_137\n      jump\t// in\n    tag_296:\n        /* \"#utility.yul\":13875:13991   */\n      swap1\n      pop\n        /* \"#utility.yul\":13625:13998   */\n      swap3\n      swap2\n      pop\n      pop\n      jump\t// out\n        /* \"#utility.yul\":14004:14658   */\n    tag_39:\n        /* \"#utility.yul\":14082:14088   */\n      0x00\n        /* \"#utility.yul\":14090:14096   */\n      dup1\n        /* \"#utility.yul\":14139:14141   */\n      0x40\n        /* \"#utility.yul\":14127:14136   */\n      dup4\n        /* \"#utility.yul\":14118:14125   */\n      dup6\n        /* \"#utility.yul\":14114:14137   */\n      sub\n        /* \"#utility.yul\":14110:14142   */\n      slt\n        /* \"#utility.yul\":14107:14226   */\n      iszero\n      tag_298\n      jumpi\n        /* \"#utility.yul\":14145:14224   */\n      tag_299\n      tag_104\n      jump\t// in\n    tag_299:\n        /* \"#utility.yul\":14107:14226   */\n    tag_298:\n        /* \"#utility.yul\":14265:14266   */\n      0x00\n        /* \"#utility.yul\":14290:14343   */\n      tag_300\n        /* \"#utility.yul\":14335:14342   */\n      dup6\n        /* \"#utility.yul\":14326:14332   */\n      dup3\n        /* \"#utility.yul\":14315:14324   */\n      dup7\n        /* \"#utility.yul\":14311:14333   */\n      add\n        /* \"#utility.yul\":14290:14343   */\n      tag_109\n      jump\t// in\n    tag_300:\n        /* \"#utility.yul\":14280:14343   */\n      swap3\n      pop\n        /* \"#utility.yul\":14236:14353   */\n      pop\n        /* \"#utility.yul\":14420:14422   */\n      0x20\n        /* \"#utility.yul\":14409:14418   */\n      dup4\n        /* \"#utility.yul\":14405:14423   */\n      add\n        /* \"#utility.yul\":14392:14424   */\n      calldataload\n        /* \"#utility.yul\":14451:14469   */\n      0xffffffffffffffff\n        /* \"#utility.yul\":14443:14449   */\n      dup2\n        /* \"#utility.yul\":14440:14470   */\n      gt\n        /* \"#utility.yul\":14437:14554   */\n      iszero\n      tag_301\n      jumpi\n        /* \"#utility.yul\":14473:14552   */\n      tag_302\n      tag_105\n      jump\t// in\n    tag_302:\n        /* \"#utility.yul\":14437:14554   */\n    tag_301:\n        /* \"#utility.yul\":14578:14641   */\n      tag_303\n        /* \"#utility.yul\":14633:14640   */\n      dup6\n        /* \"#utility.yul\":14624:14630   */\n      dup3\n        /* \"#utility.yul\":14613:14622   */\n      dup7\n        /* \"#utility.yul\":14609:14631   */\n      add\n        /* \"#utility.yul\":14578:14641   */\n      tag_128\n      jump\t// in\n    tag_303:\n        /* \"#utility.yul\":14568:14641   */\n      swap2\n      pop\n        /* \"#utility.yul\":14363:14651   */\n      pop\n        /* \"#utility.yul\":14004:14658   */\n      swap3\n      pop\n      swap3\n      swap1\n      pop\n      jump\t// out\n        /* \"#utility.yul\":14664:14844   */\n    tag_138:\n        /* \"#utility.yul\":14712:14789   */\n      0x4e487b7100000000000000000000000000000000000000000000000000000000\n        /* \"#utility.yul\":14709:14710   */\n      0x00\n        /* \"#utility.yul\":14702:14790   */\n      mstore\n        /* \"#utility.yul\":14809:14813   */\n      0x22\n        /* \"#utility.yul\":14806:14807   */\n      0x04\n        /* \"#utility.yul\":14799:14814   */\n      mstore\n        /* \"#utility.yul\":14833:14837   */\n      0x24\n        /* \"#utility.yul\":14830:14831   */\n      0x00\n        /* \"#utility.yul\":14823:14838   */\n      revert\n        /* \"#utility.yul\":14850:15170   */\n    tag_44:\n        /* \"#utility.yul\":14894:14900   */\n      0x00\n        /* \"#utility.yul\":14931:14932   */\n      0x02\n        /* \"#utility.yul\":14925:14929   */\n      dup3\n        /* \"#utility.yul\":14921:14933   */\n      div\n        /* \"#utility.yul\":14911:14933   */\n      swap1\n      pop\n        /* \"#utility.yul\":14978:14979   */\n      0x01\n        /* \"#utility.yul\":14972:14976   */\n      dup3\n        /* \"#utility.yul\":14968:14980   */\n      and\n        /* \"#utility.yul\":14999:15017   */\n      dup1\n        /* \"#utility.yul\":14989:15070   */\n      tag_306\n      jumpi\n        /* \"#utility.yul\":15055:15059   */\n      0x7f\n        /* \"#utility.yul\":15047:15053   */\n      dup3\n        /* \"#utility.yul\":15043:15060   */\n      and\n        /* \"#utility.yul\":15033:15060   */\n      swap2\n      pop\n        /* \"#utility.yul\":14989:15070   */\n    tag_306:\n        /* \"#utility.yul\":15117:15119   */\n      0x20\n        /* \"#utility.yul\":15109:15115   */\n      dup3\n        /* \"#utility.yul\":15106:15120   */\n      lt\n        /* \"#utility.yul\":15086:15104   */\n      dup2\n        /* \"#utility.yul\":15083:15121   */\n      sub\n        /* \"#utility.yul\":15080:15164   */\n      tag_307\n      jumpi\n        /* \"#utility.yul\":15136:15154   */\n      tag_308\n      tag_138\n      jump\t// in\n    tag_308:\n        /* \"#utility.yul\":15080:15164   */\n    tag_307:\n        /* \"#utility.yul\":14901:15170   */\n      pop\n        /* \"#utility.yul\":14850:15170   */\n      swap2\n      swap1\n      pop\n      jump\t// out\n        /* \"#utility.yul\":15176:15341   */\n    tag_139:\n        /* \"#utility.yul\":15316:15333   */\n      0x557365722069732062616e6e65642e0000000000000000000000000000000000\n        /* \"#utility.yul\":15312:15313   */\n      0x00\n        /* \"#utility.yul\":15304:15310   */\n      dup3\n        /* \"#utility.yul\":15300:15314   */\n      add\n        /* \"#utility.yul\":15293:15334   */\n      mstore\n        /* \"#utility.yul\":15176:15341   */\n      pop\n      jump\t// out\n        /* \"#utility.yul\":15347:15713   */\n    tag_140:\n        /* \"#utility.yul\":15489:15492   */\n      0x00\n        /* \"#utility.yul\":15510:15577   */\n      tag_311\n        /* \"#utility.yul\":15574:15576   */\n      0x0f\n        /* \"#utility.yul\":15569:15572   */\n      dup4\n        /* \"#utility.yul\":15510:15577   */\n      tag_111\n      jump\t// in\n    tag_311:\n        /* \"#utility.yul\":15503:15577   */\n      swap2\n      pop\n        /* \"#utility.yul\":15586:15679   */\n      tag_312\n        /* \"#utility.yul\":15675:15678   */\n      dup3\n        /* \"#utility.yul\":15586:15679   */\n      tag_139\n      jump\t// in\n    tag_312:\n        /* \"#utility.yul\":15704:15706   */\n      0x20\n        /* \"#utility.yul\":15699:15702   */\n      dup3\n        /* \"#utility.yul\":15695:15707   */\n      add\n        /* \"#utility.yul\":15688:15707   */\n      swap1\n      pop\n        /* \"#utility.yul\":15347:15713   */\n      swap2\n      swap1\n      pop\n      jump\t// out\n        /* \"#utility.yul\":15719:16138   */\n    tag_54:\n        /* \"#utility.yul\":15885:15889   */\n      0x00\n        /* \"#utility.yul\":15923:15925   */\n      0x20\n        /* \"#utility.yul\":15912:15921   */\n      dup3\n        /* \"#utility.yul\":15908:15926   */\n      add\n        /* \"#utility.yul\":15900:15926   */\n      swap1\n      pop\n        /* \"#utility.yul\":15972:15981   */\n      dup2\n        /* \"#utility.yul\":15966:15970   */\n      dup2\n        /* \"#utility.yul\":15962:15982   */\n      sub\n        /* \"#utility.yul\":15958:15959   */\n      0x00\n        /* \"#utility.yul\":15947:15956   */\n      dup4\n        /* \"#utility.yul\":15943:15960   */\n      add\n        /* \"#utility.yul\":15936:15983   */\n      mstore\n        /* \"#utility.yul\":16000:16131   */\n      tag_314\n        /* \"#utility.yul\":16126:16130   */\n      dup2\n        /* \"#utility.yul\":16000:16131   */\n      tag_140\n      jump\t// in\n    tag_314:\n        /* \"#utility.yul\":15992:16131   */\n      swap1\n      pop\n        /* \"#utility.yul\":15719:16138   */\n      swap2\n      swap1\n      pop\n      jump\t// out\n        /* \"#utility.yul\":16144:16285   */\n    tag_141:\n        /* \"#utility.yul\":16193:16197   */\n      0x00\n        /* \"#utility.yul\":16216:16219   */\n      dup2\n        /* \"#utility.yul\":16208:16219   */\n      swap1\n      pop\n        /* \"#utility.yul\":16239:16242   */\n      dup2\n        /* \"#utility.yul\":16236:16237   */\n      0x00\n        /* \"#utility.yul\":16229:16243   */\n      mstore\n        /* \"#utility.yul\":16273:16277   */\n      0x20\n        /* \"#utility.yul\":16270:16271   */\n      0x00\n        /* \"#utility.yul\":16260:16278   */\n      keccak256\n        /* \"#utility.yul\":16252:16278   */\n      swap1\n      pop\n        /* \"#utility.yul\":16144:16285   */\n      swap2\n      swap1\n      pop\n      jump\t// out\n        /* \"#utility.yul\":16291:16384   */\n    tag_142:\n        /* \"#utility.yul\":16328:16334   */\n      0x00\n        /* \"#utility.yul\":16375:16377   */\n      0x20\n        /* \"#utility.yul\":16370:16372   */\n      0x1f\n        /* \"#utility.yul\":16363:16368   */\n      dup4\n        /* \"#utility.yul\":16359:16373   */\n      add\n        /* \"#utility.yul\":16355:16378   */\n      div\n        /* \"#utility.yul\":16345:16378   */\n      swap1\n      pop\n        /* \"#utility.yul\":16291:16384   */\n      swap2\n      swap1\n      pop\n      jump\t// out\n        /* \"#utility.yul\":16390:16497   */\n    tag_143:\n        /* \"#utility.yul\":16434:16442   */\n      0x00\n        /* \"#utility.yul\":16484:16489   */\n      dup3\n        /* \"#utility.yul\":16478:16482   */\n      dup3\n        /* \"#utility.yul\":16474:16490   */\n      shl\n        /* \"#utility.yul\":16453:16490   */\n      swap1\n      pop\n        /* \"#utility.yul\":16390:16497   */\n      swap3\n      swap2\n      pop\n      pop\n      jump\t// out\n        /* \"#utility.yul\":16503:16896   */\n    tag_144:\n        /* \"#utility.yul\":16572:16578   */\n      0x00\n        /* \"#utility.yul\":16622:16623   */\n      0x08\n        /* \"#utility.yul\":16610:16620   */\n      dup4\n        /* \"#utility.yul\":16606:16624   */\n      mul\n        /* \"#utility.yul\":16645:16742   */\n      tag_319\n        /* \"#utility.yul\":16675:16741   */\n      0xffffffffffffffffffffffffffffffffffffffffffffffffffffffffffffffff\n        /* \"#utility.yul\":16664:16673   */\n      dup3\n        /* \"#utility.yul\":16645:16742   */\n      tag_143\n      jump\t// in\n    tag_319:\n        /* \"#utility.yul\":16763:16802   */\n      tag_320\n        /* \"#utility.yul\":16793:16801   */\n      dup7\n        /* \"#utility.yul\":16782:16791   */\n      dup4\n        /* \"#utility.yul\":16763:16802   */\n      tag_143\n      jump\t// in\n    tag_320:\n        /* \"#utility.yul\":16751:16802   */\n      swap6\n      pop\n        /* \"#utility.yul\":16835:16839   */\n      dup1\n        /* \"#utility.yul\":16831:16840   */\n      not\n        /* \"#utility.yul\":16824:16829   */\n      dup5\n        /* \"#utility.yul\":16820:16841   */\n      and\n        /* \"#utility.yul\":16811:16841   */\n      swap4\n      pop\n        /* \"#utility.yul\":16884:16888   */\n      dup1\n        /* \"#utility.yul\":16874:16882   */\n      dup7\n        /* \"#utility.yul\":16870:16889   */\n      and\n        /* \"#utility.yul\":16863:16868   */\n      dup5\n        /* \"#utility.yul\":16860:16890   */\n      or\n        /* \"#utility.yul\":16850:16890   */\n      swap3\n      pop\n        /* \"#utility.yul\":16579:16896   */\n      pop\n      pop\n        /* \"#utility.yul\":16503:16896   */\n      swap4\n      swap3\n      pop\n      pop\n      pop\n      jump\t// out\n        /* \"#utility.yul\":16902:16979   */\n    tag_145:\n        /* \"#utility.yul\":16939:16946   */\n      0x00\n        /* \"#utility.yul\":16968:16973   */\n      dup2\n        /* \"#utility.yul\":16957:16973   */\n      swap1\n      pop\n        /* \"#utility.yul\":16902:16979   */\n      swap2\n      swap1\n      pop\n      jump\t// out\n        /* \"#utility.yul\":16985:17045   */\n    tag_146:\n        /* \"#utility.yul\":17013:17016   */\n      0x00\n        /* \"#utility.yul\":17034:17039   */\n      dup2\n        /* \"#utility.yul\":17027:17039   */\n      swap1\n      pop\n        /* \"#utility.yul\":16985:17045   */\n      swap2\n      swap1\n      pop\n      jump\t// out\n        /* \"#utility.yul\":17051:17193   */\n    tag_147:\n        /* \"#utility.yul\":17101:17110   */\n      0x00\n        /* \"#utility.yul\":17134:17187   */\n      tag_324\n        /* \"#utility.yul\":17152:17186   */\n      tag_325\n        /* \"#utility.yul\":17161:17185   */\n      tag_326\n        /* \"#utility.yul\":17179:17184   */\n      dup5\n        /* \"#utility.yul\":17161:17185   */\n      tag_145\n      jump\t// in\n    tag_326:\n        /* \"#utility.yul\":17152:17186   */\n      tag_146\n      jump\t// in\n    tag_325:\n        /* \"#utility.yul\":17134:17187   */\n      tag_145\n      jump\t// in\n    tag_324:\n        /* \"#utility.yul\":17121:17187   */\n      swap1\n      pop\n        /* \"#utility.yul\":17051:17193   */\n      swap2\n      swap1\n      pop\n      jump\t// out\n        /* \"#utility.yul\":17199:17274   */\n    tag_148:\n        /* \"#utility.yul\":17242:17245   */\n      0x00\n        /* \"#utility.yul\":17263:17268   */\n      dup2\n        /* \"#utility.yul\":17256:17268   */\n      swap1\n      pop\n        /* \"#utility.yul\":17199:17274   */\n      swap2\n      swap1\n      pop\n      jump\t// out\n        /* \"#utility.yul\":17280:17549   */\n    tag_149:\n        /* \"#utility.yul\":17390:17429   */\n      tag_329\n        /* \"#utility.yul\":17421:17428   */\n      dup4\n        /* \"#utility.yul\":17390:17429   */\n      tag_147\n      jump\t// in\n    tag_329:\n        /* \"#utility.yul\":17451:17542   */\n      tag_330\n        /* \"#utility.yul\":17500:17541   */\n      tag_331\n        /* \"#utility.yul\":17524:17540   */\n      dup3\n        /* \"#utility.yul\":17500:17541   */\n      tag_148\n      jump\t// in\n    tag_331:\n        /* \"#utility.yul\":17492:17498   */\n      dup5\n        /* \"#utility.yul\":17485:17489   */\n      dup5\n        /* \"#utility.yul\":17479:17490   */\n      sload\n        /* \"#utility.yul\":17451:17542   */\n      tag_144\n      jump\t// in\n    tag_330:\n        /* \"#utility.yul\":17445:17449   */\n      dup3\n        /* \"#utility.yul\":17438:17543   */\n      sstore\n        /* \"#utility.yul\":17356:17549   */\n      pop\n        /* \"#utility.yul\":17280:17549   */\n      pop\n      pop\n      pop\n      jump\t// out\n        /* \"#utility.yul\":17555:17628   */\n    tag_150:\n        /* \"#utility.yul\":17600:17603   */\n      0x00\n        /* \"#utility.yul\":17555:17628   */\n      swap1\n      jump\t// out\n        /* \"#utility.yul\":17634:17823   */\n    tag_151:\n        /* \"#utility.yul\":17711:17743   */\n      tag_334\n      tag_150\n      jump\t// in\n    tag_334:\n        /* \"#utility.yul\":17752:17817   */\n      tag_335\n        /* \"#utility.yul\":17810:17816   */\n      dup2\n        /* \"#utility.yul\":17802:17808   */\n      dup5\n        /* \"#utility.yul\":17796:17800   */\n      dup5\n        /* \"#utility.yul\":17752:17817   */\n      tag_149\n      jump\t// in\n    tag_335:\n        /* \"#utility.yul\":17687:17823   */\n      pop\n        /* \"#utility.yul\":17634:17823   */\n      pop\n      pop\n      jump\t// out\n        /* \"#utility.yul\":17829:18015   */\n    tag_152:\n        /* \"#utility.yul\":17889:18009   */\n    tag_337:\n        /* \"#utility.yul\":17906:17909   */\n      dup2\n        /* \"#utility.yul\":17899:17904   */\n      dup2\n        /* \"#utility.yul\":17896:17910   */\n      lt\n        /* \"#utility.yul\":17889:18009   */\n      iszero\n      tag_339\n      jumpi\n        /* \"#utility.yul\":17960:17999   */\n      tag_340\n        /* \"#utility.yul\":17997:17998   */\n      0x00\n        /* \"#utility.yul\":17990:17995   */\n      dup3\n        /* \"#utility.yul\":17960:17999   */\n      tag_151\n      jump\t// in\n    tag_340:\n        /* \"#utility.yul\":17933:17934   */\n      0x01\n        /* \"#utility.yul\":17926:17931   */\n      dup2\n        /* \"#utility.yul\":17922:17935   */\n      add\n        /* \"#utility.yul\":17913:17935   */\n      swap1\n      pop\n        /* \"#utility.yul\":17889:18009   */\n      jump(tag_337)\n    tag_339:\n        /* \"#utility.yul\":17829:18015   */\n      pop\n      pop\n      jump\t// out\n        /* \"#utility.yul\":18021:18564   */\n    tag_153:\n        /* \"#utility.yul\":18122:18124   */\n      0x1f\n        /* \"#utility.yul\":18117:18120   */\n      dup3\n        /* \"#utility.yul\":18114:18125   */\n      gt\n        /* \"#utility.yul\":18111:18557   */\n      iszero\n      tag_342\n      jumpi\n        /* \"#utility.yul\":18156:18194   */\n      tag_343\n        /* \"#utility.yul\":18188:18193   */\n      dup2\n        /* \"#utility.yul\":18156:18194   */\n      tag_141\n      jump\t// in\n    tag_343:\n        /* \"#utility.yul\":18240:18269   */\n      tag_344\n        /* \"#utility.yul\":18258:18268   */\n      dup5\n        /* \"#utility.yul\":18240:18269   */\n      tag_142\n      jump\t// in\n    tag_344:\n        /* \"#utility.yul\":18230:18238   */\n      dup2\n        /* \"#utility.yul\":18226:18270   */\n      add\n        /* \"#utility.yul\":18423:18425   */\n      0x20\n        /* \"#utility.yul\":18411:18421   */\n      dup6\n        /* \"#utility.yul\":18408:18426   */\n      lt\n        /* \"#utility.yul\":18405:18454   */\n      iszero\n      tag_345\n      jumpi\n        /* \"#utility.yul\":18444:18452   */\n      dup2\n        /* \"#utility.yul\":18429:18452   */\n      swap1\n      pop\n        /* \"#utility.yul\":18405:18454   */\n    tag_345:\n        /* \"#utility.yul\":18467:18547   */\n      tag_346\n        /* \"#utility.yul\":18523:18545   */\n      tag_347\n        /* \"#utility.yul\":18541:18544   */\n      dup6\n        /* \"#utility.yul\":18523:18545   */\n      tag_142\n      jump\t// in\n    tag_347:\n        /* \"#utility.yul\":18513:18521   */\n      dup4\n        /* \"#utility.yul\":18509:18546   */\n      add\n        /* \"#utility.yul\":18496:18507   */\n      dup3\n        /* \"#utility.yul\":18467:18547   */\n      tag_152\n      jump\t// in\n    tag_346:\n        /* \"#utility.yul\":18126:18557   */\n      pop\n      pop\n        /* \"#utility.yul\":18111:18557   */\n    tag_342:\n        /* \"#utility.yul\":18021:18564   */\n      pop\n      pop\n      pop\n      jump\t// out\n        /* \"#utility.yul\":18570:18687   */\n    tag_154:\n        /* \"#utility.yul\":18624:18632   */\n      0x00\n        /* \"#utility.yul\":18674:18679   */\n      dup3\n        /* \"#utility.yul\":18668:18672   */\n      dup3\n        /* \"#utility.yul\":18664:18680   */\n      shr\n        /* \"#utility.yul\":18643:18680   */\n      swap1\n      pop\n        /* \"#utility.yul\":18570:18687   */\n      swap3\n      swap2\n      pop\n      pop\n      jump\t// out\n        /* \"#utility.yul\":18693:18862   */\n    tag_155:\n        /* \"#utility.yul\":18737:18743   */\n      0x00\n        /* \"#utility.yul\":18770:18821   */\n      tag_350\n        /* \"#utility.yul\":18818:18819   */\n      0x00\n        /* \"#utility.yul\":18814:18820   */\n      not\n        /* \"#utility.yul\":18806:18811   */\n      dup5\n        /* \"#utility.yul\":18803:18804   */\n      0x08\n        /* \"#utility.yul\":18799:18812   */\n      mul\n        /* \"#utility.yul\":18770:18821   */\n      tag_154\n      jump\t// in\n    tag_350:\n        /* \"#utility.yul\":18766:18822   */\n      not\n        /* \"#utility.yul\":18851:18855   */\n      dup1\n        /* \"#utility.yul\":18845:18849   */\n      dup4\n        /* \"#utility.yul\":18841:18856   */\n      and\n        /* \"#utility.yul\":18831:18856   */\n      swap2\n      pop\n        /* \"#utility.yul\":18744:18862   */\n      pop\n        /* \"#utility.yul\":18693:18862   */\n      swap3\n      swap2\n      pop\n      pop\n      jump\t// out\n        /* \"#utility.yul\":18867:19162   */\n    tag_156:\n        /* \"#utility.yul\":18943:18947   */\n      0x00\n        /* \"#utility.yul\":19089:19118   */\n      tag_352\n        /* \"#utility.yul\":19114:19117   */\n      dup4\n        /* \"#utility.yul\":19108:19112   */\n      dup4\n        /* \"#utility.yul\":19089:19118   */\n      tag_155\n      jump\t// in\n    tag_352:\n        /* \"#utility.yul\":19081:19118   */\n      swap2\n      pop\n        /* \"#utility.yul\":19151:19154   */\n      dup3\n        /* \"#utility.yul\":19148:19149   */\n      0x02\n        /* \"#utility.yul\":19144:19155   */\n      mul\n        /* \"#utility.yul\":19138:19142   */\n      dup3\n        /* \"#utility.yul\":19135:19156   */\n      or\n        /* \"#utility.yul\":19127:19156   */\n      swap1\n      pop\n        /* \"#utility.yul\":18867:19162   */\n      swap3\n      swap2\n      pop\n      pop\n      jump\t// out\n        /* \"#utility.yul\":19167:20562   */\n    tag_82:\n        /* \"#utility.yul\":19284:19321   */\n      tag_354\n        /* \"#utility.yul\":19317:19320   */\n      dup3\n        /* \"#utility.yul\":19284:19321   */\n      tag_110\n      jump\t// in\n    tag_354:\n        /* \"#utility.yul\":19386:19404   */\n      0xffffffffffffffff\n        /* \"#utility.yul\":19378:19384   */\n      dup2\n        /* \"#utility.yul\":19375:19405   */\n      gt\n        /* \"#utility.yul\":19372:19428   */\n      iszero\n      tag_355\n      jumpi\n        /* \"#utility.yul\":19408:19426   */\n      tag_356\n      tag_122\n      jump\t// in\n    tag_356:\n        /* \"#utility.yul\":19372:19428   */\n    tag_355:\n        /* \"#utility.yul\":19452:19490   */\n      tag_357\n        /* \"#utility.yul\":19484:19488   */\n      dup3\n        /* \"#utility.yul\":19478:19489   */\n      sload\n        /* \"#utility.yul\":19452:19490   */\n      tag_44\n      jump\t// in\n    tag_357:\n        /* \"#utility.yul\":19537:19604   */\n      tag_358\n        /* \"#utility.yul\":19597:19603   */\n      dup3\n        /* \"#utility.yul\":19589:19595   */\n      dup3\n        /* \"#utility.yul\":19583:19587   */\n      dup6\n        /* \"#utility.yul\":19537:19604   */\n      tag_153\n      jump\t// in\n    tag_358:\n        /* \"#utility.yul\":19631:19632   */\n      0x00\n        /* \"#utility.yul\":19655:19659   */\n      0x20\n        /* \"#utility.yul\":19642:19659   */\n      swap1\n      pop\n        /* \"#utility.yul\":19687:19689   */\n      0x1f\n        /* \"#utility.yul\":19679:19685   */\n      dup4\n        /* \"#utility.yul\":19676:19690   */\n      gt\n        /* \"#utility.yul\":19704:19705   */\n      0x01\n        /* \"#utility.yul\":19699:20317   */\n      dup2\n      eq\n      tag_360\n      jumpi\n        /* \"#utility.yul\":20361:20362   */\n      0x00\n        /* \"#utility.yul\":20378:20384   */\n      dup5\n        /* \"#utility.yul\":20375:20452   */\n      iszero\n      tag_361\n      jumpi\n        /* \"#utility.yul\":20427:20436   */\n      dup3\n        /* \"#utility.yul\":20422:20425   */\n      dup8\n        /* \"#utility.yul\":20418:20437   */\n      add\n        /* \"#utility.yul\":20412:20438   */\n      mload\n        /* \"#utility.yul\":20403:20438   */\n      swap1\n      pop\n        /* \"#utility.yul\":20375:20452   */\n    tag_361:\n        /* \"#utility.yul\":20478:20545   */\n      tag_362\n        /* \"#utility.yul\":20538:20544   */\n      dup6\n        /* \"#utility.yul\":20531:20536   */\n      dup3\n        /* \"#utility.yul\":20478:20545   */\n      tag_156\n      jump\t// in\n    tag_362:\n        /* \"#utility.yul\":20472:20476   */\n      dup7\n        /* \"#utility.yul\":20465:20546   */\n      sstore\n        /* \"#utility.yul\":20334:20556   */\n      pop\n        /* \"#utility.yul\":19669:20556   */\n      jump(tag_359)\n        /* \"#utility.yul\":19699:20317   */\n    tag_360:\n        /* \"#utility.yul\":19751:19755   */\n      0x1f\n        /* \"#utility.yul\":19747:19756   */\n      not\n        /* \"#utility.yul\":19739:19745   */\n      dup5\n        /* \"#utility.yul\":19735:19757   */\n      and\n        /* \"#utility.yul\":19785:19822   */\n      tag_363\n        /* \"#utility.yul\":19817:19821   */\n      dup7\n        /* \"#utility.yul\":19785:19822   */\n      tag_141\n      jump\t// in\n    tag_363:\n        /* \"#utility.yul\":19844:19845   */\n      0x00\n        /* \"#utility.yul\":19858:20066   */\n    tag_364:\n        /* \"#utility.yul\":19872:19879   */\n      dup3\n        /* \"#utility.yul\":19869:19870   */\n      dup2\n        /* \"#utility.yul\":19866:19880   */\n      lt\n        /* \"#utility.yul\":19858:20066   */\n      iszero\n      tag_366\n      jumpi\n        /* \"#utility.yul\":19951:19960   */\n      dup5\n        /* \"#utility.yul\":19946:19949   */\n      dup10\n        /* \"#utility.yul\":19942:19961   */\n      add\n        /* \"#utility.yul\":19936:19962   */\n      mload\n        /* \"#utility.yul\":19928:19934   */\n      dup3\n        /* \"#utility.yul\":19921:19963   */\n      sstore\n        /* \"#utility.yul\":20002:20003   */\n      0x01\n        /* \"#utility.yul\":19994:20000   */\n      dup3\n        /* \"#utility.yul\":19990:20004   */\n      add\n        /* \"#utility.yul\":19980:20004   */\n      swap2\n      pop\n        /* \"#utility.yul\":20049:20051   */\n      0x20\n        /* \"#utility.yul\":20038:20047   */\n      dup6\n        /* \"#utility.yul\":20034:20052   */\n      add\n        /* \"#utility.yul\":20021:20052   */\n      swap5\n      pop\n        /* \"#utility.yul\":19895:19899   */\n      0x20\n        /* \"#utility.yul\":19892:19893   */\n      dup2\n        /* \"#utility.yul\":19888:19900   */\n      add\n        /* \"#utility.yul\":19883:19900   */\n      swap1\n      pop\n        /* \"#utility.yul\":19858:20066   */\n      jump(tag_364)\n    tag_366:\n        /* \"#utility.yul\":20094:20100   */\n      dup7\n        /* \"#utility.yul\":20085:20092   */\n      dup4\n        /* \"#utility.yul\":20082:20101   */\n      lt\n        /* \"#utility.yul\":20079:20258   */\n      iszero\n      tag_367\n      jumpi\n        /* \"#utility.yul\":20152:20161   */\n      dup5\n        /* \"#utility.yul\":20147:20150   */\n      dup10\n        /* \"#utility.yul\":20143:20162   */\n      add\n        /* \"#utility.yul\":20137:20163   */\n      mload\n        /* \"#utility.yul\":20195:20243   */\n      tag_368\n        /* \"#utility.yul\":20237:20241   */\n      0x1f\n        /* \"#utility.yul\":20229:20235   */\n      dup10\n        /* \"#utility.yul\":20225:20242   */\n      and\n        /* \"#utility.yul\":20214:20223   */\n      dup3\n        /* \"#utility.yul\":20195:20243   */\n      tag_155\n      jump\t// in\n    tag_368:\n        /* \"#utility.yul\":20187:20193   */\n      dup4\n        /* \"#utility.yul\":20180:20244   */\n      sstore\n        /* \"#utility.yul\":20102:20258   */\n      pop\n        /* \"#utility.yul\":20079:20258   */\n    tag_367:\n        /* \"#utility.yul\":20304:20305   */\n      0x01\n        /* \"#utility.yul\":20300:20301   */\n      0x02\n        /* \"#utility.yul\":20292:20298   */\n      dup9\n        /* \"#utility.yul\":20288:20302   */\n      mul\n        /* \"#utility.yul\":20284:20306   */\n      add\n        /* \"#utility.yul\":20278:20282   */\n      dup9\n        /* \"#utility.yul\":20271:20307   */\n      sstore\n        /* \"#utility.yul\":19706:20317   */\n      pop\n      pop\n      pop\n        /* \"#utility.yul\":19669:20556   */\n    tag_359:\n      pop\n        /* \"#utility.yul\":19259:20562   */\n      pop\n      pop\n      pop\n        /* \"#utility.yul\":19167:20562   */\n      pop\n      pop\n      jump\t// out\n        /* \"#utility.yul\":20568:20742   */\n    tag_157:\n        /* \"#utility.yul\":20708:20734   */\n      0x5573657220616c726561647920726567697374657265642e0000000000000000\n        /* \"#utility.yul\":20704:20705   */\n      0x00\n        /* \"#utility.yul\":20696:20702   */\n      dup3\n        /* \"#utility.yul\":20692:20706   */\n      add\n        /* \"#utility.yul\":20685:20735   */\n      mstore\n        /* \"#utility.yul\":20568:20742   */\n      pop\n      jump\t// out\n        /* \"#utility.yul\":20748:21114   */\n    tag_158:\n        /* \"#utility.yul\":20890:20893   */\n      0x00\n        /* \"#utility.yul\":20911:20978   */\n      tag_371\n        /* \"#utility.yul\":20975:20977   */\n      0x18\n        /* \"#utility.yul\":20970:20973   */\n      dup4\n        /* \"#utility.yul\":20911:20978   */\n      tag_111\n      jump\t// in\n    tag_371:\n        /* \"#utility.yul\":20904:20978   */\n      swap2\n      pop\n        /* \"#utility.yul\":20987:21080   */\n      tag_372\n        /* \"#utility.yul\":21076:21079   */\n      dup3\n        /* \"#utility.yul\":20987:21080   */\n      tag_157\n      jump\t// in\n    tag_372:\n        /* \"#utility.yul\":21105:21107   */\n      0x20\n        /* \"#utility.yul\":21100:21103   */\n      dup3\n        /* \"#utility.yul\":21096:21108   */\n      add\n        /* \"#utility.yul\":21089:21108   */\n      swap1\n      pop\n        /* \"#utility.yul\":20748:21114   */\n      swap2\n      swap1\n      pop\n      jump\t// out\n        /* \"#utility.yul\":21120:21539   */\n    tag_91:\n        /* \"#utility.yul\":21286:21290   */\n      0x00\n        /* \"#utility.yul\":21324:21326   */\n      0x20\n        /* \"#utility.yul\":21313:21322   */\n      dup3\n        /* \"#utility.yul\":21309:21327   */\n      add\n        /* \"#utility.yul\":21301:21327   */\n      swap1\n      pop\n        /* \"#utility.yul\":21373:21382   */\n      dup2\n        /* \"#utility.yul\":21367:21371   */\n      dup2\n        /* \"#utility.yul\":21363:21383   */\n      sub\n        /* \"#utility.yul\":21359:21360   */\n      0x00\n        /* \"#utility.yul\":21348:21357   */\n      dup4\n        /* \"#utility.yul\":21344:21361   */\n      add\n        /* \"#utility.yul\":21337:21384   */\n      mstore\n        /* \"#utility.yul\":21401:21532   */\n      tag_374\n        /* \"#utility.yul\":21527:21531   */\n      dup2\n        /* \"#utility.yul\":21401:21532   */\n      tag_158\n      jump\t// in\n    tag_374:\n        /* \"#utility.yul\":21393:21532   */\n      swap1\n      pop\n        /* \"#utility.yul\":21120:21539   */\n      swap2\n      swap1\n      pop\n      jump\t// out\n\n    auxdata: 0xa264697066735822122065308b422c4eb9446e9daad63a546380b6b0aefb1bca874a3918f25f59ad04e564736f6c63430008140033\n}\n",
				"bytecode": {
					"linkReferences": {},
					"object": "608060405234801561000f575f80fd5b506115fc8061001d5f395ff3fe608060405234801561000f575f80fd5b506004361061007b575f3560e01c80637cbd4322116100595780637cbd4322146100fb578063860c061114610117578063e2842d7914610133578063f79dbf8c146101515761007b565b806310d86b1f1461007f578063278208511461009b5780636386c1c7146100cb575b5f80fd5b61009960048036038101906100949190610b3f565b61016d565b005b6100b560048036038101906100b09190610b3f565b6101c7565b6040516100c29190610bf4565b60405180910390f35b6100e560048036038101906100e09190610b3f565b610296565b6040516100f29190610d2b565b60405180910390f35b61011560048036038101906101109190610ea1565b61067b565b005b610131600480360381019061012c9190610fde565b6107a5565b005b61013b6109b9565b60405161014891906111aa565b60405180910390f35b61016b600480360381019061016691906111ca565b610a44565b005b60015f808373ffffffffffffffffffffffffffffffffffffffff1673ffffffffffffffffffffffffffffffffffffffff1681526020019081526020015f206005015f6101000a81548160ff02191690831515021790555050565b60605f808373ffffffffffffffffffffffffffffffffffffffff1673ffffffffffffffffffffffffffffffffffffffff1681526020019081526020015f20600601805461021390611251565b80601f016020809104026020016040519081016040528092919081815260200182805461023f90611251565b801561028a5780601f106102615761010080835404028352916020019161028a565b820191905f5260205f20905b81548152906001019060200180831161026d57829003601f168201915b50505050509050919050565b61029e610a95565b5f808373ffffffffffffffffffffffffffffffffffffffff1673ffffffffffffffffffffffffffffffffffffffff1681526020019081526020015f206005015f9054906101000a900460ff161561032a576040517f08c379a0000000000000000000000000000000000000000000000000000000008152600401610321906112cb565b60405180910390fd5b5f808373ffffffffffffffffffffffffffffffffffffffff1673ffffffffffffffffffffffffffffffffffffffff1681526020019081526020015f206040518060e00160405290815f8201805461038090611251565b80601f01602080910402602001604051908101604052809291908181526020018280546103ac90611251565b80156103f75780601f106103ce576101008083540402835291602001916103f7565b820191905f5260205f20905b8154815290600101906020018083116103da57829003601f168201915b50505050508152602001600182015f9054906101000a900460ff1615151515815260200160028201805461042a90611251565b80601f016020809104026020016040519081016040528092919081815260200182805461045690611251565b80156104a15780601f10610478576101008083540402835291602001916104a1565b820191905f5260205f20905b81548152906001019060200180831161048457829003601f168201915b505050505081526020016003820180546104ba90611251565b80601f01602080910402602001604051908101604052809291908181526020018280546104e690611251565b80156105315780601f1061050857610100808354040283529160200191610531565b820191905f5260205f20905b81548152906001019060200180831161051457829003601f168201915b5050505050815260200160048201805461054a90611251565b80601f016020809104026020016040519081016040528092919081815260200182805461057690611251565b80156105c15780601f10610598576101008083540402835291602001916105c1565b820191905f5260205f20905b8154815290600101906020018083116105a457829003601f168201915b50505050508152602001600582015f9054906101000a900460ff161515151581526020016006820180546105f490611251565b80601f016020809104026020016040519081016040528092919081815260200182805461062090611251565b801561066b5780601f106106425761010080835404028352916020019161066b565b820191905f5260205f20905b81548152906001019060200180831161064e57829003601f168201915b5050505050815250509050919050565b6040518060e0016040528088815260200187151581526020018681526020018581526020018481526020018215158152602001838152505f808a73ffffffffffffffffffffffffffffffffffffffff1673ffffffffffffffffffffffffffffffffffffffff1681526020019081526020015f205f820151815f019081610701919061148f565b506020820151816001015f6101000a81548160ff0219169083151502179055506040820151816002019081610736919061148f565b50606082015181600301908161074c919061148f565b506080820151816004019081610762919061148f565b5060a0820151816005015f6101000a81548160ff02191690831515021790555060c0820151816006019081610797919061148f565b509050505050505050505050565b5f805f3373ffffffffffffffffffffffffffffffffffffffff1673ffffffffffffffffffffffffffffffffffffffff1681526020019081526020015f205f0180546107ef90611251565b905014610831576040517f08c379a0000000000000000000000000000000000000000000000000000000008152600401610828906115a8565b60405180910390fd5b6040518060e0016040528087815260200186151581526020018581526020018481526020018381526020015f15158152602001828152505f803373ffffffffffffffffffffffffffffffffffffffff1673ffffffffffffffffffffffffffffffffffffffff1681526020019081526020015f205f820151815f0190816108b7919061148f565b506020820151816001015f6101000a81548160ff02191690831515021790555060408201518160020190816108ec919061148f565b506060820151816003019081610902919061148f565b506080820151816004019081610918919061148f565b5060a0820151816005015f6101000a81548160ff02191690831515021790555060c082015181600601908161094d919061148f565b50905050600133908060018154018082558091505060019003905f5260205f20015f9091909190916101000a81548173ffffffffffffffffffffffffffffffffffffffff021916908373ffffffffffffffffffffffffffffffffffffffff160217905550505050505050565b60606001805480602002602001604051908101604052809291908181526020018280548015610a3a57602002820191905f5260205f20905b815f9054906101000a900473ffffffffffffffffffffffffffffffffffffffff1673ffffffffffffffffffffffffffffffffffffffff16815260200190600101908083116109f1575b5050505050905090565b805f808473ffffffffffffffffffffffffffffffffffffffff1673ffffffffffffffffffffffffffffffffffffffff1681526020019081526020015f206006019081610a90919061148f565b505050565b6040518060e00160405280606081526020015f151581526020016060815260200160608152602001606081526020015f15158152602001606081525090565b5f604051905090565b5f80fd5b5f80fd5b5f73ffffffffffffffffffffffffffffffffffffffff82169050919050565b5f610b0e82610ae5565b9050919050565b610b1e81610b04565b8114610b28575f80fd5b50565b5f81359050610b3981610b15565b92915050565b5f60208284031215610b5457610b53610add565b5b5f610b6184828501610b2b565b91505092915050565b5f81519050919050565b5f82825260208201905092915050565b5f5b83811015610ba1578082015181840152602081019050610b86565b5f8484015250505050565b5f601f19601f8301169050919050565b5f610bc682610b6a565b610bd08185610b74565b9350610be0818560208601610b84565b610be981610bac565b840191505092915050565b5f6020820190508181035f830152610c0c8184610bbc565b905092915050565b5f82825260208201905092915050565b5f610c2e82610b6a565b610c388185610c14565b9350610c48818560208601610b84565b610c5181610bac565b840191505092915050565b5f8115159050919050565b610c7081610c5c565b82525050565b5f60e083015f8301518482035f860152610c908282610c24565b9150506020830151610ca56020860182610c67565b5060408301518482036040860152610cbd8282610c24565b91505060608301518482036060860152610cd78282610c24565b91505060808301518482036080860152610cf18282610c24565b91505060a0830151610d0660a0860182610c67565b5060c083015184820360c0860152610d1e8282610c24565b9150508091505092915050565b5f6020820190508181035f830152610d438184610c76565b905092915050565b5f80fd5b5f80fd5b7f4e487b71000000000000000000000000000000000000000000000000000000005f52604160045260245ffd5b610d8982610bac565b810181811067ffffffffffffffff82111715610da857610da7610d53565b5b80604052505050565b5f610dba610ad4565b9050610dc68282610d80565b919050565b5f67ffffffffffffffff821115610de557610de4610d53565b5b610dee82610bac565b9050602081019050919050565b828183375f83830152505050565b5f610e1b610e1684610dcb565b610db1565b905082815260208101848484011115610e3757610e36610d4f565b5b610e42848285610dfb565b509392505050565b5f82601f830112610e5e57610e5d610d4b565b5b8135610e6e848260208601610e09565b91505092915050565b610e8081610c5c565b8114610e8a575f80fd5b50565b5f81359050610e9b81610e77565b92915050565b5f805f805f805f80610100898b031215610ebe57610ebd610add565b5b5f610ecb8b828c01610b2b565b985050602089013567ffffffffffffffff811115610eec57610eeb610ae1565b5b610ef88b828c01610e4a565b9750506040610f098b828c01610e8d565b965050606089013567ffffffffffffffff811115610f2a57610f29610ae1565b5b610f368b828c01610e4a565b955050608089013567ffffffffffffffff811115610f5757610f56610ae1565b5b610f638b828c01610e4a565b94505060a089013567ffffffffffffffff811115610f8457610f83610ae1565b5b610f908b828c01610e4a565b93505060c089013567ffffffffffffffff811115610fb157610fb0610ae1565b5b610fbd8b828c01610e4a565b92505060e0610fce8b828c01610e8d565b9150509295985092959890939650565b5f805f805f8060c08789031215610ff857610ff7610add565b5b5f87013567ffffffffffffffff81111561101557611014610ae1565b5b61102189828a01610e4a565b965050602061103289828a01610e8d565b955050604087013567ffffffffffffffff81111561105357611052610ae1565b5b61105f89828a01610e4a565b945050606087013567ffffffffffffffff8111156110805761107f610ae1565b5b61108c89828a01610e4a565b935050608087013567ffffffffffffffff8111156110ad576110ac610ae1565b5b6110b989828a01610e4a565b92505060a087013567ffffffffffffffff8111156110da576110d9610ae1565b5b6110e689828a01610e4a565b9150509295509295509295565b5f81519050919050565b5f82825260208201905092915050565b5f819050602082019050919050565b61112581610b04565b82525050565b5f611136838361111c565b60208301905092915050565b5f602082019050919050565b5f611158826110f3565b61116281856110fd565b935061116d8361110d565b805f5b8381101561119d578151611184888261112b565b975061118f83611142565b925050600181019050611170565b5085935050505092915050565b5f6020820190508181035f8301526111c2818461114e565b905092915050565b5f80604083850312156111e0576111df610add565b5b5f6111ed85828601610b2b565b925050602083013567ffffffffffffffff81111561120e5761120d610ae1565b5b61121a85828601610e4a565b9150509250929050565b7f4e487b71000000000000000000000000000000000000000000000000000000005f52602260045260245ffd5b5f600282049050600182168061126857607f821691505b60208210810361127b5761127a611224565b5b50919050565b7f557365722069732062616e6e65642e00000000000000000000000000000000005f82015250565b5f6112b5600f83610b74565b91506112c082611281565b602082019050919050565b5f6020820190508181035f8301526112e2816112a9565b9050919050565b5f819050815f5260205f209050919050565b5f6020601f8301049050919050565b5f82821b905092915050565b5f600883026113457fffffffffffffffffffffffffffffffffffffffffffffffffffffffffffffffff8261130a565b61134f868361130a565b95508019841693508086168417925050509392505050565b5f819050919050565b5f819050919050565b5f61139361138e61138984611367565b611370565b611367565b9050919050565b5f819050919050565b6113ac83611379565b6113c06113b88261139a565b848454611316565b825550505050565b5f90565b6113d46113c8565b6113df8184846113a3565b505050565b5b81811015611402576113f75f826113cc565b6001810190506113e5565b5050565b601f82111561144757611418816112e9565b611421846112fb565b81016020851015611430578190505b61144461143c856112fb565b8301826113e4565b50505b505050565b5f82821c905092915050565b5f6114675f198460080261144c565b1980831691505092915050565b5f61147f8383611458565b9150826002028217905092915050565b61149882610b6a565b67ffffffffffffffff8111156114b1576114b0610d53565b5b6114bb8254611251565b6114c6828285611406565b5f60209050601f8311600181146114f7575f84156114e5578287015190505b6114ef8582611474565b865550611556565b601f198416611505866112e9565b5f5b8281101561152c57848901518255600182019150602085019450602081019050611507565b868310156115495784890151611545601f891682611458565b8355505b6001600288020188555050505b505050505050565b7f5573657220616c726561647920726567697374657265642e00000000000000005f82015250565b5f611592601883610b74565b915061159d8261155e565b602082019050919050565b5f6020820190508181035f8301526115bf81611586565b905091905056fea264697066735822122065308b422c4eb9446e9daad63a546380b6b0aefb1bca874a3918f25f59ad04e564736f6c63430008140033",
					"opcodes": "PUSH1 0x80 PUSH1 0x40 MSTORE CALLVALUE DUP1 ISZERO PUSH2 0xF JUMPI PUSH0 DUP1 REVERT JUMPDEST POP PUSH2 0x15FC DUP1 PUSH2 0x1D PUSH0 CODECOPY PUSH0 RETURN INVALID PUSH1 0x80 PUSH1 0x40 MSTORE CALLVALUE DUP1 ISZERO PUSH2 0xF JUMPI PUSH0 DUP1 REVERT JUMPDEST POP PUSH1 0x4 CALLDATASIZE LT PUSH2 0x7B JUMPI PUSH0 CALLDATALOAD PUSH1 0xE0 SHR DUP1 PUSH4 0x7CBD4322 GT PUSH2 0x59 JUMPI DUP1 PUSH4 0x7CBD4322 EQ PUSH2 0xFB JUMPI DUP1 PUSH4 0x860C0611 EQ PUSH2 0x117 JUMPI DUP1 PUSH4 0xE2842D79 EQ PUSH2 0x133 JUMPI DUP1 PUSH4 0xF79DBF8C EQ PUSH2 0x151 JUMPI PUSH2 0x7B JUMP JUMPDEST DUP1 PUSH4 0x10D86B1F EQ PUSH2 0x7F JUMPI DUP1 PUSH4 0x27820851 EQ PUSH2 0x9B JUMPI DUP1 PUSH4 0x6386C1C7 EQ PUSH2 0xCB JUMPI JUMPDEST PUSH0 DUP1 REVERT JUMPDEST PUSH2 0x99 PUSH1 0x4 DUP1 CALLDATASIZE SUB DUP2 ADD SWAP1 PUSH2 0x94 SWAP2 SWAP1 PUSH2 0xB3F JUMP JUMPDEST PUSH2 0x16D JUMP JUMPDEST STOP JUMPDEST PUSH2 0xB5 PUSH1 0x4 DUP1 CALLDATASIZE SUB DUP2 ADD SWAP1 PUSH2 0xB0 SWAP2 SWAP1 PUSH2 0xB3F JUMP JUMPDEST PUSH2 0x1C7 JUMP JUMPDEST PUSH1 0x40 MLOAD PUSH2 0xC2 SWAP2 SWAP1 PUSH2 0xBF4 JUMP JUMPDEST PUSH1 0x40 MLOAD DUP1 SWAP2 SUB SWAP1 RETURN JUMPDEST PUSH2 0xE5 PUSH1 0x4 DUP1 CALLDATASIZE SUB DUP2 ADD SWAP1 PUSH2 0xE0 SWAP2 SWAP1 PUSH2 0xB3F JUMP JUMPDEST PUSH2 0x296 JUMP JUMPDEST PUSH1 0x40 MLOAD PUSH2 0xF2 SWAP2 SWAP1 PUSH2 0xD2B JUMP JUMPDEST PUSH1 0x40 MLOAD DUP1 SWAP2 SUB SWAP1 RETURN JUMPDEST PUSH2 0x115 PUSH1 0x4 DUP1 CALLDATASIZE SUB DUP2 ADD SWAP1 PUSH2 0x110 SWAP2 SWAP1 PUSH2 0xEA1 JUMP JUMPDEST PUSH2 0x67B JUMP JUMPDEST STOP JUMPDEST PUSH2 0x131 PUSH1 0x4 DUP1 CALLDATASIZE SUB DUP2 ADD SWAP1 PUSH2 0x12C SWAP2 SWAP1 PUSH2 0xFDE JUMP JUMPDEST PUSH2 0x7A5 JUMP JUMPDEST STOP JUMPDEST PUSH2 0x13B PUSH2 0x9B9 JUMP JUMPDEST PUSH1 0x40 MLOAD PUSH2 0x148 SWAP2 SWAP1 PUSH2 0x11AA JUMP JUMPDEST PUSH1 0x40 MLOAD DUP1 SWAP2 SUB SWAP1 RETURN JUMPDEST PUSH2 0x16B PUSH1 0x4 DUP1 CALLDATASIZE SUB DUP2 ADD SWAP1 PUSH2 0x166 SWAP2 SWAP1 PUSH2 0x11CA JUMP JUMPDEST PUSH2 0xA44 JUMP JUMPDEST STOP JUMPDEST PUSH1 0x1 PUSH0 DUP1 DUP4 PUSH20 0xFFFFFFFFFFFFFFFFFFFFFFFFFFFFFFFFFFFFFFFF AND PUSH20 0xFFFFFFFFFFFFFFFFFFFFFFFFFFFFFFFFFFFFFFFF AND DUP2 MSTORE PUSH1 0x20 ADD SWAP1 DUP2 MSTORE PUSH1 0x20 ADD PUSH0 KECCAK256 PUSH1 0x5 ADD PUSH0 PUSH2 0x100 EXP DUP2 SLOAD DUP2 PUSH1 0xFF MUL NOT AND SWAP1 DUP4 ISZERO ISZERO MUL OR SWAP1 SSTORE POP POP JUMP JUMPDEST PUSH1 0x60 PUSH0 DUP1 DUP4 PUSH20 0xFFFFFFFFFFFFFFFFFFFFFFFFFFFFFFFFFFFFFFFF AND PUSH20 0xFFFFFFFFFFFFFFFFFFFFFFFFFFFFFFFFFFFFFFFF AND DUP2 MSTORE PUSH1 0x20 ADD SWAP1 DUP2 MSTORE PUSH1 0x20 ADD PUSH0 KECCAK256 PUSH1 0x6 ADD DUP1 SLOAD PUSH2 0x213 SWAP1 PUSH2 0x1251 JUMP JUMPDEST DUP1 PUSH1 0x1F ADD PUSH1 0x20 DUP1 SWAP2 DIV MUL PUSH1 0x20 ADD PUSH1 0x40 MLOAD SWAP1 DUP2 ADD PUSH1 0x40 MSTORE DUP1 SWAP3 SWAP2 SWAP1 DUP2 DUP2 MSTORE PUSH1 0x20 ADD DUP3 DUP1 SLOAD PUSH2 0x23F SWAP1 PUSH2 0x1251 JUMP JUMPDEST DUP1 ISZERO PUSH2 0x28A JUMPI DUP1 PUSH1 0x1F LT PUSH2 0x261 JUMPI PUSH2 0x100 DUP1 DUP4 SLOAD DIV MUL DUP4 MSTORE SWAP2 PUSH1 0x20 ADD SWAP2 PUSH2 0x28A JUMP JUMPDEST DUP3 ADD SWAP2 SWAP1 PUSH0 MSTORE PUSH1 0x20 PUSH0 KECCAK256 SWAP1 JUMPDEST DUP2 SLOAD DUP2 MSTORE SWAP1 PUSH1 0x1 ADD SWAP1 PUSH1 0x20 ADD DUP1 DUP4 GT PUSH2 0x26D JUMPI DUP3 SWAP1 SUB PUSH1 0x1F AND DUP3 ADD SWAP2 JUMPDEST POP POP POP POP POP SWAP1 POP SWAP2 SWAP1 POP JUMP JUMPDEST PUSH2 0x29E PUSH2 0xA95 JUMP JUMPDEST PUSH0 DUP1 DUP4 PUSH20 0xFFFFFFFFFFFFFFFFFFFFFFFFFFFFFFFFFFFFFFFF AND PUSH20 0xFFFFFFFFFFFFFFFFFFFFFFFFFFFFFFFFFFFFFFFF AND DUP2 MSTORE PUSH1 0x20 ADD SWAP1 DUP2 MSTORE PUSH1 0x20 ADD PUSH0 KECCAK256 PUSH1 0x5 ADD PUSH0 SWAP1 SLOAD SWAP1 PUSH2 0x100 EXP SWAP1 DIV PUSH1 0xFF AND ISZERO PUSH2 0x32A JUMPI PUSH1 0x40 MLOAD PUSH32 0x8C379A000000000000000000000000000000000000000000000000000000000 DUP2 MSTORE PUSH1 0x4 ADD PUSH2 0x321 SWAP1 PUSH2 0x12CB JUMP JUMPDEST PUSH1 0x40 MLOAD DUP1 SWAP2 SUB SWAP1 REVERT JUMPDEST PUSH0 DUP1 DUP4 PUSH20 0xFFFFFFFFFFFFFFFFFFFFFFFFFFFFFFFFFFFFFFFF AND PUSH20 0xFFFFFFFFFFFFFFFFFFFFFFFFFFFFFFFFFFFFFFFF AND DUP2 MSTORE PUSH1 0x20 ADD SWAP1 DUP2 MSTORE PUSH1 0x20 ADD PUSH0 KECCAK256 PUSH1 0x40 MLOAD DUP1 PUSH1 0xE0 ADD PUSH1 0x40 MSTORE SWAP1 DUP2 PUSH0 DUP3 ADD DUP1 SLOAD PUSH2 0x380 SWAP1 PUSH2 0x1251 JUMP JUMPDEST DUP1 PUSH1 0x1F ADD PUSH1 0x20 DUP1 SWAP2 DIV MUL PUSH1 0x20 ADD PUSH1 0x40 MLOAD SWAP1 DUP2 ADD PUSH1 0x40 MSTORE DUP1 SWAP3 SWAP2 SWAP1 DUP2 DUP2 MSTORE PUSH1 0x20 ADD DUP3 DUP1 SLOAD PUSH2 0x3AC SWAP1 PUSH2 0x1251 JUMP JUMPDEST DUP1 ISZERO PUSH2 0x3F7 JUMPI DUP1 PUSH1 0x1F LT PUSH2 0x3CE JUMPI PUSH2 0x100 DUP1 DUP4 SLOAD DIV MUL DUP4 MSTORE SWAP2 PUSH1 0x20 ADD SWAP2 PUSH2 0x3F7 JUMP JUMPDEST DUP3 ADD SWAP2 SWAP1 PUSH0 MSTORE PUSH1 0x20 PUSH0 KECCAK256 SWAP1 JUMPDEST DUP2 SLOAD DUP2 MSTORE SWAP1 PUSH1 0x1 ADD SWAP1 PUSH1 0x20 ADD DUP1 DUP4 GT PUSH2 0x3DA JUMPI DUP3 SWAP1 SUB PUSH1 0x1F AND DUP3 ADD SWAP2 JUMPDEST POP POP POP POP POP DUP2 MSTORE PUSH1 0x20 ADD PUSH1 0x1 DUP3 ADD PUSH0 SWAP1 SLOAD SWAP1 PUSH2 0x100 EXP SWAP1 DIV PUSH1 0xFF AND ISZERO ISZERO ISZERO ISZERO DUP2 MSTORE PUSH1 0x20 ADD PUSH1 0x2 DUP3 ADD DUP1 SLOAD PUSH2 0x42A SWAP1 PUSH2 0x1251 JUMP JUMPDEST DUP1 PUSH1 0x1F ADD PUSH1 0x20 DUP1 SWAP2 DIV MUL PUSH1 0x20 ADD PUSH1 0x40 MLOAD SWAP1 DUP2 ADD PUSH1 0x40 MSTORE DUP1 SWAP3 SWAP2 SWAP1 DUP2 DUP2 MSTORE PUSH1 0x20 ADD DUP3 DUP1 SLOAD PUSH2 0x456 SWAP1 PUSH2 0x1251 JUMP JUMPDEST DUP1 ISZERO PUSH2 0x4A1 JUMPI DUP1 PUSH1 0x1F LT PUSH2 0x478 JUMPI PUSH2 0x100 DUP1 DUP4 SLOAD DIV MUL DUP4 MSTORE SWAP2 PUSH1 0x20 ADD SWAP2 PUSH2 0x4A1 JUMP JUMPDEST DUP3 ADD SWAP2 SWAP1 PUSH0 MSTORE PUSH1 0x20 PUSH0 KECCAK256 SWAP1 JUMPDEST DUP2 SLOAD DUP2 MSTORE SWAP1 PUSH1 0x1 ADD SWAP1 PUSH1 0x20 ADD DUP1 DUP4 GT PUSH2 0x484 JUMPI DUP3 SWAP1 SUB PUSH1 0x1F AND DUP3 ADD SWAP2 JUMPDEST POP POP POP POP POP DUP2 MSTORE PUSH1 0x20 ADD PUSH1 0x3 DUP3 ADD DUP1 SLOAD PUSH2 0x4BA SWAP1 PUSH2 0x1251 JUMP JUMPDEST DUP1 PUSH1 0x1F ADD PUSH1 0x20 DUP1 SWAP2 DIV MUL PUSH1 0x20 ADD PUSH1 0x40 MLOAD SWAP1 DUP2 ADD PUSH1 0x40 MSTORE DUP1 SWAP3 SWAP2 SWAP1 DUP2 DUP2 MSTORE PUSH1 0x20 ADD DUP3 DUP1 SLOAD PUSH2 0x4E6 SWAP1 PUSH2 0x1251 JUMP JUMPDEST DUP1 ISZERO PUSH2 0x531 JUMPI DUP1 PUSH1 0x1F LT PUSH2 0x508 JUMPI PUSH2 0x100 DUP1 DUP4 SLOAD DIV MUL DUP4 MSTORE SWAP2 PUSH1 0x20 ADD SWAP2 PUSH2 0x531 JUMP JUMPDEST DUP3 ADD SWAP2 SWAP1 PUSH0 MSTORE PUSH1 0x20 PUSH0 KECCAK256 SWAP1 JUMPDEST DUP2 SLOAD DUP2 MSTORE SWAP1 PUSH1 0x1 ADD SWAP1 PUSH1 0x20 ADD DUP1 DUP4 GT PUSH2 0x514 JUMPI DUP3 SWAP1 SUB PUSH1 0x1F AND DUP3 ADD SWAP2 JUMPDEST POP POP POP POP POP DUP2 MSTORE PUSH1 0x20 ADD PUSH1 0x4 DUP3 ADD DUP1 SLOAD PUSH2 0x54A SWAP1 PUSH2 0x1251 JUMP JUMPDEST DUP1 PUSH1 0x1F ADD PUSH1 0x20 DUP1 SWAP2 DIV MUL PUSH1 0x20 ADD PUSH1 0x40 MLOAD SWAP1 DUP2 ADD PUSH1 0x40 MSTORE DUP1 SWAP3 SWAP2 SWAP1 DUP2 DUP2 MSTORE PUSH1 0x20 ADD DUP3 DUP1 SLOAD PUSH2 0x576 SWAP1 PUSH2 0x1251 JUMP JUMPDEST DUP1 ISZERO PUSH2 0x5C1 JUMPI DUP1 PUSH1 0x1F LT PUSH2 0x598 JUMPI PUSH2 0x100 DUP1 DUP4 SLOAD DIV MUL DUP4 MSTORE SWAP2 PUSH1 0x20 ADD SWAP2 PUSH2 0x5C1 JUMP JUMPDEST DUP3 ADD SWAP2 SWAP1 PUSH0 MSTORE PUSH1 0x20 PUSH0 KECCAK256 SWAP1 JUMPDEST DUP2 SLOAD DUP2 MSTORE SWAP1 PUSH1 0x1 ADD SWAP1 PUSH1 0x20 ADD DUP1 DUP4 GT PUSH2 0x5A4 JUMPI DUP3 SWAP1 SUB PUSH1 0x1F AND DUP3 ADD SWAP2 JUMPDEST POP POP POP POP POP DUP2 MSTORE PUSH1 0x20 ADD PUSH1 0x5 DUP3 ADD PUSH0 SWAP1 SLOAD SWAP1 PUSH2 0x100 EXP SWAP1 DIV PUSH1 0xFF AND ISZERO ISZERO ISZERO ISZERO DUP2 MSTORE PUSH1 0x20 ADD PUSH1 0x6 DUP3 ADD DUP1 SLOAD PUSH2 0x5F4 SWAP1 PUSH2 0x1251 JUMP JUMPDEST DUP1 PUSH1 0x1F ADD PUSH1 0x20 DUP1 SWAP2 DIV MUL PUSH1 0x20 ADD PUSH1 0x40 MLOAD SWAP1 DUP2 ADD PUSH1 0x40 MSTORE DUP1 SWAP3 SWAP2 SWAP1 DUP2 DUP2 MSTORE PUSH1 0x20 ADD DUP3 DUP1 SLOAD PUSH2 0x620 SWAP1 PUSH2 0x1251 JUMP JUMPDEST DUP1 ISZERO PUSH2 0x66B JUMPI DUP1 PUSH1 0x1F LT PUSH2 0x642 JUMPI PUSH2 0x100 DUP1 DUP4 SLOAD DIV MUL DUP4 MSTORE SWAP2 PUSH1 0x20 ADD SWAP2 PUSH2 0x66B JUMP JUMPDEST DUP3 ADD SWAP2 SWAP1 PUSH0 MSTORE PUSH1 0x20 PUSH0 KECCAK256 SWAP1 JUMPDEST DUP2 SLOAD DUP2 MSTORE SWAP1 PUSH1 0x1 ADD SWAP1 PUSH1 0x20 ADD DUP1 DUP4 GT PUSH2 0x64E JUMPI DUP3 SWAP1 SUB PUSH1 0x1F AND DUP3 ADD SWAP2 JUMPDEST POP POP POP POP POP DUP2 MSTORE POP POP SWAP1 POP SWAP2 SWAP1 POP JUMP JUMPDEST PUSH1 0x40 MLOAD DUP1 PUSH1 0xE0 ADD PUSH1 0x40 MSTORE DUP1 DUP9 DUP2 MSTORE PUSH1 0x20 ADD DUP8 ISZERO ISZERO DUP2 MSTORE PUSH1 0x20 ADD DUP7 DUP2 MSTORE PUSH1 0x20 ADD DUP6 DUP2 MSTORE PUSH1 0x20 ADD DUP5 DUP2 MSTORE PUSH1 0x20 ADD DUP3 ISZERO ISZERO DUP2 MSTORE PUSH1 0x20 ADD DUP4 DUP2 MSTORE POP PUSH0 DUP1 DUP11 PUSH20 0xFFFFFFFFFFFFFFFFFFFFFFFFFFFFFFFFFFFFFFFF AND PUSH20 0xFFFFFFFFFFFFFFFFFFFFFFFFFFFFFFFFFFFFFFFF AND DUP2 MSTORE PUSH1 0x20 ADD SWAP1 DUP2 MSTORE PUSH1 0x20 ADD PUSH0 KECCAK256 PUSH0 DUP3 ADD MLOAD DUP2 PUSH0 ADD SWAP1 DUP2 PUSH2 0x701 SWAP2 SWAP1 PUSH2 0x148F JUMP JUMPDEST POP PUSH1 0x20 DUP3 ADD MLOAD DUP2 PUSH1 0x1 ADD PUSH0 PUSH2 0x100 EXP DUP2 SLOAD DUP2 PUSH1 0xFF MUL NOT AND SWAP1 DUP4 ISZERO ISZERO MUL OR SWAP1 SSTORE POP PUSH1 0x40 DUP3 ADD MLOAD DUP2 PUSH1 0x2 ADD SWAP1 DUP2 PUSH2 0x736 SWAP2 SWAP1 PUSH2 0x148F JUMP JUMPDEST POP PUSH1 0x60 DUP3 ADD MLOAD DUP2 PUSH1 0x3 ADD SWAP1 DUP2 PUSH2 0x74C SWAP2 SWAP1 PUSH2 0x148F JUMP JUMPDEST POP PUSH1 0x80 DUP3 ADD MLOAD DUP2 PUSH1 0x4 ADD SWAP1 DUP2 PUSH2 0x762 SWAP2 SWAP1 PUSH2 0x148F JUMP JUMPDEST POP PUSH1 0xA0 DUP3 ADD MLOAD DUP2 PUSH1 0x5 ADD PUSH0 PUSH2 0x100 EXP DUP2 SLOAD DUP2 PUSH1 0xFF MUL NOT AND SWAP1 DUP4 ISZERO ISZERO MUL OR SWAP1 SSTORE POP PUSH1 0xC0 DUP3 ADD MLOAD DUP2 PUSH1 0x6 ADD SWAP1 DUP2 PUSH2 0x797 SWAP2 SWAP1 PUSH2 0x148F JUMP JUMPDEST POP SWAP1 POP POP POP POP POP POP POP POP POP POP JUMP JUMPDEST PUSH0 DUP1 PUSH0 CALLER PUSH20 0xFFFFFFFFFFFFFFFFFFFFFFFFFFFFFFFFFFFFFFFF AND PUSH20 0xFFFFFFFFFFFFFFFFFFFFFFFFFFFFFFFFFFFFFFFF AND DUP2 MSTORE PUSH1 0x20 ADD SWAP1 DUP2 MSTORE PUSH1 0x20 ADD PUSH0 KECCAK256 PUSH0 ADD DUP1 SLOAD PUSH2 0x7EF SWAP1 PUSH2 0x1251 JUMP JUMPDEST SWAP1 POP EQ PUSH2 0x831 JUMPI PUSH1 0x40 MLOAD PUSH32 0x8C379A000000000000000000000000000000000000000000000000000000000 DUP2 MSTORE PUSH1 0x4 ADD PUSH2 0x828 SWAP1 PUSH2 0x15A8 JUMP JUMPDEST PUSH1 0x40 MLOAD DUP1 SWAP2 SUB SWAP1 REVERT JUMPDEST PUSH1 0x40 MLOAD DUP1 PUSH1 0xE0 ADD PUSH1 0x40 MSTORE DUP1 DUP8 DUP2 MSTORE PUSH1 0x20 ADD DUP7 ISZERO ISZERO DUP2 MSTORE PUSH1 0x20 ADD DUP6 DUP2 MSTORE PUSH1 0x20 ADD DUP5 DUP2 MSTORE PUSH1 0x20 ADD DUP4 DUP2 MSTORE PUSH1 0x20 ADD PUSH0 ISZERO ISZERO DUP2 MSTORE PUSH1 0x20 ADD DUP3 DUP2 MSTORE POP PUSH0 DUP1 CALLER PUSH20 0xFFFFFFFFFFFFFFFFFFFFFFFFFFFFFFFFFFFFFFFF AND PUSH20 0xFFFFFFFFFFFFFFFFFFFFFFFFFFFFFFFFFFFFFFFF AND DUP2 MSTORE PUSH1 0x20 ADD SWAP1 DUP2 MSTORE PUSH1 0x20 ADD PUSH0 KECCAK256 PUSH0 DUP3 ADD MLOAD DUP2 PUSH0 ADD SWAP1 DUP2 PUSH2 0x8B7 SWAP2 SWAP1 PUSH2 0x148F JUMP JUMPDEST POP PUSH1 0x20 DUP3 ADD MLOAD DUP2 PUSH1 0x1 ADD PUSH0 PUSH2 0x100 EXP DUP2 SLOAD DUP2 PUSH1 0xFF MUL NOT AND SWAP1 DUP4 ISZERO ISZERO MUL OR SWAP1 SSTORE POP PUSH1 0x40 DUP3 ADD MLOAD DUP2 PUSH1 0x2 ADD SWAP1 DUP2 PUSH2 0x8EC SWAP2 SWAP1 PUSH2 0x148F JUMP JUMPDEST POP PUSH1 0x60 DUP3 ADD MLOAD DUP2 PUSH1 0x3 ADD SWAP1 DUP2 PUSH2 0x902 SWAP2 SWAP1 PUSH2 0x148F JUMP JUMPDEST POP PUSH1 0x80 DUP3 ADD MLOAD DUP2 PUSH1 0x4 ADD SWAP1 DUP2 PUSH2 0x918 SWAP2 SWAP1 PUSH2 0x148F JUMP JUMPDEST POP PUSH1 0xA0 DUP3 ADD MLOAD DUP2 PUSH1 0x5 ADD PUSH0 PUSH2 0x100 EXP DUP2 SLOAD DUP2 PUSH1 0xFF MUL NOT AND SWAP1 DUP4 ISZERO ISZERO MUL OR SWAP1 SSTORE POP PUSH1 0xC0 DUP3 ADD MLOAD DUP2 PUSH1 0x6 ADD SWAP1 DUP2 PUSH2 0x94D SWAP2 SWAP1 PUSH2 0x148F JUMP JUMPDEST POP SWAP1 POP POP PUSH1 0x1 CALLER SWAP1 DUP1 PUSH1 0x1 DUP2 SLOAD ADD DUP1 DUP3 SSTORE DUP1 SWAP2 POP POP PUSH1 0x1 SWAP1 SUB SWAP1 PUSH0 MSTORE PUSH1 0x20 PUSH0 KECCAK256 ADD PUSH0 SWAP1 SWAP2 SWAP1 SWAP2 SWAP1 SWAP2 PUSH2 0x100 EXP DUP2 SLOAD DUP2 PUSH20 0xFFFFFFFFFFFFFFFFFFFFFFFFFFFFFFFFFFFFFFFF MUL NOT AND SWAP1 DUP4 PUSH20 0xFFFFFFFFFFFFFFFFFFFFFFFFFFFFFFFFFFFFFFFF AND MUL OR SWAP1 SSTORE POP POP POP POP POP POP POP JUMP JUMPDEST PUSH1 0x60 PUSH1 0x1 DUP1 SLOAD DUP1 PUSH1 0x20 MUL PUSH1 0x20 ADD PUSH1 0x40 MLOAD SWAP1 DUP2 ADD PUSH1 0x40 MSTORE DUP1 SWAP3 SWAP2 SWAP1 DUP2 DUP2 MSTORE PUSH1 0x20 ADD DUP3 DUP1 SLOAD DUP1 ISZERO PUSH2 0xA3A JUMPI PUSH1 0x20 MUL DUP3 ADD SWAP2 SWAP1 PUSH0 MSTORE PUSH1 0x20 PUSH0 KECCAK256 SWAP1 JUMPDEST DUP2 PUSH0 SWAP1 SLOAD SWAP1 PUSH2 0x100 EXP SWAP1 DIV PUSH20 0xFFFFFFFFFFFFFFFFFFFFFFFFFFFFFFFFFFFFFFFF AND PUSH20 0xFFFFFFFFFFFFFFFFFFFFFFFFFFFFFFFFFFFFFFFF AND DUP2 MSTORE PUSH1 0x20 ADD SWAP1 PUSH1 0x1 ADD SWAP1 DUP1 DUP4 GT PUSH2 0x9F1 JUMPI JUMPDEST POP POP POP POP POP SWAP1 POP SWAP1 JUMP JUMPDEST DUP1 PUSH0 DUP1 DUP5 PUSH20 0xFFFFFFFFFFFFFFFFFFFFFFFFFFFFFFFFFFFFFFFF AND PUSH20 0xFFFFFFFFFFFFFFFFFFFFFFFFFFFFFFFFFFFFFFFF AND DUP2 MSTORE PUSH1 0x20 ADD SWAP1 DUP2 MSTORE PUSH1 0x20 ADD PUSH0 KECCAK256 PUSH1 0x6 ADD SWAP1 DUP2 PUSH2 0xA90 SWAP2 SWAP1 PUSH2 0x148F JUMP JUMPDEST POP POP POP JUMP JUMPDEST PUSH1 0x40 MLOAD DUP1 PUSH1 0xE0 ADD PUSH1 0x40 MSTORE DUP1 PUSH1 0x60 DUP2 MSTORE PUSH1 0x20 ADD PUSH0 ISZERO ISZERO DUP2 MSTORE PUSH1 0x20 ADD PUSH1 0x60 DUP2 MSTORE PUSH1 0x20 ADD PUSH1 0x60 DUP2 MSTORE PUSH1 0x20 ADD PUSH1 0x60 DUP2 MSTORE PUSH1 0x20 ADD PUSH0 ISZERO ISZERO DUP2 MSTORE PUSH1 0x20 ADD PUSH1 0x60 DUP2 MSTORE POP SWAP1 JUMP JUMPDEST PUSH0 PUSH1 0x40 MLOAD SWAP1 POP SWAP1 JUMP JUMPDEST PUSH0 DUP1 REVERT JUMPDEST PUSH0 DUP1 REVERT JUMPDEST PUSH0 PUSH20 0xFFFFFFFFFFFFFFFFFFFFFFFFFFFFFFFFFFFFFFFF DUP3 AND SWAP1 POP SWAP2 SWAP1 POP JUMP JUMPDEST PUSH0 PUSH2 0xB0E DUP3 PUSH2 0xAE5 JUMP JUMPDEST SWAP1 POP SWAP2 SWAP1 POP JUMP JUMPDEST PUSH2 0xB1E DUP2 PUSH2 0xB04 JUMP JUMPDEST DUP2 EQ PUSH2 0xB28 JUMPI PUSH0 DUP1 REVERT JUMPDEST POP JUMP JUMPDEST PUSH0 DUP2 CALLDATALOAD SWAP1 POP PUSH2 0xB39 DUP2 PUSH2 0xB15 JUMP JUMPDEST SWAP3 SWAP2 POP POP JUMP JUMPDEST PUSH0 PUSH1 0x20 DUP3 DUP5 SUB SLT ISZERO PUSH2 0xB54 JUMPI PUSH2 0xB53 PUSH2 0xADD JUMP JUMPDEST JUMPDEST PUSH0 PUSH2 0xB61 DUP5 DUP3 DUP6 ADD PUSH2 0xB2B JUMP JUMPDEST SWAP2 POP POP SWAP3 SWAP2 POP POP JUMP JUMPDEST PUSH0 DUP2 MLOAD SWAP1 POP SWAP2 SWAP1 POP JUMP JUMPDEST PUSH0 DUP3 DUP3 MSTORE PUSH1 0x20 DUP3 ADD SWAP1 POP SWAP3 SWAP2 POP POP JUMP JUMPDEST PUSH0 JUMPDEST DUP4 DUP2 LT ISZERO PUSH2 0xBA1 JUMPI DUP1 DUP3 ADD MLOAD DUP2 DUP5 ADD MSTORE PUSH1 0x20 DUP2 ADD SWAP1 POP PUSH2 0xB86 JUMP JUMPDEST PUSH0 DUP5 DUP5 ADD MSTORE POP POP POP POP JUMP JUMPDEST PUSH0 PUSH1 0x1F NOT PUSH1 0x1F DUP4 ADD AND SWAP1 POP SWAP2 SWAP1 POP JUMP JUMPDEST PUSH0 PUSH2 0xBC6 DUP3 PUSH2 0xB6A JUMP JUMPDEST PUSH2 0xBD0 DUP2 DUP6 PUSH2 0xB74 JUMP JUMPDEST SWAP4 POP PUSH2 0xBE0 DUP2 DUP6 PUSH1 0x20 DUP7 ADD PUSH2 0xB84 JUMP JUMPDEST PUSH2 0xBE9 DUP2 PUSH2 0xBAC JUMP JUMPDEST DUP5 ADD SWAP2 POP POP SWAP3 SWAP2 POP POP JUMP JUMPDEST PUSH0 PUSH1 0x20 DUP3 ADD SWAP1 POP DUP2 DUP2 SUB PUSH0 DUP4 ADD MSTORE PUSH2 0xC0C DUP2 DUP5 PUSH2 0xBBC JUMP JUMPDEST SWAP1 POP SWAP3 SWAP2 POP POP JUMP JUMPDEST PUSH0 DUP3 DUP3 MSTORE PUSH1 0x20 DUP3 ADD SWAP1 POP SWAP3 SWAP2 POP POP JUMP JUMPDEST PUSH0 PUSH2 0xC2E DUP3 PUSH2 0xB6A JUMP JUMPDEST PUSH2 0xC38 DUP2 DUP6 PUSH2 0xC14 JUMP JUMPDEST SWAP4 POP PUSH2 0xC48 DUP2 DUP6 PUSH1 0x20 DUP7 ADD PUSH2 0xB84 JUMP JUMPDEST PUSH2 0xC51 DUP2 PUSH2 0xBAC JUMP JUMPDEST DUP5 ADD SWAP2 POP POP SWAP3 SWAP2 POP POP JUMP JUMPDEST PUSH0 DUP2 ISZERO ISZERO SWAP1 POP SWAP2 SWAP1 POP JUMP JUMPDEST PUSH2 0xC70 DUP2 PUSH2 0xC5C JUMP JUMPDEST DUP3 MSTORE POP POP JUMP JUMPDEST PUSH0 PUSH1 0xE0 DUP4 ADD PUSH0 DUP4 ADD MLOAD DUP5 DUP3 SUB PUSH0 DUP7 ADD MSTORE PUSH2 0xC90 DUP3 DUP3 PUSH2 0xC24 JUMP JUMPDEST SWAP2 POP POP PUSH1 0x20 DUP4 ADD MLOAD PUSH2 0xCA5 PUSH1 0x20 DUP7 ADD DUP3 PUSH2 0xC67 JUMP JUMPDEST POP PUSH1 0x40 DUP4 ADD MLOAD DUP5 DUP3 SUB PUSH1 0x40 DUP7 ADD MSTORE PUSH2 0xCBD DUP3 DUP3 PUSH2 0xC24 JUMP JUMPDEST SWAP2 POP POP PUSH1 0x60 DUP4 ADD MLOAD DUP5 DUP3 SUB PUSH1 0x60 DUP7 ADD MSTORE PUSH2 0xCD7 DUP3 DUP3 PUSH2 0xC24 JUMP JUMPDEST SWAP2 POP POP PUSH1 0x80 DUP4 ADD MLOAD DUP5 DUP3 SUB PUSH1 0x80 DUP7 ADD MSTORE PUSH2 0xCF1 DUP3 DUP3 PUSH2 0xC24 JUMP JUMPDEST SWAP2 POP POP PUSH1 0xA0 DUP4 ADD MLOAD PUSH2 0xD06 PUSH1 0xA0 DUP7 ADD DUP3 PUSH2 0xC67 JUMP JUMPDEST POP PUSH1 0xC0 DUP4 ADD MLOAD DUP5 DUP3 SUB PUSH1 0xC0 DUP7 ADD MSTORE PUSH2 0xD1E DUP3 DUP3 PUSH2 0xC24 JUMP JUMPDEST SWAP2 POP POP DUP1 SWAP2 POP POP SWAP3 SWAP2 POP POP JUMP JUMPDEST PUSH0 PUSH1 0x20 DUP3 ADD SWAP1 POP DUP2 DUP2 SUB PUSH0 DUP4 ADD MSTORE PUSH2 0xD43 DUP2 DUP5 PUSH2 0xC76 JUMP JUMPDEST SWAP1 POP SWAP3 SWAP2 POP POP JUMP JUMPDEST PUSH0 DUP1 REVERT JUMPDEST PUSH0 DUP1 REVERT JUMPDEST PUSH32 0x4E487B7100000000000000000000000000000000000000000000000000000000 PUSH0 MSTORE PUSH1 0x41 PUSH1 0x4 MSTORE PUSH1 0x24 PUSH0 REVERT JUMPDEST PUSH2 0xD89 DUP3 PUSH2 0xBAC JUMP JUMPDEST DUP2 ADD DUP2 DUP2 LT PUSH8 0xFFFFFFFFFFFFFFFF DUP3 GT OR ISZERO PUSH2 0xDA8 JUMPI PUSH2 0xDA7 PUSH2 0xD53 JUMP JUMPDEST JUMPDEST DUP1 PUSH1 0x40 MSTORE POP POP POP JUMP JUMPDEST PUSH0 PUSH2 0xDBA PUSH2 0xAD4 JUMP JUMPDEST SWAP1 POP PUSH2 0xDC6 DUP3 DUP3 PUSH2 0xD80 JUMP JUMPDEST SWAP2 SWAP1 POP JUMP JUMPDEST PUSH0 PUSH8 0xFFFFFFFFFFFFFFFF DUP3 GT ISZERO PUSH2 0xDE5 JUMPI PUSH2 0xDE4 PUSH2 0xD53 JUMP JUMPDEST JUMPDEST PUSH2 0xDEE DUP3 PUSH2 0xBAC JUMP JUMPDEST SWAP1 POP PUSH1 0x20 DUP2 ADD SWAP1 POP SWAP2 SWAP1 POP JUMP JUMPDEST DUP3 DUP2 DUP4 CALLDATACOPY PUSH0 DUP4 DUP4 ADD MSTORE POP POP POP JUMP JUMPDEST PUSH0 PUSH2 0xE1B PUSH2 0xE16 DUP5 PUSH2 0xDCB JUMP JUMPDEST PUSH2 0xDB1 JUMP JUMPDEST SWAP1 POP DUP3 DUP2 MSTORE PUSH1 0x20 DUP2 ADD DUP5 DUP5 DUP5 ADD GT ISZERO PUSH2 0xE37 JUMPI PUSH2 0xE36 PUSH2 0xD4F JUMP JUMPDEST JUMPDEST PUSH2 0xE42 DUP5 DUP3 DUP6 PUSH2 0xDFB JUMP JUMPDEST POP SWAP4 SWAP3 POP POP POP JUMP JUMPDEST PUSH0 DUP3 PUSH1 0x1F DUP4 ADD SLT PUSH2 0xE5E JUMPI PUSH2 0xE5D PUSH2 0xD4B JUMP JUMPDEST JUMPDEST DUP2 CALLDATALOAD PUSH2 0xE6E DUP5 DUP3 PUSH1 0x20 DUP7 ADD PUSH2 0xE09 JUMP JUMPDEST SWAP2 POP POP SWAP3 SWAP2 POP POP JUMP JUMPDEST PUSH2 0xE80 DUP2 PUSH2 0xC5C JUMP JUMPDEST DUP2 EQ PUSH2 0xE8A JUMPI PUSH0 DUP1 REVERT JUMPDEST POP JUMP JUMPDEST PUSH0 DUP2 CALLDATALOAD SWAP1 POP PUSH2 0xE9B DUP2 PUSH2 0xE77 JUMP JUMPDEST SWAP3 SWAP2 POP POP JUMP JUMPDEST PUSH0 DUP1 PUSH0 DUP1 PUSH0 DUP1 PUSH0 DUP1 PUSH2 0x100 DUP10 DUP12 SUB SLT ISZERO PUSH2 0xEBE JUMPI PUSH2 0xEBD PUSH2 0xADD JUMP JUMPDEST JUMPDEST PUSH0 PUSH2 0xECB DUP12 DUP3 DUP13 ADD PUSH2 0xB2B JUMP JUMPDEST SWAP9 POP POP PUSH1 0x20 DUP10 ADD CALLDATALOAD PUSH8 0xFFFFFFFFFFFFFFFF DUP2 GT ISZERO PUSH2 0xEEC JUMPI PUSH2 0xEEB PUSH2 0xAE1 JUMP JUMPDEST JUMPDEST PUSH2 0xEF8 DUP12 DUP3 DUP13 ADD PUSH2 0xE4A JUMP JUMPDEST SWAP8 POP POP PUSH1 0x40 PUSH2 0xF09 DUP12 DUP3 DUP13 ADD PUSH2 0xE8D JUMP JUMPDEST SWAP7 POP POP PUSH1 0x60 DUP10 ADD CALLDATALOAD PUSH8 0xFFFFFFFFFFFFFFFF DUP2 GT ISZERO PUSH2 0xF2A JUMPI PUSH2 0xF29 PUSH2 0xAE1 JUMP JUMPDEST JUMPDEST PUSH2 0xF36 DUP12 DUP3 DUP13 ADD PUSH2 0xE4A JUMP JUMPDEST SWAP6 POP POP PUSH1 0x80 DUP10 ADD CALLDATALOAD PUSH8 0xFFFFFFFFFFFFFFFF DUP2 GT ISZERO PUSH2 0xF57 JUMPI PUSH2 0xF56 PUSH2 0xAE1 JUMP JUMPDEST JUMPDEST PUSH2 0xF63 DUP12 DUP3 DUP13 ADD PUSH2 0xE4A JUMP JUMPDEST SWAP5 POP POP PUSH1 0xA0 DUP10 ADD CALLDATALOAD PUSH8 0xFFFFFFFFFFFFFFFF DUP2 GT ISZERO PUSH2 0xF84 JUMPI PUSH2 0xF83 PUSH2 0xAE1 JUMP JUMPDEST JUMPDEST PUSH2 0xF90 DUP12 DUP3 DUP13 ADD PUSH2 0xE4A JUMP JUMPDEST SWAP4 POP POP PUSH1 0xC0 DUP10 ADD CALLDATALOAD PUSH8 0xFFFFFFFFFFFFFFFF DUP2 GT ISZERO PUSH2 0xFB1 JUMPI PUSH2 0xFB0 PUSH2 0xAE1 JUMP JUMPDEST JUMPDEST PUSH2 0xFBD DUP12 DUP3 DUP13 ADD PUSH2 0xE4A JUMP JUMPDEST SWAP3 POP POP PUSH1 0xE0 PUSH2 0xFCE DUP12 DUP3 DUP13 ADD PUSH2 0xE8D JUMP JUMPDEST SWAP2 POP POP SWAP3 SWAP6 SWAP9 POP SWAP3 SWAP6 SWAP9 SWAP1 SWAP4 SWAP7 POP JUMP JUMPDEST PUSH0 DUP1 PUSH0 DUP1 PUSH0 DUP1 PUSH1 0xC0 DUP8 DUP10 SUB SLT ISZERO PUSH2 0xFF8 JUMPI PUSH2 0xFF7 PUSH2 0xADD JUMP JUMPDEST JUMPDEST PUSH0 DUP8 ADD CALLDATALOAD PUSH8 0xFFFFFFFFFFFFFFFF DUP2 GT ISZERO PUSH2 0x1015 JUMPI PUSH2 0x1014 PUSH2 0xAE1 JUMP JUMPDEST JUMPDEST PUSH2 0x1021 DUP10 DUP3 DUP11 ADD PUSH2 0xE4A JUMP JUMPDEST SWAP7 POP POP PUSH1 0x20 PUSH2 0x1032 DUP10 DUP3 DUP11 ADD PUSH2 0xE8D JUMP JUMPDEST SWAP6 POP POP PUSH1 0x40 DUP8 ADD CALLDATALOAD PUSH8 0xFFFFFFFFFFFFFFFF DUP2 GT ISZERO PUSH2 0x1053 JUMPI PUSH2 0x1052 PUSH2 0xAE1 JUMP JUMPDEST JUMPDEST PUSH2 0x105F DUP10 DUP3 DUP11 ADD PUSH2 0xE4A JUMP JUMPDEST SWAP5 POP POP PUSH1 0x60 DUP8 ADD CALLDATALOAD PUSH8 0xFFFFFFFFFFFFFFFF DUP2 GT ISZERO PUSH2 0x1080 JUMPI PUSH2 0x107F PUSH2 0xAE1 JUMP JUMPDEST JUMPDEST PUSH2 0x108C DUP10 DUP3 DUP11 ADD PUSH2 0xE4A JUMP JUMPDEST SWAP4 POP POP PUSH1 0x80 DUP8 ADD CALLDATALOAD PUSH8 0xFFFFFFFFFFFFFFFF DUP2 GT ISZERO PUSH2 0x10AD JUMPI PUSH2 0x10AC PUSH2 0xAE1 JUMP JUMPDEST JUMPDEST PUSH2 0x10B9 DUP10 DUP3 DUP11 ADD PUSH2 0xE4A JUMP JUMPDEST SWAP3 POP POP PUSH1 0xA0 DUP8 ADD CALLDATALOAD PUSH8 0xFFFFFFFFFFFFFFFF DUP2 GT ISZERO PUSH2 0x10DA JUMPI PUSH2 0x10D9 PUSH2 0xAE1 JUMP JUMPDEST JUMPDEST PUSH2 0x10E6 DUP10 DUP3 DUP11 ADD PUSH2 0xE4A JUMP JUMPDEST SWAP2 POP POP SWAP3 SWAP6 POP SWAP3 SWAP6 POP SWAP3 SWAP6 JUMP JUMPDEST PUSH0 DUP2 MLOAD SWAP1 POP SWAP2 SWAP1 POP JUMP JUMPDEST PUSH0 DUP3 DUP3 MSTORE PUSH1 0x20 DUP3 ADD SWAP1 POP SWAP3 SWAP2 POP POP JUMP JUMPDEST PUSH0 DUP2 SWAP1 POP PUSH1 0x20 DUP3 ADD SWAP1 POP SWAP2 SWAP1 POP JUMP JUMPDEST PUSH2 0x1125 DUP2 PUSH2 0xB04 JUMP JUMPDEST DUP3 MSTORE POP POP JUMP JUMPDEST PUSH0 PUSH2 0x1136 DUP4 DUP4 PUSH2 0x111C JUMP JUMPDEST PUSH1 0x20 DUP4 ADD SWAP1 POP SWAP3 SWAP2 POP POP JUMP JUMPDEST PUSH0 PUSH1 0x20 DUP3 ADD SWAP1 POP SWAP2 SWAP1 POP JUMP JUMPDEST PUSH0 PUSH2 0x1158 DUP3 PUSH2 0x10F3 JUMP JUMPDEST PUSH2 0x1162 DUP2 DUP6 PUSH2 0x10FD JUMP JUMPDEST SWAP4 POP PUSH2 0x116D DUP4 PUSH2 0x110D JUMP JUMPDEST DUP1 PUSH0 JUMPDEST DUP4 DUP2 LT ISZERO PUSH2 0x119D JUMPI DUP2 MLOAD PUSH2 0x1184 DUP9 DUP3 PUSH2 0x112B JUMP JUMPDEST SWAP8 POP PUSH2 0x118F DUP4 PUSH2 0x1142 JUMP JUMPDEST SWAP3 POP POP PUSH1 0x1 DUP2 ADD SWAP1 POP PUSH2 0x1170 JUMP JUMPDEST POP DUP6 SWAP4 POP POP POP POP SWAP3 SWAP2 POP POP JUMP JUMPDEST PUSH0 PUSH1 0x20 DUP3 ADD SWAP1 POP DUP2 DUP2 SUB PUSH0 DUP4 ADD MSTORE PUSH2 0x11C2 DUP2 DUP5 PUSH2 0x114E JUMP JUMPDEST SWAP1 POP SWAP3 SWAP2 POP POP JUMP JUMPDEST PUSH0 DUP1 PUSH1 0x40 DUP4 DUP6 SUB SLT ISZERO PUSH2 0x11E0 JUMPI PUSH2 0x11DF PUSH2 0xADD JUMP JUMPDEST JUMPDEST PUSH0 PUSH2 0x11ED DUP6 DUP3 DUP7 ADD PUSH2 0xB2B JUMP JUMPDEST SWAP3 POP POP PUSH1 0x20 DUP4 ADD CALLDATALOAD PUSH8 0xFFFFFFFFFFFFFFFF DUP2 GT ISZERO PUSH2 0x120E JUMPI PUSH2 0x120D PUSH2 0xAE1 JUMP JUMPDEST JUMPDEST PUSH2 0x121A DUP6 DUP3 DUP7 ADD PUSH2 0xE4A JUMP JUMPDEST SWAP2 POP POP SWAP3 POP SWAP3 SWAP1 POP JUMP JUMPDEST PUSH32 0x4E487B7100000000000000000000000000000000000000000000000000000000 PUSH0 MSTORE PUSH1 0x22 PUSH1 0x4 MSTORE PUSH1 0x24 PUSH0 REVERT JUMPDEST PUSH0 PUSH1 0x2 DUP3 DIV SWAP1 POP PUSH1 0x1 DUP3 AND DUP1 PUSH2 0x1268 JUMPI PUSH1 0x7F DUP3 AND SWAP2 POP JUMPDEST PUSH1 0x20 DUP3 LT DUP2 SUB PUSH2 0x127B JUMPI PUSH2 0x127A PUSH2 0x1224 JUMP JUMPDEST JUMPDEST POP SWAP2 SWAP1 POP JUMP JUMPDEST PUSH32 0x557365722069732062616E6E65642E0000000000000000000000000000000000 PUSH0 DUP3 ADD MSTORE POP JUMP JUMPDEST PUSH0 PUSH2 0x12B5 PUSH1 0xF DUP4 PUSH2 0xB74 JUMP JUMPDEST SWAP2 POP PUSH2 0x12C0 DUP3 PUSH2 0x1281 JUMP JUMPDEST PUSH1 0x20 DUP3 ADD SWAP1 POP SWAP2 SWAP1 POP JUMP JUMPDEST PUSH0 PUSH1 0x20 DUP3 ADD SWAP1 POP DUP2 DUP2 SUB PUSH0 DUP4 ADD MSTORE PUSH2 0x12E2 DUP2 PUSH2 0x12A9 JUMP JUMPDEST SWAP1 POP SWAP2 SWAP1 POP JUMP JUMPDEST PUSH0 DUP2 SWAP1 POP DUP2 PUSH0 MSTORE PUSH1 0x20 PUSH0 KECCAK256 SWAP1 POP SWAP2 SWAP1 POP JUMP JUMPDEST PUSH0 PUSH1 0x20 PUSH1 0x1F DUP4 ADD DIV SWAP1 POP SWAP2 SWAP1 POP JUMP JUMPDEST PUSH0 DUP3 DUP3 SHL SWAP1 POP SWAP3 SWAP2 POP POP JUMP JUMPDEST PUSH0 PUSH1 0x8 DUP4 MUL PUSH2 0x1345 PUSH32 0xFFFFFFFFFFFFFFFFFFFFFFFFFFFFFFFFFFFFFFFFFFFFFFFFFFFFFFFFFFFFFFFF DUP3 PUSH2 0x130A JUMP JUMPDEST PUSH2 0x134F DUP7 DUP4 PUSH2 0x130A JUMP JUMPDEST SWAP6 POP DUP1 NOT DUP5 AND SWAP4 POP DUP1 DUP7 AND DUP5 OR SWAP3 POP POP POP SWAP4 SWAP3 POP POP POP JUMP JUMPDEST PUSH0 DUP2 SWAP1 POP SWAP2 SWAP1 POP JUMP JUMPDEST PUSH0 DUP2 SWAP1 POP SWAP2 SWAP1 POP JUMP JUMPDEST PUSH0 PUSH2 0x1393 PUSH2 0x138E PUSH2 0x1389 DUP5 PUSH2 0x1367 JUMP JUMPDEST PUSH2 0x1370 JUMP JUMPDEST PUSH2 0x1367 JUMP JUMPDEST SWAP1 POP SWAP2 SWAP1 POP JUMP JUMPDEST PUSH0 DUP2 SWAP1 POP SWAP2 SWAP1 POP JUMP JUMPDEST PUSH2 0x13AC DUP4 PUSH2 0x1379 JUMP JUMPDEST PUSH2 0x13C0 PUSH2 0x13B8 DUP3 PUSH2 0x139A JUMP JUMPDEST DUP5 DUP5 SLOAD PUSH2 0x1316 JUMP JUMPDEST DUP3 SSTORE POP POP POP POP JUMP JUMPDEST PUSH0 SWAP1 JUMP JUMPDEST PUSH2 0x13D4 PUSH2 0x13C8 JUMP JUMPDEST PUSH2 0x13DF DUP2 DUP5 DUP5 PUSH2 0x13A3 JUMP JUMPDEST POP POP POP JUMP JUMPDEST JUMPDEST DUP2 DUP2 LT ISZERO PUSH2 0x1402 JUMPI PUSH2 0x13F7 PUSH0 DUP3 PUSH2 0x13CC JUMP JUMPDEST PUSH1 0x1 DUP2 ADD SWAP1 POP PUSH2 0x13E5 JUMP JUMPDEST POP POP JUMP JUMPDEST PUSH1 0x1F DUP3 GT ISZERO PUSH2 0x1447 JUMPI PUSH2 0x1418 DUP2 PUSH2 0x12E9 JUMP JUMPDEST PUSH2 0x1421 DUP5 PUSH2 0x12FB JUMP JUMPDEST DUP2 ADD PUSH1 0x20 DUP6 LT ISZERO PUSH2 0x1430 JUMPI DUP2 SWAP1 POP JUMPDEST PUSH2 0x1444 PUSH2 0x143C DUP6 PUSH2 0x12FB JUMP JUMPDEST DUP4 ADD DUP3 PUSH2 0x13E4 JUMP JUMPDEST POP POP JUMPDEST POP POP POP JUMP JUMPDEST PUSH0 DUP3 DUP3 SHR SWAP1 POP SWAP3 SWAP2 POP POP JUMP JUMPDEST PUSH0 PUSH2 0x1467 PUSH0 NOT DUP5 PUSH1 0x8 MUL PUSH2 0x144C JUMP JUMPDEST NOT DUP1 DUP4 AND SWAP2 POP POP SWAP3 SWAP2 POP POP JUMP JUMPDEST PUSH0 PUSH2 0x147F DUP4 DUP4 PUSH2 0x1458 JUMP JUMPDEST SWAP2 POP DUP3 PUSH1 0x2 MUL DUP3 OR SWAP1 POP SWAP3 SWAP2 POP POP JUMP JUMPDEST PUSH2 0x1498 DUP3 PUSH2 0xB6A JUMP JUMPDEST PUSH8 0xFFFFFFFFFFFFFFFF DUP2 GT ISZERO PUSH2 0x14B1 JUMPI PUSH2 0x14B0 PUSH2 0xD53 JUMP JUMPDEST JUMPDEST PUSH2 0x14BB DUP3 SLOAD PUSH2 0x1251 JUMP JUMPDEST PUSH2 0x14C6 DUP3 DUP3 DUP6 PUSH2 0x1406 JUMP JUMPDEST PUSH0 PUSH1 0x20 SWAP1 POP PUSH1 0x1F DUP4 GT PUSH1 0x1 DUP2 EQ PUSH2 0x14F7 JUMPI PUSH0 DUP5 ISZERO PUSH2 0x14E5 JUMPI DUP3 DUP8 ADD MLOAD SWAP1 POP JUMPDEST PUSH2 0x14EF DUP6 DUP3 PUSH2 0x1474 JUMP JUMPDEST DUP7 SSTORE POP PUSH2 0x1556 JUMP JUMPDEST PUSH1 0x1F NOT DUP5 AND PUSH2 0x1505 DUP7 PUSH2 0x12E9 JUMP JUMPDEST PUSH0 JUMPDEST DUP3 DUP2 LT ISZERO PUSH2 0x152C JUMPI DUP5 DUP10 ADD MLOAD DUP3 SSTORE PUSH1 0x1 DUP3 ADD SWAP2 POP PUSH1 0x20 DUP6 ADD SWAP5 POP PUSH1 0x20 DUP2 ADD SWAP1 POP PUSH2 0x1507 JUMP JUMPDEST DUP7 DUP4 LT ISZERO PUSH2 0x1549 JUMPI DUP5 DUP10 ADD MLOAD PUSH2 0x1545 PUSH1 0x1F DUP10 AND DUP3 PUSH2 0x1458 JUMP JUMPDEST DUP4 SSTORE POP JUMPDEST PUSH1 0x1 PUSH1 0x2 DUP9 MUL ADD DUP9 SSTORE POP POP POP JUMPDEST POP POP POP POP POP POP JUMP JUMPDEST PUSH32 0x5573657220616C726561647920726567697374657265642E0000000000000000 PUSH0 DUP3 ADD MSTORE POP JUMP JUMPDEST PUSH0 PUSH2 0x1592 PUSH1 0x18 DUP4 PUSH2 0xB74 JUMP JUMPDEST SWAP2 POP PUSH2 0x159D DUP3 PUSH2 0x155E JUMP JUMPDEST PUSH1 0x20 DUP3 ADD SWAP1 POP SWAP2 SWAP1 POP JUMP JUMPDEST PUSH0 PUSH1 0x20 DUP3 ADD SWAP1 POP DUP2 DUP2 SUB PUSH0 DUP4 ADD MSTORE PUSH2 0x15BF DUP2 PUSH2 0x1586 JUMP JUMPDEST SWAP1 POP SWAP2 SWAP1 POP JUMP INVALID LOG2 PUSH5 0x6970667358 0x22 SLT KECCAK256 PUSH6 0x308B422C4EB9 PREVRANDAO PUSH15 0x9DAAD63A546380B6B0AEFB1BCA874A CODECOPY XOR CALLCODE PUSH0 MSIZE 0xAD DIV 0xE5 PUSH5 0x736F6C6343 STOP ADDMOD EQ STOP CALLER "
				},
				"gasEstimates": {
					"creation": {
						"codeDepositCost": "1125600",
						"executionCost": "1165",
						"totalCost": "1126765"
					},
					"external": {
						"banUser(address)": "24810",
						"changeUserRole(address,string)": "infinite",
						"getAllUsers()": "infinite",
						"getUserInfo(address)": "infinite",
						"getUserRole(address)": "infinite",
						"registerUser(string,bool,string,string,string,string)": "infinite",
						"updateUser(address,string,bool,string,string,string,string,bool)": "infinite"
					}
				},
				"methodIdentifiers": {
					"banUser(address)": "10d86b1f",
					"changeUserRole(address,string)": "f79dbf8c",
					"getAllUsers()": "e2842d79",
					"getUserInfo(address)": "6386c1c7",
					"getUserRole(address)": "27820851",
					"registerUser(string,bool,string,string,string,string)": "860c0611",
					"updateUser(address,string,bool,string,string,string,string,bool)": "7cbd4322"
				}
			},
			"storageLayout": {
				"storage": [
					{
						"astId": 21,
						"contract": "UserManager.sol:UserManager",
						"label": "users",
						"offset": 0,
						"slot": "0",
						"type": "t_mapping(t_address,t_struct(User)16_storage)"
					},
					{
						"astId": 24,
						"contract": "UserManager.sol:UserManager",
						"label": "userAddresses",
						"offset": 0,
						"slot": "1",
						"type": "t_array(t_address)dyn_storage"
					}
				],
				"types": {
					"t_address": {
						"encoding": "inplace",
						"label": "address",
						"numberOfBytes": "20"
					},
					"t_array(t_address)dyn_storage": {
						"base": "t_address",
						"encoding": "dynamic_array",
						"label": "address[]",
						"numberOfBytes": "32"
					},
					"t_bool": {
						"encoding": "inplace",
						"label": "bool",
						"numberOfBytes": "1"
					},
					"t_mapping(t_address,t_struct(User)16_storage)": {
						"encoding": "mapping",
						"key": "t_address",
						"label": "mapping(address => struct UserManager.User)",
						"numberOfBytes": "32",
						"value": "t_struct(User)16_storage"
					},
					"t_string_storage": {
						"encoding": "bytes",
						"label": "string",
						"numberOfBytes": "32"
					},
					"t_struct(User)16_storage": {
						"encoding": "inplace",
						"label": "struct UserManager.User",
						"members": [
							{
								"astId": 3,
								"contract": "UserManager.sol:UserManager",
								"label": "nickname",
								"offset": 0,
								"slot": "0",
								"type": "t_string_storage"
							},
							{
								"astId": 5,
								"contract": "UserManager.sol:UserManager",
								"label": "gender",
								"offset": 0,
								"slot": "1",
								"type": "t_bool"
							},
							{
								"astId": 7,
								"contract": "UserManager.sol:UserManager",
								"label": "email",
								"offset": 0,
								"slot": "2",
								"type": "t_string_storage"
							},
							{
								"astId": 9,
								"contract": "UserManager.sol:UserManager",
								"label": "bio",
								"offset": 0,
								"slot": "3",
								"type": "t_string_storage"
							},
							{
								"astId": 11,
								"contract": "UserManager.sol:UserManager",
								"label": "phone",
								"offset": 0,
								"slot": "4",
								"type": "t_string_storage"
							},
							{
								"astId": 13,
								"contract": "UserManager.sol:UserManager",
								"label": "isBanned",
								"offset": 0,
								"slot": "5",
								"type": "t_bool"
							},
							{
								"astId": 15,
								"contract": "UserManager.sol:UserManager",
								"label": "role",
								"offset": 0,
								"slot": "6",
								"type": "t_string_storage"
							}
						],
						"numberOfBytes": "224"
					}
				}
			},
			"userdoc": {
				"kind": "user",
				"methods": {},
				"version": 1
			}
		}
	}
}