{
	"ContractRegistry.sol": {
		"ContractRegistry": {
			"abi": [
				{
					"inputs": [
						{
							"internalType": "address",
							"name": "_user",
							"type": "address"
						},
						{
							"internalType": "address",
							"name": "_contract",
							"type": "address"
						}
					],
					"name": "addTrac",
					"outputs": [],
					"stateMutability": "nonpayable",
					"type": "function"
				},
				{
					"inputs": [
						{
							"internalType": "address",
							"name": "_user",
							"type": "address"
						}
					],
					"name": "getAllContractByUser",
					"outputs": [
						{
							"internalType": "address[]",
							"name": "",
							"type": "address[]"
						}
					],
					"stateMutability": "view",
					"type": "function"
				},
				{
					"inputs": [],
					"name": "getAllContracts",
					"outputs": [
						{
							"internalType": "address[]",
							"name": "",
							"type": "address[]"
						}
					],
					"stateMutability": "view",
					"type": "function"
				},
				{
					"inputs": [],
					"name": "getApprovedContracts",
					"outputs": [
						{
							"internalType": "address[]",
							"name": "",
							"type": "address[]"
						}
					],
					"stateMutability": "view",
					"type": "function"
				},
				{
					"inputs": [
						{
							"internalType": "address",
							"name": "_contractAddress",
							"type": "address"
						}
					],
					"name": "getContractInfo",
					"outputs": [
						{
							"components": [
								{
									"internalType": "address",
									"name": "contractAddress",
									"type": "address"
								},
								{
									"internalType": "string",
									"name": "name",
									"type": "string"
								},
								{
									"internalType": "string",
									"name": "description",
									"type": "string"
								},
								{
									"internalType": "address",
									"name": "owner",
									"type": "address"
								},
								{
									"internalType": "uint256",
									"name": "applicationTime",
									"type": "uint256"
								},
								{
									"internalType": "string[]",
									"name": "whitepaperIPFSHashes",
									"type": "string[]"
								},
								{
									"internalType": "enum ContractRegistry.Status",
									"name": "status",
									"type": "uint8"
								}
							],
							"internalType": "struct ContractRegistry.ContractInfo",
							"name": "",
							"type": "tuple"
						}
					],
					"stateMutability": "view",
					"type": "function"
				},
				{
					"inputs": [
						{
							"internalType": "address",
							"name": "_contractAddress",
							"type": "address"
						}
					],
					"name": "isContractApprovedAndNotOffline",
					"outputs": [
						{
							"internalType": "bool",
							"name": "",
							"type": "bool"
						}
					],
					"stateMutability": "view",
					"type": "function"
				},
				{
					"inputs": [
						{
							"internalType": "address",
							"name": "_contractAddress",
							"type": "address"
						}
					],
					"name": "isContractApprovedAndNotOfflineStruct",
					"outputs": [
						{
							"components": [
								{
									"internalType": "address",
									"name": "contractAddress",
									"type": "address"
								},
								{
									"internalType": "string",
									"name": "name",
									"type": "string"
								},
								{
									"internalType": "string",
									"name": "description",
									"type": "string"
								},
								{
									"internalType": "address",
									"name": "owner",
									"type": "address"
								},
								{
									"internalType": "uint256",
									"name": "applicationTime",
									"type": "uint256"
								},
								{
									"internalType": "string[]",
									"name": "whitepaperIPFSHashes",
									"type": "string[]"
								},
								{
									"internalType": "enum ContractRegistry.Status",
									"name": "status",
									"type": "uint8"
								}
							],
							"internalType": "struct ContractRegistry.ContractInfo",
							"name": "",
							"type": "tuple"
						}
					],
					"stateMutability": "view",
					"type": "function"
				},
				{
					"inputs": [
						{
							"internalType": "address",
							"name": "_contractAddress",
							"type": "address"
						}
					],
					"name": "isContractRegistered",
					"outputs": [
						{
							"internalType": "bool",
							"name": "",
							"type": "bool"
						}
					],
					"stateMutability": "view",
					"type": "function"
				},
				{
					"inputs": [
						{
							"internalType": "address",
							"name": "_contractAddress",
							"type": "address"
						},
						{
							"internalType": "string",
							"name": "_name",
							"type": "string"
						},
						{
							"internalType": "string",
							"name": "_description",
							"type": "string"
						},
						{
							"internalType": "string[]",
							"name": "_whitepaperIPFSHashes",
							"type": "string[]"
						}
					],
					"name": "registerContract",
					"outputs": [],
					"stateMutability": "nonpayable",
					"type": "function"
				},
				{
					"inputs": [
						{
							"internalType": "address",
							"name": "_contractAddress",
							"type": "address"
						},
						{
							"internalType": "enum ContractRegistry.Status",
							"name": "_status",
							"type": "uint8"
						}
					],
					"name": "updateStatus",
					"outputs": [],
					"stateMutability": "nonpayable",
					"type": "function"
				}
			],
			"devdoc": {
				"kind": "dev",
				"methods": {},
				"version": 1
			},
			"evm": {
				"assembly": "    /* \"ContractRegistry.sol\":164:5230  contract ContractRegistry {... */\n  mstore(0x40, 0x80)\n  callvalue\n  dup1\n  iszero\n  tag_1\n  jumpi\n  0x00\n  dup1\n  revert\ntag_1:\n  pop\n  dataSize(sub_0)\n  dup1\n  dataOffset(sub_0)\n  0x00\n  codecopy\n  0x00\n  return\nstop\n\nsub_0: assembly {\n        /* \"ContractRegistry.sol\":164:5230  contract ContractRegistry {... */\n      mstore(0x40, 0x80)\n      callvalue\n      dup1\n      iszero\n      tag_1\n      jumpi\n      0x00\n      dup1\n      revert\n    tag_1:\n      pop\n      jumpi(tag_2, lt(calldatasize, 0x04))\n      shr(0xe0, calldataload(0x00))\n      dup1\n      0x90483125\n      gt\n      tag_13\n      jumpi\n      dup1\n      0x90483125\n      eq\n      tag_8\n      jumpi\n      dup1\n      0xcd481e51\n      eq\n      tag_9\n      jumpi\n      dup1\n      0xe8a8dcce\n      eq\n      tag_10\n      jumpi\n      dup1\n      0xf4c1c17f\n      eq\n      tag_11\n      jumpi\n      dup1\n      0xf9f6b49b\n      eq\n      tag_12\n      jumpi\n      jump(tag_2)\n    tag_13:\n      dup1\n      0x18d3ce96\n      eq\n      tag_3\n      jumpi\n      dup1\n      0x44c5bbf8\n      eq\n      tag_4\n      jumpi\n      dup1\n      0x7318df8a\n      eq\n      tag_5\n      jumpi\n      dup1\n      0x73aef559\n      eq\n      tag_6\n      jumpi\n      dup1\n      0x862ea1ba\n      eq\n      tag_7\n      jumpi\n    tag_2:\n      0x00\n      dup1\n      revert\n        /* \"ContractRegistry.sol\":3934:4038  function getAllContracts() public view returns (address[] memory) {... */\n    tag_3:\n      tag_14\n      tag_15\n      jump\t// in\n    tag_14:\n      mload(0x40)\n      tag_16\n      swap2\n      swap1\n      tag_17\n      jump\t// in\n    tag_16:\n      mload(0x40)\n      dup1\n      swap2\n      sub\n      swap1\n      return\n        /* \"ContractRegistry.sol\":3304:3857  function updateStatus(... */\n    tag_4:\n      tag_18\n      0x04\n      dup1\n      calldatasize\n      sub\n      dup2\n      add\n      swap1\n      tag_19\n      swap2\n      swap1\n      tag_20\n      jump\t// in\n    tag_19:\n      tag_21\n      jump\t// in\n    tag_18:\n      stop\n        /* \"ContractRegistry.sol\":1856:1982  function getAllContractByUser(address _user) public view  returns(address[] memory) {... */\n    tag_5:\n      tag_22\n      0x04\n      dup1\n      calldatasize\n      sub\n      dup2\n      add\n      swap1\n      tag_23\n      swap2\n      swap1\n      tag_24\n      jump\t// in\n    tag_23:\n      tag_25\n      jump\t// in\n    tag_22:\n      mload(0x40)\n      tag_26\n      swap2\n      swap1\n      tag_17\n      jump\t// in\n    tag_26:\n      mload(0x40)\n      dup1\n      swap2\n      sub\n      swap1\n      return\n        /* \"ContractRegistry.sol\":4649:4902  function isContractApprovedAndNotOffline(address _contractAddress) public view returns (bool) {... */\n    tag_6:\n      tag_27\n      0x04\n      dup1\n      calldatasize\n      sub\n      dup2\n      add\n      swap1\n      tag_28\n      swap2\n      swap1\n      tag_24\n      jump\t// in\n    tag_28:\n      tag_29\n      jump\t// in\n    tag_27:\n      mload(0x40)\n      tag_30\n      swap2\n      swap1\n      tag_31\n      jump\t// in\n    tag_30:\n      mload(0x40)\n      dup1\n      swap2\n      sub\n      swap1\n      return\n        /* \"ContractRegistry.sol\":4133:4247  function getApprovedContracts() public view returns (address[] memory) {... */\n    tag_7:\n      tag_32\n      tag_33\n      jump\t// in\n    tag_32:\n      mload(0x40)\n      tag_34\n      swap2\n      swap1\n      tag_17\n      jump\t// in\n    tag_34:\n      mload(0x40)\n      dup1\n      swap2\n      sub\n      swap1\n      return\n        /* \"ContractRegistry.sol\":4339:4553  function isContractApprovedAndNotOfflineStruct(address _contractAddress) public view returns (ContractInfo memory) {... */\n    tag_8:\n      tag_35\n      0x04\n      dup1\n      calldatasize\n      sub\n      dup2\n      add\n      swap1\n      tag_36\n      swap2\n      swap1\n      tag_24\n      jump\t// in\n    tag_36:\n      tag_37\n      jump\t// in\n    tag_35:\n      mload(0x40)\n      tag_38\n      swap2\n      swap1\n      tag_39\n      jump\t// in\n    tag_38:\n      mload(0x40)\n      dup1\n      swap2\n      sub\n      swap1\n      return\n        /* \"ContractRegistry.sol\":5084:5227  function getContractInfo(address _contractAddress)public view returns(ContractInfo memory){... */\n    tag_9:\n      tag_40\n      0x04\n      dup1\n      calldatasize\n      sub\n      dup2\n      add\n      swap1\n      tag_41\n      swap2\n      swap1\n      tag_24\n      jump\t// in\n    tag_41:\n      tag_42\n      jump\t// in\n    tag_40:\n      mload(0x40)\n      tag_43\n      swap2\n      swap1\n      tag_39\n      jump\t// in\n    tag_43:\n      mload(0x40)\n      dup1\n      swap2\n      sub\n      swap1\n      return\n        /* \"ContractRegistry.sol\":2041:3239  function registerContract(... */\n    tag_10:\n      tag_44\n      0x04\n      dup1\n      calldatasize\n      sub\n      dup2\n      add\n      swap1\n      tag_45\n      swap2\n      swap1\n      tag_46\n      jump\t// in\n    tag_45:\n      tag_47\n      jump\t// in\n    tag_44:\n      stop\n        /* \"ContractRegistry.sol\":1413:1801  function addTrac(address _user,address _contract)public {... */\n    tag_11:\n      tag_48\n      0x04\n      dup1\n      calldatasize\n      sub\n      dup2\n      add\n      swap1\n      tag_49\n      swap2\n      swap1\n      tag_50\n      jump\t// in\n    tag_49:\n      tag_51\n      jump\t// in\n    tag_48:\n      stop\n        /* \"ContractRegistry.sol\":4910:5076  function isContractRegistered (address _contractAddress) public view returns(bool){... */\n    tag_12:\n      tag_52\n      0x04\n      dup1\n      calldatasize\n      sub\n      dup2\n      add\n      swap1\n      tag_53\n      swap2\n      swap1\n      tag_24\n      jump\t// in\n    tag_53:\n      tag_54\n      jump\t// in\n    tag_52:\n      mload(0x40)\n      tag_55\n      swap2\n      swap1\n      tag_31\n      jump\t// in\n    tag_55:\n      mload(0x40)\n      dup1\n      swap2\n      sub\n      swap1\n      return\n        /* \"ContractRegistry.sol\":3934:4038  function getAllContracts() public view returns (address[] memory) {... */\n    tag_15:\n        /* \"ContractRegistry.sol\":3982:3998  address[] memory */\n      0x60\n        /* \"ContractRegistry.sol\":4018:4030  allContracts */\n      0x01\n        /* \"ContractRegistry.sol\":4011:4030  return allContracts */\n      dup1\n      sload\n      dup1\n      0x20\n      mul\n      0x20\n      add\n      mload(0x40)\n      swap1\n      dup2\n      add\n      0x40\n      mstore\n      dup1\n      swap3\n      swap2\n      swap1\n      dup2\n      dup2\n      mstore\n      0x20\n      add\n      dup3\n      dup1\n      sload\n      dup1\n      iszero\n      tag_57\n      jumpi\n      0x20\n      mul\n      dup3\n      add\n      swap2\n      swap1\n      0x00\n      mstore\n      keccak256(0x00, 0x20)\n      swap1\n    tag_58:\n      dup2\n      0x00\n      swap1\n      sload\n      swap1\n      0x0100\n      exp\n      swap1\n      div\n      0xffffffffffffffffffffffffffffffffffffffff\n      and\n      0xffffffffffffffffffffffffffffffffffffffff\n      and\n      dup2\n      mstore\n      0x20\n      add\n      swap1\n      0x01\n      add\n      swap1\n      dup1\n      dup4\n      gt\n      tag_58\n      jumpi\n    tag_57:\n      pop\n      pop\n      pop\n      pop\n      pop\n      swap1\n      pop\n        /* \"ContractRegistry.sol\":3934:4038  function getAllContracts() public view returns (address[] memory) {... */\n      swap1\n      jump\t// out\n        /* \"ContractRegistry.sol\":3304:3857  function updateStatus(... */\n    tag_21:\n        /* \"ContractRegistry.sol\":3504:3505  0 */\n      0x00\n        /* \"ContractRegistry.sol\":3449:3506  contracts[_contractAddress].contractAddress != address(0) */\n      0xffffffffffffffffffffffffffffffffffffffff\n      and\n        /* \"ContractRegistry.sol\":3449:3458  contracts */\n      0x00\n        /* \"ContractRegistry.sol\":3449:3476  contracts[_contractAddress] */\n      dup1\n        /* \"ContractRegistry.sol\":3459:3475  _contractAddress */\n      dup5\n        /* \"ContractRegistry.sol\":3449:3476  contracts[_contractAddress] */\n      0xffffffffffffffffffffffffffffffffffffffff\n      and\n      0xffffffffffffffffffffffffffffffffffffffff\n      and\n      dup2\n      mstore\n      0x20\n      add\n      swap1\n      dup2\n      mstore\n      0x20\n      add\n      0x00\n      keccak256\n        /* \"ContractRegistry.sol\":3449:3492  contracts[_contractAddress].contractAddress */\n      0x00\n      add\n      0x00\n      swap1\n      sload\n      swap1\n      0x0100\n      exp\n      swap1\n      div\n      0xffffffffffffffffffffffffffffffffffffffff\n      and\n        /* \"ContractRegistry.sol\":3449:3506  contracts[_contractAddress].contractAddress != address(0) */\n      0xffffffffffffffffffffffffffffffffffffffff\n      and\n      sub\n        /* \"ContractRegistry.sol\":3441:3534  require(contracts[_contractAddress].contractAddress != address(0), \"Contract not registered\") */\n      tag_60\n      jumpi\n      mload(0x40)\n      0x08c379a000000000000000000000000000000000000000000000000000000000\n      dup2\n      mstore\n      0x04\n      add\n      tag_61\n      swap1\n      tag_62\n      jump\t// in\n    tag_61:\n      mload(0x40)\n      dup1\n      swap2\n      sub\n      swap1\n      revert\n    tag_60:\n        /* \"ContractRegistry.sol\":3610:3617  _status */\n      dup1\n        /* \"ContractRegistry.sol\":3573:3582  contracts */\n      0x00\n        /* \"ContractRegistry.sol\":3573:3600  contracts[_contractAddress] */\n      dup1\n        /* \"ContractRegistry.sol\":3583:3599  _contractAddress */\n      dup5\n        /* \"ContractRegistry.sol\":3573:3600  contracts[_contractAddress] */\n      0xffffffffffffffffffffffffffffffffffffffff\n      and\n      0xffffffffffffffffffffffffffffffffffffffff\n      and\n      dup2\n      mstore\n      0x20\n      add\n      swap1\n      dup2\n      mstore\n      0x20\n      add\n      0x00\n      keccak256\n        /* \"ContractRegistry.sol\":3573:3607  contracts[_contractAddress].status */\n      0x06\n      add\n      0x00\n        /* \"ContractRegistry.sol\":3573:3617  contracts[_contractAddress].status = _status */\n      0x0100\n      exp\n      dup2\n      sload\n      dup2\n      0xff\n      mul\n      not\n      and\n      swap1\n      dup4\n      0x03\n      dup2\n      gt\n      iszero\n      tag_63\n      jumpi\n      tag_64\n      tag_65\n      jump\t// in\n    tag_64:\n    tag_63:\n      mul\n      or\n      swap1\n      sstore\n      pop\n        /* \"ContractRegistry.sol\":3668:3683  Status.Approved */\n      0x01\n        /* \"ContractRegistry.sol\":3657:3683  _status == Status.Approved */\n      0x03\n      dup2\n      gt\n      iszero\n      tag_66\n      jumpi\n      tag_67\n      tag_65\n      jump\t// in\n    tag_67:\n    tag_66:\n        /* \"ContractRegistry.sol\":3657:3664  _status */\n      dup2\n        /* \"ContractRegistry.sol\":3657:3683  _status == Status.Approved */\n      0x03\n      dup2\n      gt\n      iszero\n      tag_68\n      jumpi\n      tag_69\n      tag_65\n      jump\t// in\n    tag_69:\n    tag_68:\n      sub\n        /* \"ContractRegistry.sol\":3653:3850  if (_status == Status.Approved) { // 如果新状态是已通过审核... */\n      tag_70\n      jumpi\n        /* \"ContractRegistry.sol\":3737:3754  approvedContracts */\n      0x02\n        /* \"ContractRegistry.sol\":3760:3776  _contractAddress */\n      dup3\n        /* \"ContractRegistry.sol\":3737:3777  approvedContracts.push(_contractAddress) */\n      swap1\n      dup1\n      0x01\n      dup2\n      sload\n      add\n      dup1\n      dup3\n      sstore\n      dup1\n      swap2\n      pop\n      pop\n      0x01\n      swap1\n      sub\n      swap1\n      0x00\n      mstore\n      keccak256(0x00, 0x20)\n      add\n      0x00\n      swap1\n      swap2\n      swap1\n      swap2\n      swap1\n      swap2\n      0x0100\n      exp\n      dup2\n      sload\n      dup2\n      0xffffffffffffffffffffffffffffffffffffffff\n      mul\n      not\n      and\n      swap1\n      dup4\n      0xffffffffffffffffffffffffffffffffffffffff\n      and\n      mul\n      or\n      swap1\n      sstore\n      pop\n        /* \"ContractRegistry.sol\":3653:3850  if (_status == Status.Approved) { // 如果新状态是已通过审核... */\n    tag_70:\n        /* \"ContractRegistry.sol\":3304:3857  function updateStatus(... */\n      pop\n      pop\n      jump\t// out\n        /* \"ContractRegistry.sol\":1856:1982  function getAllContractByUser(address _user) public view  returns(address[] memory) {... */\n    tag_25:\n        /* \"ContractRegistry.sol\":1922:1938  address[] memory */\n      0x60\n        /* \"ContractRegistry.sol\":1956:1968  tracAddDatas */\n      0x04\n        /* \"ContractRegistry.sol\":1956:1975  tracAddDatas[_user] */\n      0x00\n        /* \"ContractRegistry.sol\":1969:1974  _user */\n      dup4\n        /* \"ContractRegistry.sol\":1956:1975  tracAddDatas[_user] */\n      0xffffffffffffffffffffffffffffffffffffffff\n      and\n      0xffffffffffffffffffffffffffffffffffffffff\n      and\n      dup2\n      mstore\n      0x20\n      add\n      swap1\n      dup2\n      mstore\n      0x20\n      add\n      0x00\n      keccak256\n        /* \"ContractRegistry.sol\":1949:1975  return tracAddDatas[_user] */\n      dup1\n      sload\n      dup1\n      0x20\n      mul\n      0x20\n      add\n      mload(0x40)\n      swap1\n      dup2\n      add\n      0x40\n      mstore\n      dup1\n      swap3\n      swap2\n      swap1\n      dup2\n      dup2\n      mstore\n      0x20\n      add\n      dup3\n      dup1\n      sload\n      dup1\n      iszero\n      tag_73\n      jumpi\n      0x20\n      mul\n      dup3\n      add\n      swap2\n      swap1\n      0x00\n      mstore\n      keccak256(0x00, 0x20)\n      swap1\n    tag_74:\n      dup2\n      0x00\n      swap1\n      sload\n      swap1\n      0x0100\n      exp\n      swap1\n      div\n      0xffffffffffffffffffffffffffffffffffffffff\n      and\n      0xffffffffffffffffffffffffffffffffffffffff\n      and\n      dup2\n      mstore\n      0x20\n      add\n      swap1\n      0x01\n      add\n      swap1\n      dup1\n      dup4\n      gt\n      tag_74\n      jumpi\n    tag_73:\n      pop\n      pop\n      pop\n      pop\n      pop\n      swap1\n      pop\n        /* \"ContractRegistry.sol\":1856:1982  function getAllContractByUser(address _user) public view  returns(address[] memory) {... */\n      swap2\n      swap1\n      pop\n      jump\t// out\n        /* \"ContractRegistry.sol\":4649:4902  function isContractApprovedAndNotOffline(address _contractAddress) public view returns (bool) {... */\n    tag_29:\n        /* \"ContractRegistry.sol\":4737:4741  bool */\n      0x00\n        /* \"ContractRegistry.sol\":4754:4779  ContractInfo memory cInfo */\n      dup1\n        /* \"ContractRegistry.sol\":4782:4791  contracts */\n      0x00\n        /* \"ContractRegistry.sol\":4782:4809  contracts[_contractAddress] */\n      dup1\n        /* \"ContractRegistry.sol\":4792:4808  _contractAddress */\n      dup5\n        /* \"ContractRegistry.sol\":4782:4809  contracts[_contractAddress] */\n      0xffffffffffffffffffffffffffffffffffffffff\n      and\n      0xffffffffffffffffffffffffffffffffffffffff\n      and\n      dup2\n      mstore\n      0x20\n      add\n      swap1\n      dup2\n      mstore\n      0x20\n      add\n      0x00\n      keccak256\n        /* \"ContractRegistry.sol\":4754:4809  ContractInfo memory cInfo = contracts[_contractAddress] */\n      mload(0x40)\n      dup1\n      0xe0\n      add\n      0x40\n      mstore\n      swap1\n      dup2\n      0x00\n      dup3\n      add\n      0x00\n      swap1\n      sload\n      swap1\n      0x0100\n      exp\n      swap1\n      div\n      0xffffffffffffffffffffffffffffffffffffffff\n      and\n      0xffffffffffffffffffffffffffffffffffffffff\n      and\n      0xffffffffffffffffffffffffffffffffffffffff\n      and\n      dup2\n      mstore\n      0x20\n      add\n      0x01\n      dup3\n      add\n      dup1\n      sload\n      tag_76\n      swap1\n      tag_77\n      jump\t// in\n    tag_76:\n      dup1\n      0x1f\n      add\n      0x20\n      dup1\n      swap2\n      div\n      mul\n      0x20\n      add\n      mload(0x40)\n      swap1\n      dup2\n      add\n      0x40\n      mstore\n      dup1\n      swap3\n      swap2\n      swap1\n      dup2\n      dup2\n      mstore\n      0x20\n      add\n      dup3\n      dup1\n      sload\n      tag_78\n      swap1\n      tag_77\n      jump\t// in\n    tag_78:\n      dup1\n      iszero\n      tag_79\n      jumpi\n      dup1\n      0x1f\n      lt\n      tag_80\n      jumpi\n      0x0100\n      dup1\n      dup4\n      sload\n      div\n      mul\n      dup4\n      mstore\n      swap2\n      0x20\n      add\n      swap2\n      jump(tag_79)\n    tag_80:\n      dup3\n      add\n      swap2\n      swap1\n      0x00\n      mstore\n      keccak256(0x00, 0x20)\n      swap1\n    tag_81:\n      dup2\n      sload\n      dup2\n      mstore\n      swap1\n      0x01\n      add\n      swap1\n      0x20\n      add\n      dup1\n      dup4\n      gt\n      tag_81\n      jumpi\n      dup3\n      swap1\n      sub\n      0x1f\n      and\n      dup3\n      add\n      swap2\n    tag_79:\n      pop\n      pop\n      pop\n      pop\n      pop\n      dup2\n      mstore\n      0x20\n      add\n      0x02\n      dup3\n      add\n      dup1\n      sload\n      tag_82\n      swap1\n      tag_77\n      jump\t// in\n    tag_82:\n      dup1\n      0x1f\n      add\n      0x20\n      dup1\n      swap2\n      div\n      mul\n      0x20\n      add\n      mload(0x40)\n      swap1\n      dup2\n      add\n      0x40\n      mstore\n      dup1\n      swap3\n      swap2\n      swap1\n      dup2\n      dup2\n      mstore\n      0x20\n      add\n      dup3\n      dup1\n      sload\n      tag_83\n      swap1\n      tag_77\n      jump\t// in\n    tag_83:\n      dup1\n      iszero\n      tag_84\n      jumpi\n      dup1\n      0x1f\n      lt\n      tag_85\n      jumpi\n      0x0100\n      dup1\n      dup4\n      sload\n      div\n      mul\n      dup4\n      mstore\n      swap2\n      0x20\n      add\n      swap2\n      jump(tag_84)\n    tag_85:\n      dup3\n      add\n      swap2\n      swap1\n      0x00\n      mstore\n      keccak256(0x00, 0x20)\n      swap1\n    tag_86:\n      dup2\n      sload\n      dup2\n      mstore\n      swap1\n      0x01\n      add\n      swap1\n      0x20\n      add\n      dup1\n      dup4\n      gt\n      tag_86\n      jumpi\n      dup3\n      swap1\n      sub\n      0x1f\n      and\n      dup3\n      add\n      swap2\n    tag_84:\n      pop\n      pop\n      pop\n      pop\n      pop\n      dup2\n      mstore\n      0x20\n      add\n      0x03\n      dup3\n      add\n      0x00\n      swap1\n      sload\n      swap1\n      0x0100\n      exp\n      swap1\n      div\n      0xffffffffffffffffffffffffffffffffffffffff\n      and\n      0xffffffffffffffffffffffffffffffffffffffff\n      and\n      0xffffffffffffffffffffffffffffffffffffffff\n      and\n      dup2\n      mstore\n      0x20\n      add\n      0x04\n      dup3\n      add\n      sload\n      dup2\n      mstore\n      0x20\n      add\n      0x05\n      dup3\n      add\n      dup1\n      sload\n      dup1\n      0x20\n      mul\n      0x20\n      add\n      mload(0x40)\n      swap1\n      dup2\n      add\n      0x40\n      mstore\n      dup1\n      swap3\n      swap2\n      swap1\n      dup2\n      dup2\n      mstore\n      0x20\n      add\n      0x00\n      swap1\n    tag_87:\n      dup3\n      dup3\n      lt\n      iszero\n      tag_88\n      jumpi\n      dup4\n      dup3\n      swap1\n      0x00\n      mstore\n      keccak256(0x00, 0x20)\n      add\n      dup1\n      sload\n      tag_90\n      swap1\n      tag_77\n      jump\t// in\n    tag_90:\n      dup1\n      0x1f\n      add\n      0x20\n      dup1\n      swap2\n      div\n      mul\n      0x20\n      add\n      mload(0x40)\n      swap1\n      dup2\n      add\n      0x40\n      mstore\n      dup1\n      swap3\n      swap2\n      swap1\n      dup2\n      dup2\n      mstore\n      0x20\n      add\n      dup3\n      dup1\n      sload\n      tag_91\n      swap1\n      tag_77\n      jump\t// in\n    tag_91:\n      dup1\n      iszero\n      tag_92\n      jumpi\n      dup1\n      0x1f\n      lt\n      tag_93\n      jumpi\n      0x0100\n      dup1\n      dup4\n      sload\n      div\n      mul\n      dup4\n      mstore\n      swap2\n      0x20\n      add\n      swap2\n      jump(tag_92)\n    tag_93:\n      dup3\n      add\n      swap2\n      swap1\n      0x00\n      mstore\n      keccak256(0x00, 0x20)\n      swap1\n    tag_94:\n      dup2\n      sload\n      dup2\n      mstore\n      swap1\n      0x01\n      add\n      swap1\n      0x20\n      add\n      dup1\n      dup4\n      gt\n      tag_94\n      jumpi\n      dup3\n      swap1\n      sub\n      0x1f\n      and\n      dup3\n      add\n      swap2\n    tag_92:\n      pop\n      pop\n      pop\n      pop\n      pop\n      dup2\n      mstore\n      0x20\n      add\n      swap1\n      0x01\n      add\n      swap1\n      jump(tag_87)\n    tag_88:\n      pop\n      pop\n      pop\n      pop\n      dup2\n      mstore\n      0x20\n      add\n      0x06\n      dup3\n      add\n      0x00\n      swap1\n      sload\n      swap1\n      0x0100\n      exp\n      swap1\n      div\n      0xff\n      and\n      0x03\n      dup2\n      gt\n      iszero\n      tag_95\n      jumpi\n      tag_96\n      tag_65\n      jump\t// in\n    tag_96:\n    tag_95:\n      0x03\n      dup2\n      gt\n      iszero\n      tag_97\n      jumpi\n      tag_98\n      tag_65\n      jump\t// in\n    tag_98:\n    tag_97:\n      dup2\n      mstore\n      pop\n      pop\n      swap1\n      pop\n        /* \"ContractRegistry.sol\":4844:4859  Status.Approved */\n      0x01\n        /* \"ContractRegistry.sol\":4828:4859  cInfo.status == Status.Approved */\n      0x03\n      dup2\n      gt\n      iszero\n      tag_99\n      jumpi\n      tag_100\n      tag_65\n      jump\t// in\n    tag_100:\n    tag_99:\n        /* \"ContractRegistry.sol\":4828:4833  cInfo */\n      dup2\n        /* \"ContractRegistry.sol\":4828:4840  cInfo.status */\n      0xc0\n      add\n      mload\n        /* \"ContractRegistry.sol\":4828:4859  cInfo.status == Status.Approved */\n      0x03\n      dup2\n      gt\n      iszero\n      tag_101\n      jumpi\n      tag_102\n      tag_65\n      jump\t// in\n    tag_102:\n    tag_101:\n      eq\n        /* \"ContractRegistry.sol\":4828:4893  cInfo.status == Status.Approved && cInfo.status != Status.Offline */\n      dup1\n      iszero\n      tag_103\n      jumpi\n      pop\n        /* \"ContractRegistry.sol\":4879:4893  Status.Offline */\n      0x03\n        /* \"ContractRegistry.sol\":4863:4893  cInfo.status != Status.Offline */\n      dup1\n      dup2\n      gt\n      iszero\n      tag_104\n      jumpi\n      tag_105\n      tag_65\n      jump\t// in\n    tag_105:\n    tag_104:\n        /* \"ContractRegistry.sol\":4863:4868  cInfo */\n      dup2\n        /* \"ContractRegistry.sol\":4863:4875  cInfo.status */\n      0xc0\n      add\n      mload\n        /* \"ContractRegistry.sol\":4863:4893  cInfo.status != Status.Offline */\n      0x03\n      dup2\n      gt\n      iszero\n      tag_106\n      jumpi\n      tag_107\n      tag_65\n      jump\t// in\n    tag_107:\n    tag_106:\n      eq\n      iszero\n        /* \"ContractRegistry.sol\":4828:4893  cInfo.status == Status.Approved && cInfo.status != Status.Offline */\n    tag_103:\n        /* \"ContractRegistry.sol\":4820:4894  return (cInfo.status == Status.Approved && cInfo.status != Status.Offline) */\n      swap2\n      pop\n      pop\n        /* \"ContractRegistry.sol\":4649:4902  function isContractApprovedAndNotOffline(address _contractAddress) public view returns (bool) {... */\n      swap2\n      swap1\n      pop\n      jump\t// out\n        /* \"ContractRegistry.sol\":4133:4247  function getApprovedContracts() public view returns (address[] memory) {... */\n    tag_33:\n        /* \"ContractRegistry.sol\":4186:4202  address[] memory */\n      0x60\n        /* \"ContractRegistry.sol\":4222:4239  approvedContracts */\n      0x02\n        /* \"ContractRegistry.sol\":4215:4239  return approvedContracts */\n      dup1\n      sload\n      dup1\n      0x20\n      mul\n      0x20\n      add\n      mload(0x40)\n      swap1\n      dup2\n      add\n      0x40\n      mstore\n      dup1\n      swap3\n      swap2\n      swap1\n      dup2\n      dup2\n      mstore\n      0x20\n      add\n      dup3\n      dup1\n      sload\n      dup1\n      iszero\n      tag_109\n      jumpi\n      0x20\n      mul\n      dup3\n      add\n      swap2\n      swap1\n      0x00\n      mstore\n      keccak256(0x00, 0x20)\n      swap1\n    tag_110:\n      dup2\n      0x00\n      swap1\n      sload\n      swap1\n      0x0100\n      exp\n      swap1\n      div\n      0xffffffffffffffffffffffffffffffffffffffff\n      and\n      0xffffffffffffffffffffffffffffffffffffffff\n      and\n      dup2\n      mstore\n      0x20\n      add\n      swap1\n      0x01\n      add\n      swap1\n      dup1\n      dup4\n      gt\n      tag_110\n      jumpi\n    tag_109:\n      pop\n      pop\n      pop\n      pop\n      pop\n      swap1\n      pop\n        /* \"ContractRegistry.sol\":4133:4247  function getApprovedContracts() public view returns (address[] memory) {... */\n      swap1\n      jump\t// out\n        /* \"ContractRegistry.sol\":4339:4553  function isContractApprovedAndNotOfflineStruct(address _contractAddress) public view returns (ContractInfo memory) {... */\n    tag_37:\n        /* \"ContractRegistry.sol\":4433:4452  ContractInfo memory */\n      tag_111\n      tag_112\n      jump\t// in\n    tag_111:\n        /* \"ContractRegistry.sol\":4465:4490  ContractInfo memory cInfo */\n      0x00\n        /* \"ContractRegistry.sol\":4493:4502  contracts */\n      dup1\n        /* \"ContractRegistry.sol\":4493:4520  contracts[_contractAddress] */\n      0x00\n        /* \"ContractRegistry.sol\":4503:4519  _contractAddress */\n      dup5\n        /* \"ContractRegistry.sol\":4493:4520  contracts[_contractAddress] */\n      0xffffffffffffffffffffffffffffffffffffffff\n      and\n      0xffffffffffffffffffffffffffffffffffffffff\n      and\n      dup2\n      mstore\n      0x20\n      add\n      swap1\n      dup2\n      mstore\n      0x20\n      add\n      0x00\n      keccak256\n        /* \"ContractRegistry.sol\":4465:4520  ContractInfo memory cInfo = contracts[_contractAddress] */\n      mload(0x40)\n      dup1\n      0xe0\n      add\n      0x40\n      mstore\n      swap1\n      dup2\n      0x00\n      dup3\n      add\n      0x00\n      swap1\n      sload\n      swap1\n      0x0100\n      exp\n      swap1\n      div\n      0xffffffffffffffffffffffffffffffffffffffff\n      and\n      0xffffffffffffffffffffffffffffffffffffffff\n      and\n      0xffffffffffffffffffffffffffffffffffffffff\n      and\n      dup2\n      mstore\n      0x20\n      add\n      0x01\n      dup3\n      add\n      dup1\n      sload\n      tag_114\n      swap1\n      tag_77\n      jump\t// in\n    tag_114:\n      dup1\n      0x1f\n      add\n      0x20\n      dup1\n      swap2\n      div\n      mul\n      0x20\n      add\n      mload(0x40)\n      swap1\n      dup2\n      add\n      0x40\n      mstore\n      dup1\n      swap3\n      swap2\n      swap1\n      dup2\n      dup2\n      mstore\n      0x20\n      add\n      dup3\n      dup1\n      sload\n      tag_115\n      swap1\n      tag_77\n      jump\t// in\n    tag_115:\n      dup1\n      iszero\n      tag_116\n      jumpi\n      dup1\n      0x1f\n      lt\n      tag_117\n      jumpi\n      0x0100\n      dup1\n      dup4\n      sload\n      div\n      mul\n      dup4\n      mstore\n      swap2\n      0x20\n      add\n      swap2\n      jump(tag_116)\n    tag_117:\n      dup3\n      add\n      swap2\n      swap1\n      0x00\n      mstore\n      keccak256(0x00, 0x20)\n      swap1\n    tag_118:\n      dup2\n      sload\n      dup2\n      mstore\n      swap1\n      0x01\n      add\n      swap1\n      0x20\n      add\n      dup1\n      dup4\n      gt\n      tag_118\n      jumpi\n      dup3\n      swap1\n      sub\n      0x1f\n      and\n      dup3\n      add\n      swap2\n    tag_116:\n      pop\n      pop\n      pop\n      pop\n      pop\n      dup2\n      mstore\n      0x20\n      add\n      0x02\n      dup3\n      add\n      dup1\n      sload\n      tag_119\n      swap1\n      tag_77\n      jump\t// in\n    tag_119:\n      dup1\n      0x1f\n      add\n      0x20\n      dup1\n      swap2\n      div\n      mul\n      0x20\n      add\n      mload(0x40)\n      swap1\n      dup2\n      add\n      0x40\n      mstore\n      dup1\n      swap3\n      swap2\n      swap1\n      dup2\n      dup2\n      mstore\n      0x20\n      add\n      dup3\n      dup1\n      sload\n      tag_120\n      swap1\n      tag_77\n      jump\t// in\n    tag_120:\n      dup1\n      iszero\n      tag_121\n      jumpi\n      dup1\n      0x1f\n      lt\n      tag_122\n      jumpi\n      0x0100\n      dup1\n      dup4\n      sload\n      div\n      mul\n      dup4\n      mstore\n      swap2\n      0x20\n      add\n      swap2\n      jump(tag_121)\n    tag_122:\n      dup3\n      add\n      swap2\n      swap1\n      0x00\n      mstore\n      keccak256(0x00, 0x20)\n      swap1\n    tag_123:\n      dup2\n      sload\n      dup2\n      mstore\n      swap1\n      0x01\n      add\n      swap1\n      0x20\n      add\n      dup1\n      dup4\n      gt\n      tag_123\n      jumpi\n      dup3\n      swap1\n      sub\n      0x1f\n      and\n      dup3\n      add\n      swap2\n    tag_121:\n      pop\n      pop\n      pop\n      pop\n      pop\n      dup2\n      mstore\n      0x20\n      add\n      0x03\n      dup3\n      add\n      0x00\n      swap1\n      sload\n      swap1\n      0x0100\n      exp\n      swap1\n      div\n      0xffffffffffffffffffffffffffffffffffffffff\n      and\n      0xffffffffffffffffffffffffffffffffffffffff\n      and\n      0xffffffffffffffffffffffffffffffffffffffff\n      and\n      dup2\n      mstore\n      0x20\n      add\n      0x04\n      dup3\n      add\n      sload\n      dup2\n      mstore\n      0x20\n      add\n      0x05\n      dup3\n      add\n      dup1\n      sload\n      dup1\n      0x20\n      mul\n      0x20\n      add\n      mload(0x40)\n      swap1\n      dup2\n      add\n      0x40\n      mstore\n      dup1\n      swap3\n      swap2\n      swap1\n      dup2\n      dup2\n      mstore\n      0x20\n      add\n      0x00\n      swap1\n    tag_124:\n      dup3\n      dup3\n      lt\n      iszero\n      tag_125\n      jumpi\n      dup4\n      dup3\n      swap1\n      0x00\n      mstore\n      keccak256(0x00, 0x20)\n      add\n      dup1\n      sload\n      tag_127\n      swap1\n      tag_77\n      jump\t// in\n    tag_127:\n      dup1\n      0x1f\n      add\n      0x20\n      dup1\n      swap2\n      div\n      mul\n      0x20\n      add\n      mload(0x40)\n      swap1\n      dup2\n      add\n      0x40\n      mstore\n      dup1\n      swap3\n      swap2\n      swap1\n      dup2\n      dup2\n      mstore\n      0x20\n      add\n      dup3\n      dup1\n      sload\n      tag_128\n      swap1\n      tag_77\n      jump\t// in\n    tag_128:\n      dup1\n      iszero\n      tag_129\n      jumpi\n      dup1\n      0x1f\n      lt\n      tag_130\n      jumpi\n      0x0100\n      dup1\n      dup4\n      sload\n      div\n      mul\n      dup4\n      mstore\n      swap2\n      0x20\n      add\n      swap2\n      jump(tag_129)\n    tag_130:\n      dup3\n      add\n      swap2\n      swap1\n      0x00\n      mstore\n      keccak256(0x00, 0x20)\n      swap1\n    tag_131:\n      dup2\n      sload\n      dup2\n      mstore\n      swap1\n      0x01\n      add\n      swap1\n      0x20\n      add\n      dup1\n      dup4\n      gt\n      tag_131\n      jumpi\n      dup3\n      swap1\n      sub\n      0x1f\n      and\n      dup3\n      add\n      swap2\n    tag_129:\n      pop\n      pop\n      pop\n      pop\n      pop\n      dup2\n      mstore\n      0x20\n      add\n      swap1\n      0x01\n      add\n      swap1\n      jump(tag_124)\n    tag_125:\n      pop\n      pop\n      pop\n      pop\n      dup2\n      mstore\n      0x20\n      add\n      0x06\n      dup3\n      add\n      0x00\n      swap1\n      sload\n      swap1\n      0x0100\n      exp\n      swap1\n      div\n      0xff\n      and\n      0x03\n      dup2\n      gt\n      iszero\n      tag_132\n      jumpi\n      tag_133\n      tag_65\n      jump\t// in\n    tag_133:\n    tag_132:\n      0x03\n      dup2\n      gt\n      iszero\n      tag_134\n      jumpi\n      tag_135\n      tag_65\n      jump\t// in\n    tag_135:\n    tag_134:\n      dup2\n      mstore\n      pop\n      pop\n      swap1\n      pop\n        /* \"ContractRegistry.sol\":4539:4544  cInfo */\n      dup1\n        /* \"ContractRegistry.sol\":4531:4545  return (cInfo) */\n      swap2\n      pop\n      pop\n        /* \"ContractRegistry.sol\":4339:4553  function isContractApprovedAndNotOfflineStruct(address _contractAddress) public view returns (ContractInfo memory) {... */\n      swap2\n      swap1\n      pop\n      jump\t// out\n        /* \"ContractRegistry.sol\":5084:5227  function getContractInfo(address _contractAddress)public view returns(ContractInfo memory){... */\n    tag_42:\n        /* \"ContractRegistry.sol\":5154:5173  ContractInfo memory */\n      tag_136\n      tag_112\n      jump\t// in\n    tag_136:\n        /* \"ContractRegistry.sol\":5192:5201  contracts */\n      0x00\n        /* \"ContractRegistry.sol\":5192:5219  contracts[_contractAddress] */\n      dup1\n        /* \"ContractRegistry.sol\":5202:5218  _contractAddress */\n      dup4\n        /* \"ContractRegistry.sol\":5192:5219  contracts[_contractAddress] */\n      0xffffffffffffffffffffffffffffffffffffffff\n      and\n      0xffffffffffffffffffffffffffffffffffffffff\n      and\n      dup2\n      mstore\n      0x20\n      add\n      swap1\n      dup2\n      mstore\n      0x20\n      add\n      0x00\n      keccak256\n        /* \"ContractRegistry.sol\":5185:5219  return contracts[_contractAddress] */\n      mload(0x40)\n      dup1\n      0xe0\n      add\n      0x40\n      mstore\n      swap1\n      dup2\n      0x00\n      dup3\n      add\n      0x00\n      swap1\n      sload\n      swap1\n      0x0100\n      exp\n      swap1\n      div\n      0xffffffffffffffffffffffffffffffffffffffff\n      and\n      0xffffffffffffffffffffffffffffffffffffffff\n      and\n      0xffffffffffffffffffffffffffffffffffffffff\n      and\n      dup2\n      mstore\n      0x20\n      add\n      0x01\n      dup3\n      add\n      dup1\n      sload\n      tag_138\n      swap1\n      tag_77\n      jump\t// in\n    tag_138:\n      dup1\n      0x1f\n      add\n      0x20\n      dup1\n      swap2\n      div\n      mul\n      0x20\n      add\n      mload(0x40)\n      swap1\n      dup2\n      add\n      0x40\n      mstore\n      dup1\n      swap3\n      swap2\n      swap1\n      dup2\n      dup2\n      mstore\n      0x20\n      add\n      dup3\n      dup1\n      sload\n      tag_139\n      swap1\n      tag_77\n      jump\t// in\n    tag_139:\n      dup1\n      iszero\n      tag_140\n      jumpi\n      dup1\n      0x1f\n      lt\n      tag_141\n      jumpi\n      0x0100\n      dup1\n      dup4\n      sload\n      div\n      mul\n      dup4\n      mstore\n      swap2\n      0x20\n      add\n      swap2\n      jump(tag_140)\n    tag_141:\n      dup3\n      add\n      swap2\n      swap1\n      0x00\n      mstore\n      keccak256(0x00, 0x20)\n      swap1\n    tag_142:\n      dup2\n      sload\n      dup2\n      mstore\n      swap1\n      0x01\n      add\n      swap1\n      0x20\n      add\n      dup1\n      dup4\n      gt\n      tag_142\n      jumpi\n      dup3\n      swap1\n      sub\n      0x1f\n      and\n      dup3\n      add\n      swap2\n    tag_140:\n      pop\n      pop\n      pop\n      pop\n      pop\n      dup2\n      mstore\n      0x20\n      add\n      0x02\n      dup3\n      add\n      dup1\n      sload\n      tag_143\n      swap1\n      tag_77\n      jump\t// in\n    tag_143:\n      dup1\n      0x1f\n      add\n      0x20\n      dup1\n      swap2\n      div\n      mul\n      0x20\n      add\n      mload(0x40)\n      swap1\n      dup2\n      add\n      0x40\n      mstore\n      dup1\n      swap3\n      swap2\n      swap1\n      dup2\n      dup2\n      mstore\n      0x20\n      add\n      dup3\n      dup1\n      sload\n      tag_144\n      swap1\n      tag_77\n      jump\t// in\n    tag_144:\n      dup1\n      iszero\n      tag_145\n      jumpi\n      dup1\n      0x1f\n      lt\n      tag_146\n      jumpi\n      0x0100\n      dup1\n      dup4\n      sload\n      div\n      mul\n      dup4\n      mstore\n      swap2\n      0x20\n      add\n      swap2\n      jump(tag_145)\n    tag_146:\n      dup3\n      add\n      swap2\n      swap1\n      0x00\n      mstore\n      keccak256(0x00, 0x20)\n      swap1\n    tag_147:\n      dup2\n      sload\n      dup2\n      mstore\n      swap1\n      0x01\n      add\n      swap1\n      0x20\n      add\n      dup1\n      dup4\n      gt\n      tag_147\n      jumpi\n      dup3\n      swap1\n      sub\n      0x1f\n      and\n      dup3\n      add\n      swap2\n    tag_145:\n      pop\n      pop\n      pop\n      pop\n      pop\n      dup2\n      mstore\n      0x20\n      add\n      0x03\n      dup3\n      add\n      0x00\n      swap1\n      sload\n      swap1\n      0x0100\n      exp\n      swap1\n      div\n      0xffffffffffffffffffffffffffffffffffffffff\n      and\n      0xffffffffffffffffffffffffffffffffffffffff\n      and\n      0xffffffffffffffffffffffffffffffffffffffff\n      and\n      dup2\n      mstore\n      0x20\n      add\n      0x04\n      dup3\n      add\n      sload\n      dup2\n      mstore\n      0x20\n      add\n      0x05\n      dup3\n      add\n      dup1\n      sload\n      dup1\n      0x20\n      mul\n      0x20\n      add\n      mload(0x40)\n      swap1\n      dup2\n      add\n      0x40\n      mstore\n      dup1\n      swap3\n      swap2\n      swap1\n      dup2\n      dup2\n      mstore\n      0x20\n      add\n      0x00\n      swap1\n    tag_148:\n      dup3\n      dup3\n      lt\n      iszero\n      tag_149\n      jumpi\n      dup4\n      dup3\n      swap1\n      0x00\n      mstore\n      keccak256(0x00, 0x20)\n      add\n      dup1\n      sload\n      tag_151\n      swap1\n      tag_77\n      jump\t// in\n    tag_151:\n      dup1\n      0x1f\n      add\n      0x20\n      dup1\n      swap2\n      div\n      mul\n      0x20\n      add\n      mload(0x40)\n      swap1\n      dup2\n      add\n      0x40\n      mstore\n      dup1\n      swap3\n      swap2\n      swap1\n      dup2\n      dup2\n      mstore\n      0x20\n      add\n      dup3\n      dup1\n      sload\n      tag_152\n      swap1\n      tag_77\n      jump\t// in\n    tag_152:\n      dup1\n      iszero\n      tag_153\n      jumpi\n      dup1\n      0x1f\n      lt\n      tag_154\n      jumpi\n      0x0100\n      dup1\n      dup4\n      sload\n      div\n      mul\n      dup4\n      mstore\n      swap2\n      0x20\n      add\n      swap2\n      jump(tag_153)\n    tag_154:\n      dup3\n      add\n      swap2\n      swap1\n      0x00\n      mstore\n      keccak256(0x00, 0x20)\n      swap1\n    tag_155:\n      dup2\n      sload\n      dup2\n      mstore\n      swap1\n      0x01\n      add\n      swap1\n      0x20\n      add\n      dup1\n      dup4\n      gt\n      tag_155\n      jumpi\n      dup3\n      swap1\n      sub\n      0x1f\n      and\n      dup3\n      add\n      swap2\n    tag_153:\n      pop\n      pop\n      pop\n      pop\n      pop\n      dup2\n      mstore\n      0x20\n      add\n      swap1\n      0x01\n      add\n      swap1\n      jump(tag_148)\n    tag_149:\n      pop\n      pop\n      pop\n      pop\n      dup2\n      mstore\n      0x20\n      add\n      0x06\n      dup3\n      add\n      0x00\n      swap1\n      sload\n      swap1\n      0x0100\n      exp\n      swap1\n      div\n      0xff\n      and\n      0x03\n      dup2\n      gt\n      iszero\n      tag_156\n      jumpi\n      tag_157\n      tag_65\n      jump\t// in\n    tag_157:\n    tag_156:\n      0x03\n      dup2\n      gt\n      iszero\n      tag_158\n      jumpi\n      tag_159\n      tag_65\n      jump\t// in\n    tag_159:\n    tag_158:\n      dup2\n      mstore\n      pop\n      pop\n      swap1\n      pop\n        /* \"ContractRegistry.sol\":5084:5227  function getContractInfo(address _contractAddress)public view returns(ContractInfo memory){... */\n      swap2\n      swap1\n      pop\n      jump\t// out\n        /* \"ContractRegistry.sol\":2041:3239  function registerContract(... */\n    tag_47:\n        /* \"ContractRegistry.sol\":2456:2457  0 */\n      0x00\n        /* \"ContractRegistry.sol\":2401:2458  contracts[_contractAddress].contractAddress == address(0) */\n      0xffffffffffffffffffffffffffffffffffffffff\n      and\n        /* \"ContractRegistry.sol\":2401:2410  contracts */\n      0x00\n        /* \"ContractRegistry.sol\":2401:2428  contracts[_contractAddress] */\n      dup1\n        /* \"ContractRegistry.sol\":2411:2427  _contractAddress */\n      dup7\n        /* \"ContractRegistry.sol\":2401:2428  contracts[_contractAddress] */\n      0xffffffffffffffffffffffffffffffffffffffff\n      and\n      0xffffffffffffffffffffffffffffffffffffffff\n      and\n      dup2\n      mstore\n      0x20\n      add\n      swap1\n      dup2\n      mstore\n      0x20\n      add\n      0x00\n      keccak256\n        /* \"ContractRegistry.sol\":2401:2444  contracts[_contractAddress].contractAddress */\n      0x00\n      add\n      0x00\n      swap1\n      sload\n      swap1\n      0x0100\n      exp\n      swap1\n      div\n      0xffffffffffffffffffffffffffffffffffffffff\n      and\n        /* \"ContractRegistry.sol\":2401:2458  contracts[_contractAddress].contractAddress == address(0) */\n      0xffffffffffffffffffffffffffffffffffffffff\n      and\n      eq\n        /* \"ContractRegistry.sol\":2393:2483  require(contracts[_contractAddress].contractAddress == address(0), \"Contract  registered\") */\n      tag_161\n      jumpi\n      mload(0x40)\n      0x08c379a000000000000000000000000000000000000000000000000000000000\n      dup2\n      mstore\n      0x04\n      add\n      tag_162\n      swap1\n      tag_163\n      jump\t// in\n    tag_162:\n      mload(0x40)\n      dup1\n      swap2\n      sub\n      swap1\n      revert\n    tag_161:\n        /* \"ContractRegistry.sol\":2522:2548  ContractInfo storage cInfo */\n      0x00\n        /* \"ContractRegistry.sol\":2551:2560  contracts */\n      dup1\n        /* \"ContractRegistry.sol\":2551:2578  contracts[_contractAddress] */\n      0x00\n        /* \"ContractRegistry.sol\":2561:2577  _contractAddress */\n      dup7\n        /* \"ContractRegistry.sol\":2551:2578  contracts[_contractAddress] */\n      0xffffffffffffffffffffffffffffffffffffffff\n      and\n      0xffffffffffffffffffffffffffffffffffffffff\n      and\n      dup2\n      mstore\n      0x20\n      add\n      swap1\n      dup2\n      mstore\n      0x20\n      add\n      0x00\n      keccak256\n        /* \"ContractRegistry.sol\":2522:2578  ContractInfo storage cInfo = contracts[_contractAddress] */\n      swap1\n      pop\n        /* \"ContractRegistry.sol\":2644:2660  _contractAddress */\n      dup5\n        /* \"ContractRegistry.sol\":2620:2625  cInfo */\n      dup2\n        /* \"ContractRegistry.sol\":2620:2641  cInfo.contractAddress */\n      0x00\n      add\n      0x00\n        /* \"ContractRegistry.sol\":2620:2660  cInfo.contractAddress = _contractAddress */\n      0x0100\n      exp\n      dup2\n      sload\n      dup2\n      0xffffffffffffffffffffffffffffffffffffffff\n      mul\n      not\n      and\n      swap1\n      dup4\n      0xffffffffffffffffffffffffffffffffffffffff\n      and\n      mul\n      or\n      swap1\n      sstore\n      pop\n        /* \"ContractRegistry.sol\":2706:2711  _name */\n      dup4\n        /* \"ContractRegistry.sol\":2693:2698  cInfo */\n      dup2\n        /* \"ContractRegistry.sol\":2693:2703  cInfo.name */\n      0x01\n      add\n        /* \"ContractRegistry.sol\":2693:2711  cInfo.name = _name */\n      swap1\n      dup2\n      tag_164\n      swap2\n      swap1\n      tag_165\n      jump\t// in\n    tag_164:\n      pop\n        /* \"ContractRegistry.sol\":2764:2776  _description */\n      dup3\n        /* \"ContractRegistry.sol\":2744:2749  cInfo */\n      dup2\n        /* \"ContractRegistry.sol\":2744:2761  cInfo.description */\n      0x02\n      add\n        /* \"ContractRegistry.sol\":2744:2776  cInfo.description = _description */\n      swap1\n      dup2\n      tag_166\n      swap2\n      swap1\n      tag_165\n      jump\t// in\n    tag_166:\n      pop\n        /* \"ContractRegistry.sol\":2823:2833  msg.sender */\n      caller\n        /* \"ContractRegistry.sol\":2809:2814  cInfo */\n      dup2\n        /* \"ContractRegistry.sol\":2809:2820  cInfo.owner */\n      0x03\n      add\n      0x00\n        /* \"ContractRegistry.sol\":2809:2833  cInfo.owner = msg.sender */\n      0x0100\n      exp\n      dup2\n      sload\n      dup2\n      0xffffffffffffffffffffffffffffffffffffffff\n      mul\n      not\n      and\n      swap1\n      dup4\n      0xffffffffffffffffffffffffffffffffffffffff\n      and\n      mul\n      or\n      swap1\n      sstore\n      pop\n        /* \"ContractRegistry.sol\":2911:2926  block.timestamp */\n      timestamp\n        /* \"ContractRegistry.sol\":2887:2892  cInfo */\n      dup2\n        /* \"ContractRegistry.sol\":2887:2908  cInfo.applicationTime */\n      0x04\n      add\n        /* \"ContractRegistry.sol\":2887:2926  cInfo.applicationTime = block.timestamp */\n      dup2\n      swap1\n      sstore\n      pop\n        /* \"ContractRegistry.sol\":3009:3030  _whitepaperIPFSHashes */\n      dup2\n        /* \"ContractRegistry.sol\":2980:2985  cInfo */\n      dup2\n        /* \"ContractRegistry.sol\":2980:3006  cInfo.whitepaperIPFSHashes */\n      0x05\n      add\n        /* \"ContractRegistry.sol\":2980:3030  cInfo.whitepaperIPFSHashes = _whitepaperIPFSHashes */\n      swap1\n      dup1\n      mload\n      swap1\n      0x20\n      add\n      swap1\n      tag_167\n      swap3\n      swap2\n      swap1\n      tag_168\n      jump\t// in\n    tag_167:\n      pop\n        /* \"ContractRegistry.sol\":3085:3099  Status.Pending */\n      0x00\n        /* \"ContractRegistry.sol\":3070:3075  cInfo */\n      dup2\n        /* \"ContractRegistry.sol\":3070:3082  cInfo.status */\n      0x06\n      add\n      0x00\n        /* \"ContractRegistry.sol\":3070:3099  cInfo.status = Status.Pending */\n      0x0100\n      exp\n      dup2\n      sload\n      dup2\n      0xff\n      mul\n      not\n      and\n      swap1\n      dup4\n      0x03\n      dup2\n      gt\n      iszero\n      tag_169\n      jumpi\n      tag_170\n      tag_65\n      jump\t// in\n    tag_170:\n    tag_169:\n      mul\n      or\n      swap1\n      sstore\n      pop\n        /* \"ContractRegistry.sol\":3147:3159  allContracts */\n      0x01\n        /* \"ContractRegistry.sol\":3165:3181  _contractAddress */\n      dup6\n        /* \"ContractRegistry.sol\":3147:3182  allContracts.push(_contractAddress) */\n      swap1\n      dup1\n      0x01\n      dup2\n      sload\n      add\n      dup1\n      dup3\n      sstore\n      dup1\n      swap2\n      pop\n      pop\n      0x01\n      swap1\n      sub\n      swap1\n      0x00\n      mstore\n      keccak256(0x00, 0x20)\n      add\n      0x00\n      swap1\n      swap2\n      swap1\n      swap2\n      swap1\n      swap2\n      0x0100\n      exp\n      dup2\n      sload\n      dup2\n      0xffffffffffffffffffffffffffffffffffffffff\n      mul\n      not\n      and\n      swap1\n      dup4\n      0xffffffffffffffffffffffffffffffffffffffff\n      and\n      mul\n      or\n      swap1\n      sstore\n      pop\n        /* \"ContractRegistry.sol\":2309:3239  {... */\n      pop\n        /* \"ContractRegistry.sol\":2041:3239  function registerContract(... */\n      pop\n      pop\n      pop\n      pop\n      jump\t// out\n        /* \"ContractRegistry.sol\":1413:1801  function addTrac(address _user,address _contract)public {... */\n    tag_51:\n        /* \"ContractRegistry.sol\":1678:1683  false */\n      0x00\n        /* \"ContractRegistry.sol\":1649:1683  tracDatas[_user][_contract]==false */\n      iszero\n      iszero\n        /* \"ContractRegistry.sol\":1649:1658  tracDatas */\n      0x03\n        /* \"ContractRegistry.sol\":1649:1665  tracDatas[_user] */\n      0x00\n        /* \"ContractRegistry.sol\":1659:1664  _user */\n      dup5\n        /* \"ContractRegistry.sol\":1649:1665  tracDatas[_user] */\n      0xffffffffffffffffffffffffffffffffffffffff\n      and\n      0xffffffffffffffffffffffffffffffffffffffff\n      and\n      dup2\n      mstore\n      0x20\n      add\n      swap1\n      dup2\n      mstore\n      0x20\n      add\n      0x00\n      keccak256\n        /* \"ContractRegistry.sol\":1649:1676  tracDatas[_user][_contract] */\n      0x00\n        /* \"ContractRegistry.sol\":1666:1675  _contract */\n      dup4\n        /* \"ContractRegistry.sol\":1649:1676  tracDatas[_user][_contract] */\n      0xffffffffffffffffffffffffffffffffffffffff\n      and\n      0xffffffffffffffffffffffffffffffffffffffff\n      and\n      dup2\n      mstore\n      0x20\n      add\n      swap1\n      dup2\n      mstore\n      0x20\n      add\n      0x00\n      keccak256\n      0x00\n      swap1\n      sload\n      swap1\n      0x0100\n      exp\n      swap1\n      div\n      0xff\n      and\n        /* \"ContractRegistry.sol\":1649:1683  tracDatas[_user][_contract]==false */\n      iszero\n      iszero\n      sub\n        /* \"ContractRegistry.sol\":1645:1794  if (tracDatas[_user][_contract]==false){... */\n      tag_173\n      jumpi\n        /* \"ContractRegistry.sol\":1699:1711  tracAddDatas */\n      0x04\n        /* \"ContractRegistry.sol\":1699:1718  tracAddDatas[_user] */\n      0x00\n        /* \"ContractRegistry.sol\":1712:1717  _user */\n      dup4\n        /* \"ContractRegistry.sol\":1699:1718  tracAddDatas[_user] */\n      0xffffffffffffffffffffffffffffffffffffffff\n      and\n      0xffffffffffffffffffffffffffffffffffffffff\n      and\n      dup2\n      mstore\n      0x20\n      add\n      swap1\n      dup2\n      mstore\n      0x20\n      add\n      0x00\n      keccak256\n        /* \"ContractRegistry.sol\":1724:1733  _contract */\n      dup2\n        /* \"ContractRegistry.sol\":1699:1734  tracAddDatas[_user].push(_contract) */\n      swap1\n      dup1\n      0x01\n      dup2\n      sload\n      add\n      dup1\n      dup3\n      sstore\n      dup1\n      swap2\n      pop\n      pop\n      0x01\n      swap1\n      sub\n      swap1\n      0x00\n      mstore\n      keccak256(0x00, 0x20)\n      add\n      0x00\n      swap1\n      swap2\n      swap1\n      swap2\n      swap1\n      swap2\n      0x0100\n      exp\n      dup2\n      sload\n      dup2\n      0xffffffffffffffffffffffffffffffffffffffff\n      mul\n      not\n      and\n      swap1\n      dup4\n      0xffffffffffffffffffffffffffffffffffffffff\n      and\n      mul\n      or\n      swap1\n      sstore\n      pop\n        /* \"ContractRegistry.sol\":1778:1782  true */\n      0x01\n        /* \"ContractRegistry.sol\":1749:1782  tracDatas[_user][_contract]==true */\n      iszero\n      iszero\n        /* \"ContractRegistry.sol\":1749:1758  tracDatas */\n      0x03\n        /* \"ContractRegistry.sol\":1749:1765  tracDatas[_user] */\n      0x00\n        /* \"ContractRegistry.sol\":1759:1764  _user */\n      dup5\n        /* \"ContractRegistry.sol\":1749:1765  tracDatas[_user] */\n      0xffffffffffffffffffffffffffffffffffffffff\n      and\n      0xffffffffffffffffffffffffffffffffffffffff\n      and\n      dup2\n      mstore\n      0x20\n      add\n      swap1\n      dup2\n      mstore\n      0x20\n      add\n      0x00\n      keccak256\n        /* \"ContractRegistry.sol\":1749:1776  tracDatas[_user][_contract] */\n      0x00\n        /* \"ContractRegistry.sol\":1766:1775  _contract */\n      dup4\n        /* \"ContractRegistry.sol\":1749:1776  tracDatas[_user][_contract] */\n      0xffffffffffffffffffffffffffffffffffffffff\n      and\n      0xffffffffffffffffffffffffffffffffffffffff\n      and\n      dup2\n      mstore\n      0x20\n      add\n      swap1\n      dup2\n      mstore\n      0x20\n      add\n      0x00\n      keccak256\n      0x00\n      swap1\n      sload\n      swap1\n      0x0100\n      exp\n      swap1\n      pop\n      pop\n        /* \"ContractRegistry.sol\":1749:1782  tracDatas[_user][_contract]==true */\n      pop\n        /* \"ContractRegistry.sol\":1645:1794  if (tracDatas[_user][_contract]==false){... */\n    tag_173:\n        /* \"ContractRegistry.sol\":1413:1801  function addTrac(address _user,address _contract)public {... */\n      pop\n      pop\n      jump\t// out\n        /* \"ContractRegistry.sol\":4910:5076  function isContractRegistered (address _contractAddress) public view returns(bool){... */\n    tag_54:\n        /* \"ContractRegistry.sol\":4987:4991  bool */\n      0x00\n        /* \"ContractRegistry.sol\":5066:5067  0 */\n      dup1\n        /* \"ContractRegistry.sol\":5011:5068  contracts[_contractAddress].contractAddress != address(0) */\n      0xffffffffffffffffffffffffffffffffffffffff\n      and\n        /* \"ContractRegistry.sol\":5011:5020  contracts */\n      0x00\n        /* \"ContractRegistry.sol\":5011:5038  contracts[_contractAddress] */\n      dup1\n        /* \"ContractRegistry.sol\":5021:5037  _contractAddress */\n      dup5\n        /* \"ContractRegistry.sol\":5011:5038  contracts[_contractAddress] */\n      0xffffffffffffffffffffffffffffffffffffffff\n      and\n      0xffffffffffffffffffffffffffffffffffffffff\n      and\n      dup2\n      mstore\n      0x20\n      add\n      swap1\n      dup2\n      mstore\n      0x20\n      add\n      0x00\n      keccak256\n        /* \"ContractRegistry.sol\":5011:5054  contracts[_contractAddress].contractAddress */\n      0x00\n      add\n      0x00\n      swap1\n      sload\n      swap1\n      0x0100\n      exp\n      swap1\n      div\n      0xffffffffffffffffffffffffffffffffffffffff\n      and\n        /* \"ContractRegistry.sol\":5011:5068  contracts[_contractAddress].contractAddress != address(0) */\n      0xffffffffffffffffffffffffffffffffffffffff\n      and\n      eq\n      iszero\n        /* \"ContractRegistry.sol\":5003:5068  return  contracts[_contractAddress].contractAddress != address(0) */\n      swap1\n      pop\n        /* \"ContractRegistry.sol\":4910:5076  function isContractRegistered (address _contractAddress) public view returns(bool){... */\n      swap2\n      swap1\n      pop\n      jump\t// out\n    tag_112:\n      mload(0x40)\n      dup1\n      0xe0\n      add\n      0x40\n      mstore\n      dup1\n      and(0xffffffffffffffffffffffffffffffffffffffff, 0x00)\n      dup2\n      mstore\n      0x20\n      add\n      0x60\n      dup2\n      mstore\n      0x20\n      add\n      0x60\n      dup2\n      mstore\n      0x20\n      add\n      and(0xffffffffffffffffffffffffffffffffffffffff, 0x00)\n      dup2\n      mstore\n      0x20\n      add\n      0x00\n      dup2\n      mstore\n      0x20\n      add\n      0x60\n      dup2\n      mstore\n      0x20\n      add\n      0x00\n      0x03\n      dup2\n      gt\n      iszero\n      tag_176\n      jumpi\n      tag_177\n      tag_65\n      jump\t// in\n    tag_177:\n    tag_176:\n      dup2\n      mstore\n      pop\n      swap1\n      jump\t// out\n    tag_168:\n      dup3\n      dup1\n      sload\n      dup3\n      dup3\n      sstore\n      swap1\n      0x00\n      mstore\n      keccak256(0x00, 0x20)\n      swap1\n      dup2\n      add\n      swap3\n      dup3\n      iszero\n      tag_178\n      jumpi\n      swap2\n      0x20\n      mul\n      dup3\n      add\n    tag_179:\n      dup3\n      dup2\n      gt\n      iszero\n      tag_180\n      jumpi\n      dup3\n      mload\n      dup3\n      swap1\n      dup2\n      tag_181\n      swap2\n      swap1\n      tag_165\n      jump\t// in\n    tag_181:\n      pop\n      swap2\n      0x20\n      add\n      swap2\n      swap1\n      0x01\n      add\n      swap1\n      jump(tag_179)\n    tag_180:\n    tag_178:\n      pop\n      swap1\n      pop\n      tag_182\n      swap2\n      swap1\n      tag_183\n      jump\t// in\n    tag_182:\n      pop\n      swap1\n      jump\t// out\n    tag_183:\n    tag_184:\n      dup1\n      dup3\n      gt\n      iszero\n      tag_185\n      jumpi\n      0x00\n      dup2\n      dup2\n      tag_186\n      swap2\n      swap1\n      tag_187\n      jump\t// in\n    tag_186:\n      pop\n      0x01\n      add\n      jump(tag_184)\n    tag_185:\n      pop\n      swap1\n      jump\t// out\n    tag_187:\n      pop\n      dup1\n      sload\n      tag_188\n      swap1\n      tag_77\n      jump\t// in\n    tag_188:\n      0x00\n      dup3\n      sstore\n      dup1\n      0x1f\n      lt\n      tag_190\n      jumpi\n      pop\n      jump(tag_189)\n    tag_190:\n      0x1f\n      add\n      0x20\n      swap1\n      div\n      swap1\n      0x00\n      mstore\n      keccak256(0x00, 0x20)\n      swap1\n      dup2\n      add\n      swap1\n      tag_191\n      swap2\n      swap1\n      tag_192\n      jump\t// in\n    tag_191:\n    tag_189:\n      pop\n      jump\t// out\n    tag_192:\n    tag_193:\n      dup1\n      dup3\n      gt\n      iszero\n      tag_194\n      jumpi\n      0x00\n      dup2\n      0x00\n      swap1\n      sstore\n      pop\n      0x01\n      add\n      jump(tag_193)\n    tag_194:\n      pop\n      swap1\n      jump\t// out\n        /* \"#utility.yul\":7:121   */\n    tag_195:\n        /* \"#utility.yul\":74:80   */\n      0x00\n        /* \"#utility.yul\":108:113   */\n      dup2\n        /* \"#utility.yul\":102:114   */\n      mload\n        /* \"#utility.yul\":92:114   */\n      swap1\n      pop\n        /* \"#utility.yul\":7:121   */\n      swap2\n      swap1\n      pop\n      jump\t// out\n        /* \"#utility.yul\":127:311   */\n    tag_196:\n        /* \"#utility.yul\":226:237   */\n      0x00\n        /* \"#utility.yul\":260:266   */\n      dup3\n        /* \"#utility.yul\":255:258   */\n      dup3\n        /* \"#utility.yul\":248:267   */\n      mstore\n        /* \"#utility.yul\":300:304   */\n      0x20\n        /* \"#utility.yul\":295:298   */\n      dup3\n        /* \"#utility.yul\":291:305   */\n      add\n        /* \"#utility.yul\":276:305   */\n      swap1\n      pop\n        /* \"#utility.yul\":127:311   */\n      swap3\n      swap2\n      pop\n      pop\n      jump\t// out\n        /* \"#utility.yul\":317:449   */\n    tag_197:\n        /* \"#utility.yul\":384:388   */\n      0x00\n        /* \"#utility.yul\":407:410   */\n      dup2\n        /* \"#utility.yul\":399:410   */\n      swap1\n      pop\n        /* \"#utility.yul\":437:441   */\n      0x20\n        /* \"#utility.yul\":432:435   */\n      dup3\n        /* \"#utility.yul\":428:442   */\n      add\n        /* \"#utility.yul\":420:442   */\n      swap1\n      pop\n        /* \"#utility.yul\":317:449   */\n      swap2\n      swap1\n      pop\n      jump\t// out\n        /* \"#utility.yul\":455:581   */\n    tag_198:\n        /* \"#utility.yul\":492:499   */\n      0x00\n        /* \"#utility.yul\":532:574   */\n      0xffffffffffffffffffffffffffffffffffffffff\n        /* \"#utility.yul\":525:530   */\n      dup3\n        /* \"#utility.yul\":521:575   */\n      and\n        /* \"#utility.yul\":510:575   */\n      swap1\n      pop\n        /* \"#utility.yul\":455:581   */\n      swap2\n      swap1\n      pop\n      jump\t// out\n        /* \"#utility.yul\":587:683   */\n    tag_199:\n        /* \"#utility.yul\":624:631   */\n      0x00\n        /* \"#utility.yul\":653:677   */\n      tag_271\n        /* \"#utility.yul\":671:676   */\n      dup3\n        /* \"#utility.yul\":653:677   */\n      tag_198\n      jump\t// in\n    tag_271:\n        /* \"#utility.yul\":642:677   */\n      swap1\n      pop\n        /* \"#utility.yul\":587:683   */\n      swap2\n      swap1\n      pop\n      jump\t// out\n        /* \"#utility.yul\":689:797   */\n    tag_200:\n        /* \"#utility.yul\":766:790   */\n      tag_273\n        /* \"#utility.yul\":784:789   */\n      dup2\n        /* \"#utility.yul\":766:790   */\n      tag_199\n      jump\t// in\n    tag_273:\n        /* \"#utility.yul\":761:764   */\n      dup3\n        /* \"#utility.yul\":754:791   */\n      mstore\n        /* \"#utility.yul\":689:797   */\n      pop\n      pop\n      jump\t// out\n        /* \"#utility.yul\":803:982   */\n    tag_201:\n        /* \"#utility.yul\":872:882   */\n      0x00\n        /* \"#utility.yul\":893:939   */\n      tag_275\n        /* \"#utility.yul\":935:938   */\n      dup4\n        /* \"#utility.yul\":927:933   */\n      dup4\n        /* \"#utility.yul\":893:939   */\n      tag_200\n      jump\t// in\n    tag_275:\n        /* \"#utility.yul\":971:975   */\n      0x20\n        /* \"#utility.yul\":966:969   */\n      dup4\n        /* \"#utility.yul\":962:976   */\n      add\n        /* \"#utility.yul\":948:976   */\n      swap1\n      pop\n        /* \"#utility.yul\":803:982   */\n      swap3\n      swap2\n      pop\n      pop\n      jump\t// out\n        /* \"#utility.yul\":988:1101   */\n    tag_202:\n        /* \"#utility.yul\":1058:1062   */\n      0x00\n        /* \"#utility.yul\":1090:1094   */\n      0x20\n        /* \"#utility.yul\":1085:1088   */\n      dup3\n        /* \"#utility.yul\":1081:1095   */\n      add\n        /* \"#utility.yul\":1073:1095   */\n      swap1\n      pop\n        /* \"#utility.yul\":988:1101   */\n      swap2\n      swap1\n      pop\n      jump\t// out\n        /* \"#utility.yul\":1137:1869   */\n    tag_203:\n        /* \"#utility.yul\":1256:1259   */\n      0x00\n        /* \"#utility.yul\":1285:1339   */\n      tag_278\n        /* \"#utility.yul\":1333:1338   */\n      dup3\n        /* \"#utility.yul\":1285:1339   */\n      tag_195\n      jump\t// in\n    tag_278:\n        /* \"#utility.yul\":1355:1441   */\n      tag_279\n        /* \"#utility.yul\":1434:1440   */\n      dup2\n        /* \"#utility.yul\":1429:1432   */\n      dup6\n        /* \"#utility.yul\":1355:1441   */\n      tag_196\n      jump\t// in\n    tag_279:\n        /* \"#utility.yul\":1348:1441   */\n      swap4\n      pop\n        /* \"#utility.yul\":1465:1521   */\n      tag_280\n        /* \"#utility.yul\":1515:1520   */\n      dup4\n        /* \"#utility.yul\":1465:1521   */\n      tag_197\n      jump\t// in\n    tag_280:\n        /* \"#utility.yul\":1544:1551   */\n      dup1\n        /* \"#utility.yul\":1575:1576   */\n      0x00\n        /* \"#utility.yul\":1560:1844   */\n    tag_281:\n        /* \"#utility.yul\":1585:1591   */\n      dup4\n        /* \"#utility.yul\":1582:1583   */\n      dup2\n        /* \"#utility.yul\":1579:1592   */\n      lt\n        /* \"#utility.yul\":1560:1844   */\n      iszero\n      tag_283\n      jumpi\n        /* \"#utility.yul\":1661:1667   */\n      dup2\n        /* \"#utility.yul\":1655:1668   */\n      mload\n        /* \"#utility.yul\":1688:1751   */\n      tag_284\n        /* \"#utility.yul\":1747:1750   */\n      dup9\n        /* \"#utility.yul\":1732:1745   */\n      dup3\n        /* \"#utility.yul\":1688:1751   */\n      tag_201\n      jump\t// in\n    tag_284:\n        /* \"#utility.yul\":1681:1751   */\n      swap8\n      pop\n        /* \"#utility.yul\":1774:1834   */\n      tag_285\n        /* \"#utility.yul\":1827:1833   */\n      dup4\n        /* \"#utility.yul\":1774:1834   */\n      tag_202\n      jump\t// in\n    tag_285:\n        /* \"#utility.yul\":1764:1834   */\n      swap3\n      pop\n        /* \"#utility.yul\":1620:1844   */\n      pop\n        /* \"#utility.yul\":1607:1608   */\n      0x01\n        /* \"#utility.yul\":1604:1605   */\n      dup2\n        /* \"#utility.yul\":1600:1609   */\n      add\n        /* \"#utility.yul\":1595:1609   */\n      swap1\n      pop\n        /* \"#utility.yul\":1560:1844   */\n      jump(tag_281)\n    tag_283:\n        /* \"#utility.yul\":1564:1578   */\n      pop\n        /* \"#utility.yul\":1860:1863   */\n      dup6\n        /* \"#utility.yul\":1853:1863   */\n      swap4\n      pop\n        /* \"#utility.yul\":1261:1869   */\n      pop\n      pop\n      pop\n        /* \"#utility.yul\":1137:1869   */\n      swap3\n      swap2\n      pop\n      pop\n      jump\t// out\n        /* \"#utility.yul\":1875:2248   */\n    tag_17:\n        /* \"#utility.yul\":2018:2022   */\n      0x00\n        /* \"#utility.yul\":2056:2058   */\n      0x20\n        /* \"#utility.yul\":2045:2054   */\n      dup3\n        /* \"#utility.yul\":2041:2059   */\n      add\n        /* \"#utility.yul\":2033:2059   */\n      swap1\n      pop\n        /* \"#utility.yul\":2105:2114   */\n      dup2\n        /* \"#utility.yul\":2099:2103   */\n      dup2\n        /* \"#utility.yul\":2095:2115   */\n      sub\n        /* \"#utility.yul\":2091:2092   */\n      0x00\n        /* \"#utility.yul\":2080:2089   */\n      dup4\n        /* \"#utility.yul\":2076:2093   */\n      add\n        /* \"#utility.yul\":2069:2116   */\n      mstore\n        /* \"#utility.yul\":2133:2241   */\n      tag_287\n        /* \"#utility.yul\":2236:2240   */\n      dup2\n        /* \"#utility.yul\":2227:2233   */\n      dup5\n        /* \"#utility.yul\":2133:2241   */\n      tag_203\n      jump\t// in\n    tag_287:\n        /* \"#utility.yul\":2125:2241   */\n      swap1\n      pop\n        /* \"#utility.yul\":1875:2248   */\n      swap3\n      swap2\n      pop\n      pop\n      jump\t// out\n        /* \"#utility.yul\":2254:2329   */\n    tag_204:\n        /* \"#utility.yul\":2287:2293   */\n      0x00\n        /* \"#utility.yul\":2320:2322   */\n      0x40\n        /* \"#utility.yul\":2314:2323   */\n      mload\n        /* \"#utility.yul\":2304:2323   */\n      swap1\n      pop\n        /* \"#utility.yul\":2254:2329   */\n      swap1\n      jump\t// out\n        /* \"#utility.yul\":2335:2452   */\n    tag_205:\n        /* \"#utility.yul\":2444:2445   */\n      0x00\n        /* \"#utility.yul\":2441:2442   */\n      dup1\n        /* \"#utility.yul\":2434:2446   */\n      revert\n        /* \"#utility.yul\":2458:2575   */\n    tag_206:\n        /* \"#utility.yul\":2567:2568   */\n      0x00\n        /* \"#utility.yul\":2564:2565   */\n      dup1\n        /* \"#utility.yul\":2557:2569   */\n      revert\n        /* \"#utility.yul\":2581:2703   */\n    tag_207:\n        /* \"#utility.yul\":2654:2678   */\n      tag_292\n        /* \"#utility.yul\":2672:2677   */\n      dup2\n        /* \"#utility.yul\":2654:2678   */\n      tag_199\n      jump\t// in\n    tag_292:\n        /* \"#utility.yul\":2647:2652   */\n      dup2\n        /* \"#utility.yul\":2644:2679   */\n      eq\n        /* \"#utility.yul\":2634:2697   */\n      tag_293\n      jumpi\n        /* \"#utility.yul\":2693:2694   */\n      0x00\n        /* \"#utility.yul\":2690:2691   */\n      dup1\n        /* \"#utility.yul\":2683:2695   */\n      revert\n        /* \"#utility.yul\":2634:2697   */\n    tag_293:\n        /* \"#utility.yul\":2581:2703   */\n      pop\n      jump\t// out\n        /* \"#utility.yul\":2709:2848   */\n    tag_208:\n        /* \"#utility.yul\":2755:2760   */\n      0x00\n        /* \"#utility.yul\":2793:2799   */\n      dup2\n        /* \"#utility.yul\":2780:2800   */\n      calldataload\n        /* \"#utility.yul\":2771:2800   */\n      swap1\n      pop\n        /* \"#utility.yul\":2809:2842   */\n      tag_295\n        /* \"#utility.yul\":2836:2841   */\n      dup2\n        /* \"#utility.yul\":2809:2842   */\n      tag_207\n      jump\t// in\n    tag_295:\n        /* \"#utility.yul\":2709:2848   */\n      swap3\n      swap2\n      pop\n      pop\n      jump\t// out\n        /* \"#utility.yul\":2854:2962   */\n    tag_209:\n        /* \"#utility.yul\":2936:2937   */\n      0x04\n        /* \"#utility.yul\":2929:2934   */\n      dup2\n        /* \"#utility.yul\":2926:2938   */\n      lt\n        /* \"#utility.yul\":2916:2956   */\n      tag_297\n      jumpi\n        /* \"#utility.yul\":2952:2953   */\n      0x00\n        /* \"#utility.yul\":2949:2950   */\n      dup1\n        /* \"#utility.yul\":2942:2954   */\n      revert\n        /* \"#utility.yul\":2916:2956   */\n    tag_297:\n        /* \"#utility.yul\":2854:2962   */\n      pop\n      jump\t// out\n        /* \"#utility.yul\":2968:3125   */\n    tag_210:\n        /* \"#utility.yul\":3023:3028   */\n      0x00\n        /* \"#utility.yul\":3061:3067   */\n      dup2\n        /* \"#utility.yul\":3048:3068   */\n      calldataload\n        /* \"#utility.yul\":3039:3068   */\n      swap1\n      pop\n        /* \"#utility.yul\":3077:3119   */\n      tag_299\n        /* \"#utility.yul\":3113:3118   */\n      dup2\n        /* \"#utility.yul\":3077:3119   */\n      tag_209\n      jump\t// in\n    tag_299:\n        /* \"#utility.yul\":2968:3125   */\n      swap3\n      swap2\n      pop\n      pop\n      jump\t// out\n        /* \"#utility.yul\":3131:3623   */\n    tag_20:\n        /* \"#utility.yul\":3208:3214   */\n      0x00\n        /* \"#utility.yul\":3216:3222   */\n      dup1\n        /* \"#utility.yul\":3265:3267   */\n      0x40\n        /* \"#utility.yul\":3253:3262   */\n      dup4\n        /* \"#utility.yul\":3244:3251   */\n      dup6\n        /* \"#utility.yul\":3240:3263   */\n      sub\n        /* \"#utility.yul\":3236:3268   */\n      slt\n        /* \"#utility.yul\":3233:3352   */\n      iszero\n      tag_301\n      jumpi\n        /* \"#utility.yul\":3271:3350   */\n      tag_302\n      tag_205\n      jump\t// in\n    tag_302:\n        /* \"#utility.yul\":3233:3352   */\n    tag_301:\n        /* \"#utility.yul\":3391:3392   */\n      0x00\n        /* \"#utility.yul\":3416:3469   */\n      tag_303\n        /* \"#utility.yul\":3461:3468   */\n      dup6\n        /* \"#utility.yul\":3452:3458   */\n      dup3\n        /* \"#utility.yul\":3441:3450   */\n      dup7\n        /* \"#utility.yul\":3437:3459   */\n      add\n        /* \"#utility.yul\":3416:3469   */\n      tag_208\n      jump\t// in\n    tag_303:\n        /* \"#utility.yul\":3406:3469   */\n      swap3\n      pop\n        /* \"#utility.yul\":3362:3479   */\n      pop\n        /* \"#utility.yul\":3518:3520   */\n      0x20\n        /* \"#utility.yul\":3544:3606   */\n      tag_304\n        /* \"#utility.yul\":3598:3605   */\n      dup6\n        /* \"#utility.yul\":3589:3595   */\n      dup3\n        /* \"#utility.yul\":3578:3587   */\n      dup7\n        /* \"#utility.yul\":3574:3596   */\n      add\n        /* \"#utility.yul\":3544:3606   */\n      tag_210\n      jump\t// in\n    tag_304:\n        /* \"#utility.yul\":3534:3606   */\n      swap2\n      pop\n        /* \"#utility.yul\":3489:3616   */\n      pop\n        /* \"#utility.yul\":3131:3623   */\n      swap3\n      pop\n      swap3\n      swap1\n      pop\n      jump\t// out\n        /* \"#utility.yul\":3629:3958   */\n    tag_24:\n        /* \"#utility.yul\":3688:3694   */\n      0x00\n        /* \"#utility.yul\":3737:3739   */\n      0x20\n        /* \"#utility.yul\":3725:3734   */\n      dup3\n        /* \"#utility.yul\":3716:3723   */\n      dup5\n        /* \"#utility.yul\":3712:3735   */\n      sub\n        /* \"#utility.yul\":3708:3740   */\n      slt\n        /* \"#utility.yul\":3705:3824   */\n      iszero\n      tag_306\n      jumpi\n        /* \"#utility.yul\":3743:3822   */\n      tag_307\n      tag_205\n      jump\t// in\n    tag_307:\n        /* \"#utility.yul\":3705:3824   */\n    tag_306:\n        /* \"#utility.yul\":3863:3864   */\n      0x00\n        /* \"#utility.yul\":3888:3941   */\n      tag_308\n        /* \"#utility.yul\":3933:3940   */\n      dup5\n        /* \"#utility.yul\":3924:3930   */\n      dup3\n        /* \"#utility.yul\":3913:3922   */\n      dup6\n        /* \"#utility.yul\":3909:3931   */\n      add\n        /* \"#utility.yul\":3888:3941   */\n      tag_208\n      jump\t// in\n    tag_308:\n        /* \"#utility.yul\":3878:3941   */\n      swap2\n      pop\n        /* \"#utility.yul\":3834:3951   */\n      pop\n        /* \"#utility.yul\":3629:3958   */\n      swap3\n      swap2\n      pop\n      pop\n      jump\t// out\n        /* \"#utility.yul\":3964:4054   */\n    tag_211:\n        /* \"#utility.yul\":3998:4005   */\n      0x00\n        /* \"#utility.yul\":4041:4046   */\n      dup2\n        /* \"#utility.yul\":4034:4047   */\n      iszero\n        /* \"#utility.yul\":4027:4048   */\n      iszero\n        /* \"#utility.yul\":4016:4048   */\n      swap1\n      pop\n        /* \"#utility.yul\":3964:4054   */\n      swap2\n      swap1\n      pop\n      jump\t// out\n        /* \"#utility.yul\":4060:4169   */\n    tag_212:\n        /* \"#utility.yul\":4141:4162   */\n      tag_311\n        /* \"#utility.yul\":4156:4161   */\n      dup2\n        /* \"#utility.yul\":4141:4162   */\n      tag_211\n      jump\t// in\n    tag_311:\n        /* \"#utility.yul\":4136:4139   */\n      dup3\n        /* \"#utility.yul\":4129:4163   */\n      mstore\n        /* \"#utility.yul\":4060:4169   */\n      pop\n      pop\n      jump\t// out\n        /* \"#utility.yul\":4175:4385   */\n    tag_31:\n        /* \"#utility.yul\":4262:4266   */\n      0x00\n        /* \"#utility.yul\":4300:4302   */\n      0x20\n        /* \"#utility.yul\":4289:4298   */\n      dup3\n        /* \"#utility.yul\":4285:4303   */\n      add\n        /* \"#utility.yul\":4277:4303   */\n      swap1\n      pop\n        /* \"#utility.yul\":4313:4378   */\n      tag_313\n        /* \"#utility.yul\":4375:4376   */\n      0x00\n        /* \"#utility.yul\":4364:4373   */\n      dup4\n        /* \"#utility.yul\":4360:4377   */\n      add\n        /* \"#utility.yul\":4351:4357   */\n      dup5\n        /* \"#utility.yul\":4313:4378   */\n      tag_212\n      jump\t// in\n    tag_313:\n        /* \"#utility.yul\":4175:4385   */\n      swap3\n      swap2\n      pop\n      pop\n      jump\t// out\n        /* \"#utility.yul\":4391:4490   */\n    tag_213:\n        /* \"#utility.yul\":4443:4449   */\n      0x00\n        /* \"#utility.yul\":4477:4482   */\n      dup2\n        /* \"#utility.yul\":4471:4483   */\n      mload\n        /* \"#utility.yul\":4461:4483   */\n      swap1\n      pop\n        /* \"#utility.yul\":4391:4490   */\n      swap2\n      swap1\n      pop\n      jump\t// out\n        /* \"#utility.yul\":4496:4655   */\n    tag_214:\n        /* \"#utility.yul\":4570:4581   */\n      0x00\n        /* \"#utility.yul\":4604:4610   */\n      dup3\n        /* \"#utility.yul\":4599:4602   */\n      dup3\n        /* \"#utility.yul\":4592:4611   */\n      mstore\n        /* \"#utility.yul\":4644:4648   */\n      0x20\n        /* \"#utility.yul\":4639:4642   */\n      dup3\n        /* \"#utility.yul\":4635:4649   */\n      add\n        /* \"#utility.yul\":4620:4649   */\n      swap1\n      pop\n        /* \"#utility.yul\":4496:4655   */\n      swap3\n      swap2\n      pop\n      pop\n      jump\t// out\n        /* \"#utility.yul\":4661:4907   */\n    tag_215:\n        /* \"#utility.yul\":4742:4743   */\n      0x00\n        /* \"#utility.yul\":4752:4865   */\n    tag_317:\n        /* \"#utility.yul\":4766:4772   */\n      dup4\n        /* \"#utility.yul\":4763:4764   */\n      dup2\n        /* \"#utility.yul\":4760:4773   */\n      lt\n        /* \"#utility.yul\":4752:4865   */\n      iszero\n      tag_319\n      jumpi\n        /* \"#utility.yul\":4851:4852   */\n      dup1\n        /* \"#utility.yul\":4846:4849   */\n      dup3\n        /* \"#utility.yul\":4842:4853   */\n      add\n        /* \"#utility.yul\":4836:4854   */\n      mload\n        /* \"#utility.yul\":4832:4833   */\n      dup2\n        /* \"#utility.yul\":4827:4830   */\n      dup5\n        /* \"#utility.yul\":4823:4834   */\n      add\n        /* \"#utility.yul\":4816:4855   */\n      mstore\n        /* \"#utility.yul\":4788:4790   */\n      0x20\n        /* \"#utility.yul\":4785:4786   */\n      dup2\n        /* \"#utility.yul\":4781:4791   */\n      add\n        /* \"#utility.yul\":4776:4791   */\n      swap1\n      pop\n        /* \"#utility.yul\":4752:4865   */\n      jump(tag_317)\n    tag_319:\n        /* \"#utility.yul\":4899:4900   */\n      0x00\n        /* \"#utility.yul\":4890:4896   */\n      dup5\n        /* \"#utility.yul\":4885:4888   */\n      dup5\n        /* \"#utility.yul\":4881:4897   */\n      add\n        /* \"#utility.yul\":4874:4901   */\n      mstore\n        /* \"#utility.yul\":4723:4907   */\n      pop\n        /* \"#utility.yul\":4661:4907   */\n      pop\n      pop\n      pop\n      jump\t// out\n        /* \"#utility.yul\":4913:5015   */\n    tag_216:\n        /* \"#utility.yul\":4954:4960   */\n      0x00\n        /* \"#utility.yul\":5005:5007   */\n      0x1f\n        /* \"#utility.yul\":5001:5008   */\n      not\n        /* \"#utility.yul\":4996:4998   */\n      0x1f\n        /* \"#utility.yul\":4989:4994   */\n      dup4\n        /* \"#utility.yul\":4985:4999   */\n      add\n        /* \"#utility.yul\":4981:5009   */\n      and\n        /* \"#utility.yul\":4971:5009   */\n      swap1\n      pop\n        /* \"#utility.yul\":4913:5015   */\n      swap2\n      swap1\n      pop\n      jump\t// out\n        /* \"#utility.yul\":5021:5378   */\n    tag_217:\n        /* \"#utility.yul\":5099:5102   */\n      0x00\n        /* \"#utility.yul\":5127:5166   */\n      tag_322\n        /* \"#utility.yul\":5160:5165   */\n      dup3\n        /* \"#utility.yul\":5127:5166   */\n      tag_213\n      jump\t// in\n    tag_322:\n        /* \"#utility.yul\":5182:5243   */\n      tag_323\n        /* \"#utility.yul\":5236:5242   */\n      dup2\n        /* \"#utility.yul\":5231:5234   */\n      dup6\n        /* \"#utility.yul\":5182:5243   */\n      tag_214\n      jump\t// in\n    tag_323:\n        /* \"#utility.yul\":5175:5243   */\n      swap4\n      pop\n        /* \"#utility.yul\":5252:5317   */\n      tag_324\n        /* \"#utility.yul\":5310:5316   */\n      dup2\n        /* \"#utility.yul\":5305:5308   */\n      dup6\n        /* \"#utility.yul\":5298:5302   */\n      0x20\n        /* \"#utility.yul\":5291:5296   */\n      dup7\n        /* \"#utility.yul\":5287:5303   */\n      add\n        /* \"#utility.yul\":5252:5317   */\n      tag_215\n      jump\t// in\n    tag_324:\n        /* \"#utility.yul\":5342:5371   */\n      tag_325\n        /* \"#utility.yul\":5364:5370   */\n      dup2\n        /* \"#utility.yul\":5342:5371   */\n      tag_216\n      jump\t// in\n    tag_325:\n        /* \"#utility.yul\":5337:5340   */\n      dup5\n        /* \"#utility.yul\":5333:5372   */\n      add\n        /* \"#utility.yul\":5326:5372   */\n      swap2\n      pop\n        /* \"#utility.yul\":5103:5378   */\n      pop\n        /* \"#utility.yul\":5021:5378   */\n      swap3\n      swap2\n      pop\n      pop\n      jump\t// out\n        /* \"#utility.yul\":5384:5461   */\n    tag_218:\n        /* \"#utility.yul\":5421:5428   */\n      0x00\n        /* \"#utility.yul\":5450:5455   */\n      dup2\n        /* \"#utility.yul\":5439:5455   */\n      swap1\n      pop\n        /* \"#utility.yul\":5384:5461   */\n      swap2\n      swap1\n      pop\n      jump\t// out\n        /* \"#utility.yul\":5467:5575   */\n    tag_219:\n        /* \"#utility.yul\":5544:5568   */\n      tag_328\n        /* \"#utility.yul\":5562:5567   */\n      dup2\n        /* \"#utility.yul\":5544:5568   */\n      tag_218\n      jump\t// in\n    tag_328:\n        /* \"#utility.yul\":5539:5542   */\n      dup3\n        /* \"#utility.yul\":5532:5569   */\n      mstore\n        /* \"#utility.yul\":5467:5575   */\n      pop\n      pop\n      jump\t// out\n        /* \"#utility.yul\":5581:5705   */\n    tag_220:\n        /* \"#utility.yul\":5658:5664   */\n      0x00\n        /* \"#utility.yul\":5692:5697   */\n      dup2\n        /* \"#utility.yul\":5686:5698   */\n      mload\n        /* \"#utility.yul\":5676:5698   */\n      swap1\n      pop\n        /* \"#utility.yul\":5581:5705   */\n      swap2\n      swap1\n      pop\n      jump\t// out\n        /* \"#utility.yul\":5711:5895   */\n    tag_221:\n        /* \"#utility.yul\":5810:5821   */\n      0x00\n        /* \"#utility.yul\":5844:5850   */\n      dup3\n        /* \"#utility.yul\":5839:5842   */\n      dup3\n        /* \"#utility.yul\":5832:5851   */\n      mstore\n        /* \"#utility.yul\":5884:5888   */\n      0x20\n        /* \"#utility.yul\":5879:5882   */\n      dup3\n        /* \"#utility.yul\":5875:5889   */\n      add\n        /* \"#utility.yul\":5860:5889   */\n      swap1\n      pop\n        /* \"#utility.yul\":5711:5895   */\n      swap3\n      swap2\n      pop\n      pop\n      jump\t// out\n        /* \"#utility.yul\":5901:6043   */\n    tag_222:\n        /* \"#utility.yul\":5978:5982   */\n      0x00\n        /* \"#utility.yul\":6001:6004   */\n      dup2\n        /* \"#utility.yul\":5993:6004   */\n      swap1\n      pop\n        /* \"#utility.yul\":6031:6035   */\n      0x20\n        /* \"#utility.yul\":6026:6029   */\n      dup3\n        /* \"#utility.yul\":6022:6036   */\n      add\n        /* \"#utility.yul\":6014:6036   */\n      swap1\n      pop\n        /* \"#utility.yul\":5901:6043   */\n      swap2\n      swap1\n      pop\n      jump\t// out\n        /* \"#utility.yul\":6049:6245   */\n    tag_223:\n        /* \"#utility.yul\":6138:6148   */\n      0x00\n        /* \"#utility.yul\":6173:6239   */\n      tag_333\n        /* \"#utility.yul\":6235:6238   */\n      dup4\n        /* \"#utility.yul\":6227:6233   */\n      dup4\n        /* \"#utility.yul\":6173:6239   */\n      tag_217\n      jump\t// in\n    tag_333:\n        /* \"#utility.yul\":6159:6239   */\n      swap1\n      pop\n        /* \"#utility.yul\":6049:6245   */\n      swap3\n      swap2\n      pop\n      pop\n      jump\t// out\n        /* \"#utility.yul\":6251:6374   */\n    tag_224:\n        /* \"#utility.yul\":6331:6335   */\n      0x00\n        /* \"#utility.yul\":6363:6367   */\n      0x20\n        /* \"#utility.yul\":6358:6361   */\n      dup3\n        /* \"#utility.yul\":6354:6368   */\n      add\n        /* \"#utility.yul\":6346:6368   */\n      swap1\n      pop\n        /* \"#utility.yul\":6251:6374   */\n      swap2\n      swap1\n      pop\n      jump\t// out\n        /* \"#utility.yul\":6408:7379   */\n    tag_225:\n        /* \"#utility.yul\":6537:6540   */\n      0x00\n        /* \"#utility.yul\":6566:6630   */\n      tag_336\n        /* \"#utility.yul\":6624:6629   */\n      dup3\n        /* \"#utility.yul\":6566:6630   */\n      tag_220\n      jump\t// in\n    tag_336:\n        /* \"#utility.yul\":6646:6732   */\n      tag_337\n        /* \"#utility.yul\":6725:6731   */\n      dup2\n        /* \"#utility.yul\":6720:6723   */\n      dup6\n        /* \"#utility.yul\":6646:6732   */\n      tag_221\n      jump\t// in\n    tag_337:\n        /* \"#utility.yul\":6639:6732   */\n      swap4\n      pop\n        /* \"#utility.yul\":6758:6761   */\n      dup4\n        /* \"#utility.yul\":6803:6807   */\n      0x20\n        /* \"#utility.yul\":6795:6801   */\n      dup3\n        /* \"#utility.yul\":6791:6808   */\n      mul\n        /* \"#utility.yul\":6786:6789   */\n      dup6\n        /* \"#utility.yul\":6782:6809   */\n      add\n        /* \"#utility.yul\":6833:6899   */\n      tag_338\n        /* \"#utility.yul\":6893:6898   */\n      dup6\n        /* \"#utility.yul\":6833:6899   */\n      tag_222\n      jump\t// in\n    tag_338:\n        /* \"#utility.yul\":6922:6929   */\n      dup1\n        /* \"#utility.yul\":6953:6954   */\n      0x00\n        /* \"#utility.yul\":6938:7334   */\n    tag_339:\n        /* \"#utility.yul\":6963:6969   */\n      dup6\n        /* \"#utility.yul\":6960:6961   */\n      dup2\n        /* \"#utility.yul\":6957:6970   */\n      lt\n        /* \"#utility.yul\":6938:7334   */\n      iszero\n      tag_341\n      jumpi\n        /* \"#utility.yul\":7034:7043   */\n      dup5\n        /* \"#utility.yul\":7028:7032   */\n      dup5\n        /* \"#utility.yul\":7024:7044   */\n      sub\n        /* \"#utility.yul\":7019:7022   */\n      dup10\n        /* \"#utility.yul\":7012:7045   */\n      mstore\n        /* \"#utility.yul\":7085:7091   */\n      dup2\n        /* \"#utility.yul\":7079:7092   */\n      mload\n        /* \"#utility.yul\":7113:7197   */\n      tag_342\n        /* \"#utility.yul\":7192:7196   */\n      dup6\n        /* \"#utility.yul\":7177:7190   */\n      dup3\n        /* \"#utility.yul\":7113:7197   */\n      tag_223\n      jump\t// in\n    tag_342:\n        /* \"#utility.yul\":7105:7197   */\n      swap5\n      pop\n        /* \"#utility.yul\":7220:7290   */\n      tag_343\n        /* \"#utility.yul\":7283:7289   */\n      dup4\n        /* \"#utility.yul\":7220:7290   */\n      tag_224\n      jump\t// in\n    tag_343:\n        /* \"#utility.yul\":7210:7290   */\n      swap3\n      pop\n        /* \"#utility.yul\":7319:7323   */\n      0x20\n        /* \"#utility.yul\":7314:7317   */\n      dup11\n        /* \"#utility.yul\":7310:7324   */\n      add\n        /* \"#utility.yul\":7303:7324   */\n      swap10\n      pop\n        /* \"#utility.yul\":6998:7334   */\n      pop\n        /* \"#utility.yul\":6985:6986   */\n      0x01\n        /* \"#utility.yul\":6982:6983   */\n      dup2\n        /* \"#utility.yul\":6978:6987   */\n      add\n        /* \"#utility.yul\":6973:6987   */\n      swap1\n      pop\n        /* \"#utility.yul\":6938:7334   */\n      jump(tag_339)\n    tag_341:\n        /* \"#utility.yul\":6942:6956   */\n      pop\n        /* \"#utility.yul\":7350:7354   */\n      dup3\n        /* \"#utility.yul\":7343:7354   */\n      swap8\n      pop\n        /* \"#utility.yul\":7370:7373   */\n      dup8\n        /* \"#utility.yul\":7363:7373   */\n      swap6\n      pop\n        /* \"#utility.yul\":6542:7379   */\n      pop\n      pop\n      pop\n      pop\n      pop\n        /* \"#utility.yul\":6408:7379   */\n      swap3\n      swap2\n      pop\n      pop\n      jump\t// out\n        /* \"#utility.yul\":7385:7565   */\n    tag_65:\n        /* \"#utility.yul\":7433:7510   */\n      0x4e487b7100000000000000000000000000000000000000000000000000000000\n        /* \"#utility.yul\":7430:7431   */\n      0x00\n        /* \"#utility.yul\":7423:7511   */\n      mstore\n        /* \"#utility.yul\":7530:7534   */\n      0x21\n        /* \"#utility.yul\":7527:7528   */\n      0x04\n        /* \"#utility.yul\":7520:7535   */\n      mstore\n        /* \"#utility.yul\":7554:7558   */\n      0x24\n        /* \"#utility.yul\":7551:7552   */\n      0x00\n        /* \"#utility.yul\":7544:7559   */\n      revert\n        /* \"#utility.yul\":7571:7685   */\n    tag_226:\n        /* \"#utility.yul\":7653:7654   */\n      0x04\n        /* \"#utility.yul\":7646:7651   */\n      dup2\n        /* \"#utility.yul\":7643:7655   */\n      lt\n        /* \"#utility.yul\":7633:7679   */\n      tag_346\n      jumpi\n        /* \"#utility.yul\":7659:7677   */\n      tag_347\n      tag_65\n      jump\t// in\n    tag_347:\n        /* \"#utility.yul\":7633:7679   */\n    tag_346:\n        /* \"#utility.yul\":7571:7685   */\n      pop\n      jump\t// out\n        /* \"#utility.yul\":7691:7820   */\n    tag_227:\n        /* \"#utility.yul\":7737:7744   */\n      0x00\n        /* \"#utility.yul\":7766:7771   */\n      dup2\n        /* \"#utility.yul\":7755:7771   */\n      swap1\n      pop\n        /* \"#utility.yul\":7772:7814   */\n      tag_349\n        /* \"#utility.yul\":7808:7813   */\n      dup3\n        /* \"#utility.yul\":7772:7814   */\n      tag_226\n      jump\t// in\n    tag_349:\n        /* \"#utility.yul\":7691:7820   */\n      swap2\n      swap1\n      pop\n      jump\t// out\n        /* \"#utility.yul\":7826:7955   */\n    tag_228:\n        /* \"#utility.yul\":7883:7892   */\n      0x00\n        /* \"#utility.yul\":7916:7949   */\n      tag_351\n        /* \"#utility.yul\":7943:7948   */\n      dup3\n        /* \"#utility.yul\":7916:7949   */\n      tag_227\n      jump\t// in\n    tag_351:\n        /* \"#utility.yul\":7903:7949   */\n      swap1\n      pop\n        /* \"#utility.yul\":7826:7955   */\n      swap2\n      swap1\n      pop\n      jump\t// out\n        /* \"#utility.yul\":7961:8096   */\n    tag_229:\n        /* \"#utility.yul\":8045:8089   */\n      tag_353\n        /* \"#utility.yul\":8083:8088   */\n      dup2\n        /* \"#utility.yul\":8045:8089   */\n      tag_228\n      jump\t// in\n    tag_353:\n        /* \"#utility.yul\":8040:8043   */\n      dup3\n        /* \"#utility.yul\":8033:8090   */\n      mstore\n        /* \"#utility.yul\":7961:8096   */\n      pop\n      pop\n      jump\t// out\n        /* \"#utility.yul\":8186:9915   */\n    tag_230:\n        /* \"#utility.yul\":8311:8314   */\n      0x00\n        /* \"#utility.yul\":8347:8351   */\n      0xe0\n        /* \"#utility.yul\":8342:8345   */\n      dup4\n        /* \"#utility.yul\":8338:8352   */\n      add\n        /* \"#utility.yul\":8445:8449   */\n      0x00\n        /* \"#utility.yul\":8438:8443   */\n      dup4\n        /* \"#utility.yul\":8434:8450   */\n      add\n        /* \"#utility.yul\":8428:8451   */\n      mload\n        /* \"#utility.yul\":8464:8527   */\n      tag_355\n        /* \"#utility.yul\":8521:8525   */\n      0x00\n        /* \"#utility.yul\":8516:8519   */\n      dup7\n        /* \"#utility.yul\":8512:8526   */\n      add\n        /* \"#utility.yul\":8498:8510   */\n      dup3\n        /* \"#utility.yul\":8464:8527   */\n      tag_200\n      jump\t// in\n    tag_355:\n        /* \"#utility.yul\":8362:8537   */\n      pop\n        /* \"#utility.yul\":8619:8623   */\n      0x20\n        /* \"#utility.yul\":8612:8617   */\n      dup4\n        /* \"#utility.yul\":8608:8624   */\n      add\n        /* \"#utility.yul\":8602:8625   */\n      mload\n        /* \"#utility.yul\":8672:8675   */\n      dup5\n        /* \"#utility.yul\":8666:8670   */\n      dup3\n        /* \"#utility.yul\":8662:8676   */\n      sub\n        /* \"#utility.yul\":8655:8659   */\n      0x20\n        /* \"#utility.yul\":8650:8653   */\n      dup7\n        /* \"#utility.yul\":8646:8660   */\n      add\n        /* \"#utility.yul\":8639:8677   */\n      mstore\n        /* \"#utility.yul\":8698:8771   */\n      tag_356\n        /* \"#utility.yul\":8766:8770   */\n      dup3\n        /* \"#utility.yul\":8752:8764   */\n      dup3\n        /* \"#utility.yul\":8698:8771   */\n      tag_217\n      jump\t// in\n    tag_356:\n        /* \"#utility.yul\":8690:8771   */\n      swap2\n      pop\n        /* \"#utility.yul\":8547:8782   */\n      pop\n        /* \"#utility.yul\":8871:8875   */\n      0x40\n        /* \"#utility.yul\":8864:8869   */\n      dup4\n        /* \"#utility.yul\":8860:8876   */\n      add\n        /* \"#utility.yul\":8854:8877   */\n      mload\n        /* \"#utility.yul\":8924:8927   */\n      dup5\n        /* \"#utility.yul\":8918:8922   */\n      dup3\n        /* \"#utility.yul\":8914:8928   */\n      sub\n        /* \"#utility.yul\":8907:8911   */\n      0x40\n        /* \"#utility.yul\":8902:8905   */\n      dup7\n        /* \"#utility.yul\":8898:8912   */\n      add\n        /* \"#utility.yul\":8891:8929   */\n      mstore\n        /* \"#utility.yul\":8950:9023   */\n      tag_357\n        /* \"#utility.yul\":9018:9022   */\n      dup3\n        /* \"#utility.yul\":9004:9016   */\n      dup3\n        /* \"#utility.yul\":8950:9023   */\n      tag_217\n      jump\t// in\n    tag_357:\n        /* \"#utility.yul\":8942:9023   */\n      swap2\n      pop\n        /* \"#utility.yul\":8792:9034   */\n      pop\n        /* \"#utility.yul\":9117:9121   */\n      0x60\n        /* \"#utility.yul\":9110:9115   */\n      dup4\n        /* \"#utility.yul\":9106:9122   */\n      add\n        /* \"#utility.yul\":9100:9123   */\n      mload\n        /* \"#utility.yul\":9136:9199   */\n      tag_358\n        /* \"#utility.yul\":9193:9197   */\n      0x60\n        /* \"#utility.yul\":9188:9191   */\n      dup7\n        /* \"#utility.yul\":9184:9198   */\n      add\n        /* \"#utility.yul\":9170:9182   */\n      dup3\n        /* \"#utility.yul\":9136:9199   */\n      tag_200\n      jump\t// in\n    tag_358:\n        /* \"#utility.yul\":9044:9209   */\n      pop\n        /* \"#utility.yul\":9302:9306   */\n      0x80\n        /* \"#utility.yul\":9295:9300   */\n      dup4\n        /* \"#utility.yul\":9291:9307   */\n      add\n        /* \"#utility.yul\":9285:9308   */\n      mload\n        /* \"#utility.yul\":9321:9384   */\n      tag_359\n        /* \"#utility.yul\":9378:9382   */\n      0x80\n        /* \"#utility.yul\":9373:9376   */\n      dup7\n        /* \"#utility.yul\":9369:9383   */\n      add\n        /* \"#utility.yul\":9355:9367   */\n      dup3\n        /* \"#utility.yul\":9321:9384   */\n      tag_219\n      jump\t// in\n    tag_359:\n        /* \"#utility.yul\":9219:9394   */\n      pop\n        /* \"#utility.yul\":9492:9496   */\n      0xa0\n        /* \"#utility.yul\":9485:9490   */\n      dup4\n        /* \"#utility.yul\":9481:9497   */\n      add\n        /* \"#utility.yul\":9475:9498   */\n      mload\n        /* \"#utility.yul\":9545:9548   */\n      dup5\n        /* \"#utility.yul\":9539:9543   */\n      dup3\n        /* \"#utility.yul\":9535:9549   */\n      sub\n        /* \"#utility.yul\":9528:9532   */\n      0xa0\n        /* \"#utility.yul\":9523:9526   */\n      dup7\n        /* \"#utility.yul\":9519:9533   */\n      add\n        /* \"#utility.yul\":9512:9550   */\n      mstore\n        /* \"#utility.yul\":9571:9694   */\n      tag_360\n        /* \"#utility.yul\":9689:9693   */\n      dup3\n        /* \"#utility.yul\":9675:9687   */\n      dup3\n        /* \"#utility.yul\":9571:9694   */\n      tag_225\n      jump\t// in\n    tag_360:\n        /* \"#utility.yul\":9563:9694   */\n      swap2\n      pop\n        /* \"#utility.yul\":9404:9705   */\n      pop\n        /* \"#utility.yul\":9789:9793   */\n      0xc0\n        /* \"#utility.yul\":9782:9787   */\n      dup4\n        /* \"#utility.yul\":9778:9794   */\n      add\n        /* \"#utility.yul\":9772:9795   */\n      mload\n        /* \"#utility.yul\":9808:9878   */\n      tag_361\n        /* \"#utility.yul\":9872:9876   */\n      0xc0\n        /* \"#utility.yul\":9867:9870   */\n      dup7\n        /* \"#utility.yul\":9863:9877   */\n      add\n        /* \"#utility.yul\":9849:9861   */\n      dup3\n        /* \"#utility.yul\":9808:9878   */\n      tag_229\n      jump\t// in\n    tag_361:\n        /* \"#utility.yul\":9715:9888   */\n      pop\n        /* \"#utility.yul\":9905:9909   */\n      dup1\n        /* \"#utility.yul\":9898:9909   */\n      swap2\n      pop\n        /* \"#utility.yul\":8316:9915   */\n      pop\n        /* \"#utility.yul\":8186:9915   */\n      swap3\n      swap2\n      pop\n      pop\n      jump\t// out\n        /* \"#utility.yul\":9921:10306   */\n    tag_39:\n        /* \"#utility.yul\":10070:10074   */\n      0x00\n        /* \"#utility.yul\":10108:10110   */\n      0x20\n        /* \"#utility.yul\":10097:10106   */\n      dup3\n        /* \"#utility.yul\":10093:10111   */\n      add\n        /* \"#utility.yul\":10085:10111   */\n      swap1\n      pop\n        /* \"#utility.yul\":10157:10166   */\n      dup2\n        /* \"#utility.yul\":10151:10155   */\n      dup2\n        /* \"#utility.yul\":10147:10167   */\n      sub\n        /* \"#utility.yul\":10143:10144   */\n      0x00\n        /* \"#utility.yul\":10132:10141   */\n      dup4\n        /* \"#utility.yul\":10128:10145   */\n      add\n        /* \"#utility.yul\":10121:10168   */\n      mstore\n        /* \"#utility.yul\":10185:10299   */\n      tag_363\n        /* \"#utility.yul\":10294:10298   */\n      dup2\n        /* \"#utility.yul\":10285:10291   */\n      dup5\n        /* \"#utility.yul\":10185:10299   */\n      tag_230\n      jump\t// in\n    tag_363:\n        /* \"#utility.yul\":10177:10299   */\n      swap1\n      pop\n        /* \"#utility.yul\":9921:10306   */\n      swap3\n      swap2\n      pop\n      pop\n      jump\t// out\n        /* \"#utility.yul\":10312:10429   */\n    tag_231:\n        /* \"#utility.yul\":10421:10422   */\n      0x00\n        /* \"#utility.yul\":10418:10419   */\n      dup1\n        /* \"#utility.yul\":10411:10423   */\n      revert\n        /* \"#utility.yul\":10435:10552   */\n    tag_232:\n        /* \"#utility.yul\":10544:10545   */\n      0x00\n        /* \"#utility.yul\":10541:10542   */\n      dup1\n        /* \"#utility.yul\":10534:10546   */\n      revert\n        /* \"#utility.yul\":10558:10738   */\n    tag_233:\n        /* \"#utility.yul\":10606:10683   */\n      0x4e487b7100000000000000000000000000000000000000000000000000000000\n        /* \"#utility.yul\":10603:10604   */\n      0x00\n        /* \"#utility.yul\":10596:10684   */\n      mstore\n        /* \"#utility.yul\":10703:10707   */\n      0x41\n        /* \"#utility.yul\":10700:10701   */\n      0x04\n        /* \"#utility.yul\":10693:10708   */\n      mstore\n        /* \"#utility.yul\":10727:10731   */\n      0x24\n        /* \"#utility.yul\":10724:10725   */\n      0x00\n        /* \"#utility.yul\":10717:10732   */\n      revert\n        /* \"#utility.yul\":10744:11025   */\n    tag_234:\n        /* \"#utility.yul\":10827:10854   */\n      tag_368\n        /* \"#utility.yul\":10849:10853   */\n      dup3\n        /* \"#utility.yul\":10827:10854   */\n      tag_216\n      jump\t// in\n    tag_368:\n        /* \"#utility.yul\":10819:10825   */\n      dup2\n        /* \"#utility.yul\":10815:10855   */\n      add\n        /* \"#utility.yul\":10957:10963   */\n      dup2\n        /* \"#utility.yul\":10945:10955   */\n      dup2\n        /* \"#utility.yul\":10942:10964   */\n      lt\n        /* \"#utility.yul\":10921:10939   */\n      0xffffffffffffffff\n        /* \"#utility.yul\":10909:10919   */\n      dup3\n        /* \"#utility.yul\":10906:10940   */\n      gt\n        /* \"#utility.yul\":10903:10965   */\n      or\n        /* \"#utility.yul\":10900:10988   */\n      iszero\n      tag_369\n      jumpi\n        /* \"#utility.yul\":10968:10986   */\n      tag_370\n      tag_233\n      jump\t// in\n    tag_370:\n        /* \"#utility.yul\":10900:10988   */\n    tag_369:\n        /* \"#utility.yul\":11008:11018   */\n      dup1\n        /* \"#utility.yul\":11004:11006   */\n      0x40\n        /* \"#utility.yul\":10997:11019   */\n      mstore\n        /* \"#utility.yul\":10787:11025   */\n      pop\n        /* \"#utility.yul\":10744:11025   */\n      pop\n      pop\n      jump\t// out\n        /* \"#utility.yul\":11031:11160   */\n    tag_235:\n        /* \"#utility.yul\":11065:11071   */\n      0x00\n        /* \"#utility.yul\":11092:11112   */\n      tag_372\n      tag_204\n      jump\t// in\n    tag_372:\n        /* \"#utility.yul\":11082:11112   */\n      swap1\n      pop\n        /* \"#utility.yul\":11121:11154   */\n      tag_373\n        /* \"#utility.yul\":11149:11153   */\n      dup3\n        /* \"#utility.yul\":11141:11147   */\n      dup3\n        /* \"#utility.yul\":11121:11154   */\n      tag_234\n      jump\t// in\n    tag_373:\n        /* \"#utility.yul\":11031:11160   */\n      swap2\n      swap1\n      pop\n      jump\t// out\n        /* \"#utility.yul\":11166:11474   */\n    tag_236:\n        /* \"#utility.yul\":11228:11232   */\n      0x00\n        /* \"#utility.yul\":11318:11336   */\n      0xffffffffffffffff\n        /* \"#utility.yul\":11310:11316   */\n      dup3\n        /* \"#utility.yul\":11307:11337   */\n      gt\n        /* \"#utility.yul\":11304:11360   */\n      iszero\n      tag_375\n      jumpi\n        /* \"#utility.yul\":11340:11358   */\n      tag_376\n      tag_233\n      jump\t// in\n    tag_376:\n        /* \"#utility.yul\":11304:11360   */\n    tag_375:\n        /* \"#utility.yul\":11378:11407   */\n      tag_377\n        /* \"#utility.yul\":11400:11406   */\n      dup3\n        /* \"#utility.yul\":11378:11407   */\n      tag_216\n      jump\t// in\n    tag_377:\n        /* \"#utility.yul\":11370:11407   */\n      swap1\n      pop\n        /* \"#utility.yul\":11462:11466   */\n      0x20\n        /* \"#utility.yul\":11456:11460   */\n      dup2\n        /* \"#utility.yul\":11452:11467   */\n      add\n        /* \"#utility.yul\":11444:11467   */\n      swap1\n      pop\n        /* \"#utility.yul\":11166:11474   */\n      swap2\n      swap1\n      pop\n      jump\t// out\n        /* \"#utility.yul\":11480:11626   */\n    tag_237:\n        /* \"#utility.yul\":11577:11583   */\n      dup3\n        /* \"#utility.yul\":11572:11575   */\n      dup2\n        /* \"#utility.yul\":11567:11570   */\n      dup4\n        /* \"#utility.yul\":11554:11584   */\n      calldatacopy\n        /* \"#utility.yul\":11618:11619   */\n      0x00\n        /* \"#utility.yul\":11609:11615   */\n      dup4\n        /* \"#utility.yul\":11604:11607   */\n      dup4\n        /* \"#utility.yul\":11600:11616   */\n      add\n        /* \"#utility.yul\":11593:11620   */\n      mstore\n        /* \"#utility.yul\":11480:11626   */\n      pop\n      pop\n      pop\n      jump\t// out\n        /* \"#utility.yul\":11632:12057   */\n    tag_238:\n        /* \"#utility.yul\":11710:11715   */\n      0x00\n        /* \"#utility.yul\":11735:11801   */\n      tag_380\n        /* \"#utility.yul\":11751:11800   */\n      tag_381\n        /* \"#utility.yul\":11793:11799   */\n      dup5\n        /* \"#utility.yul\":11751:11800   */\n      tag_236\n      jump\t// in\n    tag_381:\n        /* \"#utility.yul\":11735:11801   */\n      tag_235\n      jump\t// in\n    tag_380:\n        /* \"#utility.yul\":11726:11801   */\n      swap1\n      pop\n        /* \"#utility.yul\":11824:11830   */\n      dup3\n        /* \"#utility.yul\":11817:11822   */\n      dup2\n        /* \"#utility.yul\":11810:11831   */\n      mstore\n        /* \"#utility.yul\":11862:11866   */\n      0x20\n        /* \"#utility.yul\":11855:11860   */\n      dup2\n        /* \"#utility.yul\":11851:11867   */\n      add\n        /* \"#utility.yul\":11900:11903   */\n      dup5\n        /* \"#utility.yul\":11891:11897   */\n      dup5\n        /* \"#utility.yul\":11886:11889   */\n      dup5\n        /* \"#utility.yul\":11882:11898   */\n      add\n        /* \"#utility.yul\":11879:11904   */\n      gt\n        /* \"#utility.yul\":11876:11988   */\n      iszero\n      tag_382\n      jumpi\n        /* \"#utility.yul\":11907:11986   */\n      tag_383\n      tag_232\n      jump\t// in\n    tag_383:\n        /* \"#utility.yul\":11876:11988   */\n    tag_382:\n        /* \"#utility.yul\":11997:12051   */\n      tag_384\n        /* \"#utility.yul\":12044:12050   */\n      dup5\n        /* \"#utility.yul\":12039:12042   */\n      dup3\n        /* \"#utility.yul\":12034:12037   */\n      dup6\n        /* \"#utility.yul\":11997:12051   */\n      tag_237\n      jump\t// in\n    tag_384:\n        /* \"#utility.yul\":11716:12057   */\n      pop\n        /* \"#utility.yul\":11632:12057   */\n      swap4\n      swap3\n      pop\n      pop\n      pop\n      jump\t// out\n        /* \"#utility.yul\":12077:12417   */\n    tag_239:\n        /* \"#utility.yul\":12133:12138   */\n      0x00\n        /* \"#utility.yul\":12182:12185   */\n      dup3\n        /* \"#utility.yul\":12175:12179   */\n      0x1f\n        /* \"#utility.yul\":12167:12173   */\n      dup4\n        /* \"#utility.yul\":12163:12180   */\n      add\n        /* \"#utility.yul\":12159:12186   */\n      slt\n        /* \"#utility.yul\":12149:12271   */\n      tag_386\n      jumpi\n        /* \"#utility.yul\":12190:12269   */\n      tag_387\n      tag_231\n      jump\t// in\n    tag_387:\n        /* \"#utility.yul\":12149:12271   */\n    tag_386:\n        /* \"#utility.yul\":12307:12313   */\n      dup2\n        /* \"#utility.yul\":12294:12314   */\n      calldataload\n        /* \"#utility.yul\":12332:12411   */\n      tag_388\n        /* \"#utility.yul\":12407:12410   */\n      dup5\n        /* \"#utility.yul\":12399:12405   */\n      dup3\n        /* \"#utility.yul\":12392:12396   */\n      0x20\n        /* \"#utility.yul\":12384:12390   */\n      dup7\n        /* \"#utility.yul\":12380:12397   */\n      add\n        /* \"#utility.yul\":12332:12411   */\n      tag_238\n      jump\t// in\n    tag_388:\n        /* \"#utility.yul\":12323:12411   */\n      swap2\n      pop\n        /* \"#utility.yul\":12139:12417   */\n      pop\n        /* \"#utility.yul\":12077:12417   */\n      swap3\n      swap2\n      pop\n      pop\n      jump\t// out\n        /* \"#utility.yul\":12423:12744   */\n    tag_240:\n        /* \"#utility.yul\":12510:12514   */\n      0x00\n        /* \"#utility.yul\":12600:12618   */\n      0xffffffffffffffff\n        /* \"#utility.yul\":12592:12598   */\n      dup3\n        /* \"#utility.yul\":12589:12619   */\n      gt\n        /* \"#utility.yul\":12586:12642   */\n      iszero\n      tag_390\n      jumpi\n        /* \"#utility.yul\":12622:12640   */\n      tag_391\n      tag_233\n      jump\t// in\n    tag_391:\n        /* \"#utility.yul\":12586:12642   */\n    tag_390:\n        /* \"#utility.yul\":12672:12676   */\n      0x20\n        /* \"#utility.yul\":12664:12670   */\n      dup3\n        /* \"#utility.yul\":12660:12677   */\n      mul\n        /* \"#utility.yul\":12652:12677   */\n      swap1\n      pop\n        /* \"#utility.yul\":12732:12736   */\n      0x20\n        /* \"#utility.yul\":12726:12730   */\n      dup2\n        /* \"#utility.yul\":12722:12737   */\n      add\n        /* \"#utility.yul\":12714:12737   */\n      swap1\n      pop\n        /* \"#utility.yul\":12423:12744   */\n      swap2\n      swap1\n      pop\n      jump\t// out\n        /* \"#utility.yul\":12750:12867   */\n    tag_241:\n        /* \"#utility.yul\":12859:12860   */\n      0x00\n        /* \"#utility.yul\":12856:12857   */\n      dup1\n        /* \"#utility.yul\":12849:12861   */\n      revert\n        /* \"#utility.yul\":12889:13834   */\n    tag_242:\n        /* \"#utility.yul\":12995:13000   */\n      0x00\n        /* \"#utility.yul\":13020:13111   */\n      tag_394\n        /* \"#utility.yul\":13036:13110   */\n      tag_395\n        /* \"#utility.yul\":13103:13109   */\n      dup5\n        /* \"#utility.yul\":13036:13110   */\n      tag_240\n      jump\t// in\n    tag_395:\n        /* \"#utility.yul\":13020:13111   */\n      tag_235\n      jump\t// in\n    tag_394:\n        /* \"#utility.yul\":13011:13111   */\n      swap1\n      pop\n        /* \"#utility.yul\":13131:13136   */\n      dup1\n        /* \"#utility.yul\":13160:13166   */\n      dup4\n        /* \"#utility.yul\":13153:13158   */\n      dup3\n        /* \"#utility.yul\":13146:13167   */\n      mstore\n        /* \"#utility.yul\":13194:13198   */\n      0x20\n        /* \"#utility.yul\":13187:13192   */\n      dup3\n        /* \"#utility.yul\":13183:13199   */\n      add\n        /* \"#utility.yul\":13176:13199   */\n      swap1\n      pop\n        /* \"#utility.yul\":13247:13251   */\n      0x20\n        /* \"#utility.yul\":13239:13245   */\n      dup5\n        /* \"#utility.yul\":13235:13252   */\n      mul\n        /* \"#utility.yul\":13227:13233   */\n      dup4\n        /* \"#utility.yul\":13223:13253   */\n      add\n        /* \"#utility.yul\":13276:13279   */\n      dup6\n        /* \"#utility.yul\":13268:13274   */\n      dup2\n        /* \"#utility.yul\":13265:13280   */\n      gt\n        /* \"#utility.yul\":13262:13384   */\n      iszero\n      tag_396\n      jumpi\n        /* \"#utility.yul\":13295:13374   */\n      tag_397\n      tag_241\n      jump\t// in\n    tag_397:\n        /* \"#utility.yul\":13262:13384   */\n    tag_396:\n        /* \"#utility.yul\":13410:13416   */\n      dup4\n        /* \"#utility.yul\":13393:13828   */\n    tag_398:\n        /* \"#utility.yul\":13427:13433   */\n      dup2\n        /* \"#utility.yul\":13422:13425   */\n      dup2\n        /* \"#utility.yul\":13419:13434   */\n      lt\n        /* \"#utility.yul\":13393:13828   */\n      iszero\n      tag_400\n      jumpi\n        /* \"#utility.yul\":13516:13519   */\n      dup1\n        /* \"#utility.yul\":13503:13520   */\n      calldataload\n        /* \"#utility.yul\":13552:13570   */\n      0xffffffffffffffff\n        /* \"#utility.yul\":13539:13550   */\n      dup2\n        /* \"#utility.yul\":13536:13571   */\n      gt\n        /* \"#utility.yul\":13533:13655   */\n      iszero\n      tag_401\n      jumpi\n        /* \"#utility.yul\":13574:13653   */\n      tag_402\n      tag_231\n      jump\t// in\n    tag_402:\n        /* \"#utility.yul\":13533:13655   */\n    tag_401:\n        /* \"#utility.yul\":13698:13709   */\n      dup1\n        /* \"#utility.yul\":13690:13696   */\n      dup7\n        /* \"#utility.yul\":13686:13710   */\n      add\n        /* \"#utility.yul\":13736:13783   */\n      tag_403\n        /* \"#utility.yul\":13779:13782   */\n      dup10\n        /* \"#utility.yul\":13767:13777   */\n      dup3\n        /* \"#utility.yul\":13736:13783   */\n      tag_239\n      jump\t// in\n    tag_403:\n        /* \"#utility.yul\":13731:13734   */\n      dup6\n        /* \"#utility.yul\":13724:13784   */\n      mstore\n        /* \"#utility.yul\":13813:13817   */\n      0x20\n        /* \"#utility.yul\":13808:13811   */\n      dup6\n        /* \"#utility.yul\":13804:13818   */\n      add\n        /* \"#utility.yul\":13797:13818   */\n      swap5\n      pop\n        /* \"#utility.yul\":13469:13828   */\n      pop\n      pop\n        /* \"#utility.yul\":13453:13457   */\n      0x20\n        /* \"#utility.yul\":13448:13451   */\n      dup2\n        /* \"#utility.yul\":13444:13458   */\n      add\n        /* \"#utility.yul\":13437:13458   */\n      swap1\n      pop\n        /* \"#utility.yul\":13393:13828   */\n      jump(tag_398)\n    tag_400:\n        /* \"#utility.yul\":13397:13418   */\n      pop\n        /* \"#utility.yul\":13001:13834   */\n      pop\n      pop\n        /* \"#utility.yul\":12889:13834   */\n      swap4\n      swap3\n      pop\n      pop\n      pop\n      jump\t// out\n        /* \"#utility.yul\":13856:14246   */\n    tag_243:\n        /* \"#utility.yul\":13937:13942   */\n      0x00\n        /* \"#utility.yul\":13986:13989   */\n      dup3\n        /* \"#utility.yul\":13979:13983   */\n      0x1f\n        /* \"#utility.yul\":13971:13977   */\n      dup4\n        /* \"#utility.yul\":13967:13984   */\n      add\n        /* \"#utility.yul\":13963:13990   */\n      slt\n        /* \"#utility.yul\":13953:14075   */\n      tag_405\n      jumpi\n        /* \"#utility.yul\":13994:14073   */\n      tag_406\n      tag_231\n      jump\t// in\n    tag_406:\n        /* \"#utility.yul\":13953:14075   */\n    tag_405:\n        /* \"#utility.yul\":14111:14117   */\n      dup2\n        /* \"#utility.yul\":14098:14118   */\n      calldataload\n        /* \"#utility.yul\":14136:14240   */\n      tag_407\n        /* \"#utility.yul\":14236:14239   */\n      dup5\n        /* \"#utility.yul\":14228:14234   */\n      dup3\n        /* \"#utility.yul\":14221:14225   */\n      0x20\n        /* \"#utility.yul\":14213:14219   */\n      dup7\n        /* \"#utility.yul\":14209:14226   */\n      add\n        /* \"#utility.yul\":14136:14240   */\n      tag_242\n      jump\t// in\n    tag_407:\n        /* \"#utility.yul\":14127:14240   */\n      swap2\n      pop\n        /* \"#utility.yul\":13943:14246   */\n      pop\n        /* \"#utility.yul\":13856:14246   */\n      swap3\n      swap2\n      pop\n      pop\n      jump\t// out\n        /* \"#utility.yul\":14252:15607   */\n    tag_46:\n        /* \"#utility.yul\":14393:14399   */\n      0x00\n        /* \"#utility.yul\":14401:14407   */\n      dup1\n        /* \"#utility.yul\":14409:14415   */\n      0x00\n        /* \"#utility.yul\":14417:14423   */\n      dup1\n        /* \"#utility.yul\":14466:14469   */\n      0x80\n        /* \"#utility.yul\":14454:14463   */\n      dup6\n        /* \"#utility.yul\":14445:14452   */\n      dup8\n        /* \"#utility.yul\":14441:14464   */\n      sub\n        /* \"#utility.yul\":14437:14470   */\n      slt\n        /* \"#utility.yul\":14434:14554   */\n      iszero\n      tag_409\n      jumpi\n        /* \"#utility.yul\":14473:14552   */\n      tag_410\n      tag_205\n      jump\t// in\n    tag_410:\n        /* \"#utility.yul\":14434:14554   */\n    tag_409:\n        /* \"#utility.yul\":14593:14594   */\n      0x00\n        /* \"#utility.yul\":14618:14671   */\n      tag_411\n        /* \"#utility.yul\":14663:14670   */\n      dup8\n        /* \"#utility.yul\":14654:14660   */\n      dup3\n        /* \"#utility.yul\":14643:14652   */\n      dup9\n        /* \"#utility.yul\":14639:14661   */\n      add\n        /* \"#utility.yul\":14618:14671   */\n      tag_208\n      jump\t// in\n    tag_411:\n        /* \"#utility.yul\":14608:14671   */\n      swap5\n      pop\n        /* \"#utility.yul\":14564:14681   */\n      pop\n        /* \"#utility.yul\":14748:14750   */\n      0x20\n        /* \"#utility.yul\":14737:14746   */\n      dup6\n        /* \"#utility.yul\":14733:14751   */\n      add\n        /* \"#utility.yul\":14720:14752   */\n      calldataload\n        /* \"#utility.yul\":14779:14797   */\n      0xffffffffffffffff\n        /* \"#utility.yul\":14771:14777   */\n      dup2\n        /* \"#utility.yul\":14768:14798   */\n      gt\n        /* \"#utility.yul\":14765:14882   */\n      iszero\n      tag_412\n      jumpi\n        /* \"#utility.yul\":14801:14880   */\n      tag_413\n      tag_206\n      jump\t// in\n    tag_413:\n        /* \"#utility.yul\":14765:14882   */\n    tag_412:\n        /* \"#utility.yul\":14906:14969   */\n      tag_414\n        /* \"#utility.yul\":14961:14968   */\n      dup8\n        /* \"#utility.yul\":14952:14958   */\n      dup3\n        /* \"#utility.yul\":14941:14950   */\n      dup9\n        /* \"#utility.yul\":14937:14959   */\n      add\n        /* \"#utility.yul\":14906:14969   */\n      tag_239\n      jump\t// in\n    tag_414:\n        /* \"#utility.yul\":14896:14969   */\n      swap4\n      pop\n        /* \"#utility.yul\":14691:14979   */\n      pop\n        /* \"#utility.yul\":15046:15048   */\n      0x40\n        /* \"#utility.yul\":15035:15044   */\n      dup6\n        /* \"#utility.yul\":15031:15049   */\n      add\n        /* \"#utility.yul\":15018:15050   */\n      calldataload\n        /* \"#utility.yul\":15077:15095   */\n      0xffffffffffffffff\n        /* \"#utility.yul\":15069:15075   */\n      dup2\n        /* \"#utility.yul\":15066:15096   */\n      gt\n        /* \"#utility.yul\":15063:15180   */\n      iszero\n      tag_415\n      jumpi\n        /* \"#utility.yul\":15099:15178   */\n      tag_416\n      tag_206\n      jump\t// in\n    tag_416:\n        /* \"#utility.yul\":15063:15180   */\n    tag_415:\n        /* \"#utility.yul\":15204:15267   */\n      tag_417\n        /* \"#utility.yul\":15259:15266   */\n      dup8\n        /* \"#utility.yul\":15250:15256   */\n      dup3\n        /* \"#utility.yul\":15239:15248   */\n      dup9\n        /* \"#utility.yul\":15235:15257   */\n      add\n        /* \"#utility.yul\":15204:15267   */\n      tag_239\n      jump\t// in\n    tag_417:\n        /* \"#utility.yul\":15194:15267   */\n      swap3\n      pop\n        /* \"#utility.yul\":14989:15277   */\n      pop\n        /* \"#utility.yul\":15344:15346   */\n      0x60\n        /* \"#utility.yul\":15333:15342   */\n      dup6\n        /* \"#utility.yul\":15329:15347   */\n      add\n        /* \"#utility.yul\":15316:15348   */\n      calldataload\n        /* \"#utility.yul\":15375:15393   */\n      0xffffffffffffffff\n        /* \"#utility.yul\":15367:15373   */\n      dup2\n        /* \"#utility.yul\":15364:15394   */\n      gt\n        /* \"#utility.yul\":15361:15478   */\n      iszero\n      tag_418\n      jumpi\n        /* \"#utility.yul\":15397:15476   */\n      tag_419\n      tag_206\n      jump\t// in\n    tag_419:\n        /* \"#utility.yul\":15361:15478   */\n    tag_418:\n        /* \"#utility.yul\":15502:15590   */\n      tag_420\n        /* \"#utility.yul\":15582:15589   */\n      dup8\n        /* \"#utility.yul\":15573:15579   */\n      dup3\n        /* \"#utility.yul\":15562:15571   */\n      dup9\n        /* \"#utility.yul\":15558:15580   */\n      add\n        /* \"#utility.yul\":15502:15590   */\n      tag_243\n      jump\t// in\n    tag_420:\n        /* \"#utility.yul\":15492:15590   */\n      swap2\n      pop\n        /* \"#utility.yul\":15287:15600   */\n      pop\n        /* \"#utility.yul\":14252:15607   */\n      swap3\n      swap6\n      swap2\n      swap5\n      pop\n      swap3\n      pop\n      jump\t// out\n        /* \"#utility.yul\":15613:16087   */\n    tag_50:\n        /* \"#utility.yul\":15681:15687   */\n      0x00\n        /* \"#utility.yul\":15689:15695   */\n      dup1\n        /* \"#utility.yul\":15738:15740   */\n      0x40\n        /* \"#utility.yul\":15726:15735   */\n      dup4\n        /* \"#utility.yul\":15717:15724   */\n      dup6\n        /* \"#utility.yul\":15713:15736   */\n      sub\n        /* \"#utility.yul\":15709:15741   */\n      slt\n        /* \"#utility.yul\":15706:15825   */\n      iszero\n      tag_422\n      jumpi\n        /* \"#utility.yul\":15744:15823   */\n      tag_423\n      tag_205\n      jump\t// in\n    tag_423:\n        /* \"#utility.yul\":15706:15825   */\n    tag_422:\n        /* \"#utility.yul\":15864:15865   */\n      0x00\n        /* \"#utility.yul\":15889:15942   */\n      tag_424\n        /* \"#utility.yul\":15934:15941   */\n      dup6\n        /* \"#utility.yul\":15925:15931   */\n      dup3\n        /* \"#utility.yul\":15914:15923   */\n      dup7\n        /* \"#utility.yul\":15910:15932   */\n      add\n        /* \"#utility.yul\":15889:15942   */\n      tag_208\n      jump\t// in\n    tag_424:\n        /* \"#utility.yul\":15879:15942   */\n      swap3\n      pop\n        /* \"#utility.yul\":15835:15952   */\n      pop\n        /* \"#utility.yul\":15991:15993   */\n      0x20\n        /* \"#utility.yul\":16017:16070   */\n      tag_425\n        /* \"#utility.yul\":16062:16069   */\n      dup6\n        /* \"#utility.yul\":16053:16059   */\n      dup3\n        /* \"#utility.yul\":16042:16051   */\n      dup7\n        /* \"#utility.yul\":16038:16060   */\n      add\n        /* \"#utility.yul\":16017:16070   */\n      tag_208\n      jump\t// in\n    tag_425:\n        /* \"#utility.yul\":16007:16070   */\n      swap2\n      pop\n        /* \"#utility.yul\":15962:16080   */\n      pop\n        /* \"#utility.yul\":15613:16087   */\n      swap3\n      pop\n      swap3\n      swap1\n      pop\n      jump\t// out\n        /* \"#utility.yul\":16093:16262   */\n    tag_244:\n        /* \"#utility.yul\":16177:16188   */\n      0x00\n        /* \"#utility.yul\":16211:16217   */\n      dup3\n        /* \"#utility.yul\":16206:16209   */\n      dup3\n        /* \"#utility.yul\":16199:16218   */\n      mstore\n        /* \"#utility.yul\":16251:16255   */\n      0x20\n        /* \"#utility.yul\":16246:16249   */\n      dup3\n        /* \"#utility.yul\":16242:16256   */\n      add\n        /* \"#utility.yul\":16227:16256   */\n      swap1\n      pop\n        /* \"#utility.yul\":16093:16262   */\n      swap3\n      swap2\n      pop\n      pop\n      jump\t// out\n        /* \"#utility.yul\":16268:16441   */\n    tag_245:\n        /* \"#utility.yul\":16408:16433   */\n      0x436f6e7472616374206e6f742072656769737465726564000000000000000000\n        /* \"#utility.yul\":16404:16405   */\n      0x00\n        /* \"#utility.yul\":16396:16402   */\n      dup3\n        /* \"#utility.yul\":16392:16406   */\n      add\n        /* \"#utility.yul\":16385:16434   */\n      mstore\n        /* \"#utility.yul\":16268:16441   */\n      pop\n      jump\t// out\n        /* \"#utility.yul\":16447:16813   */\n    tag_246:\n        /* \"#utility.yul\":16589:16592   */\n      0x00\n        /* \"#utility.yul\":16610:16677   */\n      tag_429\n        /* \"#utility.yul\":16674:16676   */\n      0x17\n        /* \"#utility.yul\":16669:16672   */\n      dup4\n        /* \"#utility.yul\":16610:16677   */\n      tag_244\n      jump\t// in\n    tag_429:\n        /* \"#utility.yul\":16603:16677   */\n      swap2\n      pop\n        /* \"#utility.yul\":16686:16779   */\n      tag_430\n        /* \"#utility.yul\":16775:16778   */\n      dup3\n        /* \"#utility.yul\":16686:16779   */\n      tag_245\n      jump\t// in\n    tag_430:\n        /* \"#utility.yul\":16804:16806   */\n      0x20\n        /* \"#utility.yul\":16799:16802   */\n      dup3\n        /* \"#utility.yul\":16795:16807   */\n      add\n        /* \"#utility.yul\":16788:16807   */\n      swap1\n      pop\n        /* \"#utility.yul\":16447:16813   */\n      swap2\n      swap1\n      pop\n      jump\t// out\n        /* \"#utility.yul\":16819:17238   */\n    tag_62:\n        /* \"#utility.yul\":16985:16989   */\n      0x00\n        /* \"#utility.yul\":17023:17025   */\n      0x20\n        /* \"#utility.yul\":17012:17021   */\n      dup3\n        /* \"#utility.yul\":17008:17026   */\n      add\n        /* \"#utility.yul\":17000:17026   */\n      swap1\n      pop\n        /* \"#utility.yul\":17072:17081   */\n      dup2\n        /* \"#utility.yul\":17066:17070   */\n      dup2\n        /* \"#utility.yul\":17062:17082   */\n      sub\n        /* \"#utility.yul\":17058:17059   */\n      0x00\n        /* \"#utility.yul\":17047:17056   */\n      dup4\n        /* \"#utility.yul\":17043:17060   */\n      add\n        /* \"#utility.yul\":17036:17083   */\n      mstore\n        /* \"#utility.yul\":17100:17231   */\n      tag_432\n        /* \"#utility.yul\":17226:17230   */\n      dup2\n        /* \"#utility.yul\":17100:17231   */\n      tag_246\n      jump\t// in\n    tag_432:\n        /* \"#utility.yul\":17092:17231   */\n      swap1\n      pop\n        /* \"#utility.yul\":16819:17238   */\n      swap2\n      swap1\n      pop\n      jump\t// out\n        /* \"#utility.yul\":17244:17424   */\n    tag_247:\n        /* \"#utility.yul\":17292:17369   */\n      0x4e487b7100000000000000000000000000000000000000000000000000000000\n        /* \"#utility.yul\":17289:17290   */\n      0x00\n        /* \"#utility.yul\":17282:17370   */\n      mstore\n        /* \"#utility.yul\":17389:17393   */\n      0x22\n        /* \"#utility.yul\":17386:17387   */\n      0x04\n        /* \"#utility.yul\":17379:17394   */\n      mstore\n        /* \"#utility.yul\":17413:17417   */\n      0x24\n        /* \"#utility.yul\":17410:17411   */\n      0x00\n        /* \"#utility.yul\":17403:17418   */\n      revert\n        /* \"#utility.yul\":17430:17750   */\n    tag_77:\n        /* \"#utility.yul\":17474:17480   */\n      0x00\n        /* \"#utility.yul\":17511:17512   */\n      0x02\n        /* \"#utility.yul\":17505:17509   */\n      dup3\n        /* \"#utility.yul\":17501:17513   */\n      div\n        /* \"#utility.yul\":17491:17513   */\n      swap1\n      pop\n        /* \"#utility.yul\":17558:17559   */\n      0x01\n        /* \"#utility.yul\":17552:17556   */\n      dup3\n        /* \"#utility.yul\":17548:17560   */\n      and\n        /* \"#utility.yul\":17579:17597   */\n      dup1\n        /* \"#utility.yul\":17569:17650   */\n      tag_435\n      jumpi\n        /* \"#utility.yul\":17635:17639   */\n      0x7f\n        /* \"#utility.yul\":17627:17633   */\n      dup3\n        /* \"#utility.yul\":17623:17640   */\n      and\n        /* \"#utility.yul\":17613:17640   */\n      swap2\n      pop\n        /* \"#utility.yul\":17569:17650   */\n    tag_435:\n        /* \"#utility.yul\":17697:17699   */\n      0x20\n        /* \"#utility.yul\":17689:17695   */\n      dup3\n        /* \"#utility.yul\":17686:17700   */\n      lt\n        /* \"#utility.yul\":17666:17684   */\n      dup2\n        /* \"#utility.yul\":17663:17701   */\n      sub\n        /* \"#utility.yul\":17660:17744   */\n      tag_436\n      jumpi\n        /* \"#utility.yul\":17716:17734   */\n      tag_437\n      tag_247\n      jump\t// in\n    tag_437:\n        /* \"#utility.yul\":17660:17744   */\n    tag_436:\n        /* \"#utility.yul\":17481:17750   */\n      pop\n        /* \"#utility.yul\":17430:17750   */\n      swap2\n      swap1\n      pop\n      jump\t// out\n        /* \"#utility.yul\":17756:17926   */\n    tag_248:\n        /* \"#utility.yul\":17896:17918   */\n      0x436f6e7472616374202072656769737465726564000000000000000000000000\n        /* \"#utility.yul\":17892:17893   */\n      0x00\n        /* \"#utility.yul\":17884:17890   */\n      dup3\n        /* \"#utility.yul\":17880:17894   */\n      add\n        /* \"#utility.yul\":17873:17919   */\n      mstore\n        /* \"#utility.yul\":17756:17926   */\n      pop\n      jump\t// out\n        /* \"#utility.yul\":17932:18298   */\n    tag_249:\n        /* \"#utility.yul\":18074:18077   */\n      0x00\n        /* \"#utility.yul\":18095:18162   */\n      tag_440\n        /* \"#utility.yul\":18159:18161   */\n      0x14\n        /* \"#utility.yul\":18154:18157   */\n      dup4\n        /* \"#utility.yul\":18095:18162   */\n      tag_244\n      jump\t// in\n    tag_440:\n        /* \"#utility.yul\":18088:18162   */\n      swap2\n      pop\n        /* \"#utility.yul\":18171:18264   */\n      tag_441\n        /* \"#utility.yul\":18260:18263   */\n      dup3\n        /* \"#utility.yul\":18171:18264   */\n      tag_248\n      jump\t// in\n    tag_441:\n        /* \"#utility.yul\":18289:18291   */\n      0x20\n        /* \"#utility.yul\":18284:18287   */\n      dup3\n        /* \"#utility.yul\":18280:18292   */\n      add\n        /* \"#utility.yul\":18273:18292   */\n      swap1\n      pop\n        /* \"#utility.yul\":17932:18298   */\n      swap2\n      swap1\n      pop\n      jump\t// out\n        /* \"#utility.yul\":18304:18723   */\n    tag_163:\n        /* \"#utility.yul\":18470:18474   */\n      0x00\n        /* \"#utility.yul\":18508:18510   */\n      0x20\n        /* \"#utility.yul\":18497:18506   */\n      dup3\n        /* \"#utility.yul\":18493:18511   */\n      add\n        /* \"#utility.yul\":18485:18511   */\n      swap1\n      pop\n        /* \"#utility.yul\":18557:18566   */\n      dup2\n        /* \"#utility.yul\":18551:18555   */\n      dup2\n        /* \"#utility.yul\":18547:18567   */\n      sub\n        /* \"#utility.yul\":18543:18544   */\n      0x00\n        /* \"#utility.yul\":18532:18541   */\n      dup4\n        /* \"#utility.yul\":18528:18545   */\n      add\n        /* \"#utility.yul\":18521:18568   */\n      mstore\n        /* \"#utility.yul\":18585:18716   */\n      tag_443\n        /* \"#utility.yul\":18711:18715   */\n      dup2\n        /* \"#utility.yul\":18585:18716   */\n      tag_249\n      jump\t// in\n    tag_443:\n        /* \"#utility.yul\":18577:18716   */\n      swap1\n      pop\n        /* \"#utility.yul\":18304:18723   */\n      swap2\n      swap1\n      pop\n      jump\t// out\n        /* \"#utility.yul\":18729:18870   */\n    tag_250:\n        /* \"#utility.yul\":18778:18782   */\n      0x00\n        /* \"#utility.yul\":18801:18804   */\n      dup2\n        /* \"#utility.yul\":18793:18804   */\n      swap1\n      pop\n        /* \"#utility.yul\":18824:18827   */\n      dup2\n        /* \"#utility.yul\":18821:18822   */\n      0x00\n        /* \"#utility.yul\":18814:18828   */\n      mstore\n        /* \"#utility.yul\":18858:18862   */\n      0x20\n        /* \"#utility.yul\":18855:18856   */\n      0x00\n        /* \"#utility.yul\":18845:18863   */\n      keccak256\n        /* \"#utility.yul\":18837:18863   */\n      swap1\n      pop\n        /* \"#utility.yul\":18729:18870   */\n      swap2\n      swap1\n      pop\n      jump\t// out\n        /* \"#utility.yul\":18876:18969   */\n    tag_251:\n        /* \"#utility.yul\":18913:18919   */\n      0x00\n        /* \"#utility.yul\":18960:18962   */\n      0x20\n        /* \"#utility.yul\":18955:18957   */\n      0x1f\n        /* \"#utility.yul\":18948:18953   */\n      dup4\n        /* \"#utility.yul\":18944:18958   */\n      add\n        /* \"#utility.yul\":18940:18963   */\n      div\n        /* \"#utility.yul\":18930:18963   */\n      swap1\n      pop\n        /* \"#utility.yul\":18876:18969   */\n      swap2\n      swap1\n      pop\n      jump\t// out\n        /* \"#utility.yul\":18975:19082   */\n    tag_252:\n        /* \"#utility.yul\":19019:19027   */\n      0x00\n        /* \"#utility.yul\":19069:19074   */\n      dup3\n        /* \"#utility.yul\":19063:19067   */\n      dup3\n        /* \"#utility.yul\":19059:19075   */\n      shl\n        /* \"#utility.yul\":19038:19075   */\n      swap1\n      pop\n        /* \"#utility.yul\":18975:19082   */\n      swap3\n      swap2\n      pop\n      pop\n      jump\t// out\n        /* \"#utility.yul\":19088:19481   */\n    tag_253:\n        /* \"#utility.yul\":19157:19163   */\n      0x00\n        /* \"#utility.yul\":19207:19208   */\n      0x08\n        /* \"#utility.yul\":19195:19205   */\n      dup4\n        /* \"#utility.yul\":19191:19209   */\n      mul\n        /* \"#utility.yul\":19230:19327   */\n      tag_448\n        /* \"#utility.yul\":19260:19326   */\n      0xffffffffffffffffffffffffffffffffffffffffffffffffffffffffffffffff\n        /* \"#utility.yul\":19249:19258   */\n      dup3\n        /* \"#utility.yul\":19230:19327   */\n      tag_252\n      jump\t// in\n    tag_448:\n        /* \"#utility.yul\":19348:19387   */\n      tag_449\n        /* \"#utility.yul\":19378:19386   */\n      dup7\n        /* \"#utility.yul\":19367:19376   */\n      dup4\n        /* \"#utility.yul\":19348:19387   */\n      tag_252\n      jump\t// in\n    tag_449:\n        /* \"#utility.yul\":19336:19387   */\n      swap6\n      pop\n        /* \"#utility.yul\":19420:19424   */\n      dup1\n        /* \"#utility.yul\":19416:19425   */\n      not\n        /* \"#utility.yul\":19409:19414   */\n      dup5\n        /* \"#utility.yul\":19405:19426   */\n      and\n        /* \"#utility.yul\":19396:19426   */\n      swap4\n      pop\n        /* \"#utility.yul\":19469:19473   */\n      dup1\n        /* \"#utility.yul\":19459:19467   */\n      dup7\n        /* \"#utility.yul\":19455:19474   */\n      and\n        /* \"#utility.yul\":19448:19453   */\n      dup5\n        /* \"#utility.yul\":19445:19475   */\n      or\n        /* \"#utility.yul\":19435:19475   */\n      swap3\n      pop\n        /* \"#utility.yul\":19164:19481   */\n      pop\n      pop\n        /* \"#utility.yul\":19088:19481   */\n      swap4\n      swap3\n      pop\n      pop\n      pop\n      jump\t// out\n        /* \"#utility.yul\":19487:19547   */\n    tag_254:\n        /* \"#utility.yul\":19515:19518   */\n      0x00\n        /* \"#utility.yul\":19536:19541   */\n      dup2\n        /* \"#utility.yul\":19529:19541   */\n      swap1\n      pop\n        /* \"#utility.yul\":19487:19547   */\n      swap2\n      swap1\n      pop\n      jump\t// out\n        /* \"#utility.yul\":19553:19695   */\n    tag_255:\n        /* \"#utility.yul\":19603:19612   */\n      0x00\n        /* \"#utility.yul\":19636:19689   */\n      tag_452\n        /* \"#utility.yul\":19654:19688   */\n      tag_453\n        /* \"#utility.yul\":19663:19687   */\n      tag_454\n        /* \"#utility.yul\":19681:19686   */\n      dup5\n        /* \"#utility.yul\":19663:19687   */\n      tag_218\n      jump\t// in\n    tag_454:\n        /* \"#utility.yul\":19654:19688   */\n      tag_254\n      jump\t// in\n    tag_453:\n        /* \"#utility.yul\":19636:19689   */\n      tag_218\n      jump\t// in\n    tag_452:\n        /* \"#utility.yul\":19623:19689   */\n      swap1\n      pop\n        /* \"#utility.yul\":19553:19695   */\n      swap2\n      swap1\n      pop\n      jump\t// out\n        /* \"#utility.yul\":19701:19776   */\n    tag_256:\n        /* \"#utility.yul\":19744:19747   */\n      0x00\n        /* \"#utility.yul\":19765:19770   */\n      dup2\n        /* \"#utility.yul\":19758:19770   */\n      swap1\n      pop\n        /* \"#utility.yul\":19701:19776   */\n      swap2\n      swap1\n      pop\n      jump\t// out\n        /* \"#utility.yul\":19782:20051   */\n    tag_257:\n        /* \"#utility.yul\":19892:19931   */\n      tag_457\n        /* \"#utility.yul\":19923:19930   */\n      dup4\n        /* \"#utility.yul\":19892:19931   */\n      tag_255\n      jump\t// in\n    tag_457:\n        /* \"#utility.yul\":19953:20044   */\n      tag_458\n        /* \"#utility.yul\":20002:20043   */\n      tag_459\n        /* \"#utility.yul\":20026:20042   */\n      dup3\n        /* \"#utility.yul\":20002:20043   */\n      tag_256\n      jump\t// in\n    tag_459:\n        /* \"#utility.yul\":19994:20000   */\n      dup5\n        /* \"#utility.yul\":19987:19991   */\n      dup5\n        /* \"#utility.yul\":19981:19992   */\n      sload\n        /* \"#utility.yul\":19953:20044   */\n      tag_253\n      jump\t// in\n    tag_458:\n        /* \"#utility.yul\":19947:19951   */\n      dup3\n        /* \"#utility.yul\":19940:20045   */\n      sstore\n        /* \"#utility.yul\":19858:20051   */\n      pop\n        /* \"#utility.yul\":19782:20051   */\n      pop\n      pop\n      pop\n      jump\t// out\n        /* \"#utility.yul\":20057:20130   */\n    tag_258:\n        /* \"#utility.yul\":20102:20105   */\n      0x00\n        /* \"#utility.yul\":20057:20130   */\n      swap1\n      jump\t// out\n        /* \"#utility.yul\":20136:20325   */\n    tag_259:\n        /* \"#utility.yul\":20213:20245   */\n      tag_462\n      tag_258\n      jump\t// in\n    tag_462:\n        /* \"#utility.yul\":20254:20319   */\n      tag_463\n        /* \"#utility.yul\":20312:20318   */\n      dup2\n        /* \"#utility.yul\":20304:20310   */\n      dup5\n        /* \"#utility.yul\":20298:20302   */\n      dup5\n        /* \"#utility.yul\":20254:20319   */\n      tag_257\n      jump\t// in\n    tag_463:\n        /* \"#utility.yul\":20189:20325   */\n      pop\n        /* \"#utility.yul\":20136:20325   */\n      pop\n      pop\n      jump\t// out\n        /* \"#utility.yul\":20331:20517   */\n    tag_260:\n        /* \"#utility.yul\":20391:20511   */\n    tag_465:\n        /* \"#utility.yul\":20408:20411   */\n      dup2\n        /* \"#utility.yul\":20401:20406   */\n      dup2\n        /* \"#utility.yul\":20398:20412   */\n      lt\n        /* \"#utility.yul\":20391:20511   */\n      iszero\n      tag_467\n      jumpi\n        /* \"#utility.yul\":20462:20501   */\n      tag_468\n        /* \"#utility.yul\":20499:20500   */\n      0x00\n        /* \"#utility.yul\":20492:20497   */\n      dup3\n        /* \"#utility.yul\":20462:20501   */\n      tag_259\n      jump\t// in\n    tag_468:\n        /* \"#utility.yul\":20435:20436   */\n      0x01\n        /* \"#utility.yul\":20428:20433   */\n      dup2\n        /* \"#utility.yul\":20424:20437   */\n      add\n        /* \"#utility.yul\":20415:20437   */\n      swap1\n      pop\n        /* \"#utility.yul\":20391:20511   */\n      jump(tag_465)\n    tag_467:\n        /* \"#utility.yul\":20331:20517   */\n      pop\n      pop\n      jump\t// out\n        /* \"#utility.yul\":20523:21066   */\n    tag_261:\n        /* \"#utility.yul\":20624:20626   */\n      0x1f\n        /* \"#utility.yul\":20619:20622   */\n      dup3\n        /* \"#utility.yul\":20616:20627   */\n      gt\n        /* \"#utility.yul\":20613:21059   */\n      iszero\n      tag_470\n      jumpi\n        /* \"#utility.yul\":20658:20696   */\n      tag_471\n        /* \"#utility.yul\":20690:20695   */\n      dup2\n        /* \"#utility.yul\":20658:20696   */\n      tag_250\n      jump\t// in\n    tag_471:\n        /* \"#utility.yul\":20742:20771   */\n      tag_472\n        /* \"#utility.yul\":20760:20770   */\n      dup5\n        /* \"#utility.yul\":20742:20771   */\n      tag_251\n      jump\t// in\n    tag_472:\n        /* \"#utility.yul\":20732:20740   */\n      dup2\n        /* \"#utility.yul\":20728:20772   */\n      add\n        /* \"#utility.yul\":20925:20927   */\n      0x20\n        /* \"#utility.yul\":20913:20923   */\n      dup6\n        /* \"#utility.yul\":20910:20928   */\n      lt\n        /* \"#utility.yul\":20907:20956   */\n      iszero\n      tag_473\n      jumpi\n        /* \"#utility.yul\":20946:20954   */\n      dup2\n        /* \"#utility.yul\":20931:20954   */\n      swap1\n      pop\n        /* \"#utility.yul\":20907:20956   */\n    tag_473:\n        /* \"#utility.yul\":20969:21049   */\n      tag_474\n        /* \"#utility.yul\":21025:21047   */\n      tag_475\n        /* \"#utility.yul\":21043:21046   */\n      dup6\n        /* \"#utility.yul\":21025:21047   */\n      tag_251\n      jump\t// in\n    tag_475:\n        /* \"#utility.yul\":21015:21023   */\n      dup4\n        /* \"#utility.yul\":21011:21048   */\n      add\n        /* \"#utility.yul\":20998:21009   */\n      dup3\n        /* \"#utility.yul\":20969:21049   */\n      tag_260\n      jump\t// in\n    tag_474:\n        /* \"#utility.yul\":20628:21059   */\n      pop\n      pop\n        /* \"#utility.yul\":20613:21059   */\n    tag_470:\n        /* \"#utility.yul\":20523:21066   */\n      pop\n      pop\n      pop\n      jump\t// out\n        /* \"#utility.yul\":21072:21189   */\n    tag_262:\n        /* \"#utility.yul\":21126:21134   */\n      0x00\n        /* \"#utility.yul\":21176:21181   */\n      dup3\n        /* \"#utility.yul\":21170:21174   */\n      dup3\n        /* \"#utility.yul\":21166:21182   */\n      shr\n        /* \"#utility.yul\":21145:21182   */\n      swap1\n      pop\n        /* \"#utility.yul\":21072:21189   */\n      swap3\n      swap2\n      pop\n      pop\n      jump\t// out\n        /* \"#utility.yul\":21195:21364   */\n    tag_263:\n        /* \"#utility.yul\":21239:21245   */\n      0x00\n        /* \"#utility.yul\":21272:21323   */\n      tag_478\n        /* \"#utility.yul\":21320:21321   */\n      0x00\n        /* \"#utility.yul\":21316:21322   */\n      not\n        /* \"#utility.yul\":21308:21313   */\n      dup5\n        /* \"#utility.yul\":21305:21306   */\n      0x08\n        /* \"#utility.yul\":21301:21314   */\n      mul\n        /* \"#utility.yul\":21272:21323   */\n      tag_262\n      jump\t// in\n    tag_478:\n        /* \"#utility.yul\":21268:21324   */\n      not\n        /* \"#utility.yul\":21353:21357   */\n      dup1\n        /* \"#utility.yul\":21347:21351   */\n      dup4\n        /* \"#utility.yul\":21343:21358   */\n      and\n        /* \"#utility.yul\":21333:21358   */\n      swap2\n      pop\n        /* \"#utility.yul\":21246:21364   */\n      pop\n        /* \"#utility.yul\":21195:21364   */\n      swap3\n      swap2\n      pop\n      pop\n      jump\t// out\n        /* \"#utility.yul\":21369:21664   */\n    tag_264:\n        /* \"#utility.yul\":21445:21449   */\n      0x00\n        /* \"#utility.yul\":21591:21620   */\n      tag_480\n        /* \"#utility.yul\":21616:21619   */\n      dup4\n        /* \"#utility.yul\":21610:21614   */\n      dup4\n        /* \"#utility.yul\":21591:21620   */\n      tag_263\n      jump\t// in\n    tag_480:\n        /* \"#utility.yul\":21583:21620   */\n      swap2\n      pop\n        /* \"#utility.yul\":21653:21656   */\n      dup3\n        /* \"#utility.yul\":21650:21651   */\n      0x02\n        /* \"#utility.yul\":21646:21657   */\n      mul\n        /* \"#utility.yul\":21640:21644   */\n      dup3\n        /* \"#utility.yul\":21637:21658   */\n      or\n        /* \"#utility.yul\":21629:21658   */\n      swap1\n      pop\n        /* \"#utility.yul\":21369:21664   */\n      swap3\n      swap2\n      pop\n      pop\n      jump\t// out\n        /* \"#utility.yul\":21669:23064   */\n    tag_165:\n        /* \"#utility.yul\":21786:21823   */\n      tag_482\n        /* \"#utility.yul\":21819:21822   */\n      dup3\n        /* \"#utility.yul\":21786:21823   */\n      tag_213\n      jump\t// in\n    tag_482:\n        /* \"#utility.yul\":21888:21906   */\n      0xffffffffffffffff\n        /* \"#utility.yul\":21880:21886   */\n      dup2\n        /* \"#utility.yul\":21877:21907   */\n      gt\n        /* \"#utility.yul\":21874:21930   */\n      iszero\n      tag_483\n      jumpi\n        /* \"#utility.yul\":21910:21928   */\n      tag_484\n      tag_233\n      jump\t// in\n    tag_484:\n        /* \"#utility.yul\":21874:21930   */\n    tag_483:\n        /* \"#utility.yul\":21954:21992   */\n      tag_485\n        /* \"#utility.yul\":21986:21990   */\n      dup3\n        /* \"#utility.yul\":21980:21991   */\n      sload\n        /* \"#utility.yul\":21954:21992   */\n      tag_77\n      jump\t// in\n    tag_485:\n        /* \"#utility.yul\":22039:22106   */\n      tag_486\n        /* \"#utility.yul\":22099:22105   */\n      dup3\n        /* \"#utility.yul\":22091:22097   */\n      dup3\n        /* \"#utility.yul\":22085:22089   */\n      dup6\n        /* \"#utility.yul\":22039:22106   */\n      tag_261\n      jump\t// in\n    tag_486:\n        /* \"#utility.yul\":22133:22134   */\n      0x00\n        /* \"#utility.yul\":22157:22161   */\n      0x20\n        /* \"#utility.yul\":22144:22161   */\n      swap1\n      pop\n        /* \"#utility.yul\":22189:22191   */\n      0x1f\n        /* \"#utility.yul\":22181:22187   */\n      dup4\n        /* \"#utility.yul\":22178:22192   */\n      gt\n        /* \"#utility.yul\":22206:22207   */\n      0x01\n        /* \"#utility.yul\":22201:22819   */\n      dup2\n      eq\n      tag_488\n      jumpi\n        /* \"#utility.yul\":22863:22864   */\n      0x00\n        /* \"#utility.yul\":22880:22886   */\n      dup5\n        /* \"#utility.yul\":22877:22954   */\n      iszero\n      tag_489\n      jumpi\n        /* \"#utility.yul\":22929:22938   */\n      dup3\n        /* \"#utility.yul\":22924:22927   */\n      dup8\n        /* \"#utility.yul\":22920:22939   */\n      add\n        /* \"#utility.yul\":22914:22940   */\n      mload\n        /* \"#utility.yul\":22905:22940   */\n      swap1\n      pop\n        /* \"#utility.yul\":22877:22954   */\n    tag_489:\n        /* \"#utility.yul\":22980:23047   */\n      tag_490\n        /* \"#utility.yul\":23040:23046   */\n      dup6\n        /* \"#utility.yul\":23033:23038   */\n      dup3\n        /* \"#utility.yul\":22980:23047   */\n      tag_264\n      jump\t// in\n    tag_490:\n        /* \"#utility.yul\":22974:22978   */\n      dup7\n        /* \"#utility.yul\":22967:23048   */\n      sstore\n        /* \"#utility.yul\":22836:23058   */\n      pop\n        /* \"#utility.yul\":22171:23058   */\n      jump(tag_487)\n        /* \"#utility.yul\":22201:22819   */\n    tag_488:\n        /* \"#utility.yul\":22253:22257   */\n      0x1f\n        /* \"#utility.yul\":22249:22258   */\n      not\n        /* \"#utility.yul\":22241:22247   */\n      dup5\n        /* \"#utility.yul\":22237:22259   */\n      and\n        /* \"#utility.yul\":22287:22324   */\n      tag_491\n        /* \"#utility.yul\":22319:22323   */\n      dup7\n        /* \"#utility.yul\":22287:22324   */\n      tag_250\n      jump\t// in\n    tag_491:\n        /* \"#utility.yul\":22346:22347   */\n      0x00\n        /* \"#utility.yul\":22360:22568   */\n    tag_492:\n        /* \"#utility.yul\":22374:22381   */\n      dup3\n        /* \"#utility.yul\":22371:22372   */\n      dup2\n        /* \"#utility.yul\":22368:22382   */\n      lt\n        /* \"#utility.yul\":22360:22568   */\n      iszero\n      tag_494\n      jumpi\n        /* \"#utility.yul\":22453:22462   */\n      dup5\n        /* \"#utility.yul\":22448:22451   */\n      dup10\n        /* \"#utility.yul\":22444:22463   */\n      add\n        /* \"#utility.yul\":22438:22464   */\n      mload\n        /* \"#utility.yul\":22430:22436   */\n      dup3\n        /* \"#utility.yul\":22423:22465   */\n      sstore\n        /* \"#utility.yul\":22504:22505   */\n      0x01\n        /* \"#utility.yul\":22496:22502   */\n      dup3\n        /* \"#utility.yul\":22492:22506   */\n      add\n        /* \"#utility.yul\":22482:22506   */\n      swap2\n      pop\n        /* \"#utility.yul\":22551:22553   */\n      0x20\n        /* \"#utility.yul\":22540:22549   */\n      dup6\n        /* \"#utility.yul\":22536:22554   */\n      add\n        /* \"#utility.yul\":22523:22554   */\n      swap5\n      pop\n        /* \"#utility.yul\":22397:22401   */\n      0x20\n        /* \"#utility.yul\":22394:22395   */\n      dup2\n        /* \"#utility.yul\":22390:22402   */\n      add\n        /* \"#utility.yul\":22385:22402   */\n      swap1\n      pop\n        /* \"#utility.yul\":22360:22568   */\n      jump(tag_492)\n    tag_494:\n        /* \"#utility.yul\":22596:22602   */\n      dup7\n        /* \"#utility.yul\":22587:22594   */\n      dup4\n        /* \"#utility.yul\":22584:22603   */\n      lt\n        /* \"#utility.yul\":22581:22760   */\n      iszero\n      tag_495\n      jumpi\n        /* \"#utility.yul\":22654:22663   */\n      dup5\n        /* \"#utility.yul\":22649:22652   */\n      dup10\n        /* \"#utility.yul\":22645:22664   */\n      add\n        /* \"#utility.yul\":22639:22665   */\n      mload\n        /* \"#utility.yul\":22697:22745   */\n      tag_496\n        /* \"#utility.yul\":22739:22743   */\n      0x1f\n        /* \"#utility.yul\":22731:22737   */\n      dup10\n        /* \"#utility.yul\":22727:22744   */\n      and\n        /* \"#utility.yul\":22716:22725   */\n      dup3\n        /* \"#utility.yul\":22697:22745   */\n      tag_263\n      jump\t// in\n    tag_496:\n        /* \"#utility.yul\":22689:22695   */\n      dup4\n        /* \"#utility.yul\":22682:22746   */\n      sstore\n        /* \"#utility.yul\":22604:22760   */\n      pop\n        /* \"#utility.yul\":22581:22760   */\n    tag_495:\n        /* \"#utility.yul\":22806:22807   */\n      0x01\n        /* \"#utility.yul\":22802:22803   */\n      0x02\n        /* \"#utility.yul\":22794:22800   */\n      dup9\n        /* \"#utility.yul\":22790:22804   */\n      mul\n        /* \"#utility.yul\":22786:22808   */\n      add\n        /* \"#utility.yul\":22780:22784   */\n      dup9\n        /* \"#utility.yul\":22773:22809   */\n      sstore\n        /* \"#utility.yul\":22208:22819   */\n      pop\n      pop\n      pop\n        /* \"#utility.yul\":22171:23058   */\n    tag_487:\n      pop\n        /* \"#utility.yul\":21761:23064   */\n      pop\n      pop\n      pop\n        /* \"#utility.yul\":21669:23064   */\n      pop\n      pop\n      jump\t// out\n\n    auxdata: 0xa2646970667358221220046431abb5c35658dcf453ff6a9fbc06e03fc6f24225598577f96d4aa605e18764736f6c63430008140033\n}\n",
				"bytecode": {
					"linkReferences": {},
					"object": "608060405234801561000f575f80fd5b5061213c8061001d5f395ff3fe608060405234801561000f575f80fd5b506004361061009c575f3560e01c806390483125116100645780639048312514610158578063cd481e5114610188578063e8a8dcce146101b8578063f4c1c17f146101d4578063f9f6b49b146101f05761009c565b806318d3ce96146100a057806344c5bbf8146100be5780637318df8a146100da57806373aef5591461010a578063862ea1ba1461013a575b5f80fd5b6100a8610220565b6040516100b591906116a8565b60405180910390f35b6100d860048036038101906100d39190611726565b6102ab565b005b6100f460048036038101906100ef9190611764565b61046d565b60405161010191906116a8565b60405180910390f35b610124600480360381019061011f9190611764565b610535565b60405161013191906117a9565b60405180910390f35b6101426108c9565b60405161014f91906116a8565b60405180910390f35b610172600480360381019061016d9190611764565b610954565b60405161017f9190611a39565b60405180910390f35b6101a2600480360381019061019d9190611764565b610c90565b6040516101af9190611a39565b60405180910390f35b6101d260048036038101906101cd9190611c67565b610fc7565b005b6101ee60048036038101906101e99190611d1f565b61122c565b005b61020a60048036038101906102059190611764565b6113e3565b60405161021791906117a9565b60405180910390f35b606060018054806020026020016040519081016040528092919081815260200182805480156102a157602002820191905f5260205f20905b815f9054906101000a900473ffffffffffffffffffffffffffffffffffffffff1673ffffffffffffffffffffffffffffffffffffffff1681526020019060010190808311610258575b5050505050905090565b5f73ffffffffffffffffffffffffffffffffffffffff165f808473ffffffffffffffffffffffffffffffffffffffff1673ffffffffffffffffffffffffffffffffffffffff1681526020019081526020015f205f015f9054906101000a900473ffffffffffffffffffffffffffffffffffffffff1673ffffffffffffffffffffffffffffffffffffffff1603610376576040517f08c379a000000000000000000000000000000000000000000000000000000000815260040161036d90611db7565b60405180910390fd5b805f808473ffffffffffffffffffffffffffffffffffffffff1673ffffffffffffffffffffffffffffffffffffffff1681526020019081526020015f206006015f6101000a81548160ff021916908360038111156103d7576103d661191f565b5b0217905550600160038111156103f0576103ef61191f565b5b8160038111156104035761040261191f565b5b0361046957600282908060018154018082558091505060019003905f5260205f20015f9091909190916101000a81548173ffffffffffffffffffffffffffffffffffffffff021916908373ffffffffffffffffffffffffffffffffffffffff1602179055505b5050565b606060045f8373ffffffffffffffffffffffffffffffffffffffff1673ffffffffffffffffffffffffffffffffffffffff1681526020019081526020015f2080548060200260200160405190810160405280929190818152602001828054801561052957602002820191905f5260205f20905b815f9054906101000a900473ffffffffffffffffffffffffffffffffffffffff1673ffffffffffffffffffffffffffffffffffffffff16815260200190600101908083116104e0575b50505050509050919050565b5f805f808473ffffffffffffffffffffffffffffffffffffffff1673ffffffffffffffffffffffffffffffffffffffff1681526020019081526020015f206040518060e00160405290815f82015f9054906101000a900473ffffffffffffffffffffffffffffffffffffffff1673ffffffffffffffffffffffffffffffffffffffff1673ffffffffffffffffffffffffffffffffffffffff1681526020016001820180546105e290611e02565b80601f016020809104026020016040519081016040528092919081815260200182805461060e90611e02565b80156106595780601f1061063057610100808354040283529160200191610659565b820191905f5260205f20905b81548152906001019060200180831161063c57829003601f168201915b5050505050815260200160028201805461067290611e02565b80601f016020809104026020016040519081016040528092919081815260200182805461069e90611e02565b80156106e95780601f106106c0576101008083540402835291602001916106e9565b820191905f5260205f20905b8154815290600101906020018083116106cc57829003601f168201915b50505050508152602001600382015f9054906101000a900473ffffffffffffffffffffffffffffffffffffffff1673ffffffffffffffffffffffffffffffffffffffff1673ffffffffffffffffffffffffffffffffffffffff1681526020016004820154815260200160058201805480602002602001604051908101604052809291908181526020015f905b8282101561081d578382905f5260205f2001805461079290611e02565b80601f01602080910402602001604051908101604052809291908181526020018280546107be90611e02565b80156108095780601f106107e057610100808354040283529160200191610809565b820191905f5260205f20905b8154815290600101906020018083116107ec57829003601f168201915b505050505081526020019060010190610775565b505050508152602001600682015f9054906101000a900460ff1660038111156108495761084861191f565b5b600381111561085b5761085a61191f565b5b815250509050600160038111156108755761087461191f565b5b8160c00151600381111561088c5761088b61191f565b5b1480156108c157506003808111156108a7576108a661191f565b5b8160c0015160038111156108be576108bd61191f565b5b14155b915050919050565b6060600280548060200260200160405190810160405280929190818152602001828054801561094a57602002820191905f5260205f20905b815f9054906101000a900473ffffffffffffffffffffffffffffffffffffffff1673ffffffffffffffffffffffffffffffffffffffff1681526020019060010190808311610901575b5050505050905090565b61095c611478565b5f805f8473ffffffffffffffffffffffffffffffffffffffff1673ffffffffffffffffffffffffffffffffffffffff1681526020019081526020015f206040518060e00160405290815f82015f9054906101000a900473ffffffffffffffffffffffffffffffffffffffff1673ffffffffffffffffffffffffffffffffffffffff1673ffffffffffffffffffffffffffffffffffffffff168152602001600182018054610a0890611e02565b80601f0160208091040260200160405190810160405280929190818152602001828054610a3490611e02565b8015610a7f5780601f10610a5657610100808354040283529160200191610a7f565b820191905f5260205f20905b815481529060010190602001808311610a6257829003601f168201915b50505050508152602001600282018054610a9890611e02565b80601f0160208091040260200160405190810160405280929190818152602001828054610ac490611e02565b8015610b0f5780601f10610ae657610100808354040283529160200191610b0f565b820191905f5260205f20905b815481529060010190602001808311610af257829003601f168201915b50505050508152602001600382015f9054906101000a900473ffffffffffffffffffffffffffffffffffffffff1673ffffffffffffffffffffffffffffffffffffffff1673ffffffffffffffffffffffffffffffffffffffff1681526020016004820154815260200160058201805480602002602001604051908101604052809291908181526020015f905b82821015610c43578382905f5260205f20018054610bb890611e02565b80601f0160208091040260200160405190810160405280929190818152602001828054610be490611e02565b8015610c2f5780601f10610c0657610100808354040283529160200191610c2f565b820191905f5260205f20905b815481529060010190602001808311610c1257829003601f168201915b505050505081526020019060010190610b9b565b505050508152602001600682015f9054906101000a900460ff166003811115610c6f57610c6e61191f565b5b6003811115610c8157610c8061191f565b5b81525050905080915050919050565b610c98611478565b5f808373ffffffffffffffffffffffffffffffffffffffff1673ffffffffffffffffffffffffffffffffffffffff1681526020019081526020015f206040518060e00160405290815f82015f9054906101000a900473ffffffffffffffffffffffffffffffffffffffff1673ffffffffffffffffffffffffffffffffffffffff1673ffffffffffffffffffffffffffffffffffffffff168152602001600182018054610d4390611e02565b80601f0160208091040260200160405190810160405280929190818152602001828054610d6f90611e02565b8015610dba5780601f10610d9157610100808354040283529160200191610dba565b820191905f5260205f20905b815481529060010190602001808311610d9d57829003601f168201915b50505050508152602001600282018054610dd390611e02565b80601f0160208091040260200160405190810160405280929190818152602001828054610dff90611e02565b8015610e4a5780601f10610e2157610100808354040283529160200191610e4a565b820191905f5260205f20905b815481529060010190602001808311610e2d57829003601f168201915b50505050508152602001600382015f9054906101000a900473ffffffffffffffffffffffffffffffffffffffff1673ffffffffffffffffffffffffffffffffffffffff1673ffffffffffffffffffffffffffffffffffffffff1681526020016004820154815260200160058201805480602002602001604051908101604052809291908181526020015f905b82821015610f7e578382905f5260205f20018054610ef390611e02565b80601f0160208091040260200160405190810160405280929190818152602001828054610f1f90611e02565b8015610f6a5780601f10610f4157610100808354040283529160200191610f6a565b820191905f5260205f20905b815481529060010190602001808311610f4d57829003601f168201915b505050505081526020019060010190610ed6565b505050508152602001600682015f9054906101000a900460ff166003811115610faa57610fa961191f565b5b6003811115610fbc57610fbb61191f565b5b815250509050919050565b5f73ffffffffffffffffffffffffffffffffffffffff165f808673ffffffffffffffffffffffffffffffffffffffff1673ffffffffffffffffffffffffffffffffffffffff1681526020019081526020015f205f015f9054906101000a900473ffffffffffffffffffffffffffffffffffffffff1673ffffffffffffffffffffffffffffffffffffffff1614611092576040517f08c379a000000000000000000000000000000000000000000000000000000000815260040161108990611e7c565b60405180910390fd5b5f805f8673ffffffffffffffffffffffffffffffffffffffff1673ffffffffffffffffffffffffffffffffffffffff1681526020019081526020015f20905084815f015f6101000a81548173ffffffffffffffffffffffffffffffffffffffff021916908373ffffffffffffffffffffffffffffffffffffffff160217905550838160010190816111239190612037565b50828160020190816111359190612037565b5033816003015f6101000a81548173ffffffffffffffffffffffffffffffffffffffff021916908373ffffffffffffffffffffffffffffffffffffffff160217905550428160040181905550818160050190805190602001906111999291906114ef565b505f816006015f6101000a81548160ff021916908360038111156111c0576111bf61191f565b5b0217905550600185908060018154018082558091505060019003905f5260205f20015f9091909190916101000a81548173ffffffffffffffffffffffffffffffffffffffff021916908373ffffffffffffffffffffffffffffffffffffffff1602179055505050505050565b5f151560035f8473ffffffffffffffffffffffffffffffffffffffff1673ffffffffffffffffffffffffffffffffffffffff1681526020019081526020015f205f8373ffffffffffffffffffffffffffffffffffffffff1673ffffffffffffffffffffffffffffffffffffffff1681526020019081526020015f205f9054906101000a900460ff161515036113df5760045f8373ffffffffffffffffffffffffffffffffffffffff1673ffffffffffffffffffffffffffffffffffffffff1681526020019081526020015f2081908060018154018082558091505060019003905f5260205f20015f9091909190916101000a81548173ffffffffffffffffffffffffffffffffffffffff021916908373ffffffffffffffffffffffffffffffffffffffff1602179055506001151560035f8473ffffffffffffffffffffffffffffffffffffffff1673ffffffffffffffffffffffffffffffffffffffff1681526020019081526020015f205f8373ffffffffffffffffffffffffffffffffffffffff1673ffffffffffffffffffffffffffffffffffffffff1681526020019081526020015f205f9054906101000a905050505b5050565b5f8073ffffffffffffffffffffffffffffffffffffffff165f808473ffffffffffffffffffffffffffffffffffffffff1673ffffffffffffffffffffffffffffffffffffffff1681526020019081526020015f205f015f9054906101000a900473ffffffffffffffffffffffffffffffffffffffff1673ffffffffffffffffffffffffffffffffffffffff1614159050919050565b6040518060e001604052805f73ffffffffffffffffffffffffffffffffffffffff16815260200160608152602001606081526020015f73ffffffffffffffffffffffffffffffffffffffff1681526020015f8152602001606081526020015f60038111156114e9576114e861191f565b5b81525090565b828054828255905f5260205f20908101928215611535579160200282015b828111156115345782518290816115249190612037565b509160200191906001019061150d565b5b5090506115429190611546565b5090565b5b80821115611565575f818161155c9190611569565b50600101611547565b5090565b50805461157590611e02565b5f825580601f1061158657506115a3565b601f0160209004905f5260205f20908101906115a291906115a6565b5b50565b5b808211156115bd575f815f9055506001016115a7565b5090565b5f81519050919050565b5f82825260208201905092915050565b5f819050602082019050919050565b5f73ffffffffffffffffffffffffffffffffffffffff82169050919050565b5f611613826115ea565b9050919050565b61162381611609565b82525050565b5f611634838361161a565b60208301905092915050565b5f602082019050919050565b5f611656826115c1565b61166081856115cb565b935061166b836115db565b805f5b8381101561169b5781516116828882611629565b975061168d83611640565b92505060018101905061166e565b5085935050505092915050565b5f6020820190508181035f8301526116c0818461164c565b905092915050565b5f604051905090565b5f80fd5b5f80fd5b6116e281611609565b81146116ec575f80fd5b50565b5f813590506116fd816116d9565b92915050565b6004811061170f575f80fd5b50565b5f8135905061172081611703565b92915050565b5f806040838503121561173c5761173b6116d1565b5b5f611749858286016116ef565b925050602061175a85828601611712565b9150509250929050565b5f60208284031215611779576117786116d1565b5b5f611786848285016116ef565b91505092915050565b5f8115159050919050565b6117a38161178f565b82525050565b5f6020820190506117bc5f83018461179a565b92915050565b5f81519050919050565b5f82825260208201905092915050565b5f5b838110156117f95780820151818401526020810190506117de565b5f8484015250505050565b5f601f19601f8301169050919050565b5f61181e826117c2565b61182881856117cc565b93506118388185602086016117dc565b61184181611804565b840191505092915050565b5f819050919050565b61185e8161184c565b82525050565b5f81519050919050565b5f82825260208201905092915050565b5f819050602082019050919050565b5f6118988383611814565b905092915050565b5f602082019050919050565b5f6118b682611864565b6118c0818561186e565b9350836020820285016118d28561187e565b805f5b8581101561190d57848403895281516118ee858261188d565b94506118f9836118a0565b925060208a019950506001810190506118d5565b50829750879550505050505092915050565b7f4e487b71000000000000000000000000000000000000000000000000000000005f52602160045260245ffd5b6004811061195d5761195c61191f565b5b50565b5f81905061196d8261194c565b919050565b5f61197c82611960565b9050919050565b61198c81611972565b82525050565b5f60e083015f8301516119a75f86018261161a565b50602083015184820360208601526119bf8282611814565b915050604083015184820360408601526119d98282611814565b91505060608301516119ee606086018261161a565b506080830151611a016080860182611855565b5060a083015184820360a0860152611a1982826118ac565b91505060c0830151611a2e60c0860182611983565b508091505092915050565b5f6020820190508181035f830152611a518184611992565b905092915050565b5f80fd5b5f80fd5b7f4e487b71000000000000000000000000000000000000000000000000000000005f52604160045260245ffd5b611a9782611804565b810181811067ffffffffffffffff82111715611ab657611ab5611a61565b5b80604052505050565b5f611ac86116c8565b9050611ad48282611a8e565b919050565b5f67ffffffffffffffff821115611af357611af2611a61565b5b611afc82611804565b9050602081019050919050565b828183375f83830152505050565b5f611b29611b2484611ad9565b611abf565b905082815260208101848484011115611b4557611b44611a5d565b5b611b50848285611b09565b509392505050565b5f82601f830112611b6c57611b6b611a59565b5b8135611b7c848260208601611b17565b91505092915050565b5f67ffffffffffffffff821115611b9f57611b9e611a61565b5b602082029050602081019050919050565b5f80fd5b5f611bc6611bc184611b85565b611abf565b90508083825260208201905060208402830185811115611be957611be8611bb0565b5b835b81811015611c3057803567ffffffffffffffff811115611c0e57611c0d611a59565b5b808601611c1b8982611b58565b85526020850194505050602081019050611beb565b5050509392505050565b5f82601f830112611c4e57611c4d611a59565b5b8135611c5e848260208601611bb4565b91505092915050565b5f805f8060808587031215611c7f57611c7e6116d1565b5b5f611c8c878288016116ef565b945050602085013567ffffffffffffffff811115611cad57611cac6116d5565b5b611cb987828801611b58565b935050604085013567ffffffffffffffff811115611cda57611cd96116d5565b5b611ce687828801611b58565b925050606085013567ffffffffffffffff811115611d0757611d066116d5565b5b611d1387828801611c3a565b91505092959194509250565b5f8060408385031215611d3557611d346116d1565b5b5f611d42858286016116ef565b9250506020611d53858286016116ef565b9150509250929050565b5f82825260208201905092915050565b7f436f6e7472616374206e6f7420726567697374657265640000000000000000005f82015250565b5f611da1601783611d5d565b9150611dac82611d6d565b602082019050919050565b5f6020820190508181035f830152611dce81611d95565b9050919050565b7f4e487b71000000000000000000000000000000000000000000000000000000005f52602260045260245ffd5b5f6002820490506001821680611e1957607f821691505b602082108103611e2c57611e2b611dd5565b5b50919050565b7f436f6e74726163742020726567697374657265640000000000000000000000005f82015250565b5f611e66601483611d5d565b9150611e7182611e32565b602082019050919050565b5f6020820190508181035f830152611e9381611e5a565b9050919050565b5f819050815f5260205f209050919050565b5f6020601f8301049050919050565b5f82821b905092915050565b5f60088302611ef67fffffffffffffffffffffffffffffffffffffffffffffffffffffffffffffffff82611ebb565b611f008683611ebb565b95508019841693508086168417925050509392505050565b5f819050919050565b5f611f3b611f36611f318461184c565b611f18565b61184c565b9050919050565b5f819050919050565b611f5483611f21565b611f68611f6082611f42565b848454611ec7565b825550505050565b5f90565b611f7c611f70565b611f87818484611f4b565b505050565b5b81811015611faa57611f9f5f82611f74565b600181019050611f8d565b5050565b601f821115611fef57611fc081611e9a565b611fc984611eac565b81016020851015611fd8578190505b611fec611fe485611eac565b830182611f8c565b50505b505050565b5f82821c905092915050565b5f61200f5f1984600802611ff4565b1980831691505092915050565b5f6120278383612000565b9150826002028217905092915050565b612040826117c2565b67ffffffffffffffff81111561205957612058611a61565b5b6120638254611e02565b61206e828285611fae565b5f60209050601f83116001811461209f575f841561208d578287015190505b612097858261201c565b8655506120fe565b601f1984166120ad86611e9a565b5f5b828110156120d4578489015182556001820191506020850194506020810190506120af565b868310156120f157848901516120ed601f891682612000565b8355505b6001600288020188555050505b50505050505056fea2646970667358221220046431abb5c35658dcf453ff6a9fbc06e03fc6f24225598577f96d4aa605e18764736f6c63430008140033",
					"opcodes": "PUSH1 0x80 PUSH1 0x40 MSTORE CALLVALUE DUP1 ISZERO PUSH2 0xF JUMPI PUSH0 DUP1 REVERT JUMPDEST POP PUSH2 0x213C DUP1 PUSH2 0x1D PUSH0 CODECOPY PUSH0 RETURN INVALID PUSH1 0x80 PUSH1 0x40 MSTORE CALLVALUE DUP1 ISZERO PUSH2 0xF JUMPI PUSH0 DUP1 REVERT JUMPDEST POP PUSH1 0x4 CALLDATASIZE LT PUSH2 0x9C JUMPI PUSH0 CALLDATALOAD PUSH1 0xE0 SHR DUP1 PUSH4 0x90483125 GT PUSH2 0x64 JUMPI DUP1 PUSH4 0x90483125 EQ PUSH2 0x158 JUMPI DUP1 PUSH4 0xCD481E51 EQ PUSH2 0x188 JUMPI DUP1 PUSH4 0xE8A8DCCE EQ PUSH2 0x1B8 JUMPI DUP1 PUSH4 0xF4C1C17F EQ PUSH2 0x1D4 JUMPI DUP1 PUSH4 0xF9F6B49B EQ PUSH2 0x1F0 JUMPI PUSH2 0x9C JUMP JUMPDEST DUP1 PUSH4 0x18D3CE96 EQ PUSH2 0xA0 JUMPI DUP1 PUSH4 0x44C5BBF8 EQ PUSH2 0xBE JUMPI DUP1 PUSH4 0x7318DF8A EQ PUSH2 0xDA JUMPI DUP1 PUSH4 0x73AEF559 EQ PUSH2 0x10A JUMPI DUP1 PUSH4 0x862EA1BA EQ PUSH2 0x13A JUMPI JUMPDEST PUSH0 DUP1 REVERT JUMPDEST PUSH2 0xA8 PUSH2 0x220 JUMP JUMPDEST PUSH1 0x40 MLOAD PUSH2 0xB5 SWAP2 SWAP1 PUSH2 0x16A8 JUMP JUMPDEST PUSH1 0x40 MLOAD DUP1 SWAP2 SUB SWAP1 RETURN JUMPDEST PUSH2 0xD8 PUSH1 0x4 DUP1 CALLDATASIZE SUB DUP2 ADD SWAP1 PUSH2 0xD3 SWAP2 SWAP1 PUSH2 0x1726 JUMP JUMPDEST PUSH2 0x2AB JUMP JUMPDEST STOP JUMPDEST PUSH2 0xF4 PUSH1 0x4 DUP1 CALLDATASIZE SUB DUP2 ADD SWAP1 PUSH2 0xEF SWAP2 SWAP1 PUSH2 0x1764 JUMP JUMPDEST PUSH2 0x46D JUMP JUMPDEST PUSH1 0x40 MLOAD PUSH2 0x101 SWAP2 SWAP1 PUSH2 0x16A8 JUMP JUMPDEST PUSH1 0x40 MLOAD DUP1 SWAP2 SUB SWAP1 RETURN JUMPDEST PUSH2 0x124 PUSH1 0x4 DUP1 CALLDATASIZE SUB DUP2 ADD SWAP1 PUSH2 0x11F SWAP2 SWAP1 PUSH2 0x1764 JUMP JUMPDEST PUSH2 0x535 JUMP JUMPDEST PUSH1 0x40 MLOAD PUSH2 0x131 SWAP2 SWAP1 PUSH2 0x17A9 JUMP JUMPDEST PUSH1 0x40 MLOAD DUP1 SWAP2 SUB SWAP1 RETURN JUMPDEST PUSH2 0x142 PUSH2 0x8C9 JUMP JUMPDEST PUSH1 0x40 MLOAD PUSH2 0x14F SWAP2 SWAP1 PUSH2 0x16A8 JUMP JUMPDEST PUSH1 0x40 MLOAD DUP1 SWAP2 SUB SWAP1 RETURN JUMPDEST PUSH2 0x172 PUSH1 0x4 DUP1 CALLDATASIZE SUB DUP2 ADD SWAP1 PUSH2 0x16D SWAP2 SWAP1 PUSH2 0x1764 JUMP JUMPDEST PUSH2 0x954 JUMP JUMPDEST PUSH1 0x40 MLOAD PUSH2 0x17F SWAP2 SWAP1 PUSH2 0x1A39 JUMP JUMPDEST PUSH1 0x40 MLOAD DUP1 SWAP2 SUB SWAP1 RETURN JUMPDEST PUSH2 0x1A2 PUSH1 0x4 DUP1 CALLDATASIZE SUB DUP2 ADD SWAP1 PUSH2 0x19D SWAP2 SWAP1 PUSH2 0x1764 JUMP JUMPDEST PUSH2 0xC90 JUMP JUMPDEST PUSH1 0x40 MLOAD PUSH2 0x1AF SWAP2 SWAP1 PUSH2 0x1A39 JUMP JUMPDEST PUSH1 0x40 MLOAD DUP1 SWAP2 SUB SWAP1 RETURN JUMPDEST PUSH2 0x1D2 PUSH1 0x4 DUP1 CALLDATASIZE SUB DUP2 ADD SWAP1 PUSH2 0x1CD SWAP2 SWAP1 PUSH2 0x1C67 JUMP JUMPDEST PUSH2 0xFC7 JUMP JUMPDEST STOP JUMPDEST PUSH2 0x1EE PUSH1 0x4 DUP1 CALLDATASIZE SUB DUP2 ADD SWAP1 PUSH2 0x1E9 SWAP2 SWAP1 PUSH2 0x1D1F JUMP JUMPDEST PUSH2 0x122C JUMP JUMPDEST STOP JUMPDEST PUSH2 0x20A PUSH1 0x4 DUP1 CALLDATASIZE SUB DUP2 ADD SWAP1 PUSH2 0x205 SWAP2 SWAP1 PUSH2 0x1764 JUMP JUMPDEST PUSH2 0x13E3 JUMP JUMPDEST PUSH1 0x40 MLOAD PUSH2 0x217 SWAP2 SWAP1 PUSH2 0x17A9 JUMP JUMPDEST PUSH1 0x40 MLOAD DUP1 SWAP2 SUB SWAP1 RETURN JUMPDEST PUSH1 0x60 PUSH1 0x1 DUP1 SLOAD DUP1 PUSH1 0x20 MUL PUSH1 0x20 ADD PUSH1 0x40 MLOAD SWAP1 DUP2 ADD PUSH1 0x40 MSTORE DUP1 SWAP3 SWAP2 SWAP1 DUP2 DUP2 MSTORE PUSH1 0x20 ADD DUP3 DUP1 SLOAD DUP1 ISZERO PUSH2 0x2A1 JUMPI PUSH1 0x20 MUL DUP3 ADD SWAP2 SWAP1 PUSH0 MSTORE PUSH1 0x20 PUSH0 KECCAK256 SWAP1 JUMPDEST DUP2 PUSH0 SWAP1 SLOAD SWAP1 PUSH2 0x100 EXP SWAP1 DIV PUSH20 0xFFFFFFFFFFFFFFFFFFFFFFFFFFFFFFFFFFFFFFFF AND PUSH20 0xFFFFFFFFFFFFFFFFFFFFFFFFFFFFFFFFFFFFFFFF AND DUP2 MSTORE PUSH1 0x20 ADD SWAP1 PUSH1 0x1 ADD SWAP1 DUP1 DUP4 GT PUSH2 0x258 JUMPI JUMPDEST POP POP POP POP POP SWAP1 POP SWAP1 JUMP JUMPDEST PUSH0 PUSH20 0xFFFFFFFFFFFFFFFFFFFFFFFFFFFFFFFFFFFFFFFF AND PUSH0 DUP1 DUP5 PUSH20 0xFFFFFFFFFFFFFFFFFFFFFFFFFFFFFFFFFFFFFFFF AND PUSH20 0xFFFFFFFFFFFFFFFFFFFFFFFFFFFFFFFFFFFFFFFF AND DUP2 MSTORE PUSH1 0x20 ADD SWAP1 DUP2 MSTORE PUSH1 0x20 ADD PUSH0 KECCAK256 PUSH0 ADD PUSH0 SWAP1 SLOAD SWAP1 PUSH2 0x100 EXP SWAP1 DIV PUSH20 0xFFFFFFFFFFFFFFFFFFFFFFFFFFFFFFFFFFFFFFFF AND PUSH20 0xFFFFFFFFFFFFFFFFFFFFFFFFFFFFFFFFFFFFFFFF AND SUB PUSH2 0x376 JUMPI PUSH1 0x40 MLOAD PUSH32 0x8C379A000000000000000000000000000000000000000000000000000000000 DUP2 MSTORE PUSH1 0x4 ADD PUSH2 0x36D SWAP1 PUSH2 0x1DB7 JUMP JUMPDEST PUSH1 0x40 MLOAD DUP1 SWAP2 SUB SWAP1 REVERT JUMPDEST DUP1 PUSH0 DUP1 DUP5 PUSH20 0xFFFFFFFFFFFFFFFFFFFFFFFFFFFFFFFFFFFFFFFF AND PUSH20 0xFFFFFFFFFFFFFFFFFFFFFFFFFFFFFFFFFFFFFFFF AND DUP2 MSTORE PUSH1 0x20 ADD SWAP1 DUP2 MSTORE PUSH1 0x20 ADD PUSH0 KECCAK256 PUSH1 0x6 ADD PUSH0 PUSH2 0x100 EXP DUP2 SLOAD DUP2 PUSH1 0xFF MUL NOT AND SWAP1 DUP4 PUSH1 0x3 DUP2 GT ISZERO PUSH2 0x3D7 JUMPI PUSH2 0x3D6 PUSH2 0x191F JUMP JUMPDEST JUMPDEST MUL OR SWAP1 SSTORE POP PUSH1 0x1 PUSH1 0x3 DUP2 GT ISZERO PUSH2 0x3F0 JUMPI PUSH2 0x3EF PUSH2 0x191F JUMP JUMPDEST JUMPDEST DUP2 PUSH1 0x3 DUP2 GT ISZERO PUSH2 0x403 JUMPI PUSH2 0x402 PUSH2 0x191F JUMP JUMPDEST JUMPDEST SUB PUSH2 0x469 JUMPI PUSH1 0x2 DUP3 SWAP1 DUP1 PUSH1 0x1 DUP2 SLOAD ADD DUP1 DUP3 SSTORE DUP1 SWAP2 POP POP PUSH1 0x1 SWAP1 SUB SWAP1 PUSH0 MSTORE PUSH1 0x20 PUSH0 KECCAK256 ADD PUSH0 SWAP1 SWAP2 SWAP1 SWAP2 SWAP1 SWAP2 PUSH2 0x100 EXP DUP2 SLOAD DUP2 PUSH20 0xFFFFFFFFFFFFFFFFFFFFFFFFFFFFFFFFFFFFFFFF MUL NOT AND SWAP1 DUP4 PUSH20 0xFFFFFFFFFFFFFFFFFFFFFFFFFFFFFFFFFFFFFFFF AND MUL OR SWAP1 SSTORE POP JUMPDEST POP POP JUMP JUMPDEST PUSH1 0x60 PUSH1 0x4 PUSH0 DUP4 PUSH20 0xFFFFFFFFFFFFFFFFFFFFFFFFFFFFFFFFFFFFFFFF AND PUSH20 0xFFFFFFFFFFFFFFFFFFFFFFFFFFFFFFFFFFFFFFFF AND DUP2 MSTORE PUSH1 0x20 ADD SWAP1 DUP2 MSTORE PUSH1 0x20 ADD PUSH0 KECCAK256 DUP1 SLOAD DUP1 PUSH1 0x20 MUL PUSH1 0x20 ADD PUSH1 0x40 MLOAD SWAP1 DUP2 ADD PUSH1 0x40 MSTORE DUP1 SWAP3 SWAP2 SWAP1 DUP2 DUP2 MSTORE PUSH1 0x20 ADD DUP3 DUP1 SLOAD DUP1 ISZERO PUSH2 0x529 JUMPI PUSH1 0x20 MUL DUP3 ADD SWAP2 SWAP1 PUSH0 MSTORE PUSH1 0x20 PUSH0 KECCAK256 SWAP1 JUMPDEST DUP2 PUSH0 SWAP1 SLOAD SWAP1 PUSH2 0x100 EXP SWAP1 DIV PUSH20 0xFFFFFFFFFFFFFFFFFFFFFFFFFFFFFFFFFFFFFFFF AND PUSH20 0xFFFFFFFFFFFFFFFFFFFFFFFFFFFFFFFFFFFFFFFF AND DUP2 MSTORE PUSH1 0x20 ADD SWAP1 PUSH1 0x1 ADD SWAP1 DUP1 DUP4 GT PUSH2 0x4E0 JUMPI JUMPDEST POP POP POP POP POP SWAP1 POP SWAP2 SWAP1 POP JUMP JUMPDEST PUSH0 DUP1 PUSH0 DUP1 DUP5 PUSH20 0xFFFFFFFFFFFFFFFFFFFFFFFFFFFFFFFFFFFFFFFF AND PUSH20 0xFFFFFFFFFFFFFFFFFFFFFFFFFFFFFFFFFFFFFFFF AND DUP2 MSTORE PUSH1 0x20 ADD SWAP1 DUP2 MSTORE PUSH1 0x20 ADD PUSH0 KECCAK256 PUSH1 0x40 MLOAD DUP1 PUSH1 0xE0 ADD PUSH1 0x40 MSTORE SWAP1 DUP2 PUSH0 DUP3 ADD PUSH0 SWAP1 SLOAD SWAP1 PUSH2 0x100 EXP SWAP1 DIV PUSH20 0xFFFFFFFFFFFFFFFFFFFFFFFFFFFFFFFFFFFFFFFF AND PUSH20 0xFFFFFFFFFFFFFFFFFFFFFFFFFFFFFFFFFFFFFFFF AND PUSH20 0xFFFFFFFFFFFFFFFFFFFFFFFFFFFFFFFFFFFFFFFF AND DUP2 MSTORE PUSH1 0x20 ADD PUSH1 0x1 DUP3 ADD DUP1 SLOAD PUSH2 0x5E2 SWAP1 PUSH2 0x1E02 JUMP JUMPDEST DUP1 PUSH1 0x1F ADD PUSH1 0x20 DUP1 SWAP2 DIV MUL PUSH1 0x20 ADD PUSH1 0x40 MLOAD SWAP1 DUP2 ADD PUSH1 0x40 MSTORE DUP1 SWAP3 SWAP2 SWAP1 DUP2 DUP2 MSTORE PUSH1 0x20 ADD DUP3 DUP1 SLOAD PUSH2 0x60E SWAP1 PUSH2 0x1E02 JUMP JUMPDEST DUP1 ISZERO PUSH2 0x659 JUMPI DUP1 PUSH1 0x1F LT PUSH2 0x630 JUMPI PUSH2 0x100 DUP1 DUP4 SLOAD DIV MUL DUP4 MSTORE SWAP2 PUSH1 0x20 ADD SWAP2 PUSH2 0x659 JUMP JUMPDEST DUP3 ADD SWAP2 SWAP1 PUSH0 MSTORE PUSH1 0x20 PUSH0 KECCAK256 SWAP1 JUMPDEST DUP2 SLOAD DUP2 MSTORE SWAP1 PUSH1 0x1 ADD SWAP1 PUSH1 0x20 ADD DUP1 DUP4 GT PUSH2 0x63C JUMPI DUP3 SWAP1 SUB PUSH1 0x1F AND DUP3 ADD SWAP2 JUMPDEST POP POP POP POP POP DUP2 MSTORE PUSH1 0x20 ADD PUSH1 0x2 DUP3 ADD DUP1 SLOAD PUSH2 0x672 SWAP1 PUSH2 0x1E02 JUMP JUMPDEST DUP1 PUSH1 0x1F ADD PUSH1 0x20 DUP1 SWAP2 DIV MUL PUSH1 0x20 ADD PUSH1 0x40 MLOAD SWAP1 DUP2 ADD PUSH1 0x40 MSTORE DUP1 SWAP3 SWAP2 SWAP1 DUP2 DUP2 MSTORE PUSH1 0x20 ADD DUP3 DUP1 SLOAD PUSH2 0x69E SWAP1 PUSH2 0x1E02 JUMP JUMPDEST DUP1 ISZERO PUSH2 0x6E9 JUMPI DUP1 PUSH1 0x1F LT PUSH2 0x6C0 JUMPI PUSH2 0x100 DUP1 DUP4 SLOAD DIV MUL DUP4 MSTORE SWAP2 PUSH1 0x20 ADD SWAP2 PUSH2 0x6E9 JUMP JUMPDEST DUP3 ADD SWAP2 SWAP1 PUSH0 MSTORE PUSH1 0x20 PUSH0 KECCAK256 SWAP1 JUMPDEST DUP2 SLOAD DUP2 MSTORE SWAP1 PUSH1 0x1 ADD SWAP1 PUSH1 0x20 ADD DUP1 DUP4 GT PUSH2 0x6CC JUMPI DUP3 SWAP1 SUB PUSH1 0x1F AND DUP3 ADD SWAP2 JUMPDEST POP POP POP POP POP DUP2 MSTORE PUSH1 0x20 ADD PUSH1 0x3 DUP3 ADD PUSH0 SWAP1 SLOAD SWAP1 PUSH2 0x100 EXP SWAP1 DIV PUSH20 0xFFFFFFFFFFFFFFFFFFFFFFFFFFFFFFFFFFFFFFFF AND PUSH20 0xFFFFFFFFFFFFFFFFFFFFFFFFFFFFFFFFFFFFFFFF AND PUSH20 0xFFFFFFFFFFFFFFFFFFFFFFFFFFFFFFFFFFFFFFFF AND DUP2 MSTORE PUSH1 0x20 ADD PUSH1 0x4 DUP3 ADD SLOAD DUP2 MSTORE PUSH1 0x20 ADD PUSH1 0x5 DUP3 ADD DUP1 SLOAD DUP1 PUSH1 0x20 MUL PUSH1 0x20 ADD PUSH1 0x40 MLOAD SWAP1 DUP2 ADD PUSH1 0x40 MSTORE DUP1 SWAP3 SWAP2 SWAP1 DUP2 DUP2 MSTORE PUSH1 0x20 ADD PUSH0 SWAP1 JUMPDEST DUP3 DUP3 LT ISZERO PUSH2 0x81D JUMPI DUP4 DUP3 SWAP1 PUSH0 MSTORE PUSH1 0x20 PUSH0 KECCAK256 ADD DUP1 SLOAD PUSH2 0x792 SWAP1 PUSH2 0x1E02 JUMP JUMPDEST DUP1 PUSH1 0x1F ADD PUSH1 0x20 DUP1 SWAP2 DIV MUL PUSH1 0x20 ADD PUSH1 0x40 MLOAD SWAP1 DUP2 ADD PUSH1 0x40 MSTORE DUP1 SWAP3 SWAP2 SWAP1 DUP2 DUP2 MSTORE PUSH1 0x20 ADD DUP3 DUP1 SLOAD PUSH2 0x7BE SWAP1 PUSH2 0x1E02 JUMP JUMPDEST DUP1 ISZERO PUSH2 0x809 JUMPI DUP1 PUSH1 0x1F LT PUSH2 0x7E0 JUMPI PUSH2 0x100 DUP1 DUP4 SLOAD DIV MUL DUP4 MSTORE SWAP2 PUSH1 0x20 ADD SWAP2 PUSH2 0x809 JUMP JUMPDEST DUP3 ADD SWAP2 SWAP1 PUSH0 MSTORE PUSH1 0x20 PUSH0 KECCAK256 SWAP1 JUMPDEST DUP2 SLOAD DUP2 MSTORE SWAP1 PUSH1 0x1 ADD SWAP1 PUSH1 0x20 ADD DUP1 DUP4 GT PUSH2 0x7EC JUMPI DUP3 SWAP1 SUB PUSH1 0x1F AND DUP3 ADD SWAP2 JUMPDEST POP POP POP POP POP DUP2 MSTORE PUSH1 0x20 ADD SWAP1 PUSH1 0x1 ADD SWAP1 PUSH2 0x775 JUMP JUMPDEST POP POP POP POP DUP2 MSTORE PUSH1 0x20 ADD PUSH1 0x6 DUP3 ADD PUSH0 SWAP1 SLOAD SWAP1 PUSH2 0x100 EXP SWAP1 DIV PUSH1 0xFF AND PUSH1 0x3 DUP2 GT ISZERO PUSH2 0x849 JUMPI PUSH2 0x848 PUSH2 0x191F JUMP JUMPDEST JUMPDEST PUSH1 0x3 DUP2 GT ISZERO PUSH2 0x85B JUMPI PUSH2 0x85A PUSH2 0x191F JUMP JUMPDEST JUMPDEST DUP2 MSTORE POP POP SWAP1 POP PUSH1 0x1 PUSH1 0x3 DUP2 GT ISZERO PUSH2 0x875 JUMPI PUSH2 0x874 PUSH2 0x191F JUMP JUMPDEST JUMPDEST DUP2 PUSH1 0xC0 ADD MLOAD PUSH1 0x3 DUP2 GT ISZERO PUSH2 0x88C JUMPI PUSH2 0x88B PUSH2 0x191F JUMP JUMPDEST JUMPDEST EQ DUP1 ISZERO PUSH2 0x8C1 JUMPI POP PUSH1 0x3 DUP1 DUP2 GT ISZERO PUSH2 0x8A7 JUMPI PUSH2 0x8A6 PUSH2 0x191F JUMP JUMPDEST JUMPDEST DUP2 PUSH1 0xC0 ADD MLOAD PUSH1 0x3 DUP2 GT ISZERO PUSH2 0x8BE JUMPI PUSH2 0x8BD PUSH2 0x191F JUMP JUMPDEST JUMPDEST EQ ISZERO JUMPDEST SWAP2 POP POP SWAP2 SWAP1 POP JUMP JUMPDEST PUSH1 0x60 PUSH1 0x2 DUP1 SLOAD DUP1 PUSH1 0x20 MUL PUSH1 0x20 ADD PUSH1 0x40 MLOAD SWAP1 DUP2 ADD PUSH1 0x40 MSTORE DUP1 SWAP3 SWAP2 SWAP1 DUP2 DUP2 MSTORE PUSH1 0x20 ADD DUP3 DUP1 SLOAD DUP1 ISZERO PUSH2 0x94A JUMPI PUSH1 0x20 MUL DUP3 ADD SWAP2 SWAP1 PUSH0 MSTORE PUSH1 0x20 PUSH0 KECCAK256 SWAP1 JUMPDEST DUP2 PUSH0 SWAP1 SLOAD SWAP1 PUSH2 0x100 EXP SWAP1 DIV PUSH20 0xFFFFFFFFFFFFFFFFFFFFFFFFFFFFFFFFFFFFFFFF AND PUSH20 0xFFFFFFFFFFFFFFFFFFFFFFFFFFFFFFFFFFFFFFFF AND DUP2 MSTORE PUSH1 0x20 ADD SWAP1 PUSH1 0x1 ADD SWAP1 DUP1 DUP4 GT PUSH2 0x901 JUMPI JUMPDEST POP POP POP POP POP SWAP1 POP SWAP1 JUMP JUMPDEST PUSH2 0x95C PUSH2 0x1478 JUMP JUMPDEST PUSH0 DUP1 PUSH0 DUP5 PUSH20 0xFFFFFFFFFFFFFFFFFFFFFFFFFFFFFFFFFFFFFFFF AND PUSH20 0xFFFFFFFFFFFFFFFFFFFFFFFFFFFFFFFFFFFFFFFF AND DUP2 MSTORE PUSH1 0x20 ADD SWAP1 DUP2 MSTORE PUSH1 0x20 ADD PUSH0 KECCAK256 PUSH1 0x40 MLOAD DUP1 PUSH1 0xE0 ADD PUSH1 0x40 MSTORE SWAP1 DUP2 PUSH0 DUP3 ADD PUSH0 SWAP1 SLOAD SWAP1 PUSH2 0x100 EXP SWAP1 DIV PUSH20 0xFFFFFFFFFFFFFFFFFFFFFFFFFFFFFFFFFFFFFFFF AND PUSH20 0xFFFFFFFFFFFFFFFFFFFFFFFFFFFFFFFFFFFFFFFF AND PUSH20 0xFFFFFFFFFFFFFFFFFFFFFFFFFFFFFFFFFFFFFFFF AND DUP2 MSTORE PUSH1 0x20 ADD PUSH1 0x1 DUP3 ADD DUP1 SLOAD PUSH2 0xA08 SWAP1 PUSH2 0x1E02 JUMP JUMPDEST DUP1 PUSH1 0x1F ADD PUSH1 0x20 DUP1 SWAP2 DIV MUL PUSH1 0x20 ADD PUSH1 0x40 MLOAD SWAP1 DUP2 ADD PUSH1 0x40 MSTORE DUP1 SWAP3 SWAP2 SWAP1 DUP2 DUP2 MSTORE PUSH1 0x20 ADD DUP3 DUP1 SLOAD PUSH2 0xA34 SWAP1 PUSH2 0x1E02 JUMP JUMPDEST DUP1 ISZERO PUSH2 0xA7F JUMPI DUP1 PUSH1 0x1F LT PUSH2 0xA56 JUMPI PUSH2 0x100 DUP1 DUP4 SLOAD DIV MUL DUP4 MSTORE SWAP2 PUSH1 0x20 ADD SWAP2 PUSH2 0xA7F JUMP JUMPDEST DUP3 ADD SWAP2 SWAP1 PUSH0 MSTORE PUSH1 0x20 PUSH0 KECCAK256 SWAP1 JUMPDEST DUP2 SLOAD DUP2 MSTORE SWAP1 PUSH1 0x1 ADD SWAP1 PUSH1 0x20 ADD DUP1 DUP4 GT PUSH2 0xA62 JUMPI DUP3 SWAP1 SUB PUSH1 0x1F AND DUP3 ADD SWAP2 JUMPDEST POP POP POP POP POP DUP2 MSTORE PUSH1 0x20 ADD PUSH1 0x2 DUP3 ADD DUP1 SLOAD PUSH2 0xA98 SWAP1 PUSH2 0x1E02 JUMP JUMPDEST DUP1 PUSH1 0x1F ADD PUSH1 0x20 DUP1 SWAP2 DIV MUL PUSH1 0x20 ADD PUSH1 0x40 MLOAD SWAP1 DUP2 ADD PUSH1 0x40 MSTORE DUP1 SWAP3 SWAP2 SWAP1 DUP2 DUP2 MSTORE PUSH1 0x20 ADD DUP3 DUP1 SLOAD PUSH2 0xAC4 SWAP1 PUSH2 0x1E02 JUMP JUMPDEST DUP1 ISZERO PUSH2 0xB0F JUMPI DUP1 PUSH1 0x1F LT PUSH2 0xAE6 JUMPI PUSH2 0x100 DUP1 DUP4 SLOAD DIV MUL DUP4 MSTORE SWAP2 PUSH1 0x20 ADD SWAP2 PUSH2 0xB0F JUMP JUMPDEST DUP3 ADD SWAP2 SWAP1 PUSH0 MSTORE PUSH1 0x20 PUSH0 KECCAK256 SWAP1 JUMPDEST DUP2 SLOAD DUP2 MSTORE SWAP1 PUSH1 0x1 ADD SWAP1 PUSH1 0x20 ADD DUP1 DUP4 GT PUSH2 0xAF2 JUMPI DUP3 SWAP1 SUB PUSH1 0x1F AND DUP3 ADD SWAP2 JUMPDEST POP POP POP POP POP DUP2 MSTORE PUSH1 0x20 ADD PUSH1 0x3 DUP3 ADD PUSH0 SWAP1 SLOAD SWAP1 PUSH2 0x100 EXP SWAP1 DIV PUSH20 0xFFFFFFFFFFFFFFFFFFFFFFFFFFFFFFFFFFFFFFFF AND PUSH20 0xFFFFFFFFFFFFFFFFFFFFFFFFFFFFFFFFFFFFFFFF AND PUSH20 0xFFFFFFFFFFFFFFFFFFFFFFFFFFFFFFFFFFFFFFFF AND DUP2 MSTORE PUSH1 0x20 ADD PUSH1 0x4 DUP3 ADD SLOAD DUP2 MSTORE PUSH1 0x20 ADD PUSH1 0x5 DUP3 ADD DUP1 SLOAD DUP1 PUSH1 0x20 MUL PUSH1 0x20 ADD PUSH1 0x40 MLOAD SWAP1 DUP2 ADD PUSH1 0x40 MSTORE DUP1 SWAP3 SWAP2 SWAP1 DUP2 DUP2 MSTORE PUSH1 0x20 ADD PUSH0 SWAP1 JUMPDEST DUP3 DUP3 LT ISZERO PUSH2 0xC43 JUMPI DUP4 DUP3 SWAP1 PUSH0 MSTORE PUSH1 0x20 PUSH0 KECCAK256 ADD DUP1 SLOAD PUSH2 0xBB8 SWAP1 PUSH2 0x1E02 JUMP JUMPDEST DUP1 PUSH1 0x1F ADD PUSH1 0x20 DUP1 SWAP2 DIV MUL PUSH1 0x20 ADD PUSH1 0x40 MLOAD SWAP1 DUP2 ADD PUSH1 0x40 MSTORE DUP1 SWAP3 SWAP2 SWAP1 DUP2 DUP2 MSTORE PUSH1 0x20 ADD DUP3 DUP1 SLOAD PUSH2 0xBE4 SWAP1 PUSH2 0x1E02 JUMP JUMPDEST DUP1 ISZERO PUSH2 0xC2F JUMPI DUP1 PUSH1 0x1F LT PUSH2 0xC06 JUMPI PUSH2 0x100 DUP1 DUP4 SLOAD DIV MUL DUP4 MSTORE SWAP2 PUSH1 0x20 ADD SWAP2 PUSH2 0xC2F JUMP JUMPDEST DUP3 ADD SWAP2 SWAP1 PUSH0 MSTORE PUSH1 0x20 PUSH0 KECCAK256 SWAP1 JUMPDEST DUP2 SLOAD DUP2 MSTORE SWAP1 PUSH1 0x1 ADD SWAP1 PUSH1 0x20 ADD DUP1 DUP4 GT PUSH2 0xC12 JUMPI DUP3 SWAP1 SUB PUSH1 0x1F AND DUP3 ADD SWAP2 JUMPDEST POP POP POP POP POP DUP2 MSTORE PUSH1 0x20 ADD SWAP1 PUSH1 0x1 ADD SWAP1 PUSH2 0xB9B JUMP JUMPDEST POP POP POP POP DUP2 MSTORE PUSH1 0x20 ADD PUSH1 0x6 DUP3 ADD PUSH0 SWAP1 SLOAD SWAP1 PUSH2 0x100 EXP SWAP1 DIV PUSH1 0xFF AND PUSH1 0x3 DUP2 GT ISZERO PUSH2 0xC6F JUMPI PUSH2 0xC6E PUSH2 0x191F JUMP JUMPDEST JUMPDEST PUSH1 0x3 DUP2 GT ISZERO PUSH2 0xC81 JUMPI PUSH2 0xC80 PUSH2 0x191F JUMP JUMPDEST JUMPDEST DUP2 MSTORE POP POP SWAP1 POP DUP1 SWAP2 POP POP SWAP2 SWAP1 POP JUMP JUMPDEST PUSH2 0xC98 PUSH2 0x1478 JUMP JUMPDEST PUSH0 DUP1 DUP4 PUSH20 0xFFFFFFFFFFFFFFFFFFFFFFFFFFFFFFFFFFFFFFFF AND PUSH20 0xFFFFFFFFFFFFFFFFFFFFFFFFFFFFFFFFFFFFFFFF AND DUP2 MSTORE PUSH1 0x20 ADD SWAP1 DUP2 MSTORE PUSH1 0x20 ADD PUSH0 KECCAK256 PUSH1 0x40 MLOAD DUP1 PUSH1 0xE0 ADD PUSH1 0x40 MSTORE SWAP1 DUP2 PUSH0 DUP3 ADD PUSH0 SWAP1 SLOAD SWAP1 PUSH2 0x100 EXP SWAP1 DIV PUSH20 0xFFFFFFFFFFFFFFFFFFFFFFFFFFFFFFFFFFFFFFFF AND PUSH20 0xFFFFFFFFFFFFFFFFFFFFFFFFFFFFFFFFFFFFFFFF AND PUSH20 0xFFFFFFFFFFFFFFFFFFFFFFFFFFFFFFFFFFFFFFFF AND DUP2 MSTORE PUSH1 0x20 ADD PUSH1 0x1 DUP3 ADD DUP1 SLOAD PUSH2 0xD43 SWAP1 PUSH2 0x1E02 JUMP JUMPDEST DUP1 PUSH1 0x1F ADD PUSH1 0x20 DUP1 SWAP2 DIV MUL PUSH1 0x20 ADD PUSH1 0x40 MLOAD SWAP1 DUP2 ADD PUSH1 0x40 MSTORE DUP1 SWAP3 SWAP2 SWAP1 DUP2 DUP2 MSTORE PUSH1 0x20 ADD DUP3 DUP1 SLOAD PUSH2 0xD6F SWAP1 PUSH2 0x1E02 JUMP JUMPDEST DUP1 ISZERO PUSH2 0xDBA JUMPI DUP1 PUSH1 0x1F LT PUSH2 0xD91 JUMPI PUSH2 0x100 DUP1 DUP4 SLOAD DIV MUL DUP4 MSTORE SWAP2 PUSH1 0x20 ADD SWAP2 PUSH2 0xDBA JUMP JUMPDEST DUP3 ADD SWAP2 SWAP1 PUSH0 MSTORE PUSH1 0x20 PUSH0 KECCAK256 SWAP1 JUMPDEST DUP2 SLOAD DUP2 MSTORE SWAP1 PUSH1 0x1 ADD SWAP1 PUSH1 0x20 ADD DUP1 DUP4 GT PUSH2 0xD9D JUMPI DUP3 SWAP1 SUB PUSH1 0x1F AND DUP3 ADD SWAP2 JUMPDEST POP POP POP POP POP DUP2 MSTORE PUSH1 0x20 ADD PUSH1 0x2 DUP3 ADD DUP1 SLOAD PUSH2 0xDD3 SWAP1 PUSH2 0x1E02 JUMP JUMPDEST DUP1 PUSH1 0x1F ADD PUSH1 0x20 DUP1 SWAP2 DIV MUL PUSH1 0x20 ADD PUSH1 0x40 MLOAD SWAP1 DUP2 ADD PUSH1 0x40 MSTORE DUP1 SWAP3 SWAP2 SWAP1 DUP2 DUP2 MSTORE PUSH1 0x20 ADD DUP3 DUP1 SLOAD PUSH2 0xDFF SWAP1 PUSH2 0x1E02 JUMP JUMPDEST DUP1 ISZERO PUSH2 0xE4A JUMPI DUP1 PUSH1 0x1F LT PUSH2 0xE21 JUMPI PUSH2 0x100 DUP1 DUP4 SLOAD DIV MUL DUP4 MSTORE SWAP2 PUSH1 0x20 ADD SWAP2 PUSH2 0xE4A JUMP JUMPDEST DUP3 ADD SWAP2 SWAP1 PUSH0 MSTORE PUSH1 0x20 PUSH0 KECCAK256 SWAP1 JUMPDEST DUP2 SLOAD DUP2 MSTORE SWAP1 PUSH1 0x1 ADD SWAP1 PUSH1 0x20 ADD DUP1 DUP4 GT PUSH2 0xE2D JUMPI DUP3 SWAP1 SUB PUSH1 0x1F AND DUP3 ADD SWAP2 JUMPDEST POP POP POP POP POP DUP2 MSTORE PUSH1 0x20 ADD PUSH1 0x3 DUP3 ADD PUSH0 SWAP1 SLOAD SWAP1 PUSH2 0x100 EXP SWAP1 DIV PUSH20 0xFFFFFFFFFFFFFFFFFFFFFFFFFFFFFFFFFFFFFFFF AND PUSH20 0xFFFFFFFFFFFFFFFFFFFFFFFFFFFFFFFFFFFFFFFF AND PUSH20 0xFFFFFFFFFFFFFFFFFFFFFFFFFFFFFFFFFFFFFFFF AND DUP2 MSTORE PUSH1 0x20 ADD PUSH1 0x4 DUP3 ADD SLOAD DUP2 MSTORE PUSH1 0x20 ADD PUSH1 0x5 DUP3 ADD DUP1 SLOAD DUP1 PUSH1 0x20 MUL PUSH1 0x20 ADD PUSH1 0x40 MLOAD SWAP1 DUP2 ADD PUSH1 0x40 MSTORE DUP1 SWAP3 SWAP2 SWAP1 DUP2 DUP2 MSTORE PUSH1 0x20 ADD PUSH0 SWAP1 JUMPDEST DUP3 DUP3 LT ISZERO PUSH2 0xF7E JUMPI DUP4 DUP3 SWAP1 PUSH0 MSTORE PUSH1 0x20 PUSH0 KECCAK256 ADD DUP1 SLOAD PUSH2 0xEF3 SWAP1 PUSH2 0x1E02 JUMP JUMPDEST DUP1 PUSH1 0x1F ADD PUSH1 0x20 DUP1 SWAP2 DIV MUL PUSH1 0x20 ADD PUSH1 0x40 MLOAD SWAP1 DUP2 ADD PUSH1 0x40 MSTORE DUP1 SWAP3 SWAP2 SWAP1 DUP2 DUP2 MSTORE PUSH1 0x20 ADD DUP3 DUP1 SLOAD PUSH2 0xF1F SWAP1 PUSH2 0x1E02 JUMP JUMPDEST DUP1 ISZERO PUSH2 0xF6A JUMPI DUP1 PUSH1 0x1F LT PUSH2 0xF41 JUMPI PUSH2 0x100 DUP1 DUP4 SLOAD DIV MUL DUP4 MSTORE SWAP2 PUSH1 0x20 ADD SWAP2 PUSH2 0xF6A JUMP JUMPDEST DUP3 ADD SWAP2 SWAP1 PUSH0 MSTORE PUSH1 0x20 PUSH0 KECCAK256 SWAP1 JUMPDEST DUP2 SLOAD DUP2 MSTORE SWAP1 PUSH1 0x1 ADD SWAP1 PUSH1 0x20 ADD DUP1 DUP4 GT PUSH2 0xF4D JUMPI DUP3 SWAP1 SUB PUSH1 0x1F AND DUP3 ADD SWAP2 JUMPDEST POP POP POP POP POP DUP2 MSTORE PUSH1 0x20 ADD SWAP1 PUSH1 0x1 ADD SWAP1 PUSH2 0xED6 JUMP JUMPDEST POP POP POP POP DUP2 MSTORE PUSH1 0x20 ADD PUSH1 0x6 DUP3 ADD PUSH0 SWAP1 SLOAD SWAP1 PUSH2 0x100 EXP SWAP1 DIV PUSH1 0xFF AND PUSH1 0x3 DUP2 GT ISZERO PUSH2 0xFAA JUMPI PUSH2 0xFA9 PUSH2 0x191F JUMP JUMPDEST JUMPDEST PUSH1 0x3 DUP2 GT ISZERO PUSH2 0xFBC JUMPI PUSH2 0xFBB PUSH2 0x191F JUMP JUMPDEST JUMPDEST DUP2 MSTORE POP POP SWAP1 POP SWAP2 SWAP1 POP JUMP JUMPDEST PUSH0 PUSH20 0xFFFFFFFFFFFFFFFFFFFFFFFFFFFFFFFFFFFFFFFF AND PUSH0 DUP1 DUP7 PUSH20 0xFFFFFFFFFFFFFFFFFFFFFFFFFFFFFFFFFFFFFFFF AND PUSH20 0xFFFFFFFFFFFFFFFFFFFFFFFFFFFFFFFFFFFFFFFF AND DUP2 MSTORE PUSH1 0x20 ADD SWAP1 DUP2 MSTORE PUSH1 0x20 ADD PUSH0 KECCAK256 PUSH0 ADD PUSH0 SWAP1 SLOAD SWAP1 PUSH2 0x100 EXP SWAP1 DIV PUSH20 0xFFFFFFFFFFFFFFFFFFFFFFFFFFFFFFFFFFFFFFFF AND PUSH20 0xFFFFFFFFFFFFFFFFFFFFFFFFFFFFFFFFFFFFFFFF AND EQ PUSH2 0x1092 JUMPI PUSH1 0x40 MLOAD PUSH32 0x8C379A000000000000000000000000000000000000000000000000000000000 DUP2 MSTORE PUSH1 0x4 ADD PUSH2 0x1089 SWAP1 PUSH2 0x1E7C JUMP JUMPDEST PUSH1 0x40 MLOAD DUP1 SWAP2 SUB SWAP1 REVERT JUMPDEST PUSH0 DUP1 PUSH0 DUP7 PUSH20 0xFFFFFFFFFFFFFFFFFFFFFFFFFFFFFFFFFFFFFFFF AND PUSH20 0xFFFFFFFFFFFFFFFFFFFFFFFFFFFFFFFFFFFFFFFF AND DUP2 MSTORE PUSH1 0x20 ADD SWAP1 DUP2 MSTORE PUSH1 0x20 ADD PUSH0 KECCAK256 SWAP1 POP DUP5 DUP2 PUSH0 ADD PUSH0 PUSH2 0x100 EXP DUP2 SLOAD DUP2 PUSH20 0xFFFFFFFFFFFFFFFFFFFFFFFFFFFFFFFFFFFFFFFF MUL NOT AND SWAP1 DUP4 PUSH20 0xFFFFFFFFFFFFFFFFFFFFFFFFFFFFFFFFFFFFFFFF AND MUL OR SWAP1 SSTORE POP DUP4 DUP2 PUSH1 0x1 ADD SWAP1 DUP2 PUSH2 0x1123 SWAP2 SWAP1 PUSH2 0x2037 JUMP JUMPDEST POP DUP3 DUP2 PUSH1 0x2 ADD SWAP1 DUP2 PUSH2 0x1135 SWAP2 SWAP1 PUSH2 0x2037 JUMP JUMPDEST POP CALLER DUP2 PUSH1 0x3 ADD PUSH0 PUSH2 0x100 EXP DUP2 SLOAD DUP2 PUSH20 0xFFFFFFFFFFFFFFFFFFFFFFFFFFFFFFFFFFFFFFFF MUL NOT AND SWAP1 DUP4 PUSH20 0xFFFFFFFFFFFFFFFFFFFFFFFFFFFFFFFFFFFFFFFF AND MUL OR SWAP1 SSTORE POP TIMESTAMP DUP2 PUSH1 0x4 ADD DUP2 SWAP1 SSTORE POP DUP2 DUP2 PUSH1 0x5 ADD SWAP1 DUP1 MLOAD SWAP1 PUSH1 0x20 ADD SWAP1 PUSH2 0x1199 SWAP3 SWAP2 SWAP1 PUSH2 0x14EF JUMP JUMPDEST POP PUSH0 DUP2 PUSH1 0x6 ADD PUSH0 PUSH2 0x100 EXP DUP2 SLOAD DUP2 PUSH1 0xFF MUL NOT AND SWAP1 DUP4 PUSH1 0x3 DUP2 GT ISZERO PUSH2 0x11C0 JUMPI PUSH2 0x11BF PUSH2 0x191F JUMP JUMPDEST JUMPDEST MUL OR SWAP1 SSTORE POP PUSH1 0x1 DUP6 SWAP1 DUP1 PUSH1 0x1 DUP2 SLOAD ADD DUP1 DUP3 SSTORE DUP1 SWAP2 POP POP PUSH1 0x1 SWAP1 SUB SWAP1 PUSH0 MSTORE PUSH1 0x20 PUSH0 KECCAK256 ADD PUSH0 SWAP1 SWAP2 SWAP1 SWAP2 SWAP1 SWAP2 PUSH2 0x100 EXP DUP2 SLOAD DUP2 PUSH20 0xFFFFFFFFFFFFFFFFFFFFFFFFFFFFFFFFFFFFFFFF MUL NOT AND SWAP1 DUP4 PUSH20 0xFFFFFFFFFFFFFFFFFFFFFFFFFFFFFFFFFFFFFFFF AND MUL OR SWAP1 SSTORE POP POP POP POP POP POP JUMP JUMPDEST PUSH0 ISZERO ISZERO PUSH1 0x3 PUSH0 DUP5 PUSH20 0xFFFFFFFFFFFFFFFFFFFFFFFFFFFFFFFFFFFFFFFF AND PUSH20 0xFFFFFFFFFFFFFFFFFFFFFFFFFFFFFFFFFFFFFFFF AND DUP2 MSTORE PUSH1 0x20 ADD SWAP1 DUP2 MSTORE PUSH1 0x20 ADD PUSH0 KECCAK256 PUSH0 DUP4 PUSH20 0xFFFFFFFFFFFFFFFFFFFFFFFFFFFFFFFFFFFFFFFF AND PUSH20 0xFFFFFFFFFFFFFFFFFFFFFFFFFFFFFFFFFFFFFFFF AND DUP2 MSTORE PUSH1 0x20 ADD SWAP1 DUP2 MSTORE PUSH1 0x20 ADD PUSH0 KECCAK256 PUSH0 SWAP1 SLOAD SWAP1 PUSH2 0x100 EXP SWAP1 DIV PUSH1 0xFF AND ISZERO ISZERO SUB PUSH2 0x13DF JUMPI PUSH1 0x4 PUSH0 DUP4 PUSH20 0xFFFFFFFFFFFFFFFFFFFFFFFFFFFFFFFFFFFFFFFF AND PUSH20 0xFFFFFFFFFFFFFFFFFFFFFFFFFFFFFFFFFFFFFFFF AND DUP2 MSTORE PUSH1 0x20 ADD SWAP1 DUP2 MSTORE PUSH1 0x20 ADD PUSH0 KECCAK256 DUP2 SWAP1 DUP1 PUSH1 0x1 DUP2 SLOAD ADD DUP1 DUP3 SSTORE DUP1 SWAP2 POP POP PUSH1 0x1 SWAP1 SUB SWAP1 PUSH0 MSTORE PUSH1 0x20 PUSH0 KECCAK256 ADD PUSH0 SWAP1 SWAP2 SWAP1 SWAP2 SWAP1 SWAP2 PUSH2 0x100 EXP DUP2 SLOAD DUP2 PUSH20 0xFFFFFFFFFFFFFFFFFFFFFFFFFFFFFFFFFFFFFFFF MUL NOT AND SWAP1 DUP4 PUSH20 0xFFFFFFFFFFFFFFFFFFFFFFFFFFFFFFFFFFFFFFFF AND MUL OR SWAP1 SSTORE POP PUSH1 0x1 ISZERO ISZERO PUSH1 0x3 PUSH0 DUP5 PUSH20 0xFFFFFFFFFFFFFFFFFFFFFFFFFFFFFFFFFFFFFFFF AND PUSH20 0xFFFFFFFFFFFFFFFFFFFFFFFFFFFFFFFFFFFFFFFF AND DUP2 MSTORE PUSH1 0x20 ADD SWAP1 DUP2 MSTORE PUSH1 0x20 ADD PUSH0 KECCAK256 PUSH0 DUP4 PUSH20 0xFFFFFFFFFFFFFFFFFFFFFFFFFFFFFFFFFFFFFFFF AND PUSH20 0xFFFFFFFFFFFFFFFFFFFFFFFFFFFFFFFFFFFFFFFF AND DUP2 MSTORE PUSH1 0x20 ADD SWAP1 DUP2 MSTORE PUSH1 0x20 ADD PUSH0 KECCAK256 PUSH0 SWAP1 SLOAD SWAP1 PUSH2 0x100 EXP SWAP1 POP POP POP JUMPDEST POP POP JUMP JUMPDEST PUSH0 DUP1 PUSH20 0xFFFFFFFFFFFFFFFFFFFFFFFFFFFFFFFFFFFFFFFF AND PUSH0 DUP1 DUP5 PUSH20 0xFFFFFFFFFFFFFFFFFFFFFFFFFFFFFFFFFFFFFFFF AND PUSH20 0xFFFFFFFFFFFFFFFFFFFFFFFFFFFFFFFFFFFFFFFF AND DUP2 MSTORE PUSH1 0x20 ADD SWAP1 DUP2 MSTORE PUSH1 0x20 ADD PUSH0 KECCAK256 PUSH0 ADD PUSH0 SWAP1 SLOAD SWAP1 PUSH2 0x100 EXP SWAP1 DIV PUSH20 0xFFFFFFFFFFFFFFFFFFFFFFFFFFFFFFFFFFFFFFFF AND PUSH20 0xFFFFFFFFFFFFFFFFFFFFFFFFFFFFFFFFFFFFFFFF AND EQ ISZERO SWAP1 POP SWAP2 SWAP1 POP JUMP JUMPDEST PUSH1 0x40 MLOAD DUP1 PUSH1 0xE0 ADD PUSH1 0x40 MSTORE DUP1 PUSH0 PUSH20 0xFFFFFFFFFFFFFFFFFFFFFFFFFFFFFFFFFFFFFFFF AND DUP2 MSTORE PUSH1 0x20 ADD PUSH1 0x60 DUP2 MSTORE PUSH1 0x20 ADD PUSH1 0x60 DUP2 MSTORE PUSH1 0x20 ADD PUSH0 PUSH20 0xFFFFFFFFFFFFFFFFFFFFFFFFFFFFFFFFFFFFFFFF AND DUP2 MSTORE PUSH1 0x20 ADD PUSH0 DUP2 MSTORE PUSH1 0x20 ADD PUSH1 0x60 DUP2 MSTORE PUSH1 0x20 ADD PUSH0 PUSH1 0x3 DUP2 GT ISZERO PUSH2 0x14E9 JUMPI PUSH2 0x14E8 PUSH2 0x191F JUMP JUMPDEST JUMPDEST DUP2 MSTORE POP SWAP1 JUMP JUMPDEST DUP3 DUP1 SLOAD DUP3 DUP3 SSTORE SWAP1 PUSH0 MSTORE PUSH1 0x20 PUSH0 KECCAK256 SWAP1 DUP2 ADD SWAP3 DUP3 ISZERO PUSH2 0x1535 JUMPI SWAP2 PUSH1 0x20 MUL DUP3 ADD JUMPDEST DUP3 DUP2 GT ISZERO PUSH2 0x1534 JUMPI DUP3 MLOAD DUP3 SWAP1 DUP2 PUSH2 0x1524 SWAP2 SWAP1 PUSH2 0x2037 JUMP JUMPDEST POP SWAP2 PUSH1 0x20 ADD SWAP2 SWAP1 PUSH1 0x1 ADD SWAP1 PUSH2 0x150D JUMP JUMPDEST JUMPDEST POP SWAP1 POP PUSH2 0x1542 SWAP2 SWAP1 PUSH2 0x1546 JUMP JUMPDEST POP SWAP1 JUMP JUMPDEST JUMPDEST DUP1 DUP3 GT ISZERO PUSH2 0x1565 JUMPI PUSH0 DUP2 DUP2 PUSH2 0x155C SWAP2 SWAP1 PUSH2 0x1569 JUMP JUMPDEST POP PUSH1 0x1 ADD PUSH2 0x1547 JUMP JUMPDEST POP SWAP1 JUMP JUMPDEST POP DUP1 SLOAD PUSH2 0x1575 SWAP1 PUSH2 0x1E02 JUMP JUMPDEST PUSH0 DUP3 SSTORE DUP1 PUSH1 0x1F LT PUSH2 0x1586 JUMPI POP PUSH2 0x15A3 JUMP JUMPDEST PUSH1 0x1F ADD PUSH1 0x20 SWAP1 DIV SWAP1 PUSH0 MSTORE PUSH1 0x20 PUSH0 KECCAK256 SWAP1 DUP2 ADD SWAP1 PUSH2 0x15A2 SWAP2 SWAP1 PUSH2 0x15A6 JUMP JUMPDEST JUMPDEST POP JUMP JUMPDEST JUMPDEST DUP1 DUP3 GT ISZERO PUSH2 0x15BD JUMPI PUSH0 DUP2 PUSH0 SWAP1 SSTORE POP PUSH1 0x1 ADD PUSH2 0x15A7 JUMP JUMPDEST POP SWAP1 JUMP JUMPDEST PUSH0 DUP2 MLOAD SWAP1 POP SWAP2 SWAP1 POP JUMP JUMPDEST PUSH0 DUP3 DUP3 MSTORE PUSH1 0x20 DUP3 ADD SWAP1 POP SWAP3 SWAP2 POP POP JUMP JUMPDEST PUSH0 DUP2 SWAP1 POP PUSH1 0x20 DUP3 ADD SWAP1 POP SWAP2 SWAP1 POP JUMP JUMPDEST PUSH0 PUSH20 0xFFFFFFFFFFFFFFFFFFFFFFFFFFFFFFFFFFFFFFFF DUP3 AND SWAP1 POP SWAP2 SWAP1 POP JUMP JUMPDEST PUSH0 PUSH2 0x1613 DUP3 PUSH2 0x15EA JUMP JUMPDEST SWAP1 POP SWAP2 SWAP1 POP JUMP JUMPDEST PUSH2 0x1623 DUP2 PUSH2 0x1609 JUMP JUMPDEST DUP3 MSTORE POP POP JUMP JUMPDEST PUSH0 PUSH2 0x1634 DUP4 DUP4 PUSH2 0x161A JUMP JUMPDEST PUSH1 0x20 DUP4 ADD SWAP1 POP SWAP3 SWAP2 POP POP JUMP JUMPDEST PUSH0 PUSH1 0x20 DUP3 ADD SWAP1 POP SWAP2 SWAP1 POP JUMP JUMPDEST PUSH0 PUSH2 0x1656 DUP3 PUSH2 0x15C1 JUMP JUMPDEST PUSH2 0x1660 DUP2 DUP6 PUSH2 0x15CB JUMP JUMPDEST SWAP4 POP PUSH2 0x166B DUP4 PUSH2 0x15DB JUMP JUMPDEST DUP1 PUSH0 JUMPDEST DUP4 DUP2 LT ISZERO PUSH2 0x169B JUMPI DUP2 MLOAD PUSH2 0x1682 DUP9 DUP3 PUSH2 0x1629 JUMP JUMPDEST SWAP8 POP PUSH2 0x168D DUP4 PUSH2 0x1640 JUMP JUMPDEST SWAP3 POP POP PUSH1 0x1 DUP2 ADD SWAP1 POP PUSH2 0x166E JUMP JUMPDEST POP DUP6 SWAP4 POP POP POP POP SWAP3 SWAP2 POP POP JUMP JUMPDEST PUSH0 PUSH1 0x20 DUP3 ADD SWAP1 POP DUP2 DUP2 SUB PUSH0 DUP4 ADD MSTORE PUSH2 0x16C0 DUP2 DUP5 PUSH2 0x164C JUMP JUMPDEST SWAP1 POP SWAP3 SWAP2 POP POP JUMP JUMPDEST PUSH0 PUSH1 0x40 MLOAD SWAP1 POP SWAP1 JUMP JUMPDEST PUSH0 DUP1 REVERT JUMPDEST PUSH0 DUP1 REVERT JUMPDEST PUSH2 0x16E2 DUP2 PUSH2 0x1609 JUMP JUMPDEST DUP2 EQ PUSH2 0x16EC JUMPI PUSH0 DUP1 REVERT JUMPDEST POP JUMP JUMPDEST PUSH0 DUP2 CALLDATALOAD SWAP1 POP PUSH2 0x16FD DUP2 PUSH2 0x16D9 JUMP JUMPDEST SWAP3 SWAP2 POP POP JUMP JUMPDEST PUSH1 0x4 DUP2 LT PUSH2 0x170F JUMPI PUSH0 DUP1 REVERT JUMPDEST POP JUMP JUMPDEST PUSH0 DUP2 CALLDATALOAD SWAP1 POP PUSH2 0x1720 DUP2 PUSH2 0x1703 JUMP JUMPDEST SWAP3 SWAP2 POP POP JUMP JUMPDEST PUSH0 DUP1 PUSH1 0x40 DUP4 DUP6 SUB SLT ISZERO PUSH2 0x173C JUMPI PUSH2 0x173B PUSH2 0x16D1 JUMP JUMPDEST JUMPDEST PUSH0 PUSH2 0x1749 DUP6 DUP3 DUP7 ADD PUSH2 0x16EF JUMP JUMPDEST SWAP3 POP POP PUSH1 0x20 PUSH2 0x175A DUP6 DUP3 DUP7 ADD PUSH2 0x1712 JUMP JUMPDEST SWAP2 POP POP SWAP3 POP SWAP3 SWAP1 POP JUMP JUMPDEST PUSH0 PUSH1 0x20 DUP3 DUP5 SUB SLT ISZERO PUSH2 0x1779 JUMPI PUSH2 0x1778 PUSH2 0x16D1 JUMP JUMPDEST JUMPDEST PUSH0 PUSH2 0x1786 DUP5 DUP3 DUP6 ADD PUSH2 0x16EF JUMP JUMPDEST SWAP2 POP POP SWAP3 SWAP2 POP POP JUMP JUMPDEST PUSH0 DUP2 ISZERO ISZERO SWAP1 POP SWAP2 SWAP1 POP JUMP JUMPDEST PUSH2 0x17A3 DUP2 PUSH2 0x178F JUMP JUMPDEST DUP3 MSTORE POP POP JUMP JUMPDEST PUSH0 PUSH1 0x20 DUP3 ADD SWAP1 POP PUSH2 0x17BC PUSH0 DUP4 ADD DUP5 PUSH2 0x179A JUMP JUMPDEST SWAP3 SWAP2 POP POP JUMP JUMPDEST PUSH0 DUP2 MLOAD SWAP1 POP SWAP2 SWAP1 POP JUMP JUMPDEST PUSH0 DUP3 DUP3 MSTORE PUSH1 0x20 DUP3 ADD SWAP1 POP SWAP3 SWAP2 POP POP JUMP JUMPDEST PUSH0 JUMPDEST DUP4 DUP2 LT ISZERO PUSH2 0x17F9 JUMPI DUP1 DUP3 ADD MLOAD DUP2 DUP5 ADD MSTORE PUSH1 0x20 DUP2 ADD SWAP1 POP PUSH2 0x17DE JUMP JUMPDEST PUSH0 DUP5 DUP5 ADD MSTORE POP POP POP POP JUMP JUMPDEST PUSH0 PUSH1 0x1F NOT PUSH1 0x1F DUP4 ADD AND SWAP1 POP SWAP2 SWAP1 POP JUMP JUMPDEST PUSH0 PUSH2 0x181E DUP3 PUSH2 0x17C2 JUMP JUMPDEST PUSH2 0x1828 DUP2 DUP6 PUSH2 0x17CC JUMP JUMPDEST SWAP4 POP PUSH2 0x1838 DUP2 DUP6 PUSH1 0x20 DUP7 ADD PUSH2 0x17DC JUMP JUMPDEST PUSH2 0x1841 DUP2 PUSH2 0x1804 JUMP JUMPDEST DUP5 ADD SWAP2 POP POP SWAP3 SWAP2 POP POP JUMP JUMPDEST PUSH0 DUP2 SWAP1 POP SWAP2 SWAP1 POP JUMP JUMPDEST PUSH2 0x185E DUP2 PUSH2 0x184C JUMP JUMPDEST DUP3 MSTORE POP POP JUMP JUMPDEST PUSH0 DUP2 MLOAD SWAP1 POP SWAP2 SWAP1 POP JUMP JUMPDEST PUSH0 DUP3 DUP3 MSTORE PUSH1 0x20 DUP3 ADD SWAP1 POP SWAP3 SWAP2 POP POP JUMP JUMPDEST PUSH0 DUP2 SWAP1 POP PUSH1 0x20 DUP3 ADD SWAP1 POP SWAP2 SWAP1 POP JUMP JUMPDEST PUSH0 PUSH2 0x1898 DUP4 DUP4 PUSH2 0x1814 JUMP JUMPDEST SWAP1 POP SWAP3 SWAP2 POP POP JUMP JUMPDEST PUSH0 PUSH1 0x20 DUP3 ADD SWAP1 POP SWAP2 SWAP1 POP JUMP JUMPDEST PUSH0 PUSH2 0x18B6 DUP3 PUSH2 0x1864 JUMP JUMPDEST PUSH2 0x18C0 DUP2 DUP6 PUSH2 0x186E JUMP JUMPDEST SWAP4 POP DUP4 PUSH1 0x20 DUP3 MUL DUP6 ADD PUSH2 0x18D2 DUP6 PUSH2 0x187E JUMP JUMPDEST DUP1 PUSH0 JUMPDEST DUP6 DUP2 LT ISZERO PUSH2 0x190D JUMPI DUP5 DUP5 SUB DUP10 MSTORE DUP2 MLOAD PUSH2 0x18EE DUP6 DUP3 PUSH2 0x188D JUMP JUMPDEST SWAP5 POP PUSH2 0x18F9 DUP4 PUSH2 0x18A0 JUMP JUMPDEST SWAP3 POP PUSH1 0x20 DUP11 ADD SWAP10 POP POP PUSH1 0x1 DUP2 ADD SWAP1 POP PUSH2 0x18D5 JUMP JUMPDEST POP DUP3 SWAP8 POP DUP8 SWAP6 POP POP POP POP POP POP SWAP3 SWAP2 POP POP JUMP JUMPDEST PUSH32 0x4E487B7100000000000000000000000000000000000000000000000000000000 PUSH0 MSTORE PUSH1 0x21 PUSH1 0x4 MSTORE PUSH1 0x24 PUSH0 REVERT JUMPDEST PUSH1 0x4 DUP2 LT PUSH2 0x195D JUMPI PUSH2 0x195C PUSH2 0x191F JUMP JUMPDEST JUMPDEST POP JUMP JUMPDEST PUSH0 DUP2 SWAP1 POP PUSH2 0x196D DUP3 PUSH2 0x194C JUMP JUMPDEST SWAP2 SWAP1 POP JUMP JUMPDEST PUSH0 PUSH2 0x197C DUP3 PUSH2 0x1960 JUMP JUMPDEST SWAP1 POP SWAP2 SWAP1 POP JUMP JUMPDEST PUSH2 0x198C DUP2 PUSH2 0x1972 JUMP JUMPDEST DUP3 MSTORE POP POP JUMP JUMPDEST PUSH0 PUSH1 0xE0 DUP4 ADD PUSH0 DUP4 ADD MLOAD PUSH2 0x19A7 PUSH0 DUP7 ADD DUP3 PUSH2 0x161A JUMP JUMPDEST POP PUSH1 0x20 DUP4 ADD MLOAD DUP5 DUP3 SUB PUSH1 0x20 DUP7 ADD MSTORE PUSH2 0x19BF DUP3 DUP3 PUSH2 0x1814 JUMP JUMPDEST SWAP2 POP POP PUSH1 0x40 DUP4 ADD MLOAD DUP5 DUP3 SUB PUSH1 0x40 DUP7 ADD MSTORE PUSH2 0x19D9 DUP3 DUP3 PUSH2 0x1814 JUMP JUMPDEST SWAP2 POP POP PUSH1 0x60 DUP4 ADD MLOAD PUSH2 0x19EE PUSH1 0x60 DUP7 ADD DUP3 PUSH2 0x161A JUMP JUMPDEST POP PUSH1 0x80 DUP4 ADD MLOAD PUSH2 0x1A01 PUSH1 0x80 DUP7 ADD DUP3 PUSH2 0x1855 JUMP JUMPDEST POP PUSH1 0xA0 DUP4 ADD MLOAD DUP5 DUP3 SUB PUSH1 0xA0 DUP7 ADD MSTORE PUSH2 0x1A19 DUP3 DUP3 PUSH2 0x18AC JUMP JUMPDEST SWAP2 POP POP PUSH1 0xC0 DUP4 ADD MLOAD PUSH2 0x1A2E PUSH1 0xC0 DUP7 ADD DUP3 PUSH2 0x1983 JUMP JUMPDEST POP DUP1 SWAP2 POP POP SWAP3 SWAP2 POP POP JUMP JUMPDEST PUSH0 PUSH1 0x20 DUP3 ADD SWAP1 POP DUP2 DUP2 SUB PUSH0 DUP4 ADD MSTORE PUSH2 0x1A51 DUP2 DUP5 PUSH2 0x1992 JUMP JUMPDEST SWAP1 POP SWAP3 SWAP2 POP POP JUMP JUMPDEST PUSH0 DUP1 REVERT JUMPDEST PUSH0 DUP1 REVERT JUMPDEST PUSH32 0x4E487B7100000000000000000000000000000000000000000000000000000000 PUSH0 MSTORE PUSH1 0x41 PUSH1 0x4 MSTORE PUSH1 0x24 PUSH0 REVERT JUMPDEST PUSH2 0x1A97 DUP3 PUSH2 0x1804 JUMP JUMPDEST DUP2 ADD DUP2 DUP2 LT PUSH8 0xFFFFFFFFFFFFFFFF DUP3 GT OR ISZERO PUSH2 0x1AB6 JUMPI PUSH2 0x1AB5 PUSH2 0x1A61 JUMP JUMPDEST JUMPDEST DUP1 PUSH1 0x40 MSTORE POP POP POP JUMP JUMPDEST PUSH0 PUSH2 0x1AC8 PUSH2 0x16C8 JUMP JUMPDEST SWAP1 POP PUSH2 0x1AD4 DUP3 DUP3 PUSH2 0x1A8E JUMP JUMPDEST SWAP2 SWAP1 POP JUMP JUMPDEST PUSH0 PUSH8 0xFFFFFFFFFFFFFFFF DUP3 GT ISZERO PUSH2 0x1AF3 JUMPI PUSH2 0x1AF2 PUSH2 0x1A61 JUMP JUMPDEST JUMPDEST PUSH2 0x1AFC DUP3 PUSH2 0x1804 JUMP JUMPDEST SWAP1 POP PUSH1 0x20 DUP2 ADD SWAP1 POP SWAP2 SWAP1 POP JUMP JUMPDEST DUP3 DUP2 DUP4 CALLDATACOPY PUSH0 DUP4 DUP4 ADD MSTORE POP POP POP JUMP JUMPDEST PUSH0 PUSH2 0x1B29 PUSH2 0x1B24 DUP5 PUSH2 0x1AD9 JUMP JUMPDEST PUSH2 0x1ABF JUMP JUMPDEST SWAP1 POP DUP3 DUP2 MSTORE PUSH1 0x20 DUP2 ADD DUP5 DUP5 DUP5 ADD GT ISZERO PUSH2 0x1B45 JUMPI PUSH2 0x1B44 PUSH2 0x1A5D JUMP JUMPDEST JUMPDEST PUSH2 0x1B50 DUP5 DUP3 DUP6 PUSH2 0x1B09 JUMP JUMPDEST POP SWAP4 SWAP3 POP POP POP JUMP JUMPDEST PUSH0 DUP3 PUSH1 0x1F DUP4 ADD SLT PUSH2 0x1B6C JUMPI PUSH2 0x1B6B PUSH2 0x1A59 JUMP JUMPDEST JUMPDEST DUP2 CALLDATALOAD PUSH2 0x1B7C DUP5 DUP3 PUSH1 0x20 DUP7 ADD PUSH2 0x1B17 JUMP JUMPDEST SWAP2 POP POP SWAP3 SWAP2 POP POP JUMP JUMPDEST PUSH0 PUSH8 0xFFFFFFFFFFFFFFFF DUP3 GT ISZERO PUSH2 0x1B9F JUMPI PUSH2 0x1B9E PUSH2 0x1A61 JUMP JUMPDEST JUMPDEST PUSH1 0x20 DUP3 MUL SWAP1 POP PUSH1 0x20 DUP2 ADD SWAP1 POP SWAP2 SWAP1 POP JUMP JUMPDEST PUSH0 DUP1 REVERT JUMPDEST PUSH0 PUSH2 0x1BC6 PUSH2 0x1BC1 DUP5 PUSH2 0x1B85 JUMP JUMPDEST PUSH2 0x1ABF JUMP JUMPDEST SWAP1 POP DUP1 DUP4 DUP3 MSTORE PUSH1 0x20 DUP3 ADD SWAP1 POP PUSH1 0x20 DUP5 MUL DUP4 ADD DUP6 DUP2 GT ISZERO PUSH2 0x1BE9 JUMPI PUSH2 0x1BE8 PUSH2 0x1BB0 JUMP JUMPDEST JUMPDEST DUP4 JUMPDEST DUP2 DUP2 LT ISZERO PUSH2 0x1C30 JUMPI DUP1 CALLDATALOAD PUSH8 0xFFFFFFFFFFFFFFFF DUP2 GT ISZERO PUSH2 0x1C0E JUMPI PUSH2 0x1C0D PUSH2 0x1A59 JUMP JUMPDEST JUMPDEST DUP1 DUP7 ADD PUSH2 0x1C1B DUP10 DUP3 PUSH2 0x1B58 JUMP JUMPDEST DUP6 MSTORE PUSH1 0x20 DUP6 ADD SWAP5 POP POP POP PUSH1 0x20 DUP2 ADD SWAP1 POP PUSH2 0x1BEB JUMP JUMPDEST POP POP POP SWAP4 SWAP3 POP POP POP JUMP JUMPDEST PUSH0 DUP3 PUSH1 0x1F DUP4 ADD SLT PUSH2 0x1C4E JUMPI PUSH2 0x1C4D PUSH2 0x1A59 JUMP JUMPDEST JUMPDEST DUP2 CALLDATALOAD PUSH2 0x1C5E DUP5 DUP3 PUSH1 0x20 DUP7 ADD PUSH2 0x1BB4 JUMP JUMPDEST SWAP2 POP POP SWAP3 SWAP2 POP POP JUMP JUMPDEST PUSH0 DUP1 PUSH0 DUP1 PUSH1 0x80 DUP6 DUP8 SUB SLT ISZERO PUSH2 0x1C7F JUMPI PUSH2 0x1C7E PUSH2 0x16D1 JUMP JUMPDEST JUMPDEST PUSH0 PUSH2 0x1C8C DUP8 DUP3 DUP9 ADD PUSH2 0x16EF JUMP JUMPDEST SWAP5 POP POP PUSH1 0x20 DUP6 ADD CALLDATALOAD PUSH8 0xFFFFFFFFFFFFFFFF DUP2 GT ISZERO PUSH2 0x1CAD JUMPI PUSH2 0x1CAC PUSH2 0x16D5 JUMP JUMPDEST JUMPDEST PUSH2 0x1CB9 DUP8 DUP3 DUP9 ADD PUSH2 0x1B58 JUMP JUMPDEST SWAP4 POP POP PUSH1 0x40 DUP6 ADD CALLDATALOAD PUSH8 0xFFFFFFFFFFFFFFFF DUP2 GT ISZERO PUSH2 0x1CDA JUMPI PUSH2 0x1CD9 PUSH2 0x16D5 JUMP JUMPDEST JUMPDEST PUSH2 0x1CE6 DUP8 DUP3 DUP9 ADD PUSH2 0x1B58 JUMP JUMPDEST SWAP3 POP POP PUSH1 0x60 DUP6 ADD CALLDATALOAD PUSH8 0xFFFFFFFFFFFFFFFF DUP2 GT ISZERO PUSH2 0x1D07 JUMPI PUSH2 0x1D06 PUSH2 0x16D5 JUMP JUMPDEST JUMPDEST PUSH2 0x1D13 DUP8 DUP3 DUP9 ADD PUSH2 0x1C3A JUMP JUMPDEST SWAP2 POP POP SWAP3 SWAP6 SWAP2 SWAP5 POP SWAP3 POP JUMP JUMPDEST PUSH0 DUP1 PUSH1 0x40 DUP4 DUP6 SUB SLT ISZERO PUSH2 0x1D35 JUMPI PUSH2 0x1D34 PUSH2 0x16D1 JUMP JUMPDEST JUMPDEST PUSH0 PUSH2 0x1D42 DUP6 DUP3 DUP7 ADD PUSH2 0x16EF JUMP JUMPDEST SWAP3 POP POP PUSH1 0x20 PUSH2 0x1D53 DUP6 DUP3 DUP7 ADD PUSH2 0x16EF JUMP JUMPDEST SWAP2 POP POP SWAP3 POP SWAP3 SWAP1 POP JUMP JUMPDEST PUSH0 DUP3 DUP3 MSTORE PUSH1 0x20 DUP3 ADD SWAP1 POP SWAP3 SWAP2 POP POP JUMP JUMPDEST PUSH32 0x436F6E7472616374206E6F742072656769737465726564000000000000000000 PUSH0 DUP3 ADD MSTORE POP JUMP JUMPDEST PUSH0 PUSH2 0x1DA1 PUSH1 0x17 DUP4 PUSH2 0x1D5D JUMP JUMPDEST SWAP2 POP PUSH2 0x1DAC DUP3 PUSH2 0x1D6D JUMP JUMPDEST PUSH1 0x20 DUP3 ADD SWAP1 POP SWAP2 SWAP1 POP JUMP JUMPDEST PUSH0 PUSH1 0x20 DUP3 ADD SWAP1 POP DUP2 DUP2 SUB PUSH0 DUP4 ADD MSTORE PUSH2 0x1DCE DUP2 PUSH2 0x1D95 JUMP JUMPDEST SWAP1 POP SWAP2 SWAP1 POP JUMP JUMPDEST PUSH32 0x4E487B7100000000000000000000000000000000000000000000000000000000 PUSH0 MSTORE PUSH1 0x22 PUSH1 0x4 MSTORE PUSH1 0x24 PUSH0 REVERT JUMPDEST PUSH0 PUSH1 0x2 DUP3 DIV SWAP1 POP PUSH1 0x1 DUP3 AND DUP1 PUSH2 0x1E19 JUMPI PUSH1 0x7F DUP3 AND SWAP2 POP JUMPDEST PUSH1 0x20 DUP3 LT DUP2 SUB PUSH2 0x1E2C JUMPI PUSH2 0x1E2B PUSH2 0x1DD5 JUMP JUMPDEST JUMPDEST POP SWAP2 SWAP1 POP JUMP JUMPDEST PUSH32 0x436F6E7472616374202072656769737465726564000000000000000000000000 PUSH0 DUP3 ADD MSTORE POP JUMP JUMPDEST PUSH0 PUSH2 0x1E66 PUSH1 0x14 DUP4 PUSH2 0x1D5D JUMP JUMPDEST SWAP2 POP PUSH2 0x1E71 DUP3 PUSH2 0x1E32 JUMP JUMPDEST PUSH1 0x20 DUP3 ADD SWAP1 POP SWAP2 SWAP1 POP JUMP JUMPDEST PUSH0 PUSH1 0x20 DUP3 ADD SWAP1 POP DUP2 DUP2 SUB PUSH0 DUP4 ADD MSTORE PUSH2 0x1E93 DUP2 PUSH2 0x1E5A JUMP JUMPDEST SWAP1 POP SWAP2 SWAP1 POP JUMP JUMPDEST PUSH0 DUP2 SWAP1 POP DUP2 PUSH0 MSTORE PUSH1 0x20 PUSH0 KECCAK256 SWAP1 POP SWAP2 SWAP1 POP JUMP JUMPDEST PUSH0 PUSH1 0x20 PUSH1 0x1F DUP4 ADD DIV SWAP1 POP SWAP2 SWAP1 POP JUMP JUMPDEST PUSH0 DUP3 DUP3 SHL SWAP1 POP SWAP3 SWAP2 POP POP JUMP JUMPDEST PUSH0 PUSH1 0x8 DUP4 MUL PUSH2 0x1EF6 PUSH32 0xFFFFFFFFFFFFFFFFFFFFFFFFFFFFFFFFFFFFFFFFFFFFFFFFFFFFFFFFFFFFFFFF DUP3 PUSH2 0x1EBB JUMP JUMPDEST PUSH2 0x1F00 DUP7 DUP4 PUSH2 0x1EBB JUMP JUMPDEST SWAP6 POP DUP1 NOT DUP5 AND SWAP4 POP DUP1 DUP7 AND DUP5 OR SWAP3 POP POP POP SWAP4 SWAP3 POP POP POP JUMP JUMPDEST PUSH0 DUP2 SWAP1 POP SWAP2 SWAP1 POP JUMP JUMPDEST PUSH0 PUSH2 0x1F3B PUSH2 0x1F36 PUSH2 0x1F31 DUP5 PUSH2 0x184C JUMP JUMPDEST PUSH2 0x1F18 JUMP JUMPDEST PUSH2 0x184C JUMP JUMPDEST SWAP1 POP SWAP2 SWAP1 POP JUMP JUMPDEST PUSH0 DUP2 SWAP1 POP SWAP2 SWAP1 POP JUMP JUMPDEST PUSH2 0x1F54 DUP4 PUSH2 0x1F21 JUMP JUMPDEST PUSH2 0x1F68 PUSH2 0x1F60 DUP3 PUSH2 0x1F42 JUMP JUMPDEST DUP5 DUP5 SLOAD PUSH2 0x1EC7 JUMP JUMPDEST DUP3 SSTORE POP POP POP POP JUMP JUMPDEST PUSH0 SWAP1 JUMP JUMPDEST PUSH2 0x1F7C PUSH2 0x1F70 JUMP JUMPDEST PUSH2 0x1F87 DUP2 DUP5 DUP5 PUSH2 0x1F4B JUMP JUMPDEST POP POP POP JUMP JUMPDEST JUMPDEST DUP2 DUP2 LT ISZERO PUSH2 0x1FAA JUMPI PUSH2 0x1F9F PUSH0 DUP3 PUSH2 0x1F74 JUMP JUMPDEST PUSH1 0x1 DUP2 ADD SWAP1 POP PUSH2 0x1F8D JUMP JUMPDEST POP POP JUMP JUMPDEST PUSH1 0x1F DUP3 GT ISZERO PUSH2 0x1FEF JUMPI PUSH2 0x1FC0 DUP2 PUSH2 0x1E9A JUMP JUMPDEST PUSH2 0x1FC9 DUP5 PUSH2 0x1EAC JUMP JUMPDEST DUP2 ADD PUSH1 0x20 DUP6 LT ISZERO PUSH2 0x1FD8 JUMPI DUP2 SWAP1 POP JUMPDEST PUSH2 0x1FEC PUSH2 0x1FE4 DUP6 PUSH2 0x1EAC JUMP JUMPDEST DUP4 ADD DUP3 PUSH2 0x1F8C JUMP JUMPDEST POP POP JUMPDEST POP POP POP JUMP JUMPDEST PUSH0 DUP3 DUP3 SHR SWAP1 POP SWAP3 SWAP2 POP POP JUMP JUMPDEST PUSH0 PUSH2 0x200F PUSH0 NOT DUP5 PUSH1 0x8 MUL PUSH2 0x1FF4 JUMP JUMPDEST NOT DUP1 DUP4 AND SWAP2 POP POP SWAP3 SWAP2 POP POP JUMP JUMPDEST PUSH0 PUSH2 0x2027 DUP4 DUP4 PUSH2 0x2000 JUMP JUMPDEST SWAP2 POP DUP3 PUSH1 0x2 MUL DUP3 OR SWAP1 POP SWAP3 SWAP2 POP POP JUMP JUMPDEST PUSH2 0x2040 DUP3 PUSH2 0x17C2 JUMP JUMPDEST PUSH8 0xFFFFFFFFFFFFFFFF DUP2 GT ISZERO PUSH2 0x2059 JUMPI PUSH2 0x2058 PUSH2 0x1A61 JUMP JUMPDEST JUMPDEST PUSH2 0x2063 DUP3 SLOAD PUSH2 0x1E02 JUMP JUMPDEST PUSH2 0x206E DUP3 DUP3 DUP6 PUSH2 0x1FAE JUMP JUMPDEST PUSH0 PUSH1 0x20 SWAP1 POP PUSH1 0x1F DUP4 GT PUSH1 0x1 DUP2 EQ PUSH2 0x209F JUMPI PUSH0 DUP5 ISZERO PUSH2 0x208D JUMPI DUP3 DUP8 ADD MLOAD SWAP1 POP JUMPDEST PUSH2 0x2097 DUP6 DUP3 PUSH2 0x201C JUMP JUMPDEST DUP7 SSTORE POP PUSH2 0x20FE JUMP JUMPDEST PUSH1 0x1F NOT DUP5 AND PUSH2 0x20AD DUP7 PUSH2 0x1E9A JUMP JUMPDEST PUSH0 JUMPDEST DUP3 DUP2 LT ISZERO PUSH2 0x20D4 JUMPI DUP5 DUP10 ADD MLOAD DUP3 SSTORE PUSH1 0x1 DUP3 ADD SWAP2 POP PUSH1 0x20 DUP6 ADD SWAP5 POP PUSH1 0x20 DUP2 ADD SWAP1 POP PUSH2 0x20AF JUMP JUMPDEST DUP7 DUP4 LT ISZERO PUSH2 0x20F1 JUMPI DUP5 DUP10 ADD MLOAD PUSH2 0x20ED PUSH1 0x1F DUP10 AND DUP3 PUSH2 0x2000 JUMP JUMPDEST DUP4 SSTORE POP JUMPDEST PUSH1 0x1 PUSH1 0x2 DUP9 MUL ADD DUP9 SSTORE POP POP POP JUMPDEST POP POP POP POP POP POP JUMP INVALID LOG2 PUSH5 0x6970667358 0x22 SLT KECCAK256 DIV PUSH5 0x31ABB5C356 PC 0xDC DELEGATECALL MSTORE8 SELFDESTRUCT PUSH11 0x9FBC06E03FC6F242255985 PUSH24 0xF96D4AA605E18764736F6C63430008140033000000000000 "
				},
				"gasEstimates": {
					"creation": {
						"codeDepositCost": "1701600",
						"executionCost": "1783",
						"totalCost": "1703383"
					},
					"external": {
						"addTrac(address,address)": "infinite",
						"getAllContractByUser(address)": "infinite",
						"getAllContracts()": "infinite",
						"getApprovedContracts()": "infinite",
						"getContractInfo(address)": "infinite",
						"isContractApprovedAndNotOffline(address)": "infinite",
						"isContractApprovedAndNotOfflineStruct(address)": "infinite",
						"isContractRegistered(address)": "2984",
						"registerContract(address,string,string,string[])": "infinite",
						"updateStatus(address,uint8)": "75894"
					}
				},
				"methodIdentifiers": {
					"addTrac(address,address)": "f4c1c17f",
					"getAllContractByUser(address)": "7318df8a",
					"getAllContracts()": "18d3ce96",
					"getApprovedContracts()": "862ea1ba",
					"getContractInfo(address)": "cd481e51",
					"isContractApprovedAndNotOffline(address)": "73aef559",
					"isContractApprovedAndNotOfflineStruct(address)": "90483125",
					"isContractRegistered(address)": "f9f6b49b",
					"registerContract(address,string,string,string[])": "e8a8dcce",
					"updateStatus(address,uint8)": "44c5bbf8"
				}
			},
			"storageLayout": {
				"storage": [
					{
						"astId": 28,
						"contract": "ContractRegistry.sol:ContractRegistry",
						"label": "contracts",
						"offset": 0,
						"slot": "0",
						"type": "t_mapping(t_address,t_struct(ContractInfo)18_storage)"
					},
					{
						"astId": 31,
						"contract": "ContractRegistry.sol:ContractRegistry",
						"label": "allContracts",
						"offset": 0,
						"slot": "1",
						"type": "t_array(t_address)dyn_storage"
					},
					{
						"astId": 34,
						"contract": "ContractRegistry.sol:ContractRegistry",
						"label": "approvedContracts",
						"offset": 0,
						"slot": "2",
						"type": "t_array(t_address)dyn_storage"
					},
					{
						"astId": 40,
						"contract": "ContractRegistry.sol:ContractRegistry",
						"label": "tracDatas",
						"offset": 0,
						"slot": "3",
						"type": "t_mapping(t_address,t_mapping(t_address,t_bool))"
					},
					{
						"astId": 45,
						"contract": "ContractRegistry.sol:ContractRegistry",
						"label": "tracAddDatas",
						"offset": 0,
						"slot": "4",
						"type": "t_mapping(t_address,t_array(t_address)dyn_storage)"
					}
				],
				"types": {
					"t_address": {
						"encoding": "inplace",
						"label": "address",
						"numberOfBytes": "20"
					},
					"t_array(t_address)dyn_storage": {
						"base": "t_address",
						"encoding": "dynamic_array",
						"label": "address[]",
						"numberOfBytes": "32"
					},
					"t_array(t_string_storage)dyn_storage": {
						"base": "t_string_storage",
						"encoding": "dynamic_array",
						"label": "string[]",
						"numberOfBytes": "32"
					},
					"t_bool": {
						"encoding": "inplace",
						"label": "bool",
						"numberOfBytes": "1"
					},
					"t_enum(Status)23": {
						"encoding": "inplace",
						"label": "enum ContractRegistry.Status",
						"numberOfBytes": "1"
					},
					"t_mapping(t_address,t_array(t_address)dyn_storage)": {
						"encoding": "mapping",
						"key": "t_address",
						"label": "mapping(address => address[])",
						"numberOfBytes": "32",
						"value": "t_array(t_address)dyn_storage"
					},
					"t_mapping(t_address,t_bool)": {
						"encoding": "mapping",
						"key": "t_address",
						"label": "mapping(address => bool)",
						"numberOfBytes": "32",
						"value": "t_bool"
					},
					"t_mapping(t_address,t_mapping(t_address,t_bool))": {
						"encoding": "mapping",
						"key": "t_address",
						"label": "mapping(address => mapping(address => bool))",
						"numberOfBytes": "32",
						"value": "t_mapping(t_address,t_bool)"
					},
					"t_mapping(t_address,t_struct(ContractInfo)18_storage)": {
						"encoding": "mapping",
						"key": "t_address",
						"label": "mapping(address => struct ContractRegistry.ContractInfo)",
						"numberOfBytes": "32",
						"value": "t_struct(ContractInfo)18_storage"
					},
					"t_string_storage": {
						"encoding": "bytes",
						"label": "string",
						"numberOfBytes": "32"
					},
					"t_struct(ContractInfo)18_storage": {
						"encoding": "inplace",
						"label": "struct ContractRegistry.ContractInfo",
						"members": [
							{
								"astId": 3,
								"contract": "ContractRegistry.sol:ContractRegistry",
								"label": "contractAddress",
								"offset": 0,
								"slot": "0",
								"type": "t_address"
							},
							{
								"astId": 5,
								"contract": "ContractRegistry.sol:ContractRegistry",
								"label": "name",
								"offset": 0,
								"slot": "1",
								"type": "t_string_storage"
							},
							{
								"astId": 7,
								"contract": "ContractRegistry.sol:ContractRegistry",
								"label": "description",
								"offset": 0,
								"slot": "2",
								"type": "t_string_storage"
							},
							{
								"astId": 9,
								"contract": "ContractRegistry.sol:ContractRegistry",
								"label": "owner",
								"offset": 0,
								"slot": "3",
								"type": "t_address"
							},
							{
								"astId": 11,
								"contract": "ContractRegistry.sol:ContractRegistry",
								"label": "applicationTime",
								"offset": 0,
								"slot": "4",
								"type": "t_uint256"
							},
							{
								"astId": 14,
								"contract": "ContractRegistry.sol:ContractRegistry",
								"label": "whitepaperIPFSHashes",
								"offset": 0,
								"slot": "5",
								"type": "t_array(t_string_storage)dyn_storage"
							},
							{
								"astId": 17,
								"contract": "ContractRegistry.sol:ContractRegistry",
								"label": "status",
								"offset": 0,
								"slot": "6",
								"type": "t_enum(Status)23"
							}
						],
						"numberOfBytes": "224"
					},
					"t_uint256": {
						"encoding": "inplace",
						"label": "uint256",
						"numberOfBytes": "32"
					}
				}
			},
			"userdoc": {
				"kind": "user",
				"methods": {},
				"version": 1
			}
		}
	}
}