{
	"CenterDao.sol": {
		"CenterDao": {
			"abi": [
				{
					"inputs": [
						{
							"internalType": "string",
							"name": "_title",
							"type": "string"
						},
						{
							"internalType": "string",
							"name": "_descriptionCID",
							"type": "string"
						},
						{
							"internalType": "uint256",
							"name": "_deadline",
							"type": "uint256"
						}
					],
					"name": "createProposal",
					"outputs": [],
					"stateMutability": "nonpayable",
					"type": "function"
				},
				{
					"inputs": [
						{
							"internalType": "uint256",
							"name": "_proposalIndex",
							"type": "uint256"
						}
					],
					"name": "executeProposal",
					"outputs": [],
					"stateMutability": "nonpayable",
					"type": "function"
				},
				{
					"inputs": [],
					"name": "getAllProposals",
					"outputs": [
						{
							"components": [
								{
									"internalType": "uint256",
									"name": "id",
									"type": "uint256"
								},
								{
									"internalType": "string",
									"name": "title",
									"type": "string"
								},
								{
									"internalType": "string",
									"name": "descriptionCID",
									"type": "string"
								},
								{
									"internalType": "address",
									"name": "creator",
									"type": "address"
								},
								{
									"internalType": "uint256",
									"name": "deadline",
									"type": "uint256"
								},
								{
									"internalType": "bool",
									"name": "executed",
									"type": "bool"
								},
								{
									"internalType": "uint256",
									"name": "positiveVotes",
									"type": "uint256"
								},
								{
									"internalType": "uint256",
									"name": "negativeVotes",
									"type": "uint256"
								}
							],
							"internalType": "struct CenterDao.Proposal[]",
							"name": "",
							"type": "tuple[]"
						}
					],
					"stateMutability": "view",
					"type": "function"
				},
				{
					"inputs": [
						{
							"internalType": "uint256",
							"name": "_proposalIndex",
							"type": "uint256"
						}
					],
					"name": "getProposal",
					"outputs": [
						{
							"components": [
								{
									"internalType": "uint256",
									"name": "id",
									"type": "uint256"
								},
								{
									"internalType": "string",
									"name": "title",
									"type": "string"
								},
								{
									"internalType": "string",
									"name": "descriptionCID",
									"type": "string"
								},
								{
									"internalType": "address",
									"name": "creator",
									"type": "address"
								},
								{
									"internalType": "uint256",
									"name": "deadline",
									"type": "uint256"
								},
								{
									"internalType": "bool",
									"name": "executed",
									"type": "bool"
								},
								{
									"internalType": "uint256",
									"name": "positiveVotes",
									"type": "uint256"
								},
								{
									"internalType": "uint256",
									"name": "negativeVotes",
									"type": "uint256"
								}
							],
							"internalType": "struct CenterDao.Proposal",
							"name": "",
							"type": "tuple"
						}
					],
					"stateMutability": "view",
					"type": "function"
				},
				{
					"inputs": [],
					"name": "getProposalCount",
					"outputs": [
						{
							"internalType": "uint256",
							"name": "",
							"type": "uint256"
						}
					],
					"stateMutability": "view",
					"type": "function"
				},
				{
					"inputs": [
						{
							"internalType": "uint256",
							"name": "_proposalIndex",
							"type": "uint256"
						}
					],
					"name": "getProposalVotes",
					"outputs": [
						{
							"components": [
								{
									"internalType": "address",
									"name": "voter",
									"type": "address"
								},
								{
									"internalType": "uint256",
									"name": "voteTime",
									"type": "uint256"
								},
								{
									"internalType": "bool",
									"name": "vote",
									"type": "bool"
								}
							],
							"internalType": "struct CenterDao.VoteRecord[]",
							"name": "",
							"type": "tuple[]"
						}
					],
					"stateMutability": "view",
					"type": "function"
				},
				{
					"inputs": [
						{
							"internalType": "uint256",
							"name": "",
							"type": "uint256"
						},
						{
							"internalType": "uint256",
							"name": "",
							"type": "uint256"
						}
					],
					"name": "proposalVotes",
					"outputs": [
						{
							"internalType": "address",
							"name": "voter",
							"type": "address"
						},
						{
							"internalType": "uint256",
							"name": "voteTime",
							"type": "uint256"
						},
						{
							"internalType": "bool",
							"name": "vote",
							"type": "bool"
						}
					],
					"stateMutability": "view",
					"type": "function"
				},
				{
					"inputs": [
						{
							"internalType": "uint256",
							"name": "_proposalIndex",
							"type": "uint256"
						},
						{
							"internalType": "bool",
							"name": "_vote",
							"type": "bool"
						}
					],
					"name": "vote",
					"outputs": [],
					"stateMutability": "nonpayable",
					"type": "function"
				}
			],
			"devdoc": {
				"kind": "dev",
				"methods": {},
				"version": 1
			},
			"evm": {
				"assembly": "    /* \"CenterDao.sol\":83:3361  contract CenterDao {... */\n  mstore(0x40, 0x80)\n  callvalue\n  dup1\n  iszero\n  tag_1\n  jumpi\n  0x00\n  dup1\n  revert\ntag_1:\n  pop\n  dataSize(sub_0)\n  dup1\n  dataOffset(sub_0)\n  0x00\n  codecopy\n  0x00\n  return\nstop\n\nsub_0: assembly {\n        /* \"CenterDao.sol\":83:3361  contract CenterDao {... */\n      mstore(0x40, 0x80)\n      callvalue\n      dup1\n      iszero\n      tag_1\n      jumpi\n      0x00\n      dup1\n      revert\n    tag_1:\n      pop\n      jumpi(tag_2, lt(calldatasize, 0x04))\n      shr(0xe0, calldataload(0x00))\n      dup1\n      0xc08cc02d\n      gt\n      tag_11\n      jumpi\n      dup1\n      0xc08cc02d\n      eq\n      tag_7\n      jumpi\n      dup1\n      0xc7f758a8\n      eq\n      tag_8\n      jumpi\n      dup1\n      0xc9d27afe\n      eq\n      tag_9\n      jumpi\n      dup1\n      0xcceb68f5\n      eq\n      tag_10\n      jumpi\n      jump(tag_2)\n    tag_11:\n      dup1\n      0x0ce0ebf4\n      eq\n      tag_3\n      jumpi\n      dup1\n      0x0d61b519\n      eq\n      tag_4\n      jumpi\n      dup1\n      0x0d68eb9e\n      eq\n      tag_5\n      jumpi\n      dup1\n      0x47c66140\n      eq\n      tag_6\n      jumpi\n    tag_2:\n      0x00\n      dup1\n      revert\n        /* \"CenterDao.sol\":615:1120  function createProposal(string memory _title, string memory _descriptionCID, uint256 _deadline) public {... */\n    tag_3:\n      tag_12\n      0x04\n      dup1\n      calldatasize\n      sub\n      dup2\n      add\n      swap1\n      tag_13\n      swap2\n      swap1\n      tag_14\n      jump\t// in\n    tag_13:\n      tag_15\n      jump\t// in\n    tag_12:\n      stop\n        /* \"CenterDao.sol\":2039:2510  function executeProposal(uint256 _proposalIndex) public {... */\n    tag_4:\n      tag_16\n      0x04\n      dup1\n      calldatasize\n      sub\n      dup2\n      add\n      swap1\n      tag_17\n      swap2\n      swap1\n      tag_18\n      jump\t// in\n    tag_17:\n      tag_19\n      jump\t// in\n    tag_16:\n      stop\n        /* \"CenterDao.sol\":532:585  mapping(uint256 => VoteRecord[]) public proposalVotes */\n    tag_5:\n      tag_20\n      0x04\n      dup1\n      calldatasize\n      sub\n      dup2\n      add\n      swap1\n      tag_21\n      swap2\n      swap1\n      tag_22\n      jump\t// in\n    tag_21:\n      tag_23\n      jump\t// in\n    tag_20:\n      mload(0x40)\n      tag_24\n      swap4\n      swap3\n      swap2\n      swap1\n      tag_25\n      jump\t// in\n    tag_24:\n      mload(0x40)\n      dup1\n      swap2\n      sub\n      swap1\n      return\n        /* \"CenterDao.sol\":2991:3218  function getProposalVotes(uint256 _proposalIndex) public view returns (VoteRecord[] memory) {... */\n    tag_6:\n      tag_26\n      0x04\n      dup1\n      calldatasize\n      sub\n      dup2\n      add\n      swap1\n      tag_27\n      swap2\n      swap1\n      tag_18\n      jump\t// in\n    tag_27:\n      tag_28\n      jump\t// in\n    tag_26:\n      mload(0x40)\n      tag_29\n      swap2\n      swap1\n      tag_30\n      jump\t// in\n    tag_29:\n      mload(0x40)\n      dup1\n      swap2\n      sub\n      swap1\n      return\n        /* \"CenterDao.sol\":2841:2941  function getProposalCount() public view returns (uint256) {... */\n    tag_7:\n      tag_31\n      tag_32\n      jump\t// in\n    tag_31:\n      mload(0x40)\n      tag_33\n      swap2\n      swap1\n      tag_34\n      jump\t// in\n    tag_33:\n      mload(0x40)\n      dup1\n      swap2\n      sub\n      swap1\n      return\n        /* \"CenterDao.sol\":2545:2806  function getProposal(uint256 _proposalIndex) public view returns (Proposal memory) {... */\n    tag_8:\n      tag_35\n      0x04\n      dup1\n      calldatasize\n      sub\n      dup2\n      add\n      swap1\n      tag_36\n      swap2\n      swap1\n      tag_18\n      jump\t// in\n    tag_36:\n      tag_37\n      jump\t// in\n    tag_35:\n      mload(0x40)\n      tag_38\n      swap2\n      swap1\n      tag_39\n      jump\t// in\n    tag_38:\n      mload(0x40)\n      dup1\n      swap2\n      sub\n      swap1\n      return\n        /* \"CenterDao.sol\":1143:2010  function vote(uint256 _proposalIndex, bool _vote) public {... */\n    tag_9:\n      tag_40\n      0x04\n      dup1\n      calldatasize\n      sub\n      dup2\n      add\n      swap1\n      tag_41\n      swap2\n      swap1\n      tag_42\n      jump\t// in\n    tag_41:\n      tag_43\n      jump\t// in\n    tag_40:\n      stop\n        /* \"CenterDao.sol\":3255:3358  function getAllProposals() public  view  returns (Proposal[] memory){... */\n    tag_10:\n      tag_44\n      tag_45\n      jump\t// in\n    tag_44:\n      mload(0x40)\n      tag_46\n      swap2\n      swap1\n      tag_47\n      jump\t// in\n    tag_46:\n      mload(0x40)\n      dup1\n      swap2\n      sub\n      swap1\n      return\n        /* \"CenterDao.sol\":615:1120  function createProposal(string memory _title, string memory _descriptionCID, uint256 _deadline) public {... */\n    tag_15:\n        /* \"CenterDao.sol\":729:737  uint len */\n      0x00\n        /* \"CenterDao.sol\":741:750  proposals */\n      dup1\n        /* \"CenterDao.sol\":741:757  proposals.length */\n      dup1\n      sload\n      swap1\n      pop\n        /* \"CenterDao.sol\":729:757  uint len =  proposals.length */\n      swap1\n      pop\n        /* \"CenterDao.sol\":768:795  Proposal memory newProposal */\n      0x00\n        /* \"CenterDao.sol\":798:1074  Proposal({... */\n      mload(0x40)\n      dup1\n      0x0100\n      add\n      0x40\n      mstore\n      dup1\n        /* \"CenterDao.sol\":825:828  len */\n      dup4\n        /* \"CenterDao.sol\":798:1074  Proposal({... */\n      dup2\n      mstore\n      0x20\n      add\n        /* \"CenterDao.sol\":850:856  _title */\n      dup7\n        /* \"CenterDao.sol\":798:1074  Proposal({... */\n      dup2\n      mstore\n      0x20\n      add\n        /* \"CenterDao.sol\":887:902  _descriptionCID */\n      dup6\n        /* \"CenterDao.sol\":798:1074  Proposal({... */\n      dup2\n      mstore\n      0x20\n      add\n        /* \"CenterDao.sol\":926:936  msg.sender */\n      caller\n        /* \"CenterDao.sol\":798:1074  Proposal({... */\n      0xffffffffffffffffffffffffffffffffffffffff\n      and\n      dup2\n      mstore\n      0x20\n      add\n        /* \"CenterDao.sol\":961:970  _deadline */\n      dup5\n        /* \"CenterDao.sol\":798:1074  Proposal({... */\n      dup2\n      mstore\n      0x20\n      add\n        /* \"CenterDao.sol\":995:1000  false */\n      0x00\n        /* \"CenterDao.sol\":798:1074  Proposal({... */\n      iszero\n      iszero\n      dup2\n      mstore\n      0x20\n      add\n        /* \"CenterDao.sol\":1030:1031  0 */\n      0x00\n        /* \"CenterDao.sol\":798:1074  Proposal({... */\n      dup2\n      mstore\n      0x20\n      add\n        /* \"CenterDao.sol\":1061:1062  0 */\n      0x00\n        /* \"CenterDao.sol\":798:1074  Proposal({... */\n      dup2\n      mstore\n      pop\n        /* \"CenterDao.sol\":768:1074  Proposal memory newProposal = Proposal({... */\n      swap1\n      pop\n        /* \"CenterDao.sol\":1085:1094  proposals */\n      0x00\n        /* \"CenterDao.sol\":1100:1111  newProposal */\n      dup2\n        /* \"CenterDao.sol\":1085:1112  proposals.push(newProposal) */\n      swap1\n      dup1\n      0x01\n      dup2\n      sload\n      add\n      dup1\n      dup3\n      sstore\n      dup1\n      swap2\n      pop\n      pop\n      0x01\n      swap1\n      sub\n      swap1\n      0x00\n      mstore\n      keccak256(0x00, 0x20)\n      swap1\n      0x08\n      mul\n      add\n      0x00\n      swap1\n      swap2\n      swap1\n      swap2\n      swap1\n      swap2\n      pop\n      0x00\n      dup3\n      add\n      mload\n      dup2\n      0x00\n      add\n      sstore\n      0x20\n      dup3\n      add\n      mload\n      dup2\n      0x01\n      add\n      swap1\n      dup2\n      tag_50\n      swap2\n      swap1\n      tag_51\n      jump\t// in\n    tag_50:\n      pop\n      0x40\n      dup3\n      add\n      mload\n      dup2\n      0x02\n      add\n      swap1\n      dup2\n      tag_52\n      swap2\n      swap1\n      tag_51\n      jump\t// in\n    tag_52:\n      pop\n      0x60\n      dup3\n      add\n      mload\n      dup2\n      0x03\n      add\n      exp(0x0100, 0x00)\n      dup2\n      sload\n      dup2\n      0xffffffffffffffffffffffffffffffffffffffff\n      mul\n      not\n      and\n      swap1\n      dup4\n      0xffffffffffffffffffffffffffffffffffffffff\n      and\n      mul\n      or\n      swap1\n      sstore\n      pop\n      0x80\n      dup3\n      add\n      mload\n      dup2\n      0x04\n      add\n      sstore\n      0xa0\n      dup3\n      add\n      mload\n      dup2\n      0x05\n      add\n      exp(0x0100, 0x00)\n      dup2\n      sload\n      dup2\n      0xff\n      mul\n      not\n      and\n      swap1\n      dup4\n      iszero\n      iszero\n      mul\n      or\n      swap1\n      sstore\n      pop\n      0xc0\n      dup3\n      add\n      mload\n      dup2\n      0x06\n      add\n      sstore\n      0xe0\n      dup3\n      add\n      mload\n      dup2\n      0x07\n      add\n      sstore\n      pop\n      pop\n        /* \"CenterDao.sol\":718:1120  {... */\n      pop\n      pop\n        /* \"CenterDao.sol\":615:1120  function createProposal(string memory _title, string memory _descriptionCID, uint256 _deadline) public {... */\n      pop\n      pop\n      pop\n      jump\t// out\n        /* \"CenterDao.sol\":2039:2510  function executeProposal(uint256 _proposalIndex) public {... */\n    tag_19:\n        /* \"CenterDao.sol\":2115:2140  Proposal storage proposal */\n      0x00\n        /* \"CenterDao.sol\":2143:2152  proposals */\n      dup1\n        /* \"CenterDao.sol\":2153:2167  _proposalIndex */\n      dup3\n        /* \"CenterDao.sol\":2143:2168  proposals[_proposalIndex] */\n      dup2\n      sload\n      dup2\n      lt\n      tag_54\n      jumpi\n      tag_55\n      tag_56\n      jump\t// in\n    tag_55:\n    tag_54:\n      swap1\n      0x00\n      mstore\n      keccak256(0x00, 0x20)\n      swap1\n      0x08\n      mul\n      add\n        /* \"CenterDao.sol\":2115:2168  Proposal storage proposal = proposals[_proposalIndex] */\n      swap1\n      pop\n        /* \"CenterDao.sol\":2205:2213  proposal */\n      dup1\n        /* \"CenterDao.sol\":2205:2222  proposal.deadline */\n      0x04\n      add\n      sload\n        /* \"CenterDao.sol\":2187:2202  block.timestamp */\n      timestamp\n        /* \"CenterDao.sol\":2187:2222  block.timestamp > proposal.deadline */\n      gt\n        /* \"CenterDao.sol\":2179:2254  require(block.timestamp > proposal.deadline, \"Voting period has not ended\") */\n      tag_58\n      jumpi\n      mload(0x40)\n      0x08c379a000000000000000000000000000000000000000000000000000000000\n      dup2\n      mstore\n      0x04\n      add\n      tag_59\n      swap1\n      tag_60\n      jump\t// in\n    tag_59:\n      mload(0x40)\n      dup1\n      swap2\n      sub\n      swap1\n      revert\n    tag_58:\n        /* \"CenterDao.sol\":2274:2282  proposal */\n      dup1\n        /* \"CenterDao.sol\":2274:2291  proposal.executed */\n      0x05\n      add\n      0x00\n      swap1\n      sload\n      swap1\n      0x0100\n      exp\n      swap1\n      div\n      0xff\n      and\n        /* \"CenterDao.sol\":2273:2291  !proposal.executed */\n      iszero\n        /* \"CenterDao.sol\":2265:2321  require(!proposal.executed, \"Proposal already executed\") */\n      tag_61\n      jumpi\n      mload(0x40)\n      0x08c379a000000000000000000000000000000000000000000000000000000000\n      dup2\n      mstore\n      0x04\n      add\n      tag_62\n      swap1\n      tag_63\n      jump\t// in\n    tag_62:\n      mload(0x40)\n      dup1\n      swap2\n      sub\n      swap1\n      revert\n    tag_61:\n        /* \"CenterDao.sol\":2365:2373  proposal */\n      dup1\n        /* \"CenterDao.sol\":2365:2387  proposal.negativeVotes */\n      0x07\n      add\n      sload\n        /* \"CenterDao.sol\":2340:2348  proposal */\n      dup2\n        /* \"CenterDao.sol\":2340:2362  proposal.positiveVotes */\n      0x06\n      add\n      sload\n        /* \"CenterDao.sol\":2340:2387  proposal.positiveVotes > proposal.negativeVotes */\n      gt\n        /* \"CenterDao.sol\":2332:2413  require(proposal.positiveVotes > proposal.negativeVotes, \"Proposal did not pass\") */\n      tag_64\n      jumpi\n      mload(0x40)\n      0x08c379a000000000000000000000000000000000000000000000000000000000\n      dup2\n      mstore\n      0x04\n      add\n      tag_65\n      swap1\n      tag_66\n      jump\t// in\n    tag_65:\n      mload(0x40)\n      dup1\n      swap2\n      sub\n      swap1\n      revert\n    tag_64:\n        /* \"CenterDao.sol\":2498:2502  true */\n      0x01\n        /* \"CenterDao.sol\":2478:2486  proposal */\n      dup2\n        /* \"CenterDao.sol\":2478:2495  proposal.executed */\n      0x05\n      add\n      0x00\n        /* \"CenterDao.sol\":2478:2502  proposal.executed = true */\n      0x0100\n      exp\n      dup2\n      sload\n      dup2\n      0xff\n      mul\n      not\n      and\n      swap1\n      dup4\n      iszero\n      iszero\n      mul\n      or\n      swap1\n      sstore\n      pop\n        /* \"CenterDao.sol\":2095:2510  {... */\n      pop\n        /* \"CenterDao.sol\":2039:2510  function executeProposal(uint256 _proposalIndex) public {... */\n      pop\n      jump\t// out\n        /* \"CenterDao.sol\":532:585  mapping(uint256 => VoteRecord[]) public proposalVotes */\n    tag_23:\n      mstore(0x20, 0x01)\n      dup2\n      0x00\n      mstore\n      keccak256(0x00, 0x40)\n      dup2\n      dup2\n      sload\n      dup2\n      lt\n      tag_67\n      jumpi\n      0x00\n      dup1\n      revert\n    tag_67:\n      swap1\n      0x00\n      mstore\n      keccak256(0x00, 0x20)\n      swap1\n      0x03\n      mul\n      add\n      0x00\n      swap2\n      pop\n      swap2\n      pop\n      pop\n      dup1\n      0x00\n      add\n      0x00\n      swap1\n      sload\n      swap1\n      0x0100\n      exp\n      swap1\n      div\n      0xffffffffffffffffffffffffffffffffffffffff\n      and\n      swap1\n      dup1\n      0x01\n      add\n      sload\n      swap1\n      dup1\n      0x02\n      add\n      0x00\n      swap1\n      sload\n      swap1\n      0x0100\n      exp\n      swap1\n      div\n      0xff\n      and\n      swap1\n      pop\n      dup4\n      jump\t// out\n        /* \"CenterDao.sol\":2991:3218  function getProposalVotes(uint256 _proposalIndex) public view returns (VoteRecord[] memory) {... */\n    tag_28:\n        /* \"CenterDao.sol\":3062:3081  VoteRecord[] memory */\n      0x60\n        /* \"CenterDao.sol\":3119:3128  proposals */\n      0x00\n        /* \"CenterDao.sol\":3119:3135  proposals.length */\n      dup1\n      sload\n      swap1\n      pop\n        /* \"CenterDao.sol\":3102:3116  _proposalIndex */\n      dup3\n        /* \"CenterDao.sol\":3102:3135  _proposalIndex < proposals.length */\n      lt\n        /* \"CenterDao.sol\":3094:3163  require(_proposalIndex < proposals.length, \"Proposal does not exist\") */\n      tag_70\n      jumpi\n      mload(0x40)\n      0x08c379a000000000000000000000000000000000000000000000000000000000\n      dup2\n      mstore\n      0x04\n      add\n      tag_71\n      swap1\n      tag_72\n      jump\t// in\n    tag_71:\n      mload(0x40)\n      dup1\n      swap2\n      sub\n      swap1\n      revert\n    tag_70:\n        /* \"CenterDao.sol\":3181:3194  proposalVotes */\n      0x01\n        /* \"CenterDao.sol\":3181:3210  proposalVotes[_proposalIndex] */\n      0x00\n        /* \"CenterDao.sol\":3195:3209  _proposalIndex */\n      dup4\n        /* \"CenterDao.sol\":3181:3210  proposalVotes[_proposalIndex] */\n      dup2\n      mstore\n      0x20\n      add\n      swap1\n      dup2\n      mstore\n      0x20\n      add\n      0x00\n      keccak256\n        /* \"CenterDao.sol\":3174:3210  return proposalVotes[_proposalIndex] */\n      dup1\n      sload\n      dup1\n      0x20\n      mul\n      0x20\n      add\n      mload(0x40)\n      swap1\n      dup2\n      add\n      0x40\n      mstore\n      dup1\n      swap3\n      swap2\n      swap1\n      dup2\n      dup2\n      mstore\n      0x20\n      add\n      0x00\n      swap1\n    tag_73:\n      dup3\n      dup3\n      lt\n      iszero\n      tag_74\n      jumpi\n      dup4\n      dup3\n      swap1\n      0x00\n      mstore\n      keccak256(0x00, 0x20)\n      swap1\n      0x03\n      mul\n      add\n      mload(0x40)\n      dup1\n      0x60\n      add\n      0x40\n      mstore\n      swap1\n      dup2\n      0x00\n      dup3\n      add\n      0x00\n      swap1\n      sload\n      swap1\n      0x0100\n      exp\n      swap1\n      div\n      0xffffffffffffffffffffffffffffffffffffffff\n      and\n      0xffffffffffffffffffffffffffffffffffffffff\n      and\n      0xffffffffffffffffffffffffffffffffffffffff\n      and\n      dup2\n      mstore\n      0x20\n      add\n      0x01\n      dup3\n      add\n      sload\n      dup2\n      mstore\n      0x20\n      add\n      0x02\n      dup3\n      add\n      0x00\n      swap1\n      sload\n      swap1\n      0x0100\n      exp\n      swap1\n      div\n      0xff\n      and\n      iszero\n      iszero\n      iszero\n      iszero\n      dup2\n      mstore\n      pop\n      pop\n      dup2\n      mstore\n      0x20\n      add\n      swap1\n      0x01\n      add\n      swap1\n      jump(tag_73)\n    tag_74:\n      pop\n      pop\n      pop\n      pop\n      swap1\n      pop\n        /* \"CenterDao.sol\":2991:3218  function getProposalVotes(uint256 _proposalIndex) public view returns (VoteRecord[] memory) {... */\n      swap2\n      swap1\n      pop\n      jump\t// out\n        /* \"CenterDao.sol\":2841:2941  function getProposalCount() public view returns (uint256) {... */\n    tag_32:\n        /* \"CenterDao.sol\":2890:2897  uint256 */\n      0x00\n        /* \"CenterDao.sol\":2917:2926  proposals */\n      dup1\n        /* \"CenterDao.sol\":2917:2933  proposals.length */\n      dup1\n      sload\n      swap1\n      pop\n        /* \"CenterDao.sol\":2910:2933  return proposals.length */\n      swap1\n      pop\n        /* \"CenterDao.sol\":2841:2941  function getProposalCount() public view returns (uint256) {... */\n      swap1\n      jump\t// out\n        /* \"CenterDao.sol\":2545:2806  function getProposal(uint256 _proposalIndex) public view returns (Proposal memory) {... */\n    tag_37:\n        /* \"CenterDao.sol\":2611:2626  Proposal memory */\n      tag_77\n      tag_78\n      jump\t// in\n    tag_77:\n        /* \"CenterDao.sol\":2664:2673  proposals */\n      0x00\n        /* \"CenterDao.sol\":2664:2680  proposals.length */\n      dup1\n      sload\n      swap1\n      pop\n        /* \"CenterDao.sol\":2647:2661  _proposalIndex */\n      dup3\n        /* \"CenterDao.sol\":2647:2680  _proposalIndex < proposals.length */\n      lt\n        /* \"CenterDao.sol\":2639:2708  require(_proposalIndex < proposals.length, \"Proposal does not exist\") */\n      tag_80\n      jumpi\n      mload(0x40)\n      0x08c379a000000000000000000000000000000000000000000000000000000000\n      dup2\n      mstore\n      0x04\n      add\n      tag_81\n      swap1\n      tag_72\n      jump\t// in\n    tag_81:\n      mload(0x40)\n      dup1\n      swap2\n      sub\n      swap1\n      revert\n    tag_80:\n        /* \"CenterDao.sol\":2719:2744  Proposal storage proposal */\n      0x00\n        /* \"CenterDao.sol\":2747:2756  proposals */\n      dup1\n        /* \"CenterDao.sol\":2757:2771  _proposalIndex */\n      dup4\n        /* \"CenterDao.sol\":2747:2772  proposals[_proposalIndex] */\n      dup2\n      sload\n      dup2\n      lt\n      tag_82\n      jumpi\n      tag_83\n      tag_56\n      jump\t// in\n    tag_83:\n    tag_82:\n      swap1\n      0x00\n      mstore\n      keccak256(0x00, 0x20)\n      swap1\n      0x08\n      mul\n      add\n        /* \"CenterDao.sol\":2719:2772  Proposal storage proposal = proposals[_proposalIndex] */\n      swap1\n      pop\n        /* \"CenterDao.sol\":2790:2798  proposal */\n      dup1\n        /* \"CenterDao.sol\":2783:2798  return proposal */\n      mload(0x40)\n      dup1\n      0x0100\n      add\n      0x40\n      mstore\n      swap1\n      dup2\n      0x00\n      dup3\n      add\n      sload\n      dup2\n      mstore\n      0x20\n      add\n      0x01\n      dup3\n      add\n      dup1\n      sload\n      tag_85\n      swap1\n      tag_86\n      jump\t// in\n    tag_85:\n      dup1\n      0x1f\n      add\n      0x20\n      dup1\n      swap2\n      div\n      mul\n      0x20\n      add\n      mload(0x40)\n      swap1\n      dup2\n      add\n      0x40\n      mstore\n      dup1\n      swap3\n      swap2\n      swap1\n      dup2\n      dup2\n      mstore\n      0x20\n      add\n      dup3\n      dup1\n      sload\n      tag_87\n      swap1\n      tag_86\n      jump\t// in\n    tag_87:\n      dup1\n      iszero\n      tag_88\n      jumpi\n      dup1\n      0x1f\n      lt\n      tag_89\n      jumpi\n      0x0100\n      dup1\n      dup4\n      sload\n      div\n      mul\n      dup4\n      mstore\n      swap2\n      0x20\n      add\n      swap2\n      jump(tag_88)\n    tag_89:\n      dup3\n      add\n      swap2\n      swap1\n      0x00\n      mstore\n      keccak256(0x00, 0x20)\n      swap1\n    tag_90:\n      dup2\n      sload\n      dup2\n      mstore\n      swap1\n      0x01\n      add\n      swap1\n      0x20\n      add\n      dup1\n      dup4\n      gt\n      tag_90\n      jumpi\n      dup3\n      swap1\n      sub\n      0x1f\n      and\n      dup3\n      add\n      swap2\n    tag_88:\n      pop\n      pop\n      pop\n      pop\n      pop\n      dup2\n      mstore\n      0x20\n      add\n      0x02\n      dup3\n      add\n      dup1\n      sload\n      tag_91\n      swap1\n      tag_86\n      jump\t// in\n    tag_91:\n      dup1\n      0x1f\n      add\n      0x20\n      dup1\n      swap2\n      div\n      mul\n      0x20\n      add\n      mload(0x40)\n      swap1\n      dup2\n      add\n      0x40\n      mstore\n      dup1\n      swap3\n      swap2\n      swap1\n      dup2\n      dup2\n      mstore\n      0x20\n      add\n      dup3\n      dup1\n      sload\n      tag_92\n      swap1\n      tag_86\n      jump\t// in\n    tag_92:\n      dup1\n      iszero\n      tag_93\n      jumpi\n      dup1\n      0x1f\n      lt\n      tag_94\n      jumpi\n      0x0100\n      dup1\n      dup4\n      sload\n      div\n      mul\n      dup4\n      mstore\n      swap2\n      0x20\n      add\n      swap2\n      jump(tag_93)\n    tag_94:\n      dup3\n      add\n      swap2\n      swap1\n      0x00\n      mstore\n      keccak256(0x00, 0x20)\n      swap1\n    tag_95:\n      dup2\n      sload\n      dup2\n      mstore\n      swap1\n      0x01\n      add\n      swap1\n      0x20\n      add\n      dup1\n      dup4\n      gt\n      tag_95\n      jumpi\n      dup3\n      swap1\n      sub\n      0x1f\n      and\n      dup3\n      add\n      swap2\n    tag_93:\n      pop\n      pop\n      pop\n      pop\n      pop\n      dup2\n      mstore\n      0x20\n      add\n      0x03\n      dup3\n      add\n      0x00\n      swap1\n      sload\n      swap1\n      0x0100\n      exp\n      swap1\n      div\n      0xffffffffffffffffffffffffffffffffffffffff\n      and\n      0xffffffffffffffffffffffffffffffffffffffff\n      and\n      0xffffffffffffffffffffffffffffffffffffffff\n      and\n      dup2\n      mstore\n      0x20\n      add\n      0x04\n      dup3\n      add\n      sload\n      dup2\n      mstore\n      0x20\n      add\n      0x05\n      dup3\n      add\n      0x00\n      swap1\n      sload\n      swap1\n      0x0100\n      exp\n      swap1\n      div\n      0xff\n      and\n      iszero\n      iszero\n      iszero\n      iszero\n      dup2\n      mstore\n      0x20\n      add\n      0x06\n      dup3\n      add\n      sload\n      dup2\n      mstore\n      0x20\n      add\n      0x07\n      dup3\n      add\n      sload\n      dup2\n      mstore\n      pop\n      pop\n      swap2\n      pop\n      pop\n        /* \"CenterDao.sol\":2545:2806  function getProposal(uint256 _proposalIndex) public view returns (Proposal memory) {... */\n      swap2\n      swap1\n      pop\n      jump\t// out\n        /* \"CenterDao.sol\":1143:2010  function vote(uint256 _proposalIndex, bool _vote) public {... */\n    tag_43:\n        /* \"CenterDao.sol\":1236:1245  proposals */\n      0x00\n        /* \"CenterDao.sol\":1236:1252  proposals.length */\n      dup1\n      sload\n      swap1\n      pop\n        /* \"CenterDao.sol\":1219:1233  _proposalIndex */\n      dup3\n        /* \"CenterDao.sol\":1219:1252  _proposalIndex < proposals.length */\n      lt\n        /* \"CenterDao.sol\":1211:1280  require(_proposalIndex < proposals.length, \"Proposal does not exist\") */\n      tag_97\n      jumpi\n      mload(0x40)\n      0x08c379a000000000000000000000000000000000000000000000000000000000\n      dup2\n      mstore\n      0x04\n      add\n      tag_98\n      swap1\n      tag_72\n      jump\t// in\n    tag_98:\n      mload(0x40)\n      dup1\n      swap2\n      sub\n      swap1\n      revert\n    tag_97:\n        /* \"CenterDao.sol\":1291:1316  Proposal storage proposal */\n      0x00\n        /* \"CenterDao.sol\":1319:1328  proposals */\n      dup1\n        /* \"CenterDao.sol\":1329:1343  _proposalIndex */\n      dup4\n        /* \"CenterDao.sol\":1319:1344  proposals[_proposalIndex] */\n      dup2\n      sload\n      dup2\n      lt\n      tag_99\n      jumpi\n      tag_100\n      tag_56\n      jump\t// in\n    tag_100:\n    tag_99:\n      swap1\n      0x00\n      mstore\n      keccak256(0x00, 0x20)\n      swap1\n      0x08\n      mul\n      add\n        /* \"CenterDao.sol\":1291:1344  Proposal storage proposal = proposals[_proposalIndex] */\n      swap1\n      pop\n        /* \"CenterDao.sol\":1382:1390  proposal */\n      dup1\n        /* \"CenterDao.sol\":1382:1399  proposal.deadline */\n      0x04\n      add\n      sload\n        /* \"CenterDao.sol\":1363:1378  block.timestamp */\n      timestamp\n        /* \"CenterDao.sol\":1363:1399  block.timestamp <= proposal.deadline */\n      gt\n      iszero\n        /* \"CenterDao.sol\":1355:1420  require(block.timestamp <= proposal.deadline, \"Voting has ended\") */\n      tag_102\n      jumpi\n      mload(0x40)\n      0x08c379a000000000000000000000000000000000000000000000000000000000\n      dup2\n      mstore\n      0x04\n      add\n      tag_103\n      swap1\n      tag_104\n      jump\t// in\n    tag_103:\n      mload(0x40)\n      dup1\n      swap2\n      sub\n      swap1\n      revert\n    tag_102:\n        /* \"CenterDao.sol\":1440:1448  proposal */\n      dup1\n        /* \"CenterDao.sol\":1440:1457  proposal.executed */\n      0x05\n      add\n      0x00\n      swap1\n      sload\n      swap1\n      0x0100\n      exp\n      swap1\n      div\n      0xff\n      and\n        /* \"CenterDao.sol\":1439:1457  !proposal.executed */\n      iszero\n        /* \"CenterDao.sol\":1431:1487  require(!proposal.executed, \"Proposal already executed\") */\n      tag_105\n      jumpi\n      mload(0x40)\n      0x08c379a000000000000000000000000000000000000000000000000000000000\n      dup2\n      mstore\n      0x04\n      add\n      tag_106\n      swap1\n      tag_63\n      jump\t// in\n    tag_106:\n      mload(0x40)\n      dup1\n      swap2\n      sub\n      swap1\n      revert\n    tag_105:\n        /* \"CenterDao.sol\":1538:1544  uint i */\n      0x00\n        /* \"CenterDao.sol\":1534:1702  for(uint i = 0; i < proposalVotes[_proposalIndex].length; i++) {... */\n    tag_107:\n        /* \"CenterDao.sol\":1554:1567  proposalVotes */\n      0x01\n        /* \"CenterDao.sol\":1554:1583  proposalVotes[_proposalIndex] */\n      0x00\n        /* \"CenterDao.sol\":1568:1582  _proposalIndex */\n      dup6\n        /* \"CenterDao.sol\":1554:1583  proposalVotes[_proposalIndex] */\n      dup2\n      mstore\n      0x20\n      add\n      swap1\n      dup2\n      mstore\n      0x20\n      add\n      0x00\n      keccak256\n        /* \"CenterDao.sol\":1554:1590  proposalVotes[_proposalIndex].length */\n      dup1\n      sload\n      swap1\n      pop\n        /* \"CenterDao.sol\":1550:1551  i */\n      dup2\n        /* \"CenterDao.sol\":1550:1590  i < proposalVotes[_proposalIndex].length */\n      lt\n        /* \"CenterDao.sol\":1534:1702  for(uint i = 0; i < proposalVotes[_proposalIndex].length; i++) {... */\n      iszero\n      tag_108\n      jumpi\n        /* \"CenterDao.sol\":1662:1672  msg.sender */\n      caller\n        /* \"CenterDao.sol\":1620:1672  proposalVotes[_proposalIndex][i].voter != msg.sender */\n      0xffffffffffffffffffffffffffffffffffffffff\n      and\n        /* \"CenterDao.sol\":1620:1633  proposalVotes */\n      0x01\n        /* \"CenterDao.sol\":1620:1649  proposalVotes[_proposalIndex] */\n      0x00\n        /* \"CenterDao.sol\":1634:1648  _proposalIndex */\n      dup7\n        /* \"CenterDao.sol\":1620:1649  proposalVotes[_proposalIndex] */\n      dup2\n      mstore\n      0x20\n      add\n      swap1\n      dup2\n      mstore\n      0x20\n      add\n      0x00\n      keccak256\n        /* \"CenterDao.sol\":1650:1651  i */\n      dup3\n        /* \"CenterDao.sol\":1620:1652  proposalVotes[_proposalIndex][i] */\n      dup2\n      sload\n      dup2\n      lt\n      tag_110\n      jumpi\n      tag_111\n      tag_56\n      jump\t// in\n    tag_111:\n    tag_110:\n      swap1\n      0x00\n      mstore\n      keccak256(0x00, 0x20)\n      swap1\n      0x03\n      mul\n      add\n        /* \"CenterDao.sol\":1620:1658  proposalVotes[_proposalIndex][i].voter */\n      0x00\n      add\n      0x00\n      swap1\n      sload\n      swap1\n      0x0100\n      exp\n      swap1\n      div\n      0xffffffffffffffffffffffffffffffffffffffff\n      and\n        /* \"CenterDao.sol\":1620:1672  proposalVotes[_proposalIndex][i].voter != msg.sender */\n      0xffffffffffffffffffffffffffffffffffffffff\n      and\n      sub\n        /* \"CenterDao.sol\":1612:1690  require(proposalVotes[_proposalIndex][i].voter != msg.sender, \"Already voted\") */\n      tag_113\n      jumpi\n      mload(0x40)\n      0x08c379a000000000000000000000000000000000000000000000000000000000\n      dup2\n      mstore\n      0x04\n      add\n      tag_114\n      swap1\n      tag_115\n      jump\t// in\n    tag_114:\n      mload(0x40)\n      dup1\n      swap2\n      sub\n      swap1\n      revert\n    tag_113:\n        /* \"CenterDao.sol\":1592:1595  i++ */\n      dup1\n      dup1\n      tag_116\n      swap1\n      tag_117\n      jump\t// in\n    tag_116:\n      swap2\n      pop\n      pop\n        /* \"CenterDao.sol\":1534:1702  for(uint i = 0; i < proposalVotes[_proposalIndex].length; i++) {... */\n      jump(tag_107)\n    tag_108:\n      pop\n        /* \"CenterDao.sol\":1714:1727  proposalVotes */\n      0x01\n        /* \"CenterDao.sol\":1714:1743  proposalVotes[_proposalIndex] */\n      0x00\n        /* \"CenterDao.sol\":1728:1742  _proposalIndex */\n      dup5\n        /* \"CenterDao.sol\":1714:1743  proposalVotes[_proposalIndex] */\n      dup2\n      mstore\n      0x20\n      add\n      swap1\n      dup2\n      mstore\n      0x20\n      add\n      0x00\n      keccak256\n        /* \"CenterDao.sol\":1749:1870  VoteRecord({... */\n      mload(0x40)\n      dup1\n      0x60\n      add\n      0x40\n      mstore\n      dup1\n        /* \"CenterDao.sol\":1782:1792  msg.sender */\n      caller\n        /* \"CenterDao.sol\":1749:1870  VoteRecord({... */\n      0xffffffffffffffffffffffffffffffffffffffff\n      and\n      dup2\n      mstore\n      0x20\n      add\n        /* \"CenterDao.sol\":1843:1858  block.timestamp */\n      timestamp\n        /* \"CenterDao.sol\":1749:1870  VoteRecord({... */\n      dup2\n      mstore\n      0x20\n      add\n        /* \"CenterDao.sol\":1813:1818  _vote */\n      dup5\n        /* \"CenterDao.sol\":1749:1870  VoteRecord({... */\n      iszero\n      iszero\n      dup2\n      mstore\n      pop\n        /* \"CenterDao.sol\":1714:1871  proposalVotes[_proposalIndex].push(VoteRecord({... */\n      swap1\n      dup1\n      0x01\n      dup2\n      sload\n      add\n      dup1\n      dup3\n      sstore\n      dup1\n      swap2\n      pop\n      pop\n      0x01\n      swap1\n      sub\n      swap1\n      0x00\n      mstore\n      keccak256(0x00, 0x20)\n      swap1\n      0x03\n      mul\n      add\n      0x00\n      swap1\n      swap2\n      swap1\n      swap2\n      swap1\n      swap2\n      pop\n      0x00\n      dup3\n      add\n      mload\n      dup2\n      0x00\n      add\n      exp(0x0100, 0x00)\n      dup2\n      sload\n      dup2\n      0xffffffffffffffffffffffffffffffffffffffff\n      mul\n      not\n      and\n      swap1\n      dup4\n      0xffffffffffffffffffffffffffffffffffffffff\n      and\n      mul\n      or\n      swap1\n      sstore\n      pop\n      0x20\n      dup3\n      add\n      mload\n      dup2\n      0x01\n      add\n      sstore\n      0x40\n      dup3\n      add\n      mload\n      dup2\n      0x02\n      add\n      exp(0x0100, 0x00)\n      dup2\n      sload\n      dup2\n      0xff\n      mul\n      not\n      and\n      swap1\n      dup4\n      iszero\n      iszero\n      mul\n      or\n      swap1\n      sstore\n      pop\n      pop\n      pop\n        /* \"CenterDao.sol\":1888:1893  _vote */\n      dup2\n        /* \"CenterDao.sol\":1884:2003  if (_vote) {... */\n      iszero\n      tag_119\n      jumpi\n        /* \"CenterDao.sol\":1910:1918  proposal */\n      dup1\n        /* \"CenterDao.sol\":1910:1932  proposal.positiveVotes */\n      0x06\n      add\n      0x00\n        /* \"CenterDao.sol\":1910:1934  proposal.positiveVotes++ */\n      dup2\n      sload\n      dup1\n      swap3\n      swap2\n      swap1\n      tag_120\n      swap1\n      tag_117\n      jump\t// in\n    tag_120:\n      swap2\n      swap1\n      pop\n      sstore\n      pop\n        /* \"CenterDao.sol\":1884:2003  if (_vote) {... */\n      jump(tag_121)\n    tag_119:\n        /* \"CenterDao.sol\":1967:1975  proposal */\n      dup1\n        /* \"CenterDao.sol\":1967:1989  proposal.negativeVotes */\n      0x07\n      add\n      0x00\n        /* \"CenterDao.sol\":1967:1991  proposal.negativeVotes++ */\n      dup2\n      sload\n      dup1\n      swap3\n      swap2\n      swap1\n      tag_122\n      swap1\n      tag_117\n      jump\t// in\n    tag_122:\n      swap2\n      swap1\n      pop\n      sstore\n      pop\n        /* \"CenterDao.sol\":1884:2003  if (_vote) {... */\n    tag_121:\n        /* \"CenterDao.sol\":1200:2010  {... */\n      pop\n        /* \"CenterDao.sol\":1143:2010  function vote(uint256 _proposalIndex, bool _vote) public {... */\n      pop\n      pop\n      jump\t// out\n        /* \"CenterDao.sol\":3255:3358  function getAllProposals() public  view  returns (Proposal[] memory){... */\n    tag_45:\n        /* \"CenterDao.sol\":3305:3322  Proposal[] memory */\n      0x60\n        /* \"CenterDao.sol\":3341:3350  proposals */\n      0x00\n        /* \"CenterDao.sol\":3334:3350  return proposals */\n      dup1\n      sload\n      dup1\n      0x20\n      mul\n      0x20\n      add\n      mload(0x40)\n      swap1\n      dup2\n      add\n      0x40\n      mstore\n      dup1\n      swap3\n      swap2\n      swap1\n      dup2\n      dup2\n      mstore\n      0x20\n      add\n      0x00\n      swap1\n    tag_124:\n      dup3\n      dup3\n      lt\n      iszero\n      tag_125\n      jumpi\n      dup4\n      dup3\n      swap1\n      0x00\n      mstore\n      keccak256(0x00, 0x20)\n      swap1\n      0x08\n      mul\n      add\n      mload(0x40)\n      dup1\n      0x0100\n      add\n      0x40\n      mstore\n      swap1\n      dup2\n      0x00\n      dup3\n      add\n      sload\n      dup2\n      mstore\n      0x20\n      add\n      0x01\n      dup3\n      add\n      dup1\n      sload\n      tag_127\n      swap1\n      tag_86\n      jump\t// in\n    tag_127:\n      dup1\n      0x1f\n      add\n      0x20\n      dup1\n      swap2\n      div\n      mul\n      0x20\n      add\n      mload(0x40)\n      swap1\n      dup2\n      add\n      0x40\n      mstore\n      dup1\n      swap3\n      swap2\n      swap1\n      dup2\n      dup2\n      mstore\n      0x20\n      add\n      dup3\n      dup1\n      sload\n      tag_128\n      swap1\n      tag_86\n      jump\t// in\n    tag_128:\n      dup1\n      iszero\n      tag_129\n      jumpi\n      dup1\n      0x1f\n      lt\n      tag_130\n      jumpi\n      0x0100\n      dup1\n      dup4\n      sload\n      div\n      mul\n      dup4\n      mstore\n      swap2\n      0x20\n      add\n      swap2\n      jump(tag_129)\n    tag_130:\n      dup3\n      add\n      swap2\n      swap1\n      0x00\n      mstore\n      keccak256(0x00, 0x20)\n      swap1\n    tag_131:\n      dup2\n      sload\n      dup2\n      mstore\n      swap1\n      0x01\n      add\n      swap1\n      0x20\n      add\n      dup1\n      dup4\n      gt\n      tag_131\n      jumpi\n      dup3\n      swap1\n      sub\n      0x1f\n      and\n      dup3\n      add\n      swap2\n    tag_129:\n      pop\n      pop\n      pop\n      pop\n      pop\n      dup2\n      mstore\n      0x20\n      add\n      0x02\n      dup3\n      add\n      dup1\n      sload\n      tag_132\n      swap1\n      tag_86\n      jump\t// in\n    tag_132:\n      dup1\n      0x1f\n      add\n      0x20\n      dup1\n      swap2\n      div\n      mul\n      0x20\n      add\n      mload(0x40)\n      swap1\n      dup2\n      add\n      0x40\n      mstore\n      dup1\n      swap3\n      swap2\n      swap1\n      dup2\n      dup2\n      mstore\n      0x20\n      add\n      dup3\n      dup1\n      sload\n      tag_133\n      swap1\n      tag_86\n      jump\t// in\n    tag_133:\n      dup1\n      iszero\n      tag_134\n      jumpi\n      dup1\n      0x1f\n      lt\n      tag_135\n      jumpi\n      0x0100\n      dup1\n      dup4\n      sload\n      div\n      mul\n      dup4\n      mstore\n      swap2\n      0x20\n      add\n      swap2\n      jump(tag_134)\n    tag_135:\n      dup3\n      add\n      swap2\n      swap1\n      0x00\n      mstore\n      keccak256(0x00, 0x20)\n      swap1\n    tag_136:\n      dup2\n      sload\n      dup2\n      mstore\n      swap1\n      0x01\n      add\n      swap1\n      0x20\n      add\n      dup1\n      dup4\n      gt\n      tag_136\n      jumpi\n      dup3\n      swap1\n      sub\n      0x1f\n      and\n      dup3\n      add\n      swap2\n    tag_134:\n      pop\n      pop\n      pop\n      pop\n      pop\n      dup2\n      mstore\n      0x20\n      add\n      0x03\n      dup3\n      add\n      0x00\n      swap1\n      sload\n      swap1\n      0x0100\n      exp\n      swap1\n      div\n      0xffffffffffffffffffffffffffffffffffffffff\n      and\n      0xffffffffffffffffffffffffffffffffffffffff\n      and\n      0xffffffffffffffffffffffffffffffffffffffff\n      and\n      dup2\n      mstore\n      0x20\n      add\n      0x04\n      dup3\n      add\n      sload\n      dup2\n      mstore\n      0x20\n      add\n      0x05\n      dup3\n      add\n      0x00\n      swap1\n      sload\n      swap1\n      0x0100\n      exp\n      swap1\n      div\n      0xff\n      and\n      iszero\n      iszero\n      iszero\n      iszero\n      dup2\n      mstore\n      0x20\n      add\n      0x06\n      dup3\n      add\n      sload\n      dup2\n      mstore\n      0x20\n      add\n      0x07\n      dup3\n      add\n      sload\n      dup2\n      mstore\n      pop\n      pop\n      dup2\n      mstore\n      0x20\n      add\n      swap1\n      0x01\n      add\n      swap1\n      jump(tag_124)\n    tag_125:\n      pop\n      pop\n      pop\n      pop\n      swap1\n      pop\n        /* \"CenterDao.sol\":3255:3358  function getAllProposals() public  view  returns (Proposal[] memory){... */\n      swap1\n      jump\t// out\n    tag_78:\n      mload(0x40)\n      dup1\n      0x0100\n      add\n      0x40\n      mstore\n      dup1\n      0x00\n      dup2\n      mstore\n      0x20\n      add\n      0x60\n      dup2\n      mstore\n      0x20\n      add\n      0x60\n      dup2\n      mstore\n      0x20\n      add\n      and(0xffffffffffffffffffffffffffffffffffffffff, 0x00)\n      dup2\n      mstore\n      0x20\n      add\n      0x00\n      dup2\n      mstore\n      0x20\n      add\n      iszero(iszero(0x00))\n      dup2\n      mstore\n      0x20\n      add\n      0x00\n      dup2\n      mstore\n      0x20\n      add\n      0x00\n      dup2\n      mstore\n      pop\n      swap1\n      jump\t// out\n        /* \"#utility.yul\":7:82   */\n    tag_137:\n        /* \"#utility.yul\":40:46   */\n      0x00\n        /* \"#utility.yul\":73:75   */\n      0x40\n        /* \"#utility.yul\":67:76   */\n      mload\n        /* \"#utility.yul\":57:76   */\n      swap1\n      pop\n        /* \"#utility.yul\":7:82   */\n      swap1\n      jump\t// out\n        /* \"#utility.yul\":88:205   */\n    tag_138:\n        /* \"#utility.yul\":197:198   */\n      0x00\n        /* \"#utility.yul\":194:195   */\n      dup1\n        /* \"#utility.yul\":187:199   */\n      revert\n        /* \"#utility.yul\":211:328   */\n    tag_139:\n        /* \"#utility.yul\":320:321   */\n      0x00\n        /* \"#utility.yul\":317:318   */\n      dup1\n        /* \"#utility.yul\":310:322   */\n      revert\n        /* \"#utility.yul\":334:451   */\n    tag_140:\n        /* \"#utility.yul\":443:444   */\n      0x00\n        /* \"#utility.yul\":440:441   */\n      dup1\n        /* \"#utility.yul\":433:445   */\n      revert\n        /* \"#utility.yul\":457:574   */\n    tag_141:\n        /* \"#utility.yul\":566:567   */\n      0x00\n        /* \"#utility.yul\":563:564   */\n      dup1\n        /* \"#utility.yul\":556:568   */\n      revert\n        /* \"#utility.yul\":580:682   */\n    tag_142:\n        /* \"#utility.yul\":621:627   */\n      0x00\n        /* \"#utility.yul\":672:674   */\n      0x1f\n        /* \"#utility.yul\":668:675   */\n      not\n        /* \"#utility.yul\":663:665   */\n      0x1f\n        /* \"#utility.yul\":656:661   */\n      dup4\n        /* \"#utility.yul\":652:666   */\n      add\n        /* \"#utility.yul\":648:676   */\n      and\n        /* \"#utility.yul\":638:676   */\n      swap1\n      pop\n        /* \"#utility.yul\":580:682   */\n      swap2\n      swap1\n      pop\n      jump\t// out\n        /* \"#utility.yul\":688:868   */\n    tag_143:\n        /* \"#utility.yul\":736:813   */\n      0x4e487b7100000000000000000000000000000000000000000000000000000000\n        /* \"#utility.yul\":733:734   */\n      0x00\n        /* \"#utility.yul\":726:814   */\n      mstore\n        /* \"#utility.yul\":833:837   */\n      0x41\n        /* \"#utility.yul\":830:831   */\n      0x04\n        /* \"#utility.yul\":823:838   */\n      mstore\n        /* \"#utility.yul\":857:861   */\n      0x24\n        /* \"#utility.yul\":854:855   */\n      0x00\n        /* \"#utility.yul\":847:862   */\n      revert\n        /* \"#utility.yul\":874:1155   */\n    tag_144:\n        /* \"#utility.yul\":957:984   */\n      tag_222\n        /* \"#utility.yul\":979:983   */\n      dup3\n        /* \"#utility.yul\":957:984   */\n      tag_142\n      jump\t// in\n    tag_222:\n        /* \"#utility.yul\":949:955   */\n      dup2\n        /* \"#utility.yul\":945:985   */\n      add\n        /* \"#utility.yul\":1087:1093   */\n      dup2\n        /* \"#utility.yul\":1075:1085   */\n      dup2\n        /* \"#utility.yul\":1072:1094   */\n      lt\n        /* \"#utility.yul\":1051:1069   */\n      0xffffffffffffffff\n        /* \"#utility.yul\":1039:1049   */\n      dup3\n        /* \"#utility.yul\":1036:1070   */\n      gt\n        /* \"#utility.yul\":1033:1095   */\n      or\n        /* \"#utility.yul\":1030:1118   */\n      iszero\n      tag_223\n      jumpi\n        /* \"#utility.yul\":1098:1116   */\n      tag_224\n      tag_143\n      jump\t// in\n    tag_224:\n        /* \"#utility.yul\":1030:1118   */\n    tag_223:\n        /* \"#utility.yul\":1138:1148   */\n      dup1\n        /* \"#utility.yul\":1134:1136   */\n      0x40\n        /* \"#utility.yul\":1127:1149   */\n      mstore\n        /* \"#utility.yul\":917:1155   */\n      pop\n        /* \"#utility.yul\":874:1155   */\n      pop\n      pop\n      jump\t// out\n        /* \"#utility.yul\":1161:1290   */\n    tag_145:\n        /* \"#utility.yul\":1195:1201   */\n      0x00\n        /* \"#utility.yul\":1222:1242   */\n      tag_226\n      tag_137\n      jump\t// in\n    tag_226:\n        /* \"#utility.yul\":1212:1242   */\n      swap1\n      pop\n        /* \"#utility.yul\":1251:1284   */\n      tag_227\n        /* \"#utility.yul\":1279:1283   */\n      dup3\n        /* \"#utility.yul\":1271:1277   */\n      dup3\n        /* \"#utility.yul\":1251:1284   */\n      tag_144\n      jump\t// in\n    tag_227:\n        /* \"#utility.yul\":1161:1290   */\n      swap2\n      swap1\n      pop\n      jump\t// out\n        /* \"#utility.yul\":1296:1604   */\n    tag_146:\n        /* \"#utility.yul\":1358:1362   */\n      0x00\n        /* \"#utility.yul\":1448:1466   */\n      0xffffffffffffffff\n        /* \"#utility.yul\":1440:1446   */\n      dup3\n        /* \"#utility.yul\":1437:1467   */\n      gt\n        /* \"#utility.yul\":1434:1490   */\n      iszero\n      tag_229\n      jumpi\n        /* \"#utility.yul\":1470:1488   */\n      tag_230\n      tag_143\n      jump\t// in\n    tag_230:\n        /* \"#utility.yul\":1434:1490   */\n    tag_229:\n        /* \"#utility.yul\":1508:1537   */\n      tag_231\n        /* \"#utility.yul\":1530:1536   */\n      dup3\n        /* \"#utility.yul\":1508:1537   */\n      tag_142\n      jump\t// in\n    tag_231:\n        /* \"#utility.yul\":1500:1537   */\n      swap1\n      pop\n        /* \"#utility.yul\":1592:1596   */\n      0x20\n        /* \"#utility.yul\":1586:1590   */\n      dup2\n        /* \"#utility.yul\":1582:1597   */\n      add\n        /* \"#utility.yul\":1574:1597   */\n      swap1\n      pop\n        /* \"#utility.yul\":1296:1604   */\n      swap2\n      swap1\n      pop\n      jump\t// out\n        /* \"#utility.yul\":1610:1756   */\n    tag_147:\n        /* \"#utility.yul\":1707:1713   */\n      dup3\n        /* \"#utility.yul\":1702:1705   */\n      dup2\n        /* \"#utility.yul\":1697:1700   */\n      dup4\n        /* \"#utility.yul\":1684:1714   */\n      calldatacopy\n        /* \"#utility.yul\":1748:1749   */\n      0x00\n        /* \"#utility.yul\":1739:1745   */\n      dup4\n        /* \"#utility.yul\":1734:1737   */\n      dup4\n        /* \"#utility.yul\":1730:1746   */\n      add\n        /* \"#utility.yul\":1723:1750   */\n      mstore\n        /* \"#utility.yul\":1610:1756   */\n      pop\n      pop\n      pop\n      jump\t// out\n        /* \"#utility.yul\":1762:2187   */\n    tag_148:\n        /* \"#utility.yul\":1840:1845   */\n      0x00\n        /* \"#utility.yul\":1865:1931   */\n      tag_234\n        /* \"#utility.yul\":1881:1930   */\n      tag_235\n        /* \"#utility.yul\":1923:1929   */\n      dup5\n        /* \"#utility.yul\":1881:1930   */\n      tag_146\n      jump\t// in\n    tag_235:\n        /* \"#utility.yul\":1865:1931   */\n      tag_145\n      jump\t// in\n    tag_234:\n        /* \"#utility.yul\":1856:1931   */\n      swap1\n      pop\n        /* \"#utility.yul\":1954:1960   */\n      dup3\n        /* \"#utility.yul\":1947:1952   */\n      dup2\n        /* \"#utility.yul\":1940:1961   */\n      mstore\n        /* \"#utility.yul\":1992:1996   */\n      0x20\n        /* \"#utility.yul\":1985:1990   */\n      dup2\n        /* \"#utility.yul\":1981:1997   */\n      add\n        /* \"#utility.yul\":2030:2033   */\n      dup5\n        /* \"#utility.yul\":2021:2027   */\n      dup5\n        /* \"#utility.yul\":2016:2019   */\n      dup5\n        /* \"#utility.yul\":2012:2028   */\n      add\n        /* \"#utility.yul\":2009:2034   */\n      gt\n        /* \"#utility.yul\":2006:2118   */\n      iszero\n      tag_236\n      jumpi\n        /* \"#utility.yul\":2037:2116   */\n      tag_237\n      tag_141\n      jump\t// in\n    tag_237:\n        /* \"#utility.yul\":2006:2118   */\n    tag_236:\n        /* \"#utility.yul\":2127:2181   */\n      tag_238\n        /* \"#utility.yul\":2174:2180   */\n      dup5\n        /* \"#utility.yul\":2169:2172   */\n      dup3\n        /* \"#utility.yul\":2164:2167   */\n      dup6\n        /* \"#utility.yul\":2127:2181   */\n      tag_147\n      jump\t// in\n    tag_238:\n        /* \"#utility.yul\":1846:2187   */\n      pop\n        /* \"#utility.yul\":1762:2187   */\n      swap4\n      swap3\n      pop\n      pop\n      pop\n      jump\t// out\n        /* \"#utility.yul\":2207:2547   */\n    tag_149:\n        /* \"#utility.yul\":2263:2268   */\n      0x00\n        /* \"#utility.yul\":2312:2315   */\n      dup3\n        /* \"#utility.yul\":2305:2309   */\n      0x1f\n        /* \"#utility.yul\":2297:2303   */\n      dup4\n        /* \"#utility.yul\":2293:2310   */\n      add\n        /* \"#utility.yul\":2289:2316   */\n      slt\n        /* \"#utility.yul\":2279:2401   */\n      tag_240\n      jumpi\n        /* \"#utility.yul\":2320:2399   */\n      tag_241\n      tag_140\n      jump\t// in\n    tag_241:\n        /* \"#utility.yul\":2279:2401   */\n    tag_240:\n        /* \"#utility.yul\":2437:2443   */\n      dup2\n        /* \"#utility.yul\":2424:2444   */\n      calldataload\n        /* \"#utility.yul\":2462:2541   */\n      tag_242\n        /* \"#utility.yul\":2537:2540   */\n      dup5\n        /* \"#utility.yul\":2529:2535   */\n      dup3\n        /* \"#utility.yul\":2522:2526   */\n      0x20\n        /* \"#utility.yul\":2514:2520   */\n      dup7\n        /* \"#utility.yul\":2510:2527   */\n      add\n        /* \"#utility.yul\":2462:2541   */\n      tag_148\n      jump\t// in\n    tag_242:\n        /* \"#utility.yul\":2453:2541   */\n      swap2\n      pop\n        /* \"#utility.yul\":2269:2547   */\n      pop\n        /* \"#utility.yul\":2207:2547   */\n      swap3\n      swap2\n      pop\n      pop\n      jump\t// out\n        /* \"#utility.yul\":2553:2630   */\n    tag_150:\n        /* \"#utility.yul\":2590:2597   */\n      0x00\n        /* \"#utility.yul\":2619:2624   */\n      dup2\n        /* \"#utility.yul\":2608:2624   */\n      swap1\n      pop\n        /* \"#utility.yul\":2553:2630   */\n      swap2\n      swap1\n      pop\n      jump\t// out\n        /* \"#utility.yul\":2636:2758   */\n    tag_151:\n        /* \"#utility.yul\":2709:2733   */\n      tag_245\n        /* \"#utility.yul\":2727:2732   */\n      dup2\n        /* \"#utility.yul\":2709:2733   */\n      tag_150\n      jump\t// in\n    tag_245:\n        /* \"#utility.yul\":2702:2707   */\n      dup2\n        /* \"#utility.yul\":2699:2734   */\n      eq\n        /* \"#utility.yul\":2689:2752   */\n      tag_246\n      jumpi\n        /* \"#utility.yul\":2748:2749   */\n      0x00\n        /* \"#utility.yul\":2745:2746   */\n      dup1\n        /* \"#utility.yul\":2738:2750   */\n      revert\n        /* \"#utility.yul\":2689:2752   */\n    tag_246:\n        /* \"#utility.yul\":2636:2758   */\n      pop\n      jump\t// out\n        /* \"#utility.yul\":2764:2903   */\n    tag_152:\n        /* \"#utility.yul\":2810:2815   */\n      0x00\n        /* \"#utility.yul\":2848:2854   */\n      dup2\n        /* \"#utility.yul\":2835:2855   */\n      calldataload\n        /* \"#utility.yul\":2826:2855   */\n      swap1\n      pop\n        /* \"#utility.yul\":2864:2897   */\n      tag_248\n        /* \"#utility.yul\":2891:2896   */\n      dup2\n        /* \"#utility.yul\":2864:2897   */\n      tag_151\n      jump\t// in\n    tag_248:\n        /* \"#utility.yul\":2764:2903   */\n      swap3\n      swap2\n      pop\n      pop\n      jump\t// out\n        /* \"#utility.yul\":2909:3888   */\n    tag_14:\n        /* \"#utility.yul\":3006:3012   */\n      0x00\n        /* \"#utility.yul\":3014:3020   */\n      dup1\n        /* \"#utility.yul\":3022:3028   */\n      0x00\n        /* \"#utility.yul\":3071:3073   */\n      0x60\n        /* \"#utility.yul\":3059:3068   */\n      dup5\n        /* \"#utility.yul\":3050:3057   */\n      dup7\n        /* \"#utility.yul\":3046:3069   */\n      sub\n        /* \"#utility.yul\":3042:3074   */\n      slt\n        /* \"#utility.yul\":3039:3158   */\n      iszero\n      tag_250\n      jumpi\n        /* \"#utility.yul\":3077:3156   */\n      tag_251\n      tag_138\n      jump\t// in\n    tag_251:\n        /* \"#utility.yul\":3039:3158   */\n    tag_250:\n        /* \"#utility.yul\":3225:3226   */\n      0x00\n        /* \"#utility.yul\":3214:3223   */\n      dup5\n        /* \"#utility.yul\":3210:3227   */\n      add\n        /* \"#utility.yul\":3197:3228   */\n      calldataload\n        /* \"#utility.yul\":3255:3273   */\n      0xffffffffffffffff\n        /* \"#utility.yul\":3247:3253   */\n      dup2\n        /* \"#utility.yul\":3244:3274   */\n      gt\n        /* \"#utility.yul\":3241:3358   */\n      iszero\n      tag_252\n      jumpi\n        /* \"#utility.yul\":3277:3356   */\n      tag_253\n      tag_139\n      jump\t// in\n    tag_253:\n        /* \"#utility.yul\":3241:3358   */\n    tag_252:\n        /* \"#utility.yul\":3382:3445   */\n      tag_254\n        /* \"#utility.yul\":3437:3444   */\n      dup7\n        /* \"#utility.yul\":3428:3434   */\n      dup3\n        /* \"#utility.yul\":3417:3426   */\n      dup8\n        /* \"#utility.yul\":3413:3435   */\n      add\n        /* \"#utility.yul\":3382:3445   */\n      tag_149\n      jump\t// in\n    tag_254:\n        /* \"#utility.yul\":3372:3445   */\n      swap4\n      pop\n        /* \"#utility.yul\":3168:3455   */\n      pop\n        /* \"#utility.yul\":3522:3524   */\n      0x20\n        /* \"#utility.yul\":3511:3520   */\n      dup5\n        /* \"#utility.yul\":3507:3525   */\n      add\n        /* \"#utility.yul\":3494:3526   */\n      calldataload\n        /* \"#utility.yul\":3553:3571   */\n      0xffffffffffffffff\n        /* \"#utility.yul\":3545:3551   */\n      dup2\n        /* \"#utility.yul\":3542:3572   */\n      gt\n        /* \"#utility.yul\":3539:3656   */\n      iszero\n      tag_255\n      jumpi\n        /* \"#utility.yul\":3575:3654   */\n      tag_256\n      tag_139\n      jump\t// in\n    tag_256:\n        /* \"#utility.yul\":3539:3656   */\n    tag_255:\n        /* \"#utility.yul\":3680:3743   */\n      tag_257\n        /* \"#utility.yul\":3735:3742   */\n      dup7\n        /* \"#utility.yul\":3726:3732   */\n      dup3\n        /* \"#utility.yul\":3715:3724   */\n      dup8\n        /* \"#utility.yul\":3711:3733   */\n      add\n        /* \"#utility.yul\":3680:3743   */\n      tag_149\n      jump\t// in\n    tag_257:\n        /* \"#utility.yul\":3670:3743   */\n      swap3\n      pop\n        /* \"#utility.yul\":3465:3753   */\n      pop\n        /* \"#utility.yul\":3792:3794   */\n      0x40\n        /* \"#utility.yul\":3818:3871   */\n      tag_258\n        /* \"#utility.yul\":3863:3870   */\n      dup7\n        /* \"#utility.yul\":3854:3860   */\n      dup3\n        /* \"#utility.yul\":3843:3852   */\n      dup8\n        /* \"#utility.yul\":3839:3861   */\n      add\n        /* \"#utility.yul\":3818:3871   */\n      tag_152\n      jump\t// in\n    tag_258:\n        /* \"#utility.yul\":3808:3871   */\n      swap2\n      pop\n        /* \"#utility.yul\":3763:3881   */\n      pop\n        /* \"#utility.yul\":2909:3888   */\n      swap3\n      pop\n      swap3\n      pop\n      swap3\n      jump\t// out\n        /* \"#utility.yul\":3894:4223   */\n    tag_18:\n        /* \"#utility.yul\":3953:3959   */\n      0x00\n        /* \"#utility.yul\":4002:4004   */\n      0x20\n        /* \"#utility.yul\":3990:3999   */\n      dup3\n        /* \"#utility.yul\":3981:3988   */\n      dup5\n        /* \"#utility.yul\":3977:4000   */\n      sub\n        /* \"#utility.yul\":3973:4005   */\n      slt\n        /* \"#utility.yul\":3970:4089   */\n      iszero\n      tag_260\n      jumpi\n        /* \"#utility.yul\":4008:4087   */\n      tag_261\n      tag_138\n      jump\t// in\n    tag_261:\n        /* \"#utility.yul\":3970:4089   */\n    tag_260:\n        /* \"#utility.yul\":4128:4129   */\n      0x00\n        /* \"#utility.yul\":4153:4206   */\n      tag_262\n        /* \"#utility.yul\":4198:4205   */\n      dup5\n        /* \"#utility.yul\":4189:4195   */\n      dup3\n        /* \"#utility.yul\":4178:4187   */\n      dup6\n        /* \"#utility.yul\":4174:4196   */\n      add\n        /* \"#utility.yul\":4153:4206   */\n      tag_152\n      jump\t// in\n    tag_262:\n        /* \"#utility.yul\":4143:4206   */\n      swap2\n      pop\n        /* \"#utility.yul\":4099:4216   */\n      pop\n        /* \"#utility.yul\":3894:4223   */\n      swap3\n      swap2\n      pop\n      pop\n      jump\t// out\n        /* \"#utility.yul\":4229:4703   */\n    tag_22:\n        /* \"#utility.yul\":4297:4303   */\n      0x00\n        /* \"#utility.yul\":4305:4311   */\n      dup1\n        /* \"#utility.yul\":4354:4356   */\n      0x40\n        /* \"#utility.yul\":4342:4351   */\n      dup4\n        /* \"#utility.yul\":4333:4340   */\n      dup6\n        /* \"#utility.yul\":4329:4352   */\n      sub\n        /* \"#utility.yul\":4325:4357   */\n      slt\n        /* \"#utility.yul\":4322:4441   */\n      iszero\n      tag_264\n      jumpi\n        /* \"#utility.yul\":4360:4439   */\n      tag_265\n      tag_138\n      jump\t// in\n    tag_265:\n        /* \"#utility.yul\":4322:4441   */\n    tag_264:\n        /* \"#utility.yul\":4480:4481   */\n      0x00\n        /* \"#utility.yul\":4505:4558   */\n      tag_266\n        /* \"#utility.yul\":4550:4557   */\n      dup6\n        /* \"#utility.yul\":4541:4547   */\n      dup3\n        /* \"#utility.yul\":4530:4539   */\n      dup7\n        /* \"#utility.yul\":4526:4548   */\n      add\n        /* \"#utility.yul\":4505:4558   */\n      tag_152\n      jump\t// in\n    tag_266:\n        /* \"#utility.yul\":4495:4558   */\n      swap3\n      pop\n        /* \"#utility.yul\":4451:4568   */\n      pop\n        /* \"#utility.yul\":4607:4609   */\n      0x20\n        /* \"#utility.yul\":4633:4686   */\n      tag_267\n        /* \"#utility.yul\":4678:4685   */\n      dup6\n        /* \"#utility.yul\":4669:4675   */\n      dup3\n        /* \"#utility.yul\":4658:4667   */\n      dup7\n        /* \"#utility.yul\":4654:4676   */\n      add\n        /* \"#utility.yul\":4633:4686   */\n      tag_152\n      jump\t// in\n    tag_267:\n        /* \"#utility.yul\":4623:4686   */\n      swap2\n      pop\n        /* \"#utility.yul\":4578:4696   */\n      pop\n        /* \"#utility.yul\":4229:4703   */\n      swap3\n      pop\n      swap3\n      swap1\n      pop\n      jump\t// out\n        /* \"#utility.yul\":4709:4835   */\n    tag_153:\n        /* \"#utility.yul\":4746:4753   */\n      0x00\n        /* \"#utility.yul\":4786:4828   */\n      0xffffffffffffffffffffffffffffffffffffffff\n        /* \"#utility.yul\":4779:4784   */\n      dup3\n        /* \"#utility.yul\":4775:4829   */\n      and\n        /* \"#utility.yul\":4764:4829   */\n      swap1\n      pop\n        /* \"#utility.yul\":4709:4835   */\n      swap2\n      swap1\n      pop\n      jump\t// out\n        /* \"#utility.yul\":4841:4937   */\n    tag_154:\n        /* \"#utility.yul\":4878:4885   */\n      0x00\n        /* \"#utility.yul\":4907:4931   */\n      tag_270\n        /* \"#utility.yul\":4925:4930   */\n      dup3\n        /* \"#utility.yul\":4907:4931   */\n      tag_153\n      jump\t// in\n    tag_270:\n        /* \"#utility.yul\":4896:4931   */\n      swap1\n      pop\n        /* \"#utility.yul\":4841:4937   */\n      swap2\n      swap1\n      pop\n      jump\t// out\n        /* \"#utility.yul\":4943:5061   */\n    tag_155:\n        /* \"#utility.yul\":5030:5054   */\n      tag_272\n        /* \"#utility.yul\":5048:5053   */\n      dup2\n        /* \"#utility.yul\":5030:5054   */\n      tag_154\n      jump\t// in\n    tag_272:\n        /* \"#utility.yul\":5025:5028   */\n      dup3\n        /* \"#utility.yul\":5018:5055   */\n      mstore\n        /* \"#utility.yul\":4943:5061   */\n      pop\n      pop\n      jump\t// out\n        /* \"#utility.yul\":5067:5185   */\n    tag_156:\n        /* \"#utility.yul\":5154:5178   */\n      tag_274\n        /* \"#utility.yul\":5172:5177   */\n      dup2\n        /* \"#utility.yul\":5154:5178   */\n      tag_150\n      jump\t// in\n    tag_274:\n        /* \"#utility.yul\":5149:5152   */\n      dup3\n        /* \"#utility.yul\":5142:5179   */\n      mstore\n        /* \"#utility.yul\":5067:5185   */\n      pop\n      pop\n      jump\t// out\n        /* \"#utility.yul\":5191:5281   */\n    tag_157:\n        /* \"#utility.yul\":5225:5232   */\n      0x00\n        /* \"#utility.yul\":5268:5273   */\n      dup2\n        /* \"#utility.yul\":5261:5274   */\n      iszero\n        /* \"#utility.yul\":5254:5275   */\n      iszero\n        /* \"#utility.yul\":5243:5275   */\n      swap1\n      pop\n        /* \"#utility.yul\":5191:5281   */\n      swap2\n      swap1\n      pop\n      jump\t// out\n        /* \"#utility.yul\":5287:5396   */\n    tag_158:\n        /* \"#utility.yul\":5368:5389   */\n      tag_277\n        /* \"#utility.yul\":5383:5388   */\n      dup2\n        /* \"#utility.yul\":5368:5389   */\n      tag_157\n      jump\t// in\n    tag_277:\n        /* \"#utility.yul\":5363:5366   */\n      dup3\n        /* \"#utility.yul\":5356:5390   */\n      mstore\n        /* \"#utility.yul\":5287:5396   */\n      pop\n      pop\n      jump\t// out\n        /* \"#utility.yul\":5402:5832   */\n    tag_25:\n        /* \"#utility.yul\":5545:5549   */\n      0x00\n        /* \"#utility.yul\":5583:5585   */\n      0x60\n        /* \"#utility.yul\":5572:5581   */\n      dup3\n        /* \"#utility.yul\":5568:5586   */\n      add\n        /* \"#utility.yul\":5560:5586   */\n      swap1\n      pop\n        /* \"#utility.yul\":5596:5667   */\n      tag_279\n        /* \"#utility.yul\":5664:5665   */\n      0x00\n        /* \"#utility.yul\":5653:5662   */\n      dup4\n        /* \"#utility.yul\":5649:5666   */\n      add\n        /* \"#utility.yul\":5640:5646   */\n      dup7\n        /* \"#utility.yul\":5596:5667   */\n      tag_155\n      jump\t// in\n    tag_279:\n        /* \"#utility.yul\":5677:5749   */\n      tag_280\n        /* \"#utility.yul\":5745:5747   */\n      0x20\n        /* \"#utility.yul\":5734:5743   */\n      dup4\n        /* \"#utility.yul\":5730:5748   */\n      add\n        /* \"#utility.yul\":5721:5727   */\n      dup6\n        /* \"#utility.yul\":5677:5749   */\n      tag_156\n      jump\t// in\n    tag_280:\n        /* \"#utility.yul\":5759:5825   */\n      tag_281\n        /* \"#utility.yul\":5821:5823   */\n      0x40\n        /* \"#utility.yul\":5810:5819   */\n      dup4\n        /* \"#utility.yul\":5806:5824   */\n      add\n        /* \"#utility.yul\":5797:5803   */\n      dup5\n        /* \"#utility.yul\":5759:5825   */\n      tag_158\n      jump\t// in\n    tag_281:\n        /* \"#utility.yul\":5402:5832   */\n      swap5\n      swap4\n      pop\n      pop\n      pop\n      pop\n      jump\t// out\n        /* \"#utility.yul\":5838:5978   */\n    tag_159:\n        /* \"#utility.yul\":5931:5937   */\n      0x00\n        /* \"#utility.yul\":5965:5970   */\n      dup2\n        /* \"#utility.yul\":5959:5971   */\n      mload\n        /* \"#utility.yul\":5949:5971   */\n      swap1\n      pop\n        /* \"#utility.yul\":5838:5978   */\n      swap2\n      swap1\n      pop\n      jump\t// out\n        /* \"#utility.yul\":5984:6194   */\n    tag_160:\n        /* \"#utility.yul\":6109:6120   */\n      0x00\n        /* \"#utility.yul\":6143:6149   */\n      dup3\n        /* \"#utility.yul\":6138:6141   */\n      dup3\n        /* \"#utility.yul\":6131:6150   */\n      mstore\n        /* \"#utility.yul\":6183:6187   */\n      0x20\n        /* \"#utility.yul\":6178:6181   */\n      dup3\n        /* \"#utility.yul\":6174:6188   */\n      add\n        /* \"#utility.yul\":6159:6188   */\n      swap1\n      pop\n        /* \"#utility.yul\":5984:6194   */\n      swap3\n      swap2\n      pop\n      pop\n      jump\t// out\n        /* \"#utility.yul\":6200:6358   */\n    tag_161:\n        /* \"#utility.yul\":6293:6297   */\n      0x00\n        /* \"#utility.yul\":6316:6319   */\n      dup2\n        /* \"#utility.yul\":6308:6319   */\n      swap1\n      pop\n        /* \"#utility.yul\":6346:6350   */\n      0x20\n        /* \"#utility.yul\":6341:6344   */\n      dup3\n        /* \"#utility.yul\":6337:6351   */\n      add\n        /* \"#utility.yul\":6329:6351   */\n      swap1\n      pop\n        /* \"#utility.yul\":6200:6358   */\n      swap2\n      swap1\n      pop\n      jump\t// out\n        /* \"#utility.yul\":6364:6472   */\n    tag_162:\n        /* \"#utility.yul\":6441:6465   */\n      tag_286\n        /* \"#utility.yul\":6459:6464   */\n      dup2\n        /* \"#utility.yul\":6441:6465   */\n      tag_154\n      jump\t// in\n    tag_286:\n        /* \"#utility.yul\":6436:6439   */\n      dup3\n        /* \"#utility.yul\":6429:6466   */\n      mstore\n        /* \"#utility.yul\":6364:6472   */\n      pop\n      pop\n      jump\t// out\n        /* \"#utility.yul\":6478:6586   */\n    tag_163:\n        /* \"#utility.yul\":6555:6579   */\n      tag_288\n        /* \"#utility.yul\":6573:6578   */\n      dup2\n        /* \"#utility.yul\":6555:6579   */\n      tag_150\n      jump\t// in\n    tag_288:\n        /* \"#utility.yul\":6550:6553   */\n      dup3\n        /* \"#utility.yul\":6543:6580   */\n      mstore\n        /* \"#utility.yul\":6478:6586   */\n      pop\n      pop\n      jump\t// out\n        /* \"#utility.yul\":6592:6691   */\n    tag_164:\n        /* \"#utility.yul\":6663:6684   */\n      tag_290\n        /* \"#utility.yul\":6678:6683   */\n      dup2\n        /* \"#utility.yul\":6663:6684   */\n      tag_157\n      jump\t// in\n    tag_290:\n        /* \"#utility.yul\":6658:6661   */\n      dup3\n        /* \"#utility.yul\":6651:6685   */\n      mstore\n        /* \"#utility.yul\":6592:6691   */\n      pop\n      pop\n      jump\t// out\n        /* \"#utility.yul\":6763:7435   */\n    tag_165:\n        /* \"#utility.yul\":6902:6906   */\n      0x60\n        /* \"#utility.yul\":6897:6900   */\n      dup3\n        /* \"#utility.yul\":6893:6907   */\n      add\n        /* \"#utility.yul\":6990:6994   */\n      0x00\n        /* \"#utility.yul\":6983:6988   */\n      dup3\n        /* \"#utility.yul\":6979:6995   */\n      add\n        /* \"#utility.yul\":6973:6996   */\n      mload\n        /* \"#utility.yul\":7009:7072   */\n      tag_292\n        /* \"#utility.yul\":7066:7070   */\n      0x00\n        /* \"#utility.yul\":7061:7064   */\n      dup6\n        /* \"#utility.yul\":7057:7071   */\n      add\n        /* \"#utility.yul\":7043:7055   */\n      dup3\n        /* \"#utility.yul\":7009:7072   */\n      tag_162\n      jump\t// in\n    tag_292:\n        /* \"#utility.yul\":6917:7082   */\n      pop\n        /* \"#utility.yul\":7168:7172   */\n      0x20\n        /* \"#utility.yul\":7161:7166   */\n      dup3\n        /* \"#utility.yul\":7157:7173   */\n      add\n        /* \"#utility.yul\":7151:7174   */\n      mload\n        /* \"#utility.yul\":7187:7250   */\n      tag_293\n        /* \"#utility.yul\":7244:7248   */\n      0x20\n        /* \"#utility.yul\":7239:7242   */\n      dup6\n        /* \"#utility.yul\":7235:7249   */\n      add\n        /* \"#utility.yul\":7221:7233   */\n      dup3\n        /* \"#utility.yul\":7187:7250   */\n      tag_163\n      jump\t// in\n    tag_293:\n        /* \"#utility.yul\":7092:7260   */\n      pop\n        /* \"#utility.yul\":7342:7346   */\n      0x40\n        /* \"#utility.yul\":7335:7340   */\n      dup3\n        /* \"#utility.yul\":7331:7347   */\n      add\n        /* \"#utility.yul\":7325:7348   */\n      mload\n        /* \"#utility.yul\":7361:7418   */\n      tag_294\n        /* \"#utility.yul\":7412:7416   */\n      0x40\n        /* \"#utility.yul\":7407:7410   */\n      dup6\n        /* \"#utility.yul\":7403:7417   */\n      add\n        /* \"#utility.yul\":7389:7401   */\n      dup3\n        /* \"#utility.yul\":7361:7418   */\n      tag_164\n      jump\t// in\n    tag_294:\n        /* \"#utility.yul\":7270:7428   */\n      pop\n        /* \"#utility.yul\":6871:7435   */\n      pop\n        /* \"#utility.yul\":6763:7435   */\n      pop\n      pop\n      jump\t// out\n        /* \"#utility.yul\":7441:7724   */\n    tag_166:\n        /* \"#utility.yul\":7562:7572   */\n      0x00\n        /* \"#utility.yul\":7583:7681   */\n      tag_296\n        /* \"#utility.yul\":7677:7680   */\n      dup4\n        /* \"#utility.yul\":7669:7675   */\n      dup4\n        /* \"#utility.yul\":7583:7681   */\n      tag_165\n      jump\t// in\n    tag_296:\n        /* \"#utility.yul\":7713:7717   */\n      0x60\n        /* \"#utility.yul\":7708:7711   */\n      dup4\n        /* \"#utility.yul\":7704:7718   */\n      add\n        /* \"#utility.yul\":7690:7718   */\n      swap1\n      pop\n        /* \"#utility.yul\":7441:7724   */\n      swap3\n      swap2\n      pop\n      pop\n      jump\t// out\n        /* \"#utility.yul\":7730:7869   */\n    tag_167:\n        /* \"#utility.yul\":7826:7830   */\n      0x00\n        /* \"#utility.yul\":7858:7862   */\n      0x20\n        /* \"#utility.yul\":7853:7856   */\n      dup3\n        /* \"#utility.yul\":7849:7863   */\n      add\n        /* \"#utility.yul\":7841:7863   */\n      swap1\n      pop\n        /* \"#utility.yul\":7730:7869   */\n      swap2\n      swap1\n      pop\n      jump\t// out\n        /* \"#utility.yul\":7945:8885   */\n    tag_168:\n        /* \"#utility.yul\":8116:8119   */\n      0x00\n        /* \"#utility.yul\":8145:8225   */\n      tag_299\n        /* \"#utility.yul\":8219:8224   */\n      dup3\n        /* \"#utility.yul\":8145:8225   */\n      tag_159\n      jump\t// in\n    tag_299:\n        /* \"#utility.yul\":8241:8353   */\n      tag_300\n        /* \"#utility.yul\":8346:8352   */\n      dup2\n        /* \"#utility.yul\":8341:8344   */\n      dup6\n        /* \"#utility.yul\":8241:8353   */\n      tag_160\n      jump\t// in\n    tag_300:\n        /* \"#utility.yul\":8234:8353   */\n      swap4\n      pop\n        /* \"#utility.yul\":8377:8459   */\n      tag_301\n        /* \"#utility.yul\":8453:8458   */\n      dup4\n        /* \"#utility.yul\":8377:8459   */\n      tag_161\n      jump\t// in\n    tag_301:\n        /* \"#utility.yul\":8482:8489   */\n      dup1\n        /* \"#utility.yul\":8513:8514   */\n      0x00\n        /* \"#utility.yul\":8498:8860   */\n    tag_302:\n        /* \"#utility.yul\":8523:8529   */\n      dup4\n        /* \"#utility.yul\":8520:8521   */\n      dup2\n        /* \"#utility.yul\":8517:8530   */\n      lt\n        /* \"#utility.yul\":8498:8860   */\n      iszero\n      tag_304\n      jumpi\n        /* \"#utility.yul\":8599:8605   */\n      dup2\n        /* \"#utility.yul\":8593:8606   */\n      mload\n        /* \"#utility.yul\":8626:8741   */\n      tag_305\n        /* \"#utility.yul\":8737:8740   */\n      dup9\n        /* \"#utility.yul\":8722:8735   */\n      dup3\n        /* \"#utility.yul\":8626:8741   */\n      tag_166\n      jump\t// in\n    tag_305:\n        /* \"#utility.yul\":8619:8741   */\n      swap8\n      pop\n        /* \"#utility.yul\":8764:8850   */\n      tag_306\n        /* \"#utility.yul\":8843:8849   */\n      dup4\n        /* \"#utility.yul\":8764:8850   */\n      tag_167\n      jump\t// in\n    tag_306:\n        /* \"#utility.yul\":8754:8850   */\n      swap3\n      pop\n        /* \"#utility.yul\":8558:8860   */\n      pop\n        /* \"#utility.yul\":8545:8546   */\n      0x01\n        /* \"#utility.yul\":8542:8543   */\n      dup2\n        /* \"#utility.yul\":8538:8547   */\n      add\n        /* \"#utility.yul\":8533:8547   */\n      swap1\n      pop\n        /* \"#utility.yul\":8498:8860   */\n      jump(tag_302)\n    tag_304:\n        /* \"#utility.yul\":8502:8516   */\n      pop\n        /* \"#utility.yul\":8876:8879   */\n      dup6\n        /* \"#utility.yul\":8869:8879   */\n      swap4\n      pop\n        /* \"#utility.yul\":8121:8885   */\n      pop\n      pop\n      pop\n        /* \"#utility.yul\":7945:8885   */\n      swap3\n      swap2\n      pop\n      pop\n      jump\t// out\n        /* \"#utility.yul\":8891:9368   */\n    tag_30:\n        /* \"#utility.yul\":9086:9090   */\n      0x00\n        /* \"#utility.yul\":9124:9126   */\n      0x20\n        /* \"#utility.yul\":9113:9122   */\n      dup3\n        /* \"#utility.yul\":9109:9127   */\n      add\n        /* \"#utility.yul\":9101:9127   */\n      swap1\n      pop\n        /* \"#utility.yul\":9173:9182   */\n      dup2\n        /* \"#utility.yul\":9167:9171   */\n      dup2\n        /* \"#utility.yul\":9163:9183   */\n      sub\n        /* \"#utility.yul\":9159:9160   */\n      0x00\n        /* \"#utility.yul\":9148:9157   */\n      dup4\n        /* \"#utility.yul\":9144:9161   */\n      add\n        /* \"#utility.yul\":9137:9184   */\n      mstore\n        /* \"#utility.yul\":9201:9361   */\n      tag_308\n        /* \"#utility.yul\":9356:9360   */\n      dup2\n        /* \"#utility.yul\":9347:9353   */\n      dup5\n        /* \"#utility.yul\":9201:9361   */\n      tag_168\n      jump\t// in\n    tag_308:\n        /* \"#utility.yul\":9193:9361   */\n      swap1\n      pop\n        /* \"#utility.yul\":8891:9368   */\n      swap3\n      swap2\n      pop\n      pop\n      jump\t// out\n        /* \"#utility.yul\":9374:9596   */\n    tag_34:\n        /* \"#utility.yul\":9467:9471   */\n      0x00\n        /* \"#utility.yul\":9505:9507   */\n      0x20\n        /* \"#utility.yul\":9494:9503   */\n      dup3\n        /* \"#utility.yul\":9490:9508   */\n      add\n        /* \"#utility.yul\":9482:9508   */\n      swap1\n      pop\n        /* \"#utility.yul\":9518:9589   */\n      tag_310\n        /* \"#utility.yul\":9586:9587   */\n      0x00\n        /* \"#utility.yul\":9575:9584   */\n      dup4\n        /* \"#utility.yul\":9571:9588   */\n      add\n        /* \"#utility.yul\":9562:9568   */\n      dup5\n        /* \"#utility.yul\":9518:9589   */\n      tag_156\n      jump\t// in\n    tag_310:\n        /* \"#utility.yul\":9374:9596   */\n      swap3\n      swap2\n      pop\n      pop\n      jump\t// out\n        /* \"#utility.yul\":9602:9701   */\n    tag_169:\n        /* \"#utility.yul\":9654:9660   */\n      0x00\n        /* \"#utility.yul\":9688:9693   */\n      dup2\n        /* \"#utility.yul\":9682:9694   */\n      mload\n        /* \"#utility.yul\":9672:9694   */\n      swap1\n      pop\n        /* \"#utility.yul\":9602:9701   */\n      swap2\n      swap1\n      pop\n      jump\t// out\n        /* \"#utility.yul\":9707:9866   */\n    tag_170:\n        /* \"#utility.yul\":9781:9792   */\n      0x00\n        /* \"#utility.yul\":9815:9821   */\n      dup3\n        /* \"#utility.yul\":9810:9813   */\n      dup3\n        /* \"#utility.yul\":9803:9822   */\n      mstore\n        /* \"#utility.yul\":9855:9859   */\n      0x20\n        /* \"#utility.yul\":9850:9853   */\n      dup3\n        /* \"#utility.yul\":9846:9860   */\n      add\n        /* \"#utility.yul\":9831:9860   */\n      swap1\n      pop\n        /* \"#utility.yul\":9707:9866   */\n      swap3\n      swap2\n      pop\n      pop\n      jump\t// out\n        /* \"#utility.yul\":9872:10118   */\n    tag_171:\n        /* \"#utility.yul\":9953:9954   */\n      0x00\n        /* \"#utility.yul\":9963:10076   */\n    tag_314:\n        /* \"#utility.yul\":9977:9983   */\n      dup4\n        /* \"#utility.yul\":9974:9975   */\n      dup2\n        /* \"#utility.yul\":9971:9984   */\n      lt\n        /* \"#utility.yul\":9963:10076   */\n      iszero\n      tag_316\n      jumpi\n        /* \"#utility.yul\":10062:10063   */\n      dup1\n        /* \"#utility.yul\":10057:10060   */\n      dup3\n        /* \"#utility.yul\":10053:10064   */\n      add\n        /* \"#utility.yul\":10047:10065   */\n      mload\n        /* \"#utility.yul\":10043:10044   */\n      dup2\n        /* \"#utility.yul\":10038:10041   */\n      dup5\n        /* \"#utility.yul\":10034:10045   */\n      add\n        /* \"#utility.yul\":10027:10066   */\n      mstore\n        /* \"#utility.yul\":9999:10001   */\n      0x20\n        /* \"#utility.yul\":9996:9997   */\n      dup2\n        /* \"#utility.yul\":9992:10002   */\n      add\n        /* \"#utility.yul\":9987:10002   */\n      swap1\n      pop\n        /* \"#utility.yul\":9963:10076   */\n      jump(tag_314)\n    tag_316:\n        /* \"#utility.yul\":10110:10111   */\n      0x00\n        /* \"#utility.yul\":10101:10107   */\n      dup5\n        /* \"#utility.yul\":10096:10099   */\n      dup5\n        /* \"#utility.yul\":10092:10108   */\n      add\n        /* \"#utility.yul\":10085:10112   */\n      mstore\n        /* \"#utility.yul\":9934:10118   */\n      pop\n        /* \"#utility.yul\":9872:10118   */\n      pop\n      pop\n      pop\n      jump\t// out\n        /* \"#utility.yul\":10124:10481   */\n    tag_172:\n        /* \"#utility.yul\":10202:10205   */\n      0x00\n        /* \"#utility.yul\":10230:10269   */\n      tag_318\n        /* \"#utility.yul\":10263:10268   */\n      dup3\n        /* \"#utility.yul\":10230:10269   */\n      tag_169\n      jump\t// in\n    tag_318:\n        /* \"#utility.yul\":10285:10346   */\n      tag_319\n        /* \"#utility.yul\":10339:10345   */\n      dup2\n        /* \"#utility.yul\":10334:10337   */\n      dup6\n        /* \"#utility.yul\":10285:10346   */\n      tag_170\n      jump\t// in\n    tag_319:\n        /* \"#utility.yul\":10278:10346   */\n      swap4\n      pop\n        /* \"#utility.yul\":10355:10420   */\n      tag_320\n        /* \"#utility.yul\":10413:10419   */\n      dup2\n        /* \"#utility.yul\":10408:10411   */\n      dup6\n        /* \"#utility.yul\":10401:10405   */\n      0x20\n        /* \"#utility.yul\":10394:10399   */\n      dup7\n        /* \"#utility.yul\":10390:10406   */\n      add\n        /* \"#utility.yul\":10355:10420   */\n      tag_171\n      jump\t// in\n    tag_320:\n        /* \"#utility.yul\":10445:10474   */\n      tag_321\n        /* \"#utility.yul\":10467:10473   */\n      dup2\n        /* \"#utility.yul\":10445:10474   */\n      tag_142\n      jump\t// in\n    tag_321:\n        /* \"#utility.yul\":10440:10443   */\n      dup5\n        /* \"#utility.yul\":10436:10475   */\n      add\n        /* \"#utility.yul\":10429:10475   */\n      swap2\n      pop\n        /* \"#utility.yul\":10206:10481   */\n      pop\n        /* \"#utility.yul\":10124:10481   */\n      swap3\n      swap2\n      pop\n      pop\n      jump\t// out\n        /* \"#utility.yul\":10549:12302   */\n    tag_173:\n        /* \"#utility.yul\":10666:10669   */\n      0x00\n        /* \"#utility.yul\":10702:10708   */\n      0x0100\n        /* \"#utility.yul\":10697:10700   */\n      dup4\n        /* \"#utility.yul\":10693:10709   */\n      add\n        /* \"#utility.yul\":10789:10793   */\n      0x00\n        /* \"#utility.yul\":10782:10787   */\n      dup4\n        /* \"#utility.yul\":10778:10794   */\n      add\n        /* \"#utility.yul\":10772:10795   */\n      mload\n        /* \"#utility.yul\":10808:10871   */\n      tag_323\n        /* \"#utility.yul\":10865:10869   */\n      0x00\n        /* \"#utility.yul\":10860:10863   */\n      dup7\n        /* \"#utility.yul\":10856:10870   */\n      add\n        /* \"#utility.yul\":10842:10854   */\n      dup3\n        /* \"#utility.yul\":10808:10871   */\n      tag_163\n      jump\t// in\n    tag_323:\n        /* \"#utility.yul\":10719:10881   */\n      pop\n        /* \"#utility.yul\":10964:10968   */\n      0x20\n        /* \"#utility.yul\":10957:10962   */\n      dup4\n        /* \"#utility.yul\":10953:10969   */\n      add\n        /* \"#utility.yul\":10947:10970   */\n      mload\n        /* \"#utility.yul\":11017:11020   */\n      dup5\n        /* \"#utility.yul\":11011:11015   */\n      dup3\n        /* \"#utility.yul\":11007:11021   */\n      sub\n        /* \"#utility.yul\":11000:11004   */\n      0x20\n        /* \"#utility.yul\":10995:10998   */\n      dup7\n        /* \"#utility.yul\":10991:11005   */\n      add\n        /* \"#utility.yul\":10984:11022   */\n      mstore\n        /* \"#utility.yul\":11043:11116   */\n      tag_324\n        /* \"#utility.yul\":11111:11115   */\n      dup3\n        /* \"#utility.yul\":11097:11109   */\n      dup3\n        /* \"#utility.yul\":11043:11116   */\n      tag_172\n      jump\t// in\n    tag_324:\n        /* \"#utility.yul\":11035:11116   */\n      swap2\n      pop\n        /* \"#utility.yul\":10891:11127   */\n      pop\n        /* \"#utility.yul\":11219:11223   */\n      0x40\n        /* \"#utility.yul\":11212:11217   */\n      dup4\n        /* \"#utility.yul\":11208:11224   */\n      add\n        /* \"#utility.yul\":11202:11225   */\n      mload\n        /* \"#utility.yul\":11272:11275   */\n      dup5\n        /* \"#utility.yul\":11266:11270   */\n      dup3\n        /* \"#utility.yul\":11262:11276   */\n      sub\n        /* \"#utility.yul\":11255:11259   */\n      0x40\n        /* \"#utility.yul\":11250:11253   */\n      dup7\n        /* \"#utility.yul\":11246:11260   */\n      add\n        /* \"#utility.yul\":11239:11277   */\n      mstore\n        /* \"#utility.yul\":11298:11371   */\n      tag_325\n        /* \"#utility.yul\":11366:11370   */\n      dup3\n        /* \"#utility.yul\":11352:11364   */\n      dup3\n        /* \"#utility.yul\":11298:11371   */\n      tag_172\n      jump\t// in\n    tag_325:\n        /* \"#utility.yul\":11290:11371   */\n      swap2\n      pop\n        /* \"#utility.yul\":11137:11382   */\n      pop\n        /* \"#utility.yul\":11467:11471   */\n      0x60\n        /* \"#utility.yul\":11460:11465   */\n      dup4\n        /* \"#utility.yul\":11456:11472   */\n      add\n        /* \"#utility.yul\":11450:11473   */\n      mload\n        /* \"#utility.yul\":11486:11549   */\n      tag_326\n        /* \"#utility.yul\":11543:11547   */\n      0x60\n        /* \"#utility.yul\":11538:11541   */\n      dup7\n        /* \"#utility.yul\":11534:11548   */\n      add\n        /* \"#utility.yul\":11520:11532   */\n      dup3\n        /* \"#utility.yul\":11486:11549   */\n      tag_162\n      jump\t// in\n    tag_326:\n        /* \"#utility.yul\":11392:11559   */\n      pop\n        /* \"#utility.yul\":11645:11649   */\n      0x80\n        /* \"#utility.yul\":11638:11643   */\n      dup4\n        /* \"#utility.yul\":11634:11650   */\n      add\n        /* \"#utility.yul\":11628:11651   */\n      mload\n        /* \"#utility.yul\":11664:11727   */\n      tag_327\n        /* \"#utility.yul\":11721:11725   */\n      0x80\n        /* \"#utility.yul\":11716:11719   */\n      dup7\n        /* \"#utility.yul\":11712:11726   */\n      add\n        /* \"#utility.yul\":11698:11710   */\n      dup3\n        /* \"#utility.yul\":11664:11727   */\n      tag_163\n      jump\t// in\n    tag_327:\n        /* \"#utility.yul\":11569:11737   */\n      pop\n        /* \"#utility.yul\":11823:11827   */\n      0xa0\n        /* \"#utility.yul\":11816:11821   */\n      dup4\n        /* \"#utility.yul\":11812:11828   */\n      add\n        /* \"#utility.yul\":11806:11829   */\n      mload\n        /* \"#utility.yul\":11842:11899   */\n      tag_328\n        /* \"#utility.yul\":11893:11897   */\n      0xa0\n        /* \"#utility.yul\":11888:11891   */\n      dup7\n        /* \"#utility.yul\":11884:11898   */\n      add\n        /* \"#utility.yul\":11870:11882   */\n      dup3\n        /* \"#utility.yul\":11842:11899   */\n      tag_164\n      jump\t// in\n    tag_328:\n        /* \"#utility.yul\":11747:11909   */\n      pop\n        /* \"#utility.yul\":12000:12004   */\n      0xc0\n        /* \"#utility.yul\":11993:11998   */\n      dup4\n        /* \"#utility.yul\":11989:12005   */\n      add\n        /* \"#utility.yul\":11983:12006   */\n      mload\n        /* \"#utility.yul\":12019:12082   */\n      tag_329\n        /* \"#utility.yul\":12076:12080   */\n      0xc0\n        /* \"#utility.yul\":12071:12074   */\n      dup7\n        /* \"#utility.yul\":12067:12081   */\n      add\n        /* \"#utility.yul\":12053:12065   */\n      dup3\n        /* \"#utility.yul\":12019:12082   */\n      tag_163\n      jump\t// in\n    tag_329:\n        /* \"#utility.yul\":11919:12092   */\n      pop\n        /* \"#utility.yul\":12183:12187   */\n      0xe0\n        /* \"#utility.yul\":12176:12181   */\n      dup4\n        /* \"#utility.yul\":12172:12188   */\n      add\n        /* \"#utility.yul\":12166:12189   */\n      mload\n        /* \"#utility.yul\":12202:12265   */\n      tag_330\n        /* \"#utility.yul\":12259:12263   */\n      0xe0\n        /* \"#utility.yul\":12254:12257   */\n      dup7\n        /* \"#utility.yul\":12250:12264   */\n      add\n        /* \"#utility.yul\":12236:12248   */\n      dup3\n        /* \"#utility.yul\":12202:12265   */\n      tag_163\n      jump\t// in\n    tag_330:\n        /* \"#utility.yul\":12102:12275   */\n      pop\n        /* \"#utility.yul\":12292:12296   */\n      dup1\n        /* \"#utility.yul\":12285:12296   */\n      swap2\n      pop\n        /* \"#utility.yul\":10671:12302   */\n      pop\n        /* \"#utility.yul\":10549:12302   */\n      swap3\n      swap2\n      pop\n      pop\n      jump\t// out\n        /* \"#utility.yul\":12308:12677   */\n    tag_39:\n        /* \"#utility.yul\":12449:12453   */\n      0x00\n        /* \"#utility.yul\":12487:12489   */\n      0x20\n        /* \"#utility.yul\":12476:12485   */\n      dup3\n        /* \"#utility.yul\":12472:12490   */\n      add\n        /* \"#utility.yul\":12464:12490   */\n      swap1\n      pop\n        /* \"#utility.yul\":12536:12545   */\n      dup2\n        /* \"#utility.yul\":12530:12534   */\n      dup2\n        /* \"#utility.yul\":12526:12546   */\n      sub\n        /* \"#utility.yul\":12522:12523   */\n      0x00\n        /* \"#utility.yul\":12511:12520   */\n      dup4\n        /* \"#utility.yul\":12507:12524   */\n      add\n        /* \"#utility.yul\":12500:12547   */\n      mstore\n        /* \"#utility.yul\":12564:12670   */\n      tag_332\n        /* \"#utility.yul\":12665:12669   */\n      dup2\n        /* \"#utility.yul\":12656:12662   */\n      dup5\n        /* \"#utility.yul\":12564:12670   */\n      tag_173\n      jump\t// in\n    tag_332:\n        /* \"#utility.yul\":12556:12670   */\n      swap1\n      pop\n        /* \"#utility.yul\":12308:12677   */\n      swap3\n      swap2\n      pop\n      pop\n      jump\t// out\n        /* \"#utility.yul\":12683:12799   */\n    tag_174:\n        /* \"#utility.yul\":12753:12774   */\n      tag_334\n        /* \"#utility.yul\":12768:12773   */\n      dup2\n        /* \"#utility.yul\":12753:12774   */\n      tag_157\n      jump\t// in\n    tag_334:\n        /* \"#utility.yul\":12746:12751   */\n      dup2\n        /* \"#utility.yul\":12743:12775   */\n      eq\n        /* \"#utility.yul\":12733:12793   */\n      tag_335\n      jumpi\n        /* \"#utility.yul\":12789:12790   */\n      0x00\n        /* \"#utility.yul\":12786:12787   */\n      dup1\n        /* \"#utility.yul\":12779:12791   */\n      revert\n        /* \"#utility.yul\":12733:12793   */\n    tag_335:\n        /* \"#utility.yul\":12683:12799   */\n      pop\n      jump\t// out\n        /* \"#utility.yul\":12805:12938   */\n    tag_175:\n        /* \"#utility.yul\":12848:12853   */\n      0x00\n        /* \"#utility.yul\":12886:12892   */\n      dup2\n        /* \"#utility.yul\":12873:12893   */\n      calldataload\n        /* \"#utility.yul\":12864:12893   */\n      swap1\n      pop\n        /* \"#utility.yul\":12902:12932   */\n      tag_337\n        /* \"#utility.yul\":12926:12931   */\n      dup2\n        /* \"#utility.yul\":12902:12932   */\n      tag_174\n      jump\t// in\n    tag_337:\n        /* \"#utility.yul\":12805:12938   */\n      swap3\n      swap2\n      pop\n      pop\n      jump\t// out\n        /* \"#utility.yul\":12944:13412   */\n    tag_42:\n        /* \"#utility.yul\":13009:13015   */\n      0x00\n        /* \"#utility.yul\":13017:13023   */\n      dup1\n        /* \"#utility.yul\":13066:13068   */\n      0x40\n        /* \"#utility.yul\":13054:13063   */\n      dup4\n        /* \"#utility.yul\":13045:13052   */\n      dup6\n        /* \"#utility.yul\":13041:13064   */\n      sub\n        /* \"#utility.yul\":13037:13069   */\n      slt\n        /* \"#utility.yul\":13034:13153   */\n      iszero\n      tag_339\n      jumpi\n        /* \"#utility.yul\":13072:13151   */\n      tag_340\n      tag_138\n      jump\t// in\n    tag_340:\n        /* \"#utility.yul\":13034:13153   */\n    tag_339:\n        /* \"#utility.yul\":13192:13193   */\n      0x00\n        /* \"#utility.yul\":13217:13270   */\n      tag_341\n        /* \"#utility.yul\":13262:13269   */\n      dup6\n        /* \"#utility.yul\":13253:13259   */\n      dup3\n        /* \"#utility.yul\":13242:13251   */\n      dup7\n        /* \"#utility.yul\":13238:13260   */\n      add\n        /* \"#utility.yul\":13217:13270   */\n      tag_152\n      jump\t// in\n    tag_341:\n        /* \"#utility.yul\":13207:13270   */\n      swap3\n      pop\n        /* \"#utility.yul\":13163:13280   */\n      pop\n        /* \"#utility.yul\":13319:13321   */\n      0x20\n        /* \"#utility.yul\":13345:13395   */\n      tag_342\n        /* \"#utility.yul\":13387:13394   */\n      dup6\n        /* \"#utility.yul\":13378:13384   */\n      dup3\n        /* \"#utility.yul\":13367:13376   */\n      dup7\n        /* \"#utility.yul\":13363:13385   */\n      add\n        /* \"#utility.yul\":13345:13395   */\n      tag_175\n      jump\t// in\n    tag_342:\n        /* \"#utility.yul\":13335:13395   */\n      swap2\n      pop\n        /* \"#utility.yul\":13290:13405   */\n      pop\n        /* \"#utility.yul\":12944:13412   */\n      swap3\n      pop\n      swap3\n      swap1\n      pop\n      jump\t// out\n        /* \"#utility.yul\":13418:13556   */\n    tag_176:\n        /* \"#utility.yul\":13509:13515   */\n      0x00\n        /* \"#utility.yul\":13543:13548   */\n      dup2\n        /* \"#utility.yul\":13537:13549   */\n      mload\n        /* \"#utility.yul\":13527:13549   */\n      swap1\n      pop\n        /* \"#utility.yul\":13418:13556   */\n      swap2\n      swap1\n      pop\n      jump\t// out\n        /* \"#utility.yul\":13562:13770   */\n    tag_177:\n        /* \"#utility.yul\":13685:13696   */\n      0x00\n        /* \"#utility.yul\":13719:13725   */\n      dup3\n        /* \"#utility.yul\":13714:13717   */\n      dup3\n        /* \"#utility.yul\":13707:13726   */\n      mstore\n        /* \"#utility.yul\":13759:13763   */\n      0x20\n        /* \"#utility.yul\":13754:13757   */\n      dup3\n        /* \"#utility.yul\":13750:13764   */\n      add\n        /* \"#utility.yul\":13735:13764   */\n      swap1\n      pop\n        /* \"#utility.yul\":13562:13770   */\n      swap3\n      swap2\n      pop\n      pop\n      jump\t// out\n        /* \"#utility.yul\":13776:13932   */\n    tag_178:\n        /* \"#utility.yul\":13867:13871   */\n      0x00\n        /* \"#utility.yul\":13890:13893   */\n      dup2\n        /* \"#utility.yul\":13882:13893   */\n      swap1\n      pop\n        /* \"#utility.yul\":13920:13924   */\n      0x20\n        /* \"#utility.yul\":13915:13918   */\n      dup3\n        /* \"#utility.yul\":13911:13925   */\n      add\n        /* \"#utility.yul\":13903:13925   */\n      swap1\n      pop\n        /* \"#utility.yul\":13776:13932   */\n      swap2\n      swap1\n      pop\n      jump\t// out\n        /* \"#utility.yul\":14000:15743   */\n    tag_179:\n        /* \"#utility.yul\":14107:14110   */\n      0x00\n        /* \"#utility.yul\":14143:14149   */\n      0x0100\n        /* \"#utility.yul\":14138:14141   */\n      dup4\n        /* \"#utility.yul\":14134:14150   */\n      add\n        /* \"#utility.yul\":14230:14234   */\n      0x00\n        /* \"#utility.yul\":14223:14228   */\n      dup4\n        /* \"#utility.yul\":14219:14235   */\n      add\n        /* \"#utility.yul\":14213:14236   */\n      mload\n        /* \"#utility.yul\":14249:14312   */\n      tag_347\n        /* \"#utility.yul\":14306:14310   */\n      0x00\n        /* \"#utility.yul\":14301:14304   */\n      dup7\n        /* \"#utility.yul\":14297:14311   */\n      add\n        /* \"#utility.yul\":14283:14295   */\n      dup3\n        /* \"#utility.yul\":14249:14312   */\n      tag_163\n      jump\t// in\n    tag_347:\n        /* \"#utility.yul\":14160:14322   */\n      pop\n        /* \"#utility.yul\":14405:14409   */\n      0x20\n        /* \"#utility.yul\":14398:14403   */\n      dup4\n        /* \"#utility.yul\":14394:14410   */\n      add\n        /* \"#utility.yul\":14388:14411   */\n      mload\n        /* \"#utility.yul\":14458:14461   */\n      dup5\n        /* \"#utility.yul\":14452:14456   */\n      dup3\n        /* \"#utility.yul\":14448:14462   */\n      sub\n        /* \"#utility.yul\":14441:14445   */\n      0x20\n        /* \"#utility.yul\":14436:14439   */\n      dup7\n        /* \"#utility.yul\":14432:14446   */\n      add\n        /* \"#utility.yul\":14425:14463   */\n      mstore\n        /* \"#utility.yul\":14484:14557   */\n      tag_348\n        /* \"#utility.yul\":14552:14556   */\n      dup3\n        /* \"#utility.yul\":14538:14550   */\n      dup3\n        /* \"#utility.yul\":14484:14557   */\n      tag_172\n      jump\t// in\n    tag_348:\n        /* \"#utility.yul\":14476:14557   */\n      swap2\n      pop\n        /* \"#utility.yul\":14332:14568   */\n      pop\n        /* \"#utility.yul\":14660:14664   */\n      0x40\n        /* \"#utility.yul\":14653:14658   */\n      dup4\n        /* \"#utility.yul\":14649:14665   */\n      add\n        /* \"#utility.yul\":14643:14666   */\n      mload\n        /* \"#utility.yul\":14713:14716   */\n      dup5\n        /* \"#utility.yul\":14707:14711   */\n      dup3\n        /* \"#utility.yul\":14703:14717   */\n      sub\n        /* \"#utility.yul\":14696:14700   */\n      0x40\n        /* \"#utility.yul\":14691:14694   */\n      dup7\n        /* \"#utility.yul\":14687:14701   */\n      add\n        /* \"#utility.yul\":14680:14718   */\n      mstore\n        /* \"#utility.yul\":14739:14812   */\n      tag_349\n        /* \"#utility.yul\":14807:14811   */\n      dup3\n        /* \"#utility.yul\":14793:14805   */\n      dup3\n        /* \"#utility.yul\":14739:14812   */\n      tag_172\n      jump\t// in\n    tag_349:\n        /* \"#utility.yul\":14731:14812   */\n      swap2\n      pop\n        /* \"#utility.yul\":14578:14823   */\n      pop\n        /* \"#utility.yul\":14908:14912   */\n      0x60\n        /* \"#utility.yul\":14901:14906   */\n      dup4\n        /* \"#utility.yul\":14897:14913   */\n      add\n        /* \"#utility.yul\":14891:14914   */\n      mload\n        /* \"#utility.yul\":14927:14990   */\n      tag_350\n        /* \"#utility.yul\":14984:14988   */\n      0x60\n        /* \"#utility.yul\":14979:14982   */\n      dup7\n        /* \"#utility.yul\":14975:14989   */\n      add\n        /* \"#utility.yul\":14961:14973   */\n      dup3\n        /* \"#utility.yul\":14927:14990   */\n      tag_162\n      jump\t// in\n    tag_350:\n        /* \"#utility.yul\":14833:15000   */\n      pop\n        /* \"#utility.yul\":15086:15090   */\n      0x80\n        /* \"#utility.yul\":15079:15084   */\n      dup4\n        /* \"#utility.yul\":15075:15091   */\n      add\n        /* \"#utility.yul\":15069:15092   */\n      mload\n        /* \"#utility.yul\":15105:15168   */\n      tag_351\n        /* \"#utility.yul\":15162:15166   */\n      0x80\n        /* \"#utility.yul\":15157:15160   */\n      dup7\n        /* \"#utility.yul\":15153:15167   */\n      add\n        /* \"#utility.yul\":15139:15151   */\n      dup3\n        /* \"#utility.yul\":15105:15168   */\n      tag_163\n      jump\t// in\n    tag_351:\n        /* \"#utility.yul\":15010:15178   */\n      pop\n        /* \"#utility.yul\":15264:15268   */\n      0xa0\n        /* \"#utility.yul\":15257:15262   */\n      dup4\n        /* \"#utility.yul\":15253:15269   */\n      add\n        /* \"#utility.yul\":15247:15270   */\n      mload\n        /* \"#utility.yul\":15283:15340   */\n      tag_352\n        /* \"#utility.yul\":15334:15338   */\n      0xa0\n        /* \"#utility.yul\":15329:15332   */\n      dup7\n        /* \"#utility.yul\":15325:15339   */\n      add\n        /* \"#utility.yul\":15311:15323   */\n      dup3\n        /* \"#utility.yul\":15283:15340   */\n      tag_164\n      jump\t// in\n    tag_352:\n        /* \"#utility.yul\":15188:15350   */\n      pop\n        /* \"#utility.yul\":15441:15445   */\n      0xc0\n        /* \"#utility.yul\":15434:15439   */\n      dup4\n        /* \"#utility.yul\":15430:15446   */\n      add\n        /* \"#utility.yul\":15424:15447   */\n      mload\n        /* \"#utility.yul\":15460:15523   */\n      tag_353\n        /* \"#utility.yul\":15517:15521   */\n      0xc0\n        /* \"#utility.yul\":15512:15515   */\n      dup7\n        /* \"#utility.yul\":15508:15522   */\n      add\n        /* \"#utility.yul\":15494:15506   */\n      dup3\n        /* \"#utility.yul\":15460:15523   */\n      tag_163\n      jump\t// in\n    tag_353:\n        /* \"#utility.yul\":15360:15533   */\n      pop\n        /* \"#utility.yul\":15624:15628   */\n      0xe0\n        /* \"#utility.yul\":15617:15622   */\n      dup4\n        /* \"#utility.yul\":15613:15629   */\n      add\n        /* \"#utility.yul\":15607:15630   */\n      mload\n        /* \"#utility.yul\":15643:15706   */\n      tag_354\n        /* \"#utility.yul\":15700:15704   */\n      0xe0\n        /* \"#utility.yul\":15695:15698   */\n      dup7\n        /* \"#utility.yul\":15691:15705   */\n      add\n        /* \"#utility.yul\":15677:15689   */\n      dup3\n        /* \"#utility.yul\":15643:15706   */\n      tag_163\n      jump\t// in\n    tag_354:\n        /* \"#utility.yul\":15543:15716   */\n      pop\n        /* \"#utility.yul\":15733:15737   */\n      dup1\n        /* \"#utility.yul\":15726:15737   */\n      swap2\n      pop\n        /* \"#utility.yul\":14112:15743   */\n      pop\n        /* \"#utility.yul\":14000:15743   */\n      swap3\n      swap2\n      pop\n      pop\n      jump\t// out\n        /* \"#utility.yul\":15749:16001   */\n    tag_180:\n        /* \"#utility.yul\":15866:15876   */\n      0x00\n        /* \"#utility.yul\":15901:15995   */\n      tag_356\n        /* \"#utility.yul\":15991:15994   */\n      dup4\n        /* \"#utility.yul\":15983:15989   */\n      dup4\n        /* \"#utility.yul\":15901:15995   */\n      tag_179\n      jump\t// in\n    tag_356:\n        /* \"#utility.yul\":15887:15995   */\n      swap1\n      pop\n        /* \"#utility.yul\":15749:16001   */\n      swap3\n      swap2\n      pop\n      pop\n      jump\t// out\n        /* \"#utility.yul\":16007:16144   */\n    tag_181:\n        /* \"#utility.yul\":16101:16105   */\n      0x00\n        /* \"#utility.yul\":16133:16137   */\n      0x20\n        /* \"#utility.yul\":16128:16131   */\n      dup3\n        /* \"#utility.yul\":16124:16138   */\n      add\n        /* \"#utility.yul\":16116:16138   */\n      swap1\n      pop\n        /* \"#utility.yul\":16007:16144   */\n      swap2\n      swap1\n      pop\n      jump\t// out\n        /* \"#utility.yul\":16216:17319   */\n    tag_182:\n        /* \"#utility.yul\":16383:16386   */\n      0x00\n        /* \"#utility.yul\":16412:16490   */\n      tag_359\n        /* \"#utility.yul\":16484:16489   */\n      dup3\n        /* \"#utility.yul\":16412:16490   */\n      tag_176\n      jump\t// in\n    tag_359:\n        /* \"#utility.yul\":16506:16616   */\n      tag_360\n        /* \"#utility.yul\":16609:16615   */\n      dup2\n        /* \"#utility.yul\":16604:16607   */\n      dup6\n        /* \"#utility.yul\":16506:16616   */\n      tag_177\n      jump\t// in\n    tag_360:\n        /* \"#utility.yul\":16499:16616   */\n      swap4\n      pop\n        /* \"#utility.yul\":16642:16645   */\n      dup4\n        /* \"#utility.yul\":16687:16691   */\n      0x20\n        /* \"#utility.yul\":16679:16685   */\n      dup3\n        /* \"#utility.yul\":16675:16692   */\n      mul\n        /* \"#utility.yul\":16670:16673   */\n      dup6\n        /* \"#utility.yul\":16666:16693   */\n      add\n        /* \"#utility.yul\":16717:16797   */\n      tag_361\n        /* \"#utility.yul\":16791:16796   */\n      dup6\n        /* \"#utility.yul\":16717:16797   */\n      tag_178\n      jump\t// in\n    tag_361:\n        /* \"#utility.yul\":16820:16827   */\n      dup1\n        /* \"#utility.yul\":16851:16852   */\n      0x00\n        /* \"#utility.yul\":16836:17274   */\n    tag_362:\n        /* \"#utility.yul\":16861:16867   */\n      dup6\n        /* \"#utility.yul\":16858:16859   */\n      dup2\n        /* \"#utility.yul\":16855:16868   */\n      lt\n        /* \"#utility.yul\":16836:17274   */\n      iszero\n      tag_364\n      jumpi\n        /* \"#utility.yul\":16932:16941   */\n      dup5\n        /* \"#utility.yul\":16926:16930   */\n      dup5\n        /* \"#utility.yul\":16922:16942   */\n      sub\n        /* \"#utility.yul\":16917:16920   */\n      dup10\n        /* \"#utility.yul\":16910:16943   */\n      mstore\n        /* \"#utility.yul\":16983:16989   */\n      dup2\n        /* \"#utility.yul\":16977:16990   */\n      mload\n        /* \"#utility.yul\":17011:17123   */\n      tag_365\n        /* \"#utility.yul\":17118:17122   */\n      dup6\n        /* \"#utility.yul\":17103:17116   */\n      dup3\n        /* \"#utility.yul\":17011:17123   */\n      tag_180\n      jump\t// in\n    tag_365:\n        /* \"#utility.yul\":17003:17123   */\n      swap5\n      pop\n        /* \"#utility.yul\":17146:17230   */\n      tag_366\n        /* \"#utility.yul\":17223:17229   */\n      dup4\n        /* \"#utility.yul\":17146:17230   */\n      tag_181\n      jump\t// in\n    tag_366:\n        /* \"#utility.yul\":17136:17230   */\n      swap3\n      pop\n        /* \"#utility.yul\":17259:17263   */\n      0x20\n        /* \"#utility.yul\":17254:17257   */\n      dup11\n        /* \"#utility.yul\":17250:17264   */\n      add\n        /* \"#utility.yul\":17243:17264   */\n      swap10\n      pop\n        /* \"#utility.yul\":16896:17274   */\n      pop\n        /* \"#utility.yul\":16883:16884   */\n      0x01\n        /* \"#utility.yul\":16880:16881   */\n      dup2\n        /* \"#utility.yul\":16876:16885   */\n      add\n        /* \"#utility.yul\":16871:16885   */\n      swap1\n      pop\n        /* \"#utility.yul\":16836:17274   */\n      jump(tag_362)\n    tag_364:\n        /* \"#utility.yul\":16840:16854   */\n      pop\n        /* \"#utility.yul\":17290:17294   */\n      dup3\n        /* \"#utility.yul\":17283:17294   */\n      swap8\n      pop\n        /* \"#utility.yul\":17310:17313   */\n      dup8\n        /* \"#utility.yul\":17303:17313   */\n      swap6\n      pop\n        /* \"#utility.yul\":16388:17319   */\n      pop\n      pop\n      pop\n      pop\n      pop\n        /* \"#utility.yul\":16216:17319   */\n      swap3\n      swap2\n      pop\n      pop\n      jump\t// out\n        /* \"#utility.yul\":17325:17794   */\n    tag_47:\n        /* \"#utility.yul\":17516:17520   */\n      0x00\n        /* \"#utility.yul\":17554:17556   */\n      0x20\n        /* \"#utility.yul\":17543:17552   */\n      dup3\n        /* \"#utility.yul\":17539:17557   */\n      add\n        /* \"#utility.yul\":17531:17557   */\n      swap1\n      pop\n        /* \"#utility.yul\":17603:17612   */\n      dup2\n        /* \"#utility.yul\":17597:17601   */\n      dup2\n        /* \"#utility.yul\":17593:17613   */\n      sub\n        /* \"#utility.yul\":17589:17590   */\n      0x00\n        /* \"#utility.yul\":17578:17587   */\n      dup4\n        /* \"#utility.yul\":17574:17591   */\n      add\n        /* \"#utility.yul\":17567:17614   */\n      mstore\n        /* \"#utility.yul\":17631:17787   */\n      tag_368\n        /* \"#utility.yul\":17782:17786   */\n      dup2\n        /* \"#utility.yul\":17773:17779   */\n      dup5\n        /* \"#utility.yul\":17631:17787   */\n      tag_182\n      jump\t// in\n    tag_368:\n        /* \"#utility.yul\":17623:17787   */\n      swap1\n      pop\n        /* \"#utility.yul\":17325:17794   */\n      swap3\n      swap2\n      pop\n      pop\n      jump\t// out\n        /* \"#utility.yul\":17800:17980   */\n    tag_183:\n        /* \"#utility.yul\":17848:17925   */\n      0x4e487b7100000000000000000000000000000000000000000000000000000000\n        /* \"#utility.yul\":17845:17846   */\n      0x00\n        /* \"#utility.yul\":17838:17926   */\n      mstore\n        /* \"#utility.yul\":17945:17949   */\n      0x22\n        /* \"#utility.yul\":17942:17943   */\n      0x04\n        /* \"#utility.yul\":17935:17950   */\n      mstore\n        /* \"#utility.yul\":17969:17973   */\n      0x24\n        /* \"#utility.yul\":17966:17967   */\n      0x00\n        /* \"#utility.yul\":17959:17974   */\n      revert\n        /* \"#utility.yul\":17986:18306   */\n    tag_86:\n        /* \"#utility.yul\":18030:18036   */\n      0x00\n        /* \"#utility.yul\":18067:18068   */\n      0x02\n        /* \"#utility.yul\":18061:18065   */\n      dup3\n        /* \"#utility.yul\":18057:18069   */\n      div\n        /* \"#utility.yul\":18047:18069   */\n      swap1\n      pop\n        /* \"#utility.yul\":18114:18115   */\n      0x01\n        /* \"#utility.yul\":18108:18112   */\n      dup3\n        /* \"#utility.yul\":18104:18116   */\n      and\n        /* \"#utility.yul\":18135:18153   */\n      dup1\n        /* \"#utility.yul\":18125:18206   */\n      tag_371\n      jumpi\n        /* \"#utility.yul\":18191:18195   */\n      0x7f\n        /* \"#utility.yul\":18183:18189   */\n      dup3\n        /* \"#utility.yul\":18179:18196   */\n      and\n        /* \"#utility.yul\":18169:18196   */\n      swap2\n      pop\n        /* \"#utility.yul\":18125:18206   */\n    tag_371:\n        /* \"#utility.yul\":18253:18255   */\n      0x20\n        /* \"#utility.yul\":18245:18251   */\n      dup3\n        /* \"#utility.yul\":18242:18256   */\n      lt\n        /* \"#utility.yul\":18222:18240   */\n      dup2\n        /* \"#utility.yul\":18219:18257   */\n      sub\n        /* \"#utility.yul\":18216:18300   */\n      tag_372\n      jumpi\n        /* \"#utility.yul\":18272:18290   */\n      tag_373\n      tag_183\n      jump\t// in\n    tag_373:\n        /* \"#utility.yul\":18216:18300   */\n    tag_372:\n        /* \"#utility.yul\":18037:18306   */\n      pop\n        /* \"#utility.yul\":17986:18306   */\n      swap2\n      swap1\n      pop\n      jump\t// out\n        /* \"#utility.yul\":18312:18453   */\n    tag_184:\n        /* \"#utility.yul\":18361:18365   */\n      0x00\n        /* \"#utility.yul\":18384:18387   */\n      dup2\n        /* \"#utility.yul\":18376:18387   */\n      swap1\n      pop\n        /* \"#utility.yul\":18407:18410   */\n      dup2\n        /* \"#utility.yul\":18404:18405   */\n      0x00\n        /* \"#utility.yul\":18397:18411   */\n      mstore\n        /* \"#utility.yul\":18441:18445   */\n      0x20\n        /* \"#utility.yul\":18438:18439   */\n      0x00\n        /* \"#utility.yul\":18428:18446   */\n      keccak256\n        /* \"#utility.yul\":18420:18446   */\n      swap1\n      pop\n        /* \"#utility.yul\":18312:18453   */\n      swap2\n      swap1\n      pop\n      jump\t// out\n        /* \"#utility.yul\":18459:18552   */\n    tag_185:\n        /* \"#utility.yul\":18496:18502   */\n      0x00\n        /* \"#utility.yul\":18543:18545   */\n      0x20\n        /* \"#utility.yul\":18538:18540   */\n      0x1f\n        /* \"#utility.yul\":18531:18536   */\n      dup4\n        /* \"#utility.yul\":18527:18541   */\n      add\n        /* \"#utility.yul\":18523:18546   */\n      div\n        /* \"#utility.yul\":18513:18546   */\n      swap1\n      pop\n        /* \"#utility.yul\":18459:18552   */\n      swap2\n      swap1\n      pop\n      jump\t// out\n        /* \"#utility.yul\":18558:18665   */\n    tag_186:\n        /* \"#utility.yul\":18602:18610   */\n      0x00\n        /* \"#utility.yul\":18652:18657   */\n      dup3\n        /* \"#utility.yul\":18646:18650   */\n      dup3\n        /* \"#utility.yul\":18642:18658   */\n      shl\n        /* \"#utility.yul\":18621:18658   */\n      swap1\n      pop\n        /* \"#utility.yul\":18558:18665   */\n      swap3\n      swap2\n      pop\n      pop\n      jump\t// out\n        /* \"#utility.yul\":18671:19064   */\n    tag_187:\n        /* \"#utility.yul\":18740:18746   */\n      0x00\n        /* \"#utility.yul\":18790:18791   */\n      0x08\n        /* \"#utility.yul\":18778:18788   */\n      dup4\n        /* \"#utility.yul\":18774:18792   */\n      mul\n        /* \"#utility.yul\":18813:18910   */\n      tag_378\n        /* \"#utility.yul\":18843:18909   */\n      0xffffffffffffffffffffffffffffffffffffffffffffffffffffffffffffffff\n        /* \"#utility.yul\":18832:18841   */\n      dup3\n        /* \"#utility.yul\":18813:18910   */\n      tag_186\n      jump\t// in\n    tag_378:\n        /* \"#utility.yul\":18931:18970   */\n      tag_379\n        /* \"#utility.yul\":18961:18969   */\n      dup7\n        /* \"#utility.yul\":18950:18959   */\n      dup4\n        /* \"#utility.yul\":18931:18970   */\n      tag_186\n      jump\t// in\n    tag_379:\n        /* \"#utility.yul\":18919:18970   */\n      swap6\n      pop\n        /* \"#utility.yul\":19003:19007   */\n      dup1\n        /* \"#utility.yul\":18999:19008   */\n      not\n        /* \"#utility.yul\":18992:18997   */\n      dup5\n        /* \"#utility.yul\":18988:19009   */\n      and\n        /* \"#utility.yul\":18979:19009   */\n      swap4\n      pop\n        /* \"#utility.yul\":19052:19056   */\n      dup1\n        /* \"#utility.yul\":19042:19050   */\n      dup7\n        /* \"#utility.yul\":19038:19057   */\n      and\n        /* \"#utility.yul\":19031:19036   */\n      dup5\n        /* \"#utility.yul\":19028:19058   */\n      or\n        /* \"#utility.yul\":19018:19058   */\n      swap3\n      pop\n        /* \"#utility.yul\":18747:19064   */\n      pop\n      pop\n        /* \"#utility.yul\":18671:19064   */\n      swap4\n      swap3\n      pop\n      pop\n      pop\n      jump\t// out\n        /* \"#utility.yul\":19070:19130   */\n    tag_188:\n        /* \"#utility.yul\":19098:19101   */\n      0x00\n        /* \"#utility.yul\":19119:19124   */\n      dup2\n        /* \"#utility.yul\":19112:19124   */\n      swap1\n      pop\n        /* \"#utility.yul\":19070:19130   */\n      swap2\n      swap1\n      pop\n      jump\t// out\n        /* \"#utility.yul\":19136:19278   */\n    tag_189:\n        /* \"#utility.yul\":19186:19195   */\n      0x00\n        /* \"#utility.yul\":19219:19272   */\n      tag_382\n        /* \"#utility.yul\":19237:19271   */\n      tag_383\n        /* \"#utility.yul\":19246:19270   */\n      tag_384\n        /* \"#utility.yul\":19264:19269   */\n      dup5\n        /* \"#utility.yul\":19246:19270   */\n      tag_150\n      jump\t// in\n    tag_384:\n        /* \"#utility.yul\":19237:19271   */\n      tag_188\n      jump\t// in\n    tag_383:\n        /* \"#utility.yul\":19219:19272   */\n      tag_150\n      jump\t// in\n    tag_382:\n        /* \"#utility.yul\":19206:19272   */\n      swap1\n      pop\n        /* \"#utility.yul\":19136:19278   */\n      swap2\n      swap1\n      pop\n      jump\t// out\n        /* \"#utility.yul\":19284:19359   */\n    tag_190:\n        /* \"#utility.yul\":19327:19330   */\n      0x00\n        /* \"#utility.yul\":19348:19353   */\n      dup2\n        /* \"#utility.yul\":19341:19353   */\n      swap1\n      pop\n        /* \"#utility.yul\":19284:19359   */\n      swap2\n      swap1\n      pop\n      jump\t// out\n        /* \"#utility.yul\":19365:19634   */\n    tag_191:\n        /* \"#utility.yul\":19475:19514   */\n      tag_387\n        /* \"#utility.yul\":19506:19513   */\n      dup4\n        /* \"#utility.yul\":19475:19514   */\n      tag_189\n      jump\t// in\n    tag_387:\n        /* \"#utility.yul\":19536:19627   */\n      tag_388\n        /* \"#utility.yul\":19585:19626   */\n      tag_389\n        /* \"#utility.yul\":19609:19625   */\n      dup3\n        /* \"#utility.yul\":19585:19626   */\n      tag_190\n      jump\t// in\n    tag_389:\n        /* \"#utility.yul\":19577:19583   */\n      dup5\n        /* \"#utility.yul\":19570:19574   */\n      dup5\n        /* \"#utility.yul\":19564:19575   */\n      sload\n        /* \"#utility.yul\":19536:19627   */\n      tag_187\n      jump\t// in\n    tag_388:\n        /* \"#utility.yul\":19530:19534   */\n      dup3\n        /* \"#utility.yul\":19523:19628   */\n      sstore\n        /* \"#utility.yul\":19441:19634   */\n      pop\n        /* \"#utility.yul\":19365:19634   */\n      pop\n      pop\n      pop\n      jump\t// out\n        /* \"#utility.yul\":19640:19713   */\n    tag_192:\n        /* \"#utility.yul\":19685:19688   */\n      0x00\n        /* \"#utility.yul\":19640:19713   */\n      swap1\n      jump\t// out\n        /* \"#utility.yul\":19719:19908   */\n    tag_193:\n        /* \"#utility.yul\":19796:19828   */\n      tag_392\n      tag_192\n      jump\t// in\n    tag_392:\n        /* \"#utility.yul\":19837:19902   */\n      tag_393\n        /* \"#utility.yul\":19895:19901   */\n      dup2\n        /* \"#utility.yul\":19887:19893   */\n      dup5\n        /* \"#utility.yul\":19881:19885   */\n      dup5\n        /* \"#utility.yul\":19837:19902   */\n      tag_191\n      jump\t// in\n    tag_393:\n        /* \"#utility.yul\":19772:19908   */\n      pop\n        /* \"#utility.yul\":19719:19908   */\n      pop\n      pop\n      jump\t// out\n        /* \"#utility.yul\":19914:20100   */\n    tag_194:\n        /* \"#utility.yul\":19974:20094   */\n    tag_395:\n        /* \"#utility.yul\":19991:19994   */\n      dup2\n        /* \"#utility.yul\":19984:19989   */\n      dup2\n        /* \"#utility.yul\":19981:19995   */\n      lt\n        /* \"#utility.yul\":19974:20094   */\n      iszero\n      tag_397\n      jumpi\n        /* \"#utility.yul\":20045:20084   */\n      tag_398\n        /* \"#utility.yul\":20082:20083   */\n      0x00\n        /* \"#utility.yul\":20075:20080   */\n      dup3\n        /* \"#utility.yul\":20045:20084   */\n      tag_193\n      jump\t// in\n    tag_398:\n        /* \"#utility.yul\":20018:20019   */\n      0x01\n        /* \"#utility.yul\":20011:20016   */\n      dup2\n        /* \"#utility.yul\":20007:20020   */\n      add\n        /* \"#utility.yul\":19998:20020   */\n      swap1\n      pop\n        /* \"#utility.yul\":19974:20094   */\n      jump(tag_395)\n    tag_397:\n        /* \"#utility.yul\":19914:20100   */\n      pop\n      pop\n      jump\t// out\n        /* \"#utility.yul\":20106:20649   */\n    tag_195:\n        /* \"#utility.yul\":20207:20209   */\n      0x1f\n        /* \"#utility.yul\":20202:20205   */\n      dup3\n        /* \"#utility.yul\":20199:20210   */\n      gt\n        /* \"#utility.yul\":20196:20642   */\n      iszero\n      tag_400\n      jumpi\n        /* \"#utility.yul\":20241:20279   */\n      tag_401\n        /* \"#utility.yul\":20273:20278   */\n      dup2\n        /* \"#utility.yul\":20241:20279   */\n      tag_184\n      jump\t// in\n    tag_401:\n        /* \"#utility.yul\":20325:20354   */\n      tag_402\n        /* \"#utility.yul\":20343:20353   */\n      dup5\n        /* \"#utility.yul\":20325:20354   */\n      tag_185\n      jump\t// in\n    tag_402:\n        /* \"#utility.yul\":20315:20323   */\n      dup2\n        /* \"#utility.yul\":20311:20355   */\n      add\n        /* \"#utility.yul\":20508:20510   */\n      0x20\n        /* \"#utility.yul\":20496:20506   */\n      dup6\n        /* \"#utility.yul\":20493:20511   */\n      lt\n        /* \"#utility.yul\":20490:20539   */\n      iszero\n      tag_403\n      jumpi\n        /* \"#utility.yul\":20529:20537   */\n      dup2\n        /* \"#utility.yul\":20514:20537   */\n      swap1\n      pop\n        /* \"#utility.yul\":20490:20539   */\n    tag_403:\n        /* \"#utility.yul\":20552:20632   */\n      tag_404\n        /* \"#utility.yul\":20608:20630   */\n      tag_405\n        /* \"#utility.yul\":20626:20629   */\n      dup6\n        /* \"#utility.yul\":20608:20630   */\n      tag_185\n      jump\t// in\n    tag_405:\n        /* \"#utility.yul\":20598:20606   */\n      dup4\n        /* \"#utility.yul\":20594:20631   */\n      add\n        /* \"#utility.yul\":20581:20592   */\n      dup3\n        /* \"#utility.yul\":20552:20632   */\n      tag_194\n      jump\t// in\n    tag_404:\n        /* \"#utility.yul\":20211:20642   */\n      pop\n      pop\n        /* \"#utility.yul\":20196:20642   */\n    tag_400:\n        /* \"#utility.yul\":20106:20649   */\n      pop\n      pop\n      pop\n      jump\t// out\n        /* \"#utility.yul\":20655:20772   */\n    tag_196:\n        /* \"#utility.yul\":20709:20717   */\n      0x00\n        /* \"#utility.yul\":20759:20764   */\n      dup3\n        /* \"#utility.yul\":20753:20757   */\n      dup3\n        /* \"#utility.yul\":20749:20765   */\n      shr\n        /* \"#utility.yul\":20728:20765   */\n      swap1\n      pop\n        /* \"#utility.yul\":20655:20772   */\n      swap3\n      swap2\n      pop\n      pop\n      jump\t// out\n        /* \"#utility.yul\":20778:20947   */\n    tag_197:\n        /* \"#utility.yul\":20822:20828   */\n      0x00\n        /* \"#utility.yul\":20855:20906   */\n      tag_408\n        /* \"#utility.yul\":20903:20904   */\n      0x00\n        /* \"#utility.yul\":20899:20905   */\n      not\n        /* \"#utility.yul\":20891:20896   */\n      dup5\n        /* \"#utility.yul\":20888:20889   */\n      0x08\n        /* \"#utility.yul\":20884:20897   */\n      mul\n        /* \"#utility.yul\":20855:20906   */\n      tag_196\n      jump\t// in\n    tag_408:\n        /* \"#utility.yul\":20851:20907   */\n      not\n        /* \"#utility.yul\":20936:20940   */\n      dup1\n        /* \"#utility.yul\":20930:20934   */\n      dup4\n        /* \"#utility.yul\":20926:20941   */\n      and\n        /* \"#utility.yul\":20916:20941   */\n      swap2\n      pop\n        /* \"#utility.yul\":20829:20947   */\n      pop\n        /* \"#utility.yul\":20778:20947   */\n      swap3\n      swap2\n      pop\n      pop\n      jump\t// out\n        /* \"#utility.yul\":20952:21247   */\n    tag_198:\n        /* \"#utility.yul\":21028:21032   */\n      0x00\n        /* \"#utility.yul\":21174:21203   */\n      tag_410\n        /* \"#utility.yul\":21199:21202   */\n      dup4\n        /* \"#utility.yul\":21193:21197   */\n      dup4\n        /* \"#utility.yul\":21174:21203   */\n      tag_197\n      jump\t// in\n    tag_410:\n        /* \"#utility.yul\":21166:21203   */\n      swap2\n      pop\n        /* \"#utility.yul\":21236:21239   */\n      dup3\n        /* \"#utility.yul\":21233:21234   */\n      0x02\n        /* \"#utility.yul\":21229:21240   */\n      mul\n        /* \"#utility.yul\":21223:21227   */\n      dup3\n        /* \"#utility.yul\":21220:21241   */\n      or\n        /* \"#utility.yul\":21212:21241   */\n      swap1\n      pop\n        /* \"#utility.yul\":20952:21247   */\n      swap3\n      swap2\n      pop\n      pop\n      jump\t// out\n        /* \"#utility.yul\":21252:22647   */\n    tag_51:\n        /* \"#utility.yul\":21369:21406   */\n      tag_412\n        /* \"#utility.yul\":21402:21405   */\n      dup3\n        /* \"#utility.yul\":21369:21406   */\n      tag_169\n      jump\t// in\n    tag_412:\n        /* \"#utility.yul\":21471:21489   */\n      0xffffffffffffffff\n        /* \"#utility.yul\":21463:21469   */\n      dup2\n        /* \"#utility.yul\":21460:21490   */\n      gt\n        /* \"#utility.yul\":21457:21513   */\n      iszero\n      tag_413\n      jumpi\n        /* \"#utility.yul\":21493:21511   */\n      tag_414\n      tag_143\n      jump\t// in\n    tag_414:\n        /* \"#utility.yul\":21457:21513   */\n    tag_413:\n        /* \"#utility.yul\":21537:21575   */\n      tag_415\n        /* \"#utility.yul\":21569:21573   */\n      dup3\n        /* \"#utility.yul\":21563:21574   */\n      sload\n        /* \"#utility.yul\":21537:21575   */\n      tag_86\n      jump\t// in\n    tag_415:\n        /* \"#utility.yul\":21622:21689   */\n      tag_416\n        /* \"#utility.yul\":21682:21688   */\n      dup3\n        /* \"#utility.yul\":21674:21680   */\n      dup3\n        /* \"#utility.yul\":21668:21672   */\n      dup6\n        /* \"#utility.yul\":21622:21689   */\n      tag_195\n      jump\t// in\n    tag_416:\n        /* \"#utility.yul\":21716:21717   */\n      0x00\n        /* \"#utility.yul\":21740:21744   */\n      0x20\n        /* \"#utility.yul\":21727:21744   */\n      swap1\n      pop\n        /* \"#utility.yul\":21772:21774   */\n      0x1f\n        /* \"#utility.yul\":21764:21770   */\n      dup4\n        /* \"#utility.yul\":21761:21775   */\n      gt\n        /* \"#utility.yul\":21789:21790   */\n      0x01\n        /* \"#utility.yul\":21784:22402   */\n      dup2\n      eq\n      tag_418\n      jumpi\n        /* \"#utility.yul\":22446:22447   */\n      0x00\n        /* \"#utility.yul\":22463:22469   */\n      dup5\n        /* \"#utility.yul\":22460:22537   */\n      iszero\n      tag_419\n      jumpi\n        /* \"#utility.yul\":22512:22521   */\n      dup3\n        /* \"#utility.yul\":22507:22510   */\n      dup8\n        /* \"#utility.yul\":22503:22522   */\n      add\n        /* \"#utility.yul\":22497:22523   */\n      mload\n        /* \"#utility.yul\":22488:22523   */\n      swap1\n      pop\n        /* \"#utility.yul\":22460:22537   */\n    tag_419:\n        /* \"#utility.yul\":22563:22630   */\n      tag_420\n        /* \"#utility.yul\":22623:22629   */\n      dup6\n        /* \"#utility.yul\":22616:22621   */\n      dup3\n        /* \"#utility.yul\":22563:22630   */\n      tag_198\n      jump\t// in\n    tag_420:\n        /* \"#utility.yul\":22557:22561   */\n      dup7\n        /* \"#utility.yul\":22550:22631   */\n      sstore\n        /* \"#utility.yul\":22419:22641   */\n      pop\n        /* \"#utility.yul\":21754:22641   */\n      jump(tag_417)\n        /* \"#utility.yul\":21784:22402   */\n    tag_418:\n        /* \"#utility.yul\":21836:21840   */\n      0x1f\n        /* \"#utility.yul\":21832:21841   */\n      not\n        /* \"#utility.yul\":21824:21830   */\n      dup5\n        /* \"#utility.yul\":21820:21842   */\n      and\n        /* \"#utility.yul\":21870:21907   */\n      tag_421\n        /* \"#utility.yul\":21902:21906   */\n      dup7\n        /* \"#utility.yul\":21870:21907   */\n      tag_184\n      jump\t// in\n    tag_421:\n        /* \"#utility.yul\":21929:21930   */\n      0x00\n        /* \"#utility.yul\":21943:22151   */\n    tag_422:\n        /* \"#utility.yul\":21957:21964   */\n      dup3\n        /* \"#utility.yul\":21954:21955   */\n      dup2\n        /* \"#utility.yul\":21951:21965   */\n      lt\n        /* \"#utility.yul\":21943:22151   */\n      iszero\n      tag_424\n      jumpi\n        /* \"#utility.yul\":22036:22045   */\n      dup5\n        /* \"#utility.yul\":22031:22034   */\n      dup10\n        /* \"#utility.yul\":22027:22046   */\n      add\n        /* \"#utility.yul\":22021:22047   */\n      mload\n        /* \"#utility.yul\":22013:22019   */\n      dup3\n        /* \"#utility.yul\":22006:22048   */\n      sstore\n        /* \"#utility.yul\":22087:22088   */\n      0x01\n        /* \"#utility.yul\":22079:22085   */\n      dup3\n        /* \"#utility.yul\":22075:22089   */\n      add\n        /* \"#utility.yul\":22065:22089   */\n      swap2\n      pop\n        /* \"#utility.yul\":22134:22136   */\n      0x20\n        /* \"#utility.yul\":22123:22132   */\n      dup6\n        /* \"#utility.yul\":22119:22137   */\n      add\n        /* \"#utility.yul\":22106:22137   */\n      swap5\n      pop\n        /* \"#utility.yul\":21980:21984   */\n      0x20\n        /* \"#utility.yul\":21977:21978   */\n      dup2\n        /* \"#utility.yul\":21973:21985   */\n      add\n        /* \"#utility.yul\":21968:21985   */\n      swap1\n      pop\n        /* \"#utility.yul\":21943:22151   */\n      jump(tag_422)\n    tag_424:\n        /* \"#utility.yul\":22179:22185   */\n      dup7\n        /* \"#utility.yul\":22170:22177   */\n      dup4\n        /* \"#utility.yul\":22167:22186   */\n      lt\n        /* \"#utility.yul\":22164:22343   */\n      iszero\n      tag_425\n      jumpi\n        /* \"#utility.yul\":22237:22246   */\n      dup5\n        /* \"#utility.yul\":22232:22235   */\n      dup10\n        /* \"#utility.yul\":22228:22247   */\n      add\n        /* \"#utility.yul\":22222:22248   */\n      mload\n        /* \"#utility.yul\":22280:22328   */\n      tag_426\n        /* \"#utility.yul\":22322:22326   */\n      0x1f\n        /* \"#utility.yul\":22314:22320   */\n      dup10\n        /* \"#utility.yul\":22310:22327   */\n      and\n        /* \"#utility.yul\":22299:22308   */\n      dup3\n        /* \"#utility.yul\":22280:22328   */\n      tag_197\n      jump\t// in\n    tag_426:\n        /* \"#utility.yul\":22272:22278   */\n      dup4\n        /* \"#utility.yul\":22265:22329   */\n      sstore\n        /* \"#utility.yul\":22187:22343   */\n      pop\n        /* \"#utility.yul\":22164:22343   */\n    tag_425:\n        /* \"#utility.yul\":22389:22390   */\n      0x01\n        /* \"#utility.yul\":22385:22386   */\n      0x02\n        /* \"#utility.yul\":22377:22383   */\n      dup9\n        /* \"#utility.yul\":22373:22387   */\n      mul\n        /* \"#utility.yul\":22369:22391   */\n      add\n        /* \"#utility.yul\":22363:22367   */\n      dup9\n        /* \"#utility.yul\":22356:22392   */\n      sstore\n        /* \"#utility.yul\":21791:22402   */\n      pop\n      pop\n      pop\n        /* \"#utility.yul\":21754:22641   */\n    tag_417:\n      pop\n        /* \"#utility.yul\":21344:22647   */\n      pop\n      pop\n      pop\n        /* \"#utility.yul\":21252:22647   */\n      pop\n      pop\n      jump\t// out\n        /* \"#utility.yul\":22653:22833   */\n    tag_56:\n        /* \"#utility.yul\":22701:22778   */\n      0x4e487b7100000000000000000000000000000000000000000000000000000000\n        /* \"#utility.yul\":22698:22699   */\n      0x00\n        /* \"#utility.yul\":22691:22779   */\n      mstore\n        /* \"#utility.yul\":22798:22802   */\n      0x32\n        /* \"#utility.yul\":22795:22796   */\n      0x04\n        /* \"#utility.yul\":22788:22803   */\n      mstore\n        /* \"#utility.yul\":22822:22826   */\n      0x24\n        /* \"#utility.yul\":22819:22820   */\n      0x00\n        /* \"#utility.yul\":22812:22827   */\n      revert\n        /* \"#utility.yul\":22839:23008   */\n    tag_199:\n        /* \"#utility.yul\":22923:22934   */\n      0x00\n        /* \"#utility.yul\":22957:22963   */\n      dup3\n        /* \"#utility.yul\":22952:22955   */\n      dup3\n        /* \"#utility.yul\":22945:22964   */\n      mstore\n        /* \"#utility.yul\":22997:23001   */\n      0x20\n        /* \"#utility.yul\":22992:22995   */\n      dup3\n        /* \"#utility.yul\":22988:23002   */\n      add\n        /* \"#utility.yul\":22973:23002   */\n      swap1\n      pop\n        /* \"#utility.yul\":22839:23008   */\n      swap3\n      swap2\n      pop\n      pop\n      jump\t// out\n        /* \"#utility.yul\":23014:23191   */\n    tag_200:\n        /* \"#utility.yul\":23154:23183   */\n      0x566f74696e6720706572696f6420686173206e6f7420656e6465640000000000\n        /* \"#utility.yul\":23150:23151   */\n      0x00\n        /* \"#utility.yul\":23142:23148   */\n      dup3\n        /* \"#utility.yul\":23138:23152   */\n      add\n        /* \"#utility.yul\":23131:23184   */\n      mstore\n        /* \"#utility.yul\":23014:23191   */\n      pop\n      jump\t// out\n        /* \"#utility.yul\":23197:23563   */\n    tag_201:\n        /* \"#utility.yul\":23339:23342   */\n      0x00\n        /* \"#utility.yul\":23360:23427   */\n      tag_431\n        /* \"#utility.yul\":23424:23426   */\n      0x1b\n        /* \"#utility.yul\":23419:23422   */\n      dup4\n        /* \"#utility.yul\":23360:23427   */\n      tag_199\n      jump\t// in\n    tag_431:\n        /* \"#utility.yul\":23353:23427   */\n      swap2\n      pop\n        /* \"#utility.yul\":23436:23529   */\n      tag_432\n        /* \"#utility.yul\":23525:23528   */\n      dup3\n        /* \"#utility.yul\":23436:23529   */\n      tag_200\n      jump\t// in\n    tag_432:\n        /* \"#utility.yul\":23554:23556   */\n      0x20\n        /* \"#utility.yul\":23549:23552   */\n      dup3\n        /* \"#utility.yul\":23545:23557   */\n      add\n        /* \"#utility.yul\":23538:23557   */\n      swap1\n      pop\n        /* \"#utility.yul\":23197:23563   */\n      swap2\n      swap1\n      pop\n      jump\t// out\n        /* \"#utility.yul\":23569:23988   */\n    tag_60:\n        /* \"#utility.yul\":23735:23739   */\n      0x00\n        /* \"#utility.yul\":23773:23775   */\n      0x20\n        /* \"#utility.yul\":23762:23771   */\n      dup3\n        /* \"#utility.yul\":23758:23776   */\n      add\n        /* \"#utility.yul\":23750:23776   */\n      swap1\n      pop\n        /* \"#utility.yul\":23822:23831   */\n      dup2\n        /* \"#utility.yul\":23816:23820   */\n      dup2\n        /* \"#utility.yul\":23812:23832   */\n      sub\n        /* \"#utility.yul\":23808:23809   */\n      0x00\n        /* \"#utility.yul\":23797:23806   */\n      dup4\n        /* \"#utility.yul\":23793:23810   */\n      add\n        /* \"#utility.yul\":23786:23833   */\n      mstore\n        /* \"#utility.yul\":23850:23981   */\n      tag_434\n        /* \"#utility.yul\":23976:23980   */\n      dup2\n        /* \"#utility.yul\":23850:23981   */\n      tag_201\n      jump\t// in\n    tag_434:\n        /* \"#utility.yul\":23842:23981   */\n      swap1\n      pop\n        /* \"#utility.yul\":23569:23988   */\n      swap2\n      swap1\n      pop\n      jump\t// out\n        /* \"#utility.yul\":23994:24169   */\n    tag_202:\n        /* \"#utility.yul\":24134:24161   */\n      0x50726f706f73616c20616c726561647920657865637574656400000000000000\n        /* \"#utility.yul\":24130:24131   */\n      0x00\n        /* \"#utility.yul\":24122:24128   */\n      dup3\n        /* \"#utility.yul\":24118:24132   */\n      add\n        /* \"#utility.yul\":24111:24162   */\n      mstore\n        /* \"#utility.yul\":23994:24169   */\n      pop\n      jump\t// out\n        /* \"#utility.yul\":24175:24541   */\n    tag_203:\n        /* \"#utility.yul\":24317:24320   */\n      0x00\n        /* \"#utility.yul\":24338:24405   */\n      tag_437\n        /* \"#utility.yul\":24402:24404   */\n      0x19\n        /* \"#utility.yul\":24397:24400   */\n      dup4\n        /* \"#utility.yul\":24338:24405   */\n      tag_199\n      jump\t// in\n    tag_437:\n        /* \"#utility.yul\":24331:24405   */\n      swap2\n      pop\n        /* \"#utility.yul\":24414:24507   */\n      tag_438\n        /* \"#utility.yul\":24503:24506   */\n      dup3\n        /* \"#utility.yul\":24414:24507   */\n      tag_202\n      jump\t// in\n    tag_438:\n        /* \"#utility.yul\":24532:24534   */\n      0x20\n        /* \"#utility.yul\":24527:24530   */\n      dup3\n        /* \"#utility.yul\":24523:24535   */\n      add\n        /* \"#utility.yul\":24516:24535   */\n      swap1\n      pop\n        /* \"#utility.yul\":24175:24541   */\n      swap2\n      swap1\n      pop\n      jump\t// out\n        /* \"#utility.yul\":24547:24966   */\n    tag_63:\n        /* \"#utility.yul\":24713:24717   */\n      0x00\n        /* \"#utility.yul\":24751:24753   */\n      0x20\n        /* \"#utility.yul\":24740:24749   */\n      dup3\n        /* \"#utility.yul\":24736:24754   */\n      add\n        /* \"#utility.yul\":24728:24754   */\n      swap1\n      pop\n        /* \"#utility.yul\":24800:24809   */\n      dup2\n        /* \"#utility.yul\":24794:24798   */\n      dup2\n        /* \"#utility.yul\":24790:24810   */\n      sub\n        /* \"#utility.yul\":24786:24787   */\n      0x00\n        /* \"#utility.yul\":24775:24784   */\n      dup4\n        /* \"#utility.yul\":24771:24788   */\n      add\n        /* \"#utility.yul\":24764:24811   */\n      mstore\n        /* \"#utility.yul\":24828:24959   */\n      tag_440\n        /* \"#utility.yul\":24954:24958   */\n      dup2\n        /* \"#utility.yul\":24828:24959   */\n      tag_203\n      jump\t// in\n    tag_440:\n        /* \"#utility.yul\":24820:24959   */\n      swap1\n      pop\n        /* \"#utility.yul\":24547:24966   */\n      swap2\n      swap1\n      pop\n      jump\t// out\n        /* \"#utility.yul\":24972:25143   */\n    tag_204:\n        /* \"#utility.yul\":25112:25135   */\n      0x50726f706f73616c20646964206e6f7420706173730000000000000000000000\n        /* \"#utility.yul\":25108:25109   */\n      0x00\n        /* \"#utility.yul\":25100:25106   */\n      dup3\n        /* \"#utility.yul\":25096:25110   */\n      add\n        /* \"#utility.yul\":25089:25136   */\n      mstore\n        /* \"#utility.yul\":24972:25143   */\n      pop\n      jump\t// out\n        /* \"#utility.yul\":25149:25515   */\n    tag_205:\n        /* \"#utility.yul\":25291:25294   */\n      0x00\n        /* \"#utility.yul\":25312:25379   */\n      tag_443\n        /* \"#utility.yul\":25376:25378   */\n      0x15\n        /* \"#utility.yul\":25371:25374   */\n      dup4\n        /* \"#utility.yul\":25312:25379   */\n      tag_199\n      jump\t// in\n    tag_443:\n        /* \"#utility.yul\":25305:25379   */\n      swap2\n      pop\n        /* \"#utility.yul\":25388:25481   */\n      tag_444\n        /* \"#utility.yul\":25477:25480   */\n      dup3\n        /* \"#utility.yul\":25388:25481   */\n      tag_204\n      jump\t// in\n    tag_444:\n        /* \"#utility.yul\":25506:25508   */\n      0x20\n        /* \"#utility.yul\":25501:25504   */\n      dup3\n        /* \"#utility.yul\":25497:25509   */\n      add\n        /* \"#utility.yul\":25490:25509   */\n      swap1\n      pop\n        /* \"#utility.yul\":25149:25515   */\n      swap2\n      swap1\n      pop\n      jump\t// out\n        /* \"#utility.yul\":25521:25940   */\n    tag_66:\n        /* \"#utility.yul\":25687:25691   */\n      0x00\n        /* \"#utility.yul\":25725:25727   */\n      0x20\n        /* \"#utility.yul\":25714:25723   */\n      dup3\n        /* \"#utility.yul\":25710:25728   */\n      add\n        /* \"#utility.yul\":25702:25728   */\n      swap1\n      pop\n        /* \"#utility.yul\":25774:25783   */\n      dup2\n        /* \"#utility.yul\":25768:25772   */\n      dup2\n        /* \"#utility.yul\":25764:25784   */\n      sub\n        /* \"#utility.yul\":25760:25761   */\n      0x00\n        /* \"#utility.yul\":25749:25758   */\n      dup4\n        /* \"#utility.yul\":25745:25762   */\n      add\n        /* \"#utility.yul\":25738:25785   */\n      mstore\n        /* \"#utility.yul\":25802:25933   */\n      tag_446\n        /* \"#utility.yul\":25928:25932   */\n      dup2\n        /* \"#utility.yul\":25802:25933   */\n      tag_205\n      jump\t// in\n    tag_446:\n        /* \"#utility.yul\":25794:25933   */\n      swap1\n      pop\n        /* \"#utility.yul\":25521:25940   */\n      swap2\n      swap1\n      pop\n      jump\t// out\n        /* \"#utility.yul\":25946:26119   */\n    tag_206:\n        /* \"#utility.yul\":26086:26111   */\n      0x50726f706f73616c20646f6573206e6f74206578697374000000000000000000\n        /* \"#utility.yul\":26082:26083   */\n      0x00\n        /* \"#utility.yul\":26074:26080   */\n      dup3\n        /* \"#utility.yul\":26070:26084   */\n      add\n        /* \"#utility.yul\":26063:26112   */\n      mstore\n        /* \"#utility.yul\":25946:26119   */\n      pop\n      jump\t// out\n        /* \"#utility.yul\":26125:26491   */\n    tag_207:\n        /* \"#utility.yul\":26267:26270   */\n      0x00\n        /* \"#utility.yul\":26288:26355   */\n      tag_449\n        /* \"#utility.yul\":26352:26354   */\n      0x17\n        /* \"#utility.yul\":26347:26350   */\n      dup4\n        /* \"#utility.yul\":26288:26355   */\n      tag_199\n      jump\t// in\n    tag_449:\n        /* \"#utility.yul\":26281:26355   */\n      swap2\n      pop\n        /* \"#utility.yul\":26364:26457   */\n      tag_450\n        /* \"#utility.yul\":26453:26456   */\n      dup3\n        /* \"#utility.yul\":26364:26457   */\n      tag_206\n      jump\t// in\n    tag_450:\n        /* \"#utility.yul\":26482:26484   */\n      0x20\n        /* \"#utility.yul\":26477:26480   */\n      dup3\n        /* \"#utility.yul\":26473:26485   */\n      add\n        /* \"#utility.yul\":26466:26485   */\n      swap1\n      pop\n        /* \"#utility.yul\":26125:26491   */\n      swap2\n      swap1\n      pop\n      jump\t// out\n        /* \"#utility.yul\":26497:26916   */\n    tag_72:\n        /* \"#utility.yul\":26663:26667   */\n      0x00\n        /* \"#utility.yul\":26701:26703   */\n      0x20\n        /* \"#utility.yul\":26690:26699   */\n      dup3\n        /* \"#utility.yul\":26686:26704   */\n      add\n        /* \"#utility.yul\":26678:26704   */\n      swap1\n      pop\n        /* \"#utility.yul\":26750:26759   */\n      dup2\n        /* \"#utility.yul\":26744:26748   */\n      dup2\n        /* \"#utility.yul\":26740:26760   */\n      sub\n        /* \"#utility.yul\":26736:26737   */\n      0x00\n        /* \"#utility.yul\":26725:26734   */\n      dup4\n        /* \"#utility.yul\":26721:26738   */\n      add\n        /* \"#utility.yul\":26714:26761   */\n      mstore\n        /* \"#utility.yul\":26778:26909   */\n      tag_452\n        /* \"#utility.yul\":26904:26908   */\n      dup2\n        /* \"#utility.yul\":26778:26909   */\n      tag_207\n      jump\t// in\n    tag_452:\n        /* \"#utility.yul\":26770:26909   */\n      swap1\n      pop\n        /* \"#utility.yul\":26497:26916   */\n      swap2\n      swap1\n      pop\n      jump\t// out\n        /* \"#utility.yul\":26922:27088   */\n    tag_208:\n        /* \"#utility.yul\":27062:27080   */\n      0x566f74696e672068617320656e64656400000000000000000000000000000000\n        /* \"#utility.yul\":27058:27059   */\n      0x00\n        /* \"#utility.yul\":27050:27056   */\n      dup3\n        /* \"#utility.yul\":27046:27060   */\n      add\n        /* \"#utility.yul\":27039:27081   */\n      mstore\n        /* \"#utility.yul\":26922:27088   */\n      pop\n      jump\t// out\n        /* \"#utility.yul\":27094:27460   */\n    tag_209:\n        /* \"#utility.yul\":27236:27239   */\n      0x00\n        /* \"#utility.yul\":27257:27324   */\n      tag_455\n        /* \"#utility.yul\":27321:27323   */\n      0x10\n        /* \"#utility.yul\":27316:27319   */\n      dup4\n        /* \"#utility.yul\":27257:27324   */\n      tag_199\n      jump\t// in\n    tag_455:\n        /* \"#utility.yul\":27250:27324   */\n      swap2\n      pop\n        /* \"#utility.yul\":27333:27426   */\n      tag_456\n        /* \"#utility.yul\":27422:27425   */\n      dup3\n        /* \"#utility.yul\":27333:27426   */\n      tag_208\n      jump\t// in\n    tag_456:\n        /* \"#utility.yul\":27451:27453   */\n      0x20\n        /* \"#utility.yul\":27446:27449   */\n      dup3\n        /* \"#utility.yul\":27442:27454   */\n      add\n        /* \"#utility.yul\":27435:27454   */\n      swap1\n      pop\n        /* \"#utility.yul\":27094:27460   */\n      swap2\n      swap1\n      pop\n      jump\t// out\n        /* \"#utility.yul\":27466:27885   */\n    tag_104:\n        /* \"#utility.yul\":27632:27636   */\n      0x00\n        /* \"#utility.yul\":27670:27672   */\n      0x20\n        /* \"#utility.yul\":27659:27668   */\n      dup3\n        /* \"#utility.yul\":27655:27673   */\n      add\n        /* \"#utility.yul\":27647:27673   */\n      swap1\n      pop\n        /* \"#utility.yul\":27719:27728   */\n      dup2\n        /* \"#utility.yul\":27713:27717   */\n      dup2\n        /* \"#utility.yul\":27709:27729   */\n      sub\n        /* \"#utility.yul\":27705:27706   */\n      0x00\n        /* \"#utility.yul\":27694:27703   */\n      dup4\n        /* \"#utility.yul\":27690:27707   */\n      add\n        /* \"#utility.yul\":27683:27730   */\n      mstore\n        /* \"#utility.yul\":27747:27878   */\n      tag_458\n        /* \"#utility.yul\":27873:27877   */\n      dup2\n        /* \"#utility.yul\":27747:27878   */\n      tag_209\n      jump\t// in\n    tag_458:\n        /* \"#utility.yul\":27739:27878   */\n      swap1\n      pop\n        /* \"#utility.yul\":27466:27885   */\n      swap2\n      swap1\n      pop\n      jump\t// out\n        /* \"#utility.yul\":27891:28054   */\n    tag_210:\n        /* \"#utility.yul\":28031:28046   */\n      0x416c726561647920766f74656400000000000000000000000000000000000000\n        /* \"#utility.yul\":28027:28028   */\n      0x00\n        /* \"#utility.yul\":28019:28025   */\n      dup3\n        /* \"#utility.yul\":28015:28029   */\n      add\n        /* \"#utility.yul\":28008:28047   */\n      mstore\n        /* \"#utility.yul\":27891:28054   */\n      pop\n      jump\t// out\n        /* \"#utility.yul\":28060:28426   */\n    tag_211:\n        /* \"#utility.yul\":28202:28205   */\n      0x00\n        /* \"#utility.yul\":28223:28290   */\n      tag_461\n        /* \"#utility.yul\":28287:28289   */\n      0x0d\n        /* \"#utility.yul\":28282:28285   */\n      dup4\n        /* \"#utility.yul\":28223:28290   */\n      tag_199\n      jump\t// in\n    tag_461:\n        /* \"#utility.yul\":28216:28290   */\n      swap2\n      pop\n        /* \"#utility.yul\":28299:28392   */\n      tag_462\n        /* \"#utility.yul\":28388:28391   */\n      dup3\n        /* \"#utility.yul\":28299:28392   */\n      tag_210\n      jump\t// in\n    tag_462:\n        /* \"#utility.yul\":28417:28419   */\n      0x20\n        /* \"#utility.yul\":28412:28415   */\n      dup3\n        /* \"#utility.yul\":28408:28420   */\n      add\n        /* \"#utility.yul\":28401:28420   */\n      swap1\n      pop\n        /* \"#utility.yul\":28060:28426   */\n      swap2\n      swap1\n      pop\n      jump\t// out\n        /* \"#utility.yul\":28432:28851   */\n    tag_115:\n        /* \"#utility.yul\":28598:28602   */\n      0x00\n        /* \"#utility.yul\":28636:28638   */\n      0x20\n        /* \"#utility.yul\":28625:28634   */\n      dup3\n        /* \"#utility.yul\":28621:28639   */\n      add\n        /* \"#utility.yul\":28613:28639   */\n      swap1\n      pop\n        /* \"#utility.yul\":28685:28694   */\n      dup2\n        /* \"#utility.yul\":28679:28683   */\n      dup2\n        /* \"#utility.yul\":28675:28695   */\n      sub\n        /* \"#utility.yul\":28671:28672   */\n      0x00\n        /* \"#utility.yul\":28660:28669   */\n      dup4\n        /* \"#utility.yul\":28656:28673   */\n      add\n        /* \"#utility.yul\":28649:28696   */\n      mstore\n        /* \"#utility.yul\":28713:28844   */\n      tag_464\n        /* \"#utility.yul\":28839:28843   */\n      dup2\n        /* \"#utility.yul\":28713:28844   */\n      tag_211\n      jump\t// in\n    tag_464:\n        /* \"#utility.yul\":28705:28844   */\n      swap1\n      pop\n        /* \"#utility.yul\":28432:28851   */\n      swap2\n      swap1\n      pop\n      jump\t// out\n        /* \"#utility.yul\":28857:29037   */\n    tag_212:\n        /* \"#utility.yul\":28905:28982   */\n      0x4e487b7100000000000000000000000000000000000000000000000000000000\n        /* \"#utility.yul\":28902:28903   */\n      0x00\n        /* \"#utility.yul\":28895:28983   */\n      mstore\n        /* \"#utility.yul\":29002:29006   */\n      0x11\n        /* \"#utility.yul\":28999:29000   */\n      0x04\n        /* \"#utility.yul\":28992:29007   */\n      mstore\n        /* \"#utility.yul\":29026:29030   */\n      0x24\n        /* \"#utility.yul\":29023:29024   */\n      0x00\n        /* \"#utility.yul\":29016:29031   */\n      revert\n        /* \"#utility.yul\":29043:29276   */\n    tag_117:\n        /* \"#utility.yul\":29082:29085   */\n      0x00\n        /* \"#utility.yul\":29105:29129   */\n      tag_467\n        /* \"#utility.yul\":29123:29128   */\n      dup3\n        /* \"#utility.yul\":29105:29129   */\n      tag_150\n      jump\t// in\n    tag_467:\n        /* \"#utility.yul\":29096:29129   */\n      swap2\n      pop\n        /* \"#utility.yul\":29151:29217   */\n      0xffffffffffffffffffffffffffffffffffffffffffffffffffffffffffffffff\n        /* \"#utility.yul\":29144:29149   */\n      dup3\n        /* \"#utility.yul\":29141:29218   */\n      sub\n        /* \"#utility.yul\":29138:29241   */\n      tag_468\n      jumpi\n        /* \"#utility.yul\":29221:29239   */\n      tag_469\n      tag_212\n      jump\t// in\n    tag_469:\n        /* \"#utility.yul\":29138:29241   */\n    tag_468:\n        /* \"#utility.yul\":29268:29269   */\n      0x01\n        /* \"#utility.yul\":29261:29266   */\n      dup3\n        /* \"#utility.yul\":29257:29270   */\n      add\n        /* \"#utility.yul\":29250:29270   */\n      swap1\n      pop\n        /* \"#utility.yul\":29043:29276   */\n      swap2\n      swap1\n      pop\n      jump\t// out\n\n    auxdata: 0xa2646970667358221220e628c057a612b22056f8d4ddf5d68858cb179121a5c6ceaffa511d535d1caed364736f6c63430008140033\n}\n",
				"bytecode": {
					"linkReferences": {},
					"object": "608060405234801561000f575f80fd5b50611b268061001d5f395ff3fe608060405234801561000f575f80fd5b5060043610610086575f3560e01c8063c08cc02d11610059578063c08cc02d14610124578063c7f758a814610142578063c9d27afe14610172578063cceb68f51461018e57610086565b80630ce0ebf41461008a5780630d61b519146100a65780630d68eb9e146100c257806347c66140146100f4575b5f80fd5b6100a4600480360381019061009f9190610ee5565b6101ac565b005b6100c060048036038101906100bb9190610f6d565b6102f1565b005b6100dc60048036038101906100d79190610f98565b610414565b6040516100eb9392919061103e565b60405180910390f35b61010e60048036038101906101099190610f6d565b61047f565b60405161011b9190611188565b60405180910390f35b61012c6105aa565b60405161013991906111a8565b60405180910390f35b61015c60048036038101906101579190610f6d565b6105b5565b60405161016991906112ef565b60405180910390f35b61018c60048036038101906101879190611339565b6107f0565b005b610196610afc565b6040516101a391906114e6565b60405180910390f35b5f808054905090505f6040518061010001604052808381526020018681526020018581526020013373ffffffffffffffffffffffffffffffffffffffff1681526020018481526020015f151581526020015f81526020015f81525090505f81908060018154018082558091505060019003905f5260205f2090600802015f909190919091505f820151815f0155602082015181600101908161024e9190611700565b5060408201518160020190816102649190611700565b506060820151816003015f6101000a81548173ffffffffffffffffffffffffffffffffffffffff021916908373ffffffffffffffffffffffffffffffffffffffff1602179055506080820151816004015560a0820151816005015f6101000a81548160ff02191690831515021790555060c0820151816006015560e0820151816007015550505050505050565b5f808281548110610305576103046117cf565b5b905f5260205f209060080201905080600401544211610359576040517f08c379a000000000000000000000000000000000000000000000000000000000815260040161035090611856565b60405180910390fd5b806005015f9054906101000a900460ff16156103aa576040517f08c379a00000000000000000000000000000000000000000000000000000000081526004016103a1906118be565b60405180910390fd5b80600701548160060154116103f4576040517f08c379a00000000000000000000000000000000000000000000000000000000081526004016103eb90611926565b60405180910390fd5b6001816005015f6101000a81548160ff0219169083151502179055505050565b6001602052815f5260405f20818154811061042d575f80fd5b905f5260205f2090600302015f9150915050805f015f9054906101000a900473ffffffffffffffffffffffffffffffffffffffff1690806001015490806002015f9054906101000a900460ff16905083565b60605f8054905082106104c7576040517f08c379a00000000000000000000000000000000000000000000000000000000081526004016104be9061198e565b60405180910390fd5b60015f8381526020019081526020015f20805480602002602001604051908101604052809291908181526020015f905b8282101561059f578382905f5260205f2090600302016040518060600160405290815f82015f9054906101000a900473ffffffffffffffffffffffffffffffffffffffff1673ffffffffffffffffffffffffffffffffffffffff1673ffffffffffffffffffffffffffffffffffffffff16815260200160018201548152602001600282015f9054906101000a900460ff161515151581525050815260200190600101906104f7565b505050509050919050565b5f8080549050905090565b6105bd610d0e565b5f805490508210610603576040517f08c379a00000000000000000000000000000000000000000000000000000000081526004016105fa9061198e565b60405180910390fd5b5f808381548110610617576106166117cf565b5b905f5260205f209060080201905080604051806101000160405290815f820154815260200160018201805461064b90611533565b80601f016020809104026020016040519081016040528092919081815260200182805461067790611533565b80156106c25780601f10610699576101008083540402835291602001916106c2565b820191905f5260205f20905b8154815290600101906020018083116106a557829003601f168201915b505050505081526020016002820180546106db90611533565b80601f016020809104026020016040519081016040528092919081815260200182805461070790611533565b80156107525780601f1061072957610100808354040283529160200191610752565b820191905f5260205f20905b81548152906001019060200180831161073557829003601f168201915b50505050508152602001600382015f9054906101000a900473ffffffffffffffffffffffffffffffffffffffff1673ffffffffffffffffffffffffffffffffffffffff1673ffffffffffffffffffffffffffffffffffffffff16815260200160048201548152602001600582015f9054906101000a900460ff1615151515815260200160068201548152602001600782015481525050915050919050565b5f805490508210610836576040517f08c379a000000000000000000000000000000000000000000000000000000000815260040161082d9061198e565b60405180910390fd5b5f80838154811061084a576108496117cf565b5b905f5260205f2090600802019050806004015442111561089f576040517f08c379a0000000000000000000000000000000000000000000000000000000008152600401610896906119f6565b60405180910390fd5b806005015f9054906101000a900460ff16156108f0576040517f08c379a00000000000000000000000000000000000000000000000000000000081526004016108e7906118be565b60405180910390fd5b5f5b60015f8581526020019081526020015f20805490508110156109df573373ffffffffffffffffffffffffffffffffffffffff1660015f8681526020019081526020015f208281548110610948576109476117cf565b5b905f5260205f2090600302015f015f9054906101000a900473ffffffffffffffffffffffffffffffffffffffff1673ffffffffffffffffffffffffffffffffffffffff16036109cc576040517f08c379a00000000000000000000000000000000000000000000000000000000081526004016109c390611a5e565b60405180910390fd5b80806109d790611aa9565b9150506108f2565b5060015f8481526020019081526020015f2060405180606001604052803373ffffffffffffffffffffffffffffffffffffffff168152602001428152602001841515815250908060018154018082558091505060019003905f5260205f2090600302015f909190919091505f820151815f015f6101000a81548173ffffffffffffffffffffffffffffffffffffffff021916908373ffffffffffffffffffffffffffffffffffffffff160217905550602082015181600101556040820151816002015f6101000a81548160ff02191690831515021790555050508115610add57806006015f815480929190610ad390611aa9565b9190505550610af7565b806007015f815480929190610af190611aa9565b91905055505b505050565b60605f805480602002602001604051908101604052809291908181526020015f905b82821015610d05578382905f5260205f209060080201604051806101000160405290815f8201548152602001600182018054610b5990611533565b80601f0160208091040260200160405190810160405280929190818152602001828054610b8590611533565b8015610bd05780601f10610ba757610100808354040283529160200191610bd0565b820191905f5260205f20905b815481529060010190602001808311610bb357829003601f168201915b50505050508152602001600282018054610be990611533565b80601f0160208091040260200160405190810160405280929190818152602001828054610c1590611533565b8015610c605780601f10610c3757610100808354040283529160200191610c60565b820191905f5260205f20905b815481529060010190602001808311610c4357829003601f168201915b50505050508152602001600382015f9054906101000a900473ffffffffffffffffffffffffffffffffffffffff1673ffffffffffffffffffffffffffffffffffffffff1673ffffffffffffffffffffffffffffffffffffffff16815260200160048201548152602001600582015f9054906101000a900460ff161515151581526020016006820154815260200160078201548152505081526020019060010190610b1e565b50505050905090565b6040518061010001604052805f815260200160608152602001606081526020015f73ffffffffffffffffffffffffffffffffffffffff1681526020015f81526020015f151581526020015f81526020015f81525090565b5f604051905090565b5f80fd5b5f80fd5b5f80fd5b5f80fd5b5f601f19601f8301169050919050565b7f4e487b71000000000000000000000000000000000000000000000000000000005f52604160045260245ffd5b610dc482610d7e565b810181811067ffffffffffffffff82111715610de357610de2610d8e565b5b80604052505050565b5f610df5610d65565b9050610e018282610dbb565b919050565b5f67ffffffffffffffff821115610e2057610e1f610d8e565b5b610e2982610d7e565b9050602081019050919050565b828183375f83830152505050565b5f610e56610e5184610e06565b610dec565b905082815260208101848484011115610e7257610e71610d7a565b5b610e7d848285610e36565b509392505050565b5f82601f830112610e9957610e98610d76565b5b8135610ea9848260208601610e44565b91505092915050565b5f819050919050565b610ec481610eb2565b8114610ece575f80fd5b50565b5f81359050610edf81610ebb565b92915050565b5f805f60608486031215610efc57610efb610d6e565b5b5f84013567ffffffffffffffff811115610f1957610f18610d72565b5b610f2586828701610e85565b935050602084013567ffffffffffffffff811115610f4657610f45610d72565b5b610f5286828701610e85565b9250506040610f6386828701610ed1565b9150509250925092565b5f60208284031215610f8257610f81610d6e565b5b5f610f8f84828501610ed1565b91505092915050565b5f8060408385031215610fae57610fad610d6e565b5b5f610fbb85828601610ed1565b9250506020610fcc85828601610ed1565b9150509250929050565b5f73ffffffffffffffffffffffffffffffffffffffff82169050919050565b5f610fff82610fd6565b9050919050565b61100f81610ff5565b82525050565b61101e81610eb2565b82525050565b5f8115159050919050565b61103881611024565b82525050565b5f6060820190506110515f830186611006565b61105e6020830185611015565b61106b604083018461102f565b949350505050565b5f81519050919050565b5f82825260208201905092915050565b5f819050602082019050919050565b6110a581610ff5565b82525050565b6110b481610eb2565b82525050565b6110c381611024565b82525050565b606082015f8201516110dd5f85018261109c565b5060208201516110f060208501826110ab565b50604082015161110360408501826110ba565b50505050565b5f61111483836110c9565b60608301905092915050565b5f602082019050919050565b5f61113682611073565b611140818561107d565b935061114b8361108d565b805f5b8381101561117b5781516111628882611109565b975061116d83611120565b92505060018101905061114e565b5085935050505092915050565b5f6020820190508181035f8301526111a0818461112c565b905092915050565b5f6020820190506111bb5f830184611015565b92915050565b5f81519050919050565b5f82825260208201905092915050565b5f5b838110156111f85780820151818401526020810190506111dd565b5f8484015250505050565b5f61120d826111c1565b61121781856111cb565b93506112278185602086016111db565b61123081610d7e565b840191505092915050565b5f61010083015f8301516112515f8601826110ab565b50602083015184820360208601526112698282611203565b915050604083015184820360408601526112838282611203565b9150506060830151611298606086018261109c565b5060808301516112ab60808601826110ab565b5060a08301516112be60a08601826110ba565b5060c08301516112d160c08601826110ab565b5060e08301516112e460e08601826110ab565b508091505092915050565b5f6020820190508181035f830152611307818461123b565b905092915050565b61131881611024565b8114611322575f80fd5b50565b5f813590506113338161130f565b92915050565b5f806040838503121561134f5761134e610d6e565b5b5f61135c85828601610ed1565b925050602061136d85828601611325565b9150509250929050565b5f81519050919050565b5f82825260208201905092915050565b5f819050602082019050919050565b5f61010083015f8301516113b65f8601826110ab565b50602083015184820360208601526113ce8282611203565b915050604083015184820360408601526113e88282611203565b91505060608301516113fd606086018261109c565b50608083015161141060808601826110ab565b5060a083015161142360a08601826110ba565b5060c083015161143660c08601826110ab565b5060e083015161144960e08601826110ab565b508091505092915050565b5f61145f83836113a0565b905092915050565b5f602082019050919050565b5f61147d82611377565b6114878185611381565b93508360208202850161149985611391565b805f5b858110156114d457848403895281516114b58582611454565b94506114c083611467565b925060208a0199505060018101905061149c565b50829750879550505050505092915050565b5f6020820190508181035f8301526114fe8184611473565b905092915050565b7f4e487b71000000000000000000000000000000000000000000000000000000005f52602260045260245ffd5b5f600282049050600182168061154a57607f821691505b60208210810361155d5761155c611506565b5b50919050565b5f819050815f5260205f209050919050565b5f6020601f8301049050919050565b5f82821b905092915050565b5f600883026115bf7fffffffffffffffffffffffffffffffffffffffffffffffffffffffffffffffff82611584565b6115c98683611584565b95508019841693508086168417925050509392505050565b5f819050919050565b5f6116046115ff6115fa84610eb2565b6115e1565b610eb2565b9050919050565b5f819050919050565b61161d836115ea565b6116316116298261160b565b848454611590565b825550505050565b5f90565b611645611639565b611650818484611614565b505050565b5b81811015611673576116685f8261163d565b600181019050611656565b5050565b601f8211156116b85761168981611563565b61169284611575565b810160208510156116a1578190505b6116b56116ad85611575565b830182611655565b50505b505050565b5f82821c905092915050565b5f6116d85f19846008026116bd565b1980831691505092915050565b5f6116f083836116c9565b9150826002028217905092915050565b611709826111c1565b67ffffffffffffffff81111561172257611721610d8e565b5b61172c8254611533565b611737828285611677565b5f60209050601f831160018114611768575f8415611756578287015190505b61176085826116e5565b8655506117c7565b601f19841661177686611563565b5f5b8281101561179d57848901518255600182019150602085019450602081019050611778565b868310156117ba57848901516117b6601f8916826116c9565b8355505b6001600288020188555050505b505050505050565b7f4e487b71000000000000000000000000000000000000000000000000000000005f52603260045260245ffd5b5f82825260208201905092915050565b7f566f74696e6720706572696f6420686173206e6f7420656e64656400000000005f82015250565b5f611840601b836117fc565b915061184b8261180c565b602082019050919050565b5f6020820190508181035f83015261186d81611834565b9050919050565b7f50726f706f73616c20616c7265616479206578656375746564000000000000005f82015250565b5f6118a86019836117fc565b91506118b382611874565b602082019050919050565b5f6020820190508181035f8301526118d58161189c565b9050919050565b7f50726f706f73616c20646964206e6f74207061737300000000000000000000005f82015250565b5f6119106015836117fc565b915061191b826118dc565b602082019050919050565b5f6020820190508181035f83015261193d81611904565b9050919050565b7f50726f706f73616c20646f6573206e6f742065786973740000000000000000005f82015250565b5f6119786017836117fc565b915061198382611944565b602082019050919050565b5f6020820190508181035f8301526119a58161196c565b9050919050565b7f566f74696e672068617320656e646564000000000000000000000000000000005f82015250565b5f6119e06010836117fc565b91506119eb826119ac565b602082019050919050565b5f6020820190508181035f830152611a0d816119d4565b9050919050565b7f416c726561647920766f746564000000000000000000000000000000000000005f82015250565b5f611a48600d836117fc565b9150611a5382611a14565b602082019050919050565b5f6020820190508181035f830152611a7581611a3c565b9050919050565b7f4e487b71000000000000000000000000000000000000000000000000000000005f52601160045260245ffd5b5f611ab382610eb2565b91507fffffffffffffffffffffffffffffffffffffffffffffffffffffffffffffffff8203611ae557611ae4611a7c565b5b60018201905091905056fea2646970667358221220e628c057a612b22056f8d4ddf5d68858cb179121a5c6ceaffa511d535d1caed364736f6c63430008140033",
					"opcodes": "PUSH1 0x80 PUSH1 0x40 MSTORE CALLVALUE DUP1 ISZERO PUSH2 0xF JUMPI PUSH0 DUP1 REVERT JUMPDEST POP PUSH2 0x1B26 DUP1 PUSH2 0x1D PUSH0 CODECOPY PUSH0 RETURN INVALID PUSH1 0x80 PUSH1 0x40 MSTORE CALLVALUE DUP1 ISZERO PUSH2 0xF JUMPI PUSH0 DUP1 REVERT JUMPDEST POP PUSH1 0x4 CALLDATASIZE LT PUSH2 0x86 JUMPI PUSH0 CALLDATALOAD PUSH1 0xE0 SHR DUP1 PUSH4 0xC08CC02D GT PUSH2 0x59 JUMPI DUP1 PUSH4 0xC08CC02D EQ PUSH2 0x124 JUMPI DUP1 PUSH4 0xC7F758A8 EQ PUSH2 0x142 JUMPI DUP1 PUSH4 0xC9D27AFE EQ PUSH2 0x172 JUMPI DUP1 PUSH4 0xCCEB68F5 EQ PUSH2 0x18E JUMPI PUSH2 0x86 JUMP JUMPDEST DUP1 PUSH4 0xCE0EBF4 EQ PUSH2 0x8A JUMPI DUP1 PUSH4 0xD61B519 EQ PUSH2 0xA6 JUMPI DUP1 PUSH4 0xD68EB9E EQ PUSH2 0xC2 JUMPI DUP1 PUSH4 0x47C66140 EQ PUSH2 0xF4 JUMPI JUMPDEST PUSH0 DUP1 REVERT JUMPDEST PUSH2 0xA4 PUSH1 0x4 DUP1 CALLDATASIZE SUB DUP2 ADD SWAP1 PUSH2 0x9F SWAP2 SWAP1 PUSH2 0xEE5 JUMP JUMPDEST PUSH2 0x1AC JUMP JUMPDEST STOP JUMPDEST PUSH2 0xC0 PUSH1 0x4 DUP1 CALLDATASIZE SUB DUP2 ADD SWAP1 PUSH2 0xBB SWAP2 SWAP1 PUSH2 0xF6D JUMP JUMPDEST PUSH2 0x2F1 JUMP JUMPDEST STOP JUMPDEST PUSH2 0xDC PUSH1 0x4 DUP1 CALLDATASIZE SUB DUP2 ADD SWAP1 PUSH2 0xD7 SWAP2 SWAP1 PUSH2 0xF98 JUMP JUMPDEST PUSH2 0x414 JUMP JUMPDEST PUSH1 0x40 MLOAD PUSH2 0xEB SWAP4 SWAP3 SWAP2 SWAP1 PUSH2 0x103E JUMP JUMPDEST PUSH1 0x40 MLOAD DUP1 SWAP2 SUB SWAP1 RETURN JUMPDEST PUSH2 0x10E PUSH1 0x4 DUP1 CALLDATASIZE SUB DUP2 ADD SWAP1 PUSH2 0x109 SWAP2 SWAP1 PUSH2 0xF6D JUMP JUMPDEST PUSH2 0x47F JUMP JUMPDEST PUSH1 0x40 MLOAD PUSH2 0x11B SWAP2 SWAP1 PUSH2 0x1188 JUMP JUMPDEST PUSH1 0x40 MLOAD DUP1 SWAP2 SUB SWAP1 RETURN JUMPDEST PUSH2 0x12C PUSH2 0x5AA JUMP JUMPDEST PUSH1 0x40 MLOAD PUSH2 0x139 SWAP2 SWAP1 PUSH2 0x11A8 JUMP JUMPDEST PUSH1 0x40 MLOAD DUP1 SWAP2 SUB SWAP1 RETURN JUMPDEST PUSH2 0x15C PUSH1 0x4 DUP1 CALLDATASIZE SUB DUP2 ADD SWAP1 PUSH2 0x157 SWAP2 SWAP1 PUSH2 0xF6D JUMP JUMPDEST PUSH2 0x5B5 JUMP JUMPDEST PUSH1 0x40 MLOAD PUSH2 0x169 SWAP2 SWAP1 PUSH2 0x12EF JUMP JUMPDEST PUSH1 0x40 MLOAD DUP1 SWAP2 SUB SWAP1 RETURN JUMPDEST PUSH2 0x18C PUSH1 0x4 DUP1 CALLDATASIZE SUB DUP2 ADD SWAP1 PUSH2 0x187 SWAP2 SWAP1 PUSH2 0x1339 JUMP JUMPDEST PUSH2 0x7F0 JUMP JUMPDEST STOP JUMPDEST PUSH2 0x196 PUSH2 0xAFC JUMP JUMPDEST PUSH1 0x40 MLOAD PUSH2 0x1A3 SWAP2 SWAP1 PUSH2 0x14E6 JUMP JUMPDEST PUSH1 0x40 MLOAD DUP1 SWAP2 SUB SWAP1 RETURN JUMPDEST PUSH0 DUP1 DUP1 SLOAD SWAP1 POP SWAP1 POP PUSH0 PUSH1 0x40 MLOAD DUP1 PUSH2 0x100 ADD PUSH1 0x40 MSTORE DUP1 DUP4 DUP2 MSTORE PUSH1 0x20 ADD DUP7 DUP2 MSTORE PUSH1 0x20 ADD DUP6 DUP2 MSTORE PUSH1 0x20 ADD CALLER PUSH20 0xFFFFFFFFFFFFFFFFFFFFFFFFFFFFFFFFFFFFFFFF AND DUP2 MSTORE PUSH1 0x20 ADD DUP5 DUP2 MSTORE PUSH1 0x20 ADD PUSH0 ISZERO ISZERO DUP2 MSTORE PUSH1 0x20 ADD PUSH0 DUP2 MSTORE PUSH1 0x20 ADD PUSH0 DUP2 MSTORE POP SWAP1 POP PUSH0 DUP2 SWAP1 DUP1 PUSH1 0x1 DUP2 SLOAD ADD DUP1 DUP3 SSTORE DUP1 SWAP2 POP POP PUSH1 0x1 SWAP1 SUB SWAP1 PUSH0 MSTORE PUSH1 0x20 PUSH0 KECCAK256 SWAP1 PUSH1 0x8 MUL ADD PUSH0 SWAP1 SWAP2 SWAP1 SWAP2 SWAP1 SWAP2 POP PUSH0 DUP3 ADD MLOAD DUP2 PUSH0 ADD SSTORE PUSH1 0x20 DUP3 ADD MLOAD DUP2 PUSH1 0x1 ADD SWAP1 DUP2 PUSH2 0x24E SWAP2 SWAP1 PUSH2 0x1700 JUMP JUMPDEST POP PUSH1 0x40 DUP3 ADD MLOAD DUP2 PUSH1 0x2 ADD SWAP1 DUP2 PUSH2 0x264 SWAP2 SWAP1 PUSH2 0x1700 JUMP JUMPDEST POP PUSH1 0x60 DUP3 ADD MLOAD DUP2 PUSH1 0x3 ADD PUSH0 PUSH2 0x100 EXP DUP2 SLOAD DUP2 PUSH20 0xFFFFFFFFFFFFFFFFFFFFFFFFFFFFFFFFFFFFFFFF MUL NOT AND SWAP1 DUP4 PUSH20 0xFFFFFFFFFFFFFFFFFFFFFFFFFFFFFFFFFFFFFFFF AND MUL OR SWAP1 SSTORE POP PUSH1 0x80 DUP3 ADD MLOAD DUP2 PUSH1 0x4 ADD SSTORE PUSH1 0xA0 DUP3 ADD MLOAD DUP2 PUSH1 0x5 ADD PUSH0 PUSH2 0x100 EXP DUP2 SLOAD DUP2 PUSH1 0xFF MUL NOT AND SWAP1 DUP4 ISZERO ISZERO MUL OR SWAP1 SSTORE POP PUSH1 0xC0 DUP3 ADD MLOAD DUP2 PUSH1 0x6 ADD SSTORE PUSH1 0xE0 DUP3 ADD MLOAD DUP2 PUSH1 0x7 ADD SSTORE POP POP POP POP POP POP POP JUMP JUMPDEST PUSH0 DUP1 DUP3 DUP2 SLOAD DUP2 LT PUSH2 0x305 JUMPI PUSH2 0x304 PUSH2 0x17CF JUMP JUMPDEST JUMPDEST SWAP1 PUSH0 MSTORE PUSH1 0x20 PUSH0 KECCAK256 SWAP1 PUSH1 0x8 MUL ADD SWAP1 POP DUP1 PUSH1 0x4 ADD SLOAD TIMESTAMP GT PUSH2 0x359 JUMPI PUSH1 0x40 MLOAD PUSH32 0x8C379A000000000000000000000000000000000000000000000000000000000 DUP2 MSTORE PUSH1 0x4 ADD PUSH2 0x350 SWAP1 PUSH2 0x1856 JUMP JUMPDEST PUSH1 0x40 MLOAD DUP1 SWAP2 SUB SWAP1 REVERT JUMPDEST DUP1 PUSH1 0x5 ADD PUSH0 SWAP1 SLOAD SWAP1 PUSH2 0x100 EXP SWAP1 DIV PUSH1 0xFF AND ISZERO PUSH2 0x3AA JUMPI PUSH1 0x40 MLOAD PUSH32 0x8C379A000000000000000000000000000000000000000000000000000000000 DUP2 MSTORE PUSH1 0x4 ADD PUSH2 0x3A1 SWAP1 PUSH2 0x18BE JUMP JUMPDEST PUSH1 0x40 MLOAD DUP1 SWAP2 SUB SWAP1 REVERT JUMPDEST DUP1 PUSH1 0x7 ADD SLOAD DUP2 PUSH1 0x6 ADD SLOAD GT PUSH2 0x3F4 JUMPI PUSH1 0x40 MLOAD PUSH32 0x8C379A000000000000000000000000000000000000000000000000000000000 DUP2 MSTORE PUSH1 0x4 ADD PUSH2 0x3EB SWAP1 PUSH2 0x1926 JUMP JUMPDEST PUSH1 0x40 MLOAD DUP1 SWAP2 SUB SWAP1 REVERT JUMPDEST PUSH1 0x1 DUP2 PUSH1 0x5 ADD PUSH0 PUSH2 0x100 EXP DUP2 SLOAD DUP2 PUSH1 0xFF MUL NOT AND SWAP1 DUP4 ISZERO ISZERO MUL OR SWAP1 SSTORE POP POP POP JUMP JUMPDEST PUSH1 0x1 PUSH1 0x20 MSTORE DUP2 PUSH0 MSTORE PUSH1 0x40 PUSH0 KECCAK256 DUP2 DUP2 SLOAD DUP2 LT PUSH2 0x42D JUMPI PUSH0 DUP1 REVERT JUMPDEST SWAP1 PUSH0 MSTORE PUSH1 0x20 PUSH0 KECCAK256 SWAP1 PUSH1 0x3 MUL ADD PUSH0 SWAP2 POP SWAP2 POP POP DUP1 PUSH0 ADD PUSH0 SWAP1 SLOAD SWAP1 PUSH2 0x100 EXP SWAP1 DIV PUSH20 0xFFFFFFFFFFFFFFFFFFFFFFFFFFFFFFFFFFFFFFFF AND SWAP1 DUP1 PUSH1 0x1 ADD SLOAD SWAP1 DUP1 PUSH1 0x2 ADD PUSH0 SWAP1 SLOAD SWAP1 PUSH2 0x100 EXP SWAP1 DIV PUSH1 0xFF AND SWAP1 POP DUP4 JUMP JUMPDEST PUSH1 0x60 PUSH0 DUP1 SLOAD SWAP1 POP DUP3 LT PUSH2 0x4C7 JUMPI PUSH1 0x40 MLOAD PUSH32 0x8C379A000000000000000000000000000000000000000000000000000000000 DUP2 MSTORE PUSH1 0x4 ADD PUSH2 0x4BE SWAP1 PUSH2 0x198E JUMP JUMPDEST PUSH1 0x40 MLOAD DUP1 SWAP2 SUB SWAP1 REVERT JUMPDEST PUSH1 0x1 PUSH0 DUP4 DUP2 MSTORE PUSH1 0x20 ADD SWAP1 DUP2 MSTORE PUSH1 0x20 ADD PUSH0 KECCAK256 DUP1 SLOAD DUP1 PUSH1 0x20 MUL PUSH1 0x20 ADD PUSH1 0x40 MLOAD SWAP1 DUP2 ADD PUSH1 0x40 MSTORE DUP1 SWAP3 SWAP2 SWAP1 DUP2 DUP2 MSTORE PUSH1 0x20 ADD PUSH0 SWAP1 JUMPDEST DUP3 DUP3 LT ISZERO PUSH2 0x59F JUMPI DUP4 DUP3 SWAP1 PUSH0 MSTORE PUSH1 0x20 PUSH0 KECCAK256 SWAP1 PUSH1 0x3 MUL ADD PUSH1 0x40 MLOAD DUP1 PUSH1 0x60 ADD PUSH1 0x40 MSTORE SWAP1 DUP2 PUSH0 DUP3 ADD PUSH0 SWAP1 SLOAD SWAP1 PUSH2 0x100 EXP SWAP1 DIV PUSH20 0xFFFFFFFFFFFFFFFFFFFFFFFFFFFFFFFFFFFFFFFF AND PUSH20 0xFFFFFFFFFFFFFFFFFFFFFFFFFFFFFFFFFFFFFFFF AND PUSH20 0xFFFFFFFFFFFFFFFFFFFFFFFFFFFFFFFFFFFFFFFF AND DUP2 MSTORE PUSH1 0x20 ADD PUSH1 0x1 DUP3 ADD SLOAD DUP2 MSTORE PUSH1 0x20 ADD PUSH1 0x2 DUP3 ADD PUSH0 SWAP1 SLOAD SWAP1 PUSH2 0x100 EXP SWAP1 DIV PUSH1 0xFF AND ISZERO ISZERO ISZERO ISZERO DUP2 MSTORE POP POP DUP2 MSTORE PUSH1 0x20 ADD SWAP1 PUSH1 0x1 ADD SWAP1 PUSH2 0x4F7 JUMP JUMPDEST POP POP POP POP SWAP1 POP SWAP2 SWAP1 POP JUMP JUMPDEST PUSH0 DUP1 DUP1 SLOAD SWAP1 POP SWAP1 POP SWAP1 JUMP JUMPDEST PUSH2 0x5BD PUSH2 0xD0E JUMP JUMPDEST PUSH0 DUP1 SLOAD SWAP1 POP DUP3 LT PUSH2 0x603 JUMPI PUSH1 0x40 MLOAD PUSH32 0x8C379A000000000000000000000000000000000000000000000000000000000 DUP2 MSTORE PUSH1 0x4 ADD PUSH2 0x5FA SWAP1 PUSH2 0x198E JUMP JUMPDEST PUSH1 0x40 MLOAD DUP1 SWAP2 SUB SWAP1 REVERT JUMPDEST PUSH0 DUP1 DUP4 DUP2 SLOAD DUP2 LT PUSH2 0x617 JUMPI PUSH2 0x616 PUSH2 0x17CF JUMP JUMPDEST JUMPDEST SWAP1 PUSH0 MSTORE PUSH1 0x20 PUSH0 KECCAK256 SWAP1 PUSH1 0x8 MUL ADD SWAP1 POP DUP1 PUSH1 0x40 MLOAD DUP1 PUSH2 0x100 ADD PUSH1 0x40 MSTORE SWAP1 DUP2 PUSH0 DUP3 ADD SLOAD DUP2 MSTORE PUSH1 0x20 ADD PUSH1 0x1 DUP3 ADD DUP1 SLOAD PUSH2 0x64B SWAP1 PUSH2 0x1533 JUMP JUMPDEST DUP1 PUSH1 0x1F ADD PUSH1 0x20 DUP1 SWAP2 DIV MUL PUSH1 0x20 ADD PUSH1 0x40 MLOAD SWAP1 DUP2 ADD PUSH1 0x40 MSTORE DUP1 SWAP3 SWAP2 SWAP1 DUP2 DUP2 MSTORE PUSH1 0x20 ADD DUP3 DUP1 SLOAD PUSH2 0x677 SWAP1 PUSH2 0x1533 JUMP JUMPDEST DUP1 ISZERO PUSH2 0x6C2 JUMPI DUP1 PUSH1 0x1F LT PUSH2 0x699 JUMPI PUSH2 0x100 DUP1 DUP4 SLOAD DIV MUL DUP4 MSTORE SWAP2 PUSH1 0x20 ADD SWAP2 PUSH2 0x6C2 JUMP JUMPDEST DUP3 ADD SWAP2 SWAP1 PUSH0 MSTORE PUSH1 0x20 PUSH0 KECCAK256 SWAP1 JUMPDEST DUP2 SLOAD DUP2 MSTORE SWAP1 PUSH1 0x1 ADD SWAP1 PUSH1 0x20 ADD DUP1 DUP4 GT PUSH2 0x6A5 JUMPI DUP3 SWAP1 SUB PUSH1 0x1F AND DUP3 ADD SWAP2 JUMPDEST POP POP POP POP POP DUP2 MSTORE PUSH1 0x20 ADD PUSH1 0x2 DUP3 ADD DUP1 SLOAD PUSH2 0x6DB SWAP1 PUSH2 0x1533 JUMP JUMPDEST DUP1 PUSH1 0x1F ADD PUSH1 0x20 DUP1 SWAP2 DIV MUL PUSH1 0x20 ADD PUSH1 0x40 MLOAD SWAP1 DUP2 ADD PUSH1 0x40 MSTORE DUP1 SWAP3 SWAP2 SWAP1 DUP2 DUP2 MSTORE PUSH1 0x20 ADD DUP3 DUP1 SLOAD PUSH2 0x707 SWAP1 PUSH2 0x1533 JUMP JUMPDEST DUP1 ISZERO PUSH2 0x752 JUMPI DUP1 PUSH1 0x1F LT PUSH2 0x729 JUMPI PUSH2 0x100 DUP1 DUP4 SLOAD DIV MUL DUP4 MSTORE SWAP2 PUSH1 0x20 ADD SWAP2 PUSH2 0x752 JUMP JUMPDEST DUP3 ADD SWAP2 SWAP1 PUSH0 MSTORE PUSH1 0x20 PUSH0 KECCAK256 SWAP1 JUMPDEST DUP2 SLOAD DUP2 MSTORE SWAP1 PUSH1 0x1 ADD SWAP1 PUSH1 0x20 ADD DUP1 DUP4 GT PUSH2 0x735 JUMPI DUP3 SWAP1 SUB PUSH1 0x1F AND DUP3 ADD SWAP2 JUMPDEST POP POP POP POP POP DUP2 MSTORE PUSH1 0x20 ADD PUSH1 0x3 DUP3 ADD PUSH0 SWAP1 SLOAD SWAP1 PUSH2 0x100 EXP SWAP1 DIV PUSH20 0xFFFFFFFFFFFFFFFFFFFFFFFFFFFFFFFFFFFFFFFF AND PUSH20 0xFFFFFFFFFFFFFFFFFFFFFFFFFFFFFFFFFFFFFFFF AND PUSH20 0xFFFFFFFFFFFFFFFFFFFFFFFFFFFFFFFFFFFFFFFF AND DUP2 MSTORE PUSH1 0x20 ADD PUSH1 0x4 DUP3 ADD SLOAD DUP2 MSTORE PUSH1 0x20 ADD PUSH1 0x5 DUP3 ADD PUSH0 SWAP1 SLOAD SWAP1 PUSH2 0x100 EXP SWAP1 DIV PUSH1 0xFF AND ISZERO ISZERO ISZERO ISZERO DUP2 MSTORE PUSH1 0x20 ADD PUSH1 0x6 DUP3 ADD SLOAD DUP2 MSTORE PUSH1 0x20 ADD PUSH1 0x7 DUP3 ADD SLOAD DUP2 MSTORE POP POP SWAP2 POP POP SWAP2 SWAP1 POP JUMP JUMPDEST PUSH0 DUP1 SLOAD SWAP1 POP DUP3 LT PUSH2 0x836 JUMPI PUSH1 0x40 MLOAD PUSH32 0x8C379A000000000000000000000000000000000000000000000000000000000 DUP2 MSTORE PUSH1 0x4 ADD PUSH2 0x82D SWAP1 PUSH2 0x198E JUMP JUMPDEST PUSH1 0x40 MLOAD DUP1 SWAP2 SUB SWAP1 REVERT JUMPDEST PUSH0 DUP1 DUP4 DUP2 SLOAD DUP2 LT PUSH2 0x84A JUMPI PUSH2 0x849 PUSH2 0x17CF JUMP JUMPDEST JUMPDEST SWAP1 PUSH0 MSTORE PUSH1 0x20 PUSH0 KECCAK256 SWAP1 PUSH1 0x8 MUL ADD SWAP1 POP DUP1 PUSH1 0x4 ADD SLOAD TIMESTAMP GT ISZERO PUSH2 0x89F JUMPI PUSH1 0x40 MLOAD PUSH32 0x8C379A000000000000000000000000000000000000000000000000000000000 DUP2 MSTORE PUSH1 0x4 ADD PUSH2 0x896 SWAP1 PUSH2 0x19F6 JUMP JUMPDEST PUSH1 0x40 MLOAD DUP1 SWAP2 SUB SWAP1 REVERT JUMPDEST DUP1 PUSH1 0x5 ADD PUSH0 SWAP1 SLOAD SWAP1 PUSH2 0x100 EXP SWAP1 DIV PUSH1 0xFF AND ISZERO PUSH2 0x8F0 JUMPI PUSH1 0x40 MLOAD PUSH32 0x8C379A000000000000000000000000000000000000000000000000000000000 DUP2 MSTORE PUSH1 0x4 ADD PUSH2 0x8E7 SWAP1 PUSH2 0x18BE JUMP JUMPDEST PUSH1 0x40 MLOAD DUP1 SWAP2 SUB SWAP1 REVERT JUMPDEST PUSH0 JUMPDEST PUSH1 0x1 PUSH0 DUP6 DUP2 MSTORE PUSH1 0x20 ADD SWAP1 DUP2 MSTORE PUSH1 0x20 ADD PUSH0 KECCAK256 DUP1 SLOAD SWAP1 POP DUP2 LT ISZERO PUSH2 0x9DF JUMPI CALLER PUSH20 0xFFFFFFFFFFFFFFFFFFFFFFFFFFFFFFFFFFFFFFFF AND PUSH1 0x1 PUSH0 DUP7 DUP2 MSTORE PUSH1 0x20 ADD SWAP1 DUP2 MSTORE PUSH1 0x20 ADD PUSH0 KECCAK256 DUP3 DUP2 SLOAD DUP2 LT PUSH2 0x948 JUMPI PUSH2 0x947 PUSH2 0x17CF JUMP JUMPDEST JUMPDEST SWAP1 PUSH0 MSTORE PUSH1 0x20 PUSH0 KECCAK256 SWAP1 PUSH1 0x3 MUL ADD PUSH0 ADD PUSH0 SWAP1 SLOAD SWAP1 PUSH2 0x100 EXP SWAP1 DIV PUSH20 0xFFFFFFFFFFFFFFFFFFFFFFFFFFFFFFFFFFFFFFFF AND PUSH20 0xFFFFFFFFFFFFFFFFFFFFFFFFFFFFFFFFFFFFFFFF AND SUB PUSH2 0x9CC JUMPI PUSH1 0x40 MLOAD PUSH32 0x8C379A000000000000000000000000000000000000000000000000000000000 DUP2 MSTORE PUSH1 0x4 ADD PUSH2 0x9C3 SWAP1 PUSH2 0x1A5E JUMP JUMPDEST PUSH1 0x40 MLOAD DUP1 SWAP2 SUB SWAP1 REVERT JUMPDEST DUP1 DUP1 PUSH2 0x9D7 SWAP1 PUSH2 0x1AA9 JUMP JUMPDEST SWAP2 POP POP PUSH2 0x8F2 JUMP JUMPDEST POP PUSH1 0x1 PUSH0 DUP5 DUP2 MSTORE PUSH1 0x20 ADD SWAP1 DUP2 MSTORE PUSH1 0x20 ADD PUSH0 KECCAK256 PUSH1 0x40 MLOAD DUP1 PUSH1 0x60 ADD PUSH1 0x40 MSTORE DUP1 CALLER PUSH20 0xFFFFFFFFFFFFFFFFFFFFFFFFFFFFFFFFFFFFFFFF AND DUP2 MSTORE PUSH1 0x20 ADD TIMESTAMP DUP2 MSTORE PUSH1 0x20 ADD DUP5 ISZERO ISZERO DUP2 MSTORE POP SWAP1 DUP1 PUSH1 0x1 DUP2 SLOAD ADD DUP1 DUP3 SSTORE DUP1 SWAP2 POP POP PUSH1 0x1 SWAP1 SUB SWAP1 PUSH0 MSTORE PUSH1 0x20 PUSH0 KECCAK256 SWAP1 PUSH1 0x3 MUL ADD PUSH0 SWAP1 SWAP2 SWAP1 SWAP2 SWAP1 SWAP2 POP PUSH0 DUP3 ADD MLOAD DUP2 PUSH0 ADD PUSH0 PUSH2 0x100 EXP DUP2 SLOAD DUP2 PUSH20 0xFFFFFFFFFFFFFFFFFFFFFFFFFFFFFFFFFFFFFFFF MUL NOT AND SWAP1 DUP4 PUSH20 0xFFFFFFFFFFFFFFFFFFFFFFFFFFFFFFFFFFFFFFFF AND MUL OR SWAP1 SSTORE POP PUSH1 0x20 DUP3 ADD MLOAD DUP2 PUSH1 0x1 ADD SSTORE PUSH1 0x40 DUP3 ADD MLOAD DUP2 PUSH1 0x2 ADD PUSH0 PUSH2 0x100 EXP DUP2 SLOAD DUP2 PUSH1 0xFF MUL NOT AND SWAP1 DUP4 ISZERO ISZERO MUL OR SWAP1 SSTORE POP POP POP DUP2 ISZERO PUSH2 0xADD JUMPI DUP1 PUSH1 0x6 ADD PUSH0 DUP2 SLOAD DUP1 SWAP3 SWAP2 SWAP1 PUSH2 0xAD3 SWAP1 PUSH2 0x1AA9 JUMP JUMPDEST SWAP2 SWAP1 POP SSTORE POP PUSH2 0xAF7 JUMP JUMPDEST DUP1 PUSH1 0x7 ADD PUSH0 DUP2 SLOAD DUP1 SWAP3 SWAP2 SWAP1 PUSH2 0xAF1 SWAP1 PUSH2 0x1AA9 JUMP JUMPDEST SWAP2 SWAP1 POP SSTORE POP JUMPDEST POP POP POP JUMP JUMPDEST PUSH1 0x60 PUSH0 DUP1 SLOAD DUP1 PUSH1 0x20 MUL PUSH1 0x20 ADD PUSH1 0x40 MLOAD SWAP1 DUP2 ADD PUSH1 0x40 MSTORE DUP1 SWAP3 SWAP2 SWAP1 DUP2 DUP2 MSTORE PUSH1 0x20 ADD PUSH0 SWAP1 JUMPDEST DUP3 DUP3 LT ISZERO PUSH2 0xD05 JUMPI DUP4 DUP3 SWAP1 PUSH0 MSTORE PUSH1 0x20 PUSH0 KECCAK256 SWAP1 PUSH1 0x8 MUL ADD PUSH1 0x40 MLOAD DUP1 PUSH2 0x100 ADD PUSH1 0x40 MSTORE SWAP1 DUP2 PUSH0 DUP3 ADD SLOAD DUP2 MSTORE PUSH1 0x20 ADD PUSH1 0x1 DUP3 ADD DUP1 SLOAD PUSH2 0xB59 SWAP1 PUSH2 0x1533 JUMP JUMPDEST DUP1 PUSH1 0x1F ADD PUSH1 0x20 DUP1 SWAP2 DIV MUL PUSH1 0x20 ADD PUSH1 0x40 MLOAD SWAP1 DUP2 ADD PUSH1 0x40 MSTORE DUP1 SWAP3 SWAP2 SWAP1 DUP2 DUP2 MSTORE PUSH1 0x20 ADD DUP3 DUP1 SLOAD PUSH2 0xB85 SWAP1 PUSH2 0x1533 JUMP JUMPDEST DUP1 ISZERO PUSH2 0xBD0 JUMPI DUP1 PUSH1 0x1F LT PUSH2 0xBA7 JUMPI PUSH2 0x100 DUP1 DUP4 SLOAD DIV MUL DUP4 MSTORE SWAP2 PUSH1 0x20 ADD SWAP2 PUSH2 0xBD0 JUMP JUMPDEST DUP3 ADD SWAP2 SWAP1 PUSH0 MSTORE PUSH1 0x20 PUSH0 KECCAK256 SWAP1 JUMPDEST DUP2 SLOAD DUP2 MSTORE SWAP1 PUSH1 0x1 ADD SWAP1 PUSH1 0x20 ADD DUP1 DUP4 GT PUSH2 0xBB3 JUMPI DUP3 SWAP1 SUB PUSH1 0x1F AND DUP3 ADD SWAP2 JUMPDEST POP POP POP POP POP DUP2 MSTORE PUSH1 0x20 ADD PUSH1 0x2 DUP3 ADD DUP1 SLOAD PUSH2 0xBE9 SWAP1 PUSH2 0x1533 JUMP JUMPDEST DUP1 PUSH1 0x1F ADD PUSH1 0x20 DUP1 SWAP2 DIV MUL PUSH1 0x20 ADD PUSH1 0x40 MLOAD SWAP1 DUP2 ADD PUSH1 0x40 MSTORE DUP1 SWAP3 SWAP2 SWAP1 DUP2 DUP2 MSTORE PUSH1 0x20 ADD DUP3 DUP1 SLOAD PUSH2 0xC15 SWAP1 PUSH2 0x1533 JUMP JUMPDEST DUP1 ISZERO PUSH2 0xC60 JUMPI DUP1 PUSH1 0x1F LT PUSH2 0xC37 JUMPI PUSH2 0x100 DUP1 DUP4 SLOAD DIV MUL DUP4 MSTORE SWAP2 PUSH1 0x20 ADD SWAP2 PUSH2 0xC60 JUMP JUMPDEST DUP3 ADD SWAP2 SWAP1 PUSH0 MSTORE PUSH1 0x20 PUSH0 KECCAK256 SWAP1 JUMPDEST DUP2 SLOAD DUP2 MSTORE SWAP1 PUSH1 0x1 ADD SWAP1 PUSH1 0x20 ADD DUP1 DUP4 GT PUSH2 0xC43 JUMPI DUP3 SWAP1 SUB PUSH1 0x1F AND DUP3 ADD SWAP2 JUMPDEST POP POP POP POP POP DUP2 MSTORE PUSH1 0x20 ADD PUSH1 0x3 DUP3 ADD PUSH0 SWAP1 SLOAD SWAP1 PUSH2 0x100 EXP SWAP1 DIV PUSH20 0xFFFFFFFFFFFFFFFFFFFFFFFFFFFFFFFFFFFFFFFF AND PUSH20 0xFFFFFFFFFFFFFFFFFFFFFFFFFFFFFFFFFFFFFFFF AND PUSH20 0xFFFFFFFFFFFFFFFFFFFFFFFFFFFFFFFFFFFFFFFF AND DUP2 MSTORE PUSH1 0x20 ADD PUSH1 0x4 DUP3 ADD SLOAD DUP2 MSTORE PUSH1 0x20 ADD PUSH1 0x5 DUP3 ADD PUSH0 SWAP1 SLOAD SWAP1 PUSH2 0x100 EXP SWAP1 DIV PUSH1 0xFF AND ISZERO ISZERO ISZERO ISZERO DUP2 MSTORE PUSH1 0x20 ADD PUSH1 0x6 DUP3 ADD SLOAD DUP2 MSTORE PUSH1 0x20 ADD PUSH1 0x7 DUP3 ADD SLOAD DUP2 MSTORE POP POP DUP2 MSTORE PUSH1 0x20 ADD SWAP1 PUSH1 0x1 ADD SWAP1 PUSH2 0xB1E JUMP JUMPDEST POP POP POP POP SWAP1 POP SWAP1 JUMP JUMPDEST PUSH1 0x40 MLOAD DUP1 PUSH2 0x100 ADD PUSH1 0x40 MSTORE DUP1 PUSH0 DUP2 MSTORE PUSH1 0x20 ADD PUSH1 0x60 DUP2 MSTORE PUSH1 0x20 ADD PUSH1 0x60 DUP2 MSTORE PUSH1 0x20 ADD PUSH0 PUSH20 0xFFFFFFFFFFFFFFFFFFFFFFFFFFFFFFFFFFFFFFFF AND DUP2 MSTORE PUSH1 0x20 ADD PUSH0 DUP2 MSTORE PUSH1 0x20 ADD PUSH0 ISZERO ISZERO DUP2 MSTORE PUSH1 0x20 ADD PUSH0 DUP2 MSTORE PUSH1 0x20 ADD PUSH0 DUP2 MSTORE POP SWAP1 JUMP JUMPDEST PUSH0 PUSH1 0x40 MLOAD SWAP1 POP SWAP1 JUMP JUMPDEST PUSH0 DUP1 REVERT JUMPDEST PUSH0 DUP1 REVERT JUMPDEST PUSH0 DUP1 REVERT JUMPDEST PUSH0 DUP1 REVERT JUMPDEST PUSH0 PUSH1 0x1F NOT PUSH1 0x1F DUP4 ADD AND SWAP1 POP SWAP2 SWAP1 POP JUMP JUMPDEST PUSH32 0x4E487B7100000000000000000000000000000000000000000000000000000000 PUSH0 MSTORE PUSH1 0x41 PUSH1 0x4 MSTORE PUSH1 0x24 PUSH0 REVERT JUMPDEST PUSH2 0xDC4 DUP3 PUSH2 0xD7E JUMP JUMPDEST DUP2 ADD DUP2 DUP2 LT PUSH8 0xFFFFFFFFFFFFFFFF DUP3 GT OR ISZERO PUSH2 0xDE3 JUMPI PUSH2 0xDE2 PUSH2 0xD8E JUMP JUMPDEST JUMPDEST DUP1 PUSH1 0x40 MSTORE POP POP POP JUMP JUMPDEST PUSH0 PUSH2 0xDF5 PUSH2 0xD65 JUMP JUMPDEST SWAP1 POP PUSH2 0xE01 DUP3 DUP3 PUSH2 0xDBB JUMP JUMPDEST SWAP2 SWAP1 POP JUMP JUMPDEST PUSH0 PUSH8 0xFFFFFFFFFFFFFFFF DUP3 GT ISZERO PUSH2 0xE20 JUMPI PUSH2 0xE1F PUSH2 0xD8E JUMP JUMPDEST JUMPDEST PUSH2 0xE29 DUP3 PUSH2 0xD7E JUMP JUMPDEST SWAP1 POP PUSH1 0x20 DUP2 ADD SWAP1 POP SWAP2 SWAP1 POP JUMP JUMPDEST DUP3 DUP2 DUP4 CALLDATACOPY PUSH0 DUP4 DUP4 ADD MSTORE POP POP POP JUMP JUMPDEST PUSH0 PUSH2 0xE56 PUSH2 0xE51 DUP5 PUSH2 0xE06 JUMP JUMPDEST PUSH2 0xDEC JUMP JUMPDEST SWAP1 POP DUP3 DUP2 MSTORE PUSH1 0x20 DUP2 ADD DUP5 DUP5 DUP5 ADD GT ISZERO PUSH2 0xE72 JUMPI PUSH2 0xE71 PUSH2 0xD7A JUMP JUMPDEST JUMPDEST PUSH2 0xE7D DUP5 DUP3 DUP6 PUSH2 0xE36 JUMP JUMPDEST POP SWAP4 SWAP3 POP POP POP JUMP JUMPDEST PUSH0 DUP3 PUSH1 0x1F DUP4 ADD SLT PUSH2 0xE99 JUMPI PUSH2 0xE98 PUSH2 0xD76 JUMP JUMPDEST JUMPDEST DUP2 CALLDATALOAD PUSH2 0xEA9 DUP5 DUP3 PUSH1 0x20 DUP7 ADD PUSH2 0xE44 JUMP JUMPDEST SWAP2 POP POP SWAP3 SWAP2 POP POP JUMP JUMPDEST PUSH0 DUP2 SWAP1 POP SWAP2 SWAP1 POP JUMP JUMPDEST PUSH2 0xEC4 DUP2 PUSH2 0xEB2 JUMP JUMPDEST DUP2 EQ PUSH2 0xECE JUMPI PUSH0 DUP1 REVERT JUMPDEST POP JUMP JUMPDEST PUSH0 DUP2 CALLDATALOAD SWAP1 POP PUSH2 0xEDF DUP2 PUSH2 0xEBB JUMP JUMPDEST SWAP3 SWAP2 POP POP JUMP JUMPDEST PUSH0 DUP1 PUSH0 PUSH1 0x60 DUP5 DUP7 SUB SLT ISZERO PUSH2 0xEFC JUMPI PUSH2 0xEFB PUSH2 0xD6E JUMP JUMPDEST JUMPDEST PUSH0 DUP5 ADD CALLDATALOAD PUSH8 0xFFFFFFFFFFFFFFFF DUP2 GT ISZERO PUSH2 0xF19 JUMPI PUSH2 0xF18 PUSH2 0xD72 JUMP JUMPDEST JUMPDEST PUSH2 0xF25 DUP7 DUP3 DUP8 ADD PUSH2 0xE85 JUMP JUMPDEST SWAP4 POP POP PUSH1 0x20 DUP5 ADD CALLDATALOAD PUSH8 0xFFFFFFFFFFFFFFFF DUP2 GT ISZERO PUSH2 0xF46 JUMPI PUSH2 0xF45 PUSH2 0xD72 JUMP JUMPDEST JUMPDEST PUSH2 0xF52 DUP7 DUP3 DUP8 ADD PUSH2 0xE85 JUMP JUMPDEST SWAP3 POP POP PUSH1 0x40 PUSH2 0xF63 DUP7 DUP3 DUP8 ADD PUSH2 0xED1 JUMP JUMPDEST SWAP2 POP POP SWAP3 POP SWAP3 POP SWAP3 JUMP JUMPDEST PUSH0 PUSH1 0x20 DUP3 DUP5 SUB SLT ISZERO PUSH2 0xF82 JUMPI PUSH2 0xF81 PUSH2 0xD6E JUMP JUMPDEST JUMPDEST PUSH0 PUSH2 0xF8F DUP5 DUP3 DUP6 ADD PUSH2 0xED1 JUMP JUMPDEST SWAP2 POP POP SWAP3 SWAP2 POP POP JUMP JUMPDEST PUSH0 DUP1 PUSH1 0x40 DUP4 DUP6 SUB SLT ISZERO PUSH2 0xFAE JUMPI PUSH2 0xFAD PUSH2 0xD6E JUMP JUMPDEST JUMPDEST PUSH0 PUSH2 0xFBB DUP6 DUP3 DUP7 ADD PUSH2 0xED1 JUMP JUMPDEST SWAP3 POP POP PUSH1 0x20 PUSH2 0xFCC DUP6 DUP3 DUP7 ADD PUSH2 0xED1 JUMP JUMPDEST SWAP2 POP POP SWAP3 POP SWAP3 SWAP1 POP JUMP JUMPDEST PUSH0 PUSH20 0xFFFFFFFFFFFFFFFFFFFFFFFFFFFFFFFFFFFFFFFF DUP3 AND SWAP1 POP SWAP2 SWAP1 POP JUMP JUMPDEST PUSH0 PUSH2 0xFFF DUP3 PUSH2 0xFD6 JUMP JUMPDEST SWAP1 POP SWAP2 SWAP1 POP JUMP JUMPDEST PUSH2 0x100F DUP2 PUSH2 0xFF5 JUMP JUMPDEST DUP3 MSTORE POP POP JUMP JUMPDEST PUSH2 0x101E DUP2 PUSH2 0xEB2 JUMP JUMPDEST DUP3 MSTORE POP POP JUMP JUMPDEST PUSH0 DUP2 ISZERO ISZERO SWAP1 POP SWAP2 SWAP1 POP JUMP JUMPDEST PUSH2 0x1038 DUP2 PUSH2 0x1024 JUMP JUMPDEST DUP3 MSTORE POP POP JUMP JUMPDEST PUSH0 PUSH1 0x60 DUP3 ADD SWAP1 POP PUSH2 0x1051 PUSH0 DUP4 ADD DUP7 PUSH2 0x1006 JUMP JUMPDEST PUSH2 0x105E PUSH1 0x20 DUP4 ADD DUP6 PUSH2 0x1015 JUMP JUMPDEST PUSH2 0x106B PUSH1 0x40 DUP4 ADD DUP5 PUSH2 0x102F JUMP JUMPDEST SWAP5 SWAP4 POP POP POP POP JUMP JUMPDEST PUSH0 DUP2 MLOAD SWAP1 POP SWAP2 SWAP1 POP JUMP JUMPDEST PUSH0 DUP3 DUP3 MSTORE PUSH1 0x20 DUP3 ADD SWAP1 POP SWAP3 SWAP2 POP POP JUMP JUMPDEST PUSH0 DUP2 SWAP1 POP PUSH1 0x20 DUP3 ADD SWAP1 POP SWAP2 SWAP1 POP JUMP JUMPDEST PUSH2 0x10A5 DUP2 PUSH2 0xFF5 JUMP JUMPDEST DUP3 MSTORE POP POP JUMP JUMPDEST PUSH2 0x10B4 DUP2 PUSH2 0xEB2 JUMP JUMPDEST DUP3 MSTORE POP POP JUMP JUMPDEST PUSH2 0x10C3 DUP2 PUSH2 0x1024 JUMP JUMPDEST DUP3 MSTORE POP POP JUMP JUMPDEST PUSH1 0x60 DUP3 ADD PUSH0 DUP3 ADD MLOAD PUSH2 0x10DD PUSH0 DUP6 ADD DUP3 PUSH2 0x109C JUMP JUMPDEST POP PUSH1 0x20 DUP3 ADD MLOAD PUSH2 0x10F0 PUSH1 0x20 DUP6 ADD DUP3 PUSH2 0x10AB JUMP JUMPDEST POP PUSH1 0x40 DUP3 ADD MLOAD PUSH2 0x1103 PUSH1 0x40 DUP6 ADD DUP3 PUSH2 0x10BA JUMP JUMPDEST POP POP POP POP JUMP JUMPDEST PUSH0 PUSH2 0x1114 DUP4 DUP4 PUSH2 0x10C9 JUMP JUMPDEST PUSH1 0x60 DUP4 ADD SWAP1 POP SWAP3 SWAP2 POP POP JUMP JUMPDEST PUSH0 PUSH1 0x20 DUP3 ADD SWAP1 POP SWAP2 SWAP1 POP JUMP JUMPDEST PUSH0 PUSH2 0x1136 DUP3 PUSH2 0x1073 JUMP JUMPDEST PUSH2 0x1140 DUP2 DUP6 PUSH2 0x107D JUMP JUMPDEST SWAP4 POP PUSH2 0x114B DUP4 PUSH2 0x108D JUMP JUMPDEST DUP1 PUSH0 JUMPDEST DUP4 DUP2 LT ISZERO PUSH2 0x117B JUMPI DUP2 MLOAD PUSH2 0x1162 DUP9 DUP3 PUSH2 0x1109 JUMP JUMPDEST SWAP8 POP PUSH2 0x116D DUP4 PUSH2 0x1120 JUMP JUMPDEST SWAP3 POP POP PUSH1 0x1 DUP2 ADD SWAP1 POP PUSH2 0x114E JUMP JUMPDEST POP DUP6 SWAP4 POP POP POP POP SWAP3 SWAP2 POP POP JUMP JUMPDEST PUSH0 PUSH1 0x20 DUP3 ADD SWAP1 POP DUP2 DUP2 SUB PUSH0 DUP4 ADD MSTORE PUSH2 0x11A0 DUP2 DUP5 PUSH2 0x112C JUMP JUMPDEST SWAP1 POP SWAP3 SWAP2 POP POP JUMP JUMPDEST PUSH0 PUSH1 0x20 DUP3 ADD SWAP1 POP PUSH2 0x11BB PUSH0 DUP4 ADD DUP5 PUSH2 0x1015 JUMP JUMPDEST SWAP3 SWAP2 POP POP JUMP JUMPDEST PUSH0 DUP2 MLOAD SWAP1 POP SWAP2 SWAP1 POP JUMP JUMPDEST PUSH0 DUP3 DUP3 MSTORE PUSH1 0x20 DUP3 ADD SWAP1 POP SWAP3 SWAP2 POP POP JUMP JUMPDEST PUSH0 JUMPDEST DUP4 DUP2 LT ISZERO PUSH2 0x11F8 JUMPI DUP1 DUP3 ADD MLOAD DUP2 DUP5 ADD MSTORE PUSH1 0x20 DUP2 ADD SWAP1 POP PUSH2 0x11DD JUMP JUMPDEST PUSH0 DUP5 DUP5 ADD MSTORE POP POP POP POP JUMP JUMPDEST PUSH0 PUSH2 0x120D DUP3 PUSH2 0x11C1 JUMP JUMPDEST PUSH2 0x1217 DUP2 DUP6 PUSH2 0x11CB JUMP JUMPDEST SWAP4 POP PUSH2 0x1227 DUP2 DUP6 PUSH1 0x20 DUP7 ADD PUSH2 0x11DB JUMP JUMPDEST PUSH2 0x1230 DUP2 PUSH2 0xD7E JUMP JUMPDEST DUP5 ADD SWAP2 POP POP SWAP3 SWAP2 POP POP JUMP JUMPDEST PUSH0 PUSH2 0x100 DUP4 ADD PUSH0 DUP4 ADD MLOAD PUSH2 0x1251 PUSH0 DUP7 ADD DUP3 PUSH2 0x10AB JUMP JUMPDEST POP PUSH1 0x20 DUP4 ADD MLOAD DUP5 DUP3 SUB PUSH1 0x20 DUP7 ADD MSTORE PUSH2 0x1269 DUP3 DUP3 PUSH2 0x1203 JUMP JUMPDEST SWAP2 POP POP PUSH1 0x40 DUP4 ADD MLOAD DUP5 DUP3 SUB PUSH1 0x40 DUP7 ADD MSTORE PUSH2 0x1283 DUP3 DUP3 PUSH2 0x1203 JUMP JUMPDEST SWAP2 POP POP PUSH1 0x60 DUP4 ADD MLOAD PUSH2 0x1298 PUSH1 0x60 DUP7 ADD DUP3 PUSH2 0x109C JUMP JUMPDEST POP PUSH1 0x80 DUP4 ADD MLOAD PUSH2 0x12AB PUSH1 0x80 DUP7 ADD DUP3 PUSH2 0x10AB JUMP JUMPDEST POP PUSH1 0xA0 DUP4 ADD MLOAD PUSH2 0x12BE PUSH1 0xA0 DUP7 ADD DUP3 PUSH2 0x10BA JUMP JUMPDEST POP PUSH1 0xC0 DUP4 ADD MLOAD PUSH2 0x12D1 PUSH1 0xC0 DUP7 ADD DUP3 PUSH2 0x10AB JUMP JUMPDEST POP PUSH1 0xE0 DUP4 ADD MLOAD PUSH2 0x12E4 PUSH1 0xE0 DUP7 ADD DUP3 PUSH2 0x10AB JUMP JUMPDEST POP DUP1 SWAP2 POP POP SWAP3 SWAP2 POP POP JUMP JUMPDEST PUSH0 PUSH1 0x20 DUP3 ADD SWAP1 POP DUP2 DUP2 SUB PUSH0 DUP4 ADD MSTORE PUSH2 0x1307 DUP2 DUP5 PUSH2 0x123B JUMP JUMPDEST SWAP1 POP SWAP3 SWAP2 POP POP JUMP JUMPDEST PUSH2 0x1318 DUP2 PUSH2 0x1024 JUMP JUMPDEST DUP2 EQ PUSH2 0x1322 JUMPI PUSH0 DUP1 REVERT JUMPDEST POP JUMP JUMPDEST PUSH0 DUP2 CALLDATALOAD SWAP1 POP PUSH2 0x1333 DUP2 PUSH2 0x130F JUMP JUMPDEST SWAP3 SWAP2 POP POP JUMP JUMPDEST PUSH0 DUP1 PUSH1 0x40 DUP4 DUP6 SUB SLT ISZERO PUSH2 0x134F JUMPI PUSH2 0x134E PUSH2 0xD6E JUMP JUMPDEST JUMPDEST PUSH0 PUSH2 0x135C DUP6 DUP3 DUP7 ADD PUSH2 0xED1 JUMP JUMPDEST SWAP3 POP POP PUSH1 0x20 PUSH2 0x136D DUP6 DUP3 DUP7 ADD PUSH2 0x1325 JUMP JUMPDEST SWAP2 POP POP SWAP3 POP SWAP3 SWAP1 POP JUMP JUMPDEST PUSH0 DUP2 MLOAD SWAP1 POP SWAP2 SWAP1 POP JUMP JUMPDEST PUSH0 DUP3 DUP3 MSTORE PUSH1 0x20 DUP3 ADD SWAP1 POP SWAP3 SWAP2 POP POP JUMP JUMPDEST PUSH0 DUP2 SWAP1 POP PUSH1 0x20 DUP3 ADD SWAP1 POP SWAP2 SWAP1 POP JUMP JUMPDEST PUSH0 PUSH2 0x100 DUP4 ADD PUSH0 DUP4 ADD MLOAD PUSH2 0x13B6 PUSH0 DUP7 ADD DUP3 PUSH2 0x10AB JUMP JUMPDEST POP PUSH1 0x20 DUP4 ADD MLOAD DUP5 DUP3 SUB PUSH1 0x20 DUP7 ADD MSTORE PUSH2 0x13CE DUP3 DUP3 PUSH2 0x1203 JUMP JUMPDEST SWAP2 POP POP PUSH1 0x40 DUP4 ADD MLOAD DUP5 DUP3 SUB PUSH1 0x40 DUP7 ADD MSTORE PUSH2 0x13E8 DUP3 DUP3 PUSH2 0x1203 JUMP JUMPDEST SWAP2 POP POP PUSH1 0x60 DUP4 ADD MLOAD PUSH2 0x13FD PUSH1 0x60 DUP7 ADD DUP3 PUSH2 0x109C JUMP JUMPDEST POP PUSH1 0x80 DUP4 ADD MLOAD PUSH2 0x1410 PUSH1 0x80 DUP7 ADD DUP3 PUSH2 0x10AB JUMP JUMPDEST POP PUSH1 0xA0 DUP4 ADD MLOAD PUSH2 0x1423 PUSH1 0xA0 DUP7 ADD DUP3 PUSH2 0x10BA JUMP JUMPDEST POP PUSH1 0xC0 DUP4 ADD MLOAD PUSH2 0x1436 PUSH1 0xC0 DUP7 ADD DUP3 PUSH2 0x10AB JUMP JUMPDEST POP PUSH1 0xE0 DUP4 ADD MLOAD PUSH2 0x1449 PUSH1 0xE0 DUP7 ADD DUP3 PUSH2 0x10AB JUMP JUMPDEST POP DUP1 SWAP2 POP POP SWAP3 SWAP2 POP POP JUMP JUMPDEST PUSH0 PUSH2 0x145F DUP4 DUP4 PUSH2 0x13A0 JUMP JUMPDEST SWAP1 POP SWAP3 SWAP2 POP POP JUMP JUMPDEST PUSH0 PUSH1 0x20 DUP3 ADD SWAP1 POP SWAP2 SWAP1 POP JUMP JUMPDEST PUSH0 PUSH2 0x147D DUP3 PUSH2 0x1377 JUMP JUMPDEST PUSH2 0x1487 DUP2 DUP6 PUSH2 0x1381 JUMP JUMPDEST SWAP4 POP DUP4 PUSH1 0x20 DUP3 MUL DUP6 ADD PUSH2 0x1499 DUP6 PUSH2 0x1391 JUMP JUMPDEST DUP1 PUSH0 JUMPDEST DUP6 DUP2 LT ISZERO PUSH2 0x14D4 JUMPI DUP5 DUP5 SUB DUP10 MSTORE DUP2 MLOAD PUSH2 0x14B5 DUP6 DUP3 PUSH2 0x1454 JUMP JUMPDEST SWAP5 POP PUSH2 0x14C0 DUP4 PUSH2 0x1467 JUMP JUMPDEST SWAP3 POP PUSH1 0x20 DUP11 ADD SWAP10 POP POP PUSH1 0x1 DUP2 ADD SWAP1 POP PUSH2 0x149C JUMP JUMPDEST POP DUP3 SWAP8 POP DUP8 SWAP6 POP POP POP POP POP POP SWAP3 SWAP2 POP POP JUMP JUMPDEST PUSH0 PUSH1 0x20 DUP3 ADD SWAP1 POP DUP2 DUP2 SUB PUSH0 DUP4 ADD MSTORE PUSH2 0x14FE DUP2 DUP5 PUSH2 0x1473 JUMP JUMPDEST SWAP1 POP SWAP3 SWAP2 POP POP JUMP JUMPDEST PUSH32 0x4E487B7100000000000000000000000000000000000000000000000000000000 PUSH0 MSTORE PUSH1 0x22 PUSH1 0x4 MSTORE PUSH1 0x24 PUSH0 REVERT JUMPDEST PUSH0 PUSH1 0x2 DUP3 DIV SWAP1 POP PUSH1 0x1 DUP3 AND DUP1 PUSH2 0x154A JUMPI PUSH1 0x7F DUP3 AND SWAP2 POP JUMPDEST PUSH1 0x20 DUP3 LT DUP2 SUB PUSH2 0x155D JUMPI PUSH2 0x155C PUSH2 0x1506 JUMP JUMPDEST JUMPDEST POP SWAP2 SWAP1 POP JUMP JUMPDEST PUSH0 DUP2 SWAP1 POP DUP2 PUSH0 MSTORE PUSH1 0x20 PUSH0 KECCAK256 SWAP1 POP SWAP2 SWAP1 POP JUMP JUMPDEST PUSH0 PUSH1 0x20 PUSH1 0x1F DUP4 ADD DIV SWAP1 POP SWAP2 SWAP1 POP JUMP JUMPDEST PUSH0 DUP3 DUP3 SHL SWAP1 POP SWAP3 SWAP2 POP POP JUMP JUMPDEST PUSH0 PUSH1 0x8 DUP4 MUL PUSH2 0x15BF PUSH32 0xFFFFFFFFFFFFFFFFFFFFFFFFFFFFFFFFFFFFFFFFFFFFFFFFFFFFFFFFFFFFFFFF DUP3 PUSH2 0x1584 JUMP JUMPDEST PUSH2 0x15C9 DUP7 DUP4 PUSH2 0x1584 JUMP JUMPDEST SWAP6 POP DUP1 NOT DUP5 AND SWAP4 POP DUP1 DUP7 AND DUP5 OR SWAP3 POP POP POP SWAP4 SWAP3 POP POP POP JUMP JUMPDEST PUSH0 DUP2 SWAP1 POP SWAP2 SWAP1 POP JUMP JUMPDEST PUSH0 PUSH2 0x1604 PUSH2 0x15FF PUSH2 0x15FA DUP5 PUSH2 0xEB2 JUMP JUMPDEST PUSH2 0x15E1 JUMP JUMPDEST PUSH2 0xEB2 JUMP JUMPDEST SWAP1 POP SWAP2 SWAP1 POP JUMP JUMPDEST PUSH0 DUP2 SWAP1 POP SWAP2 SWAP1 POP JUMP JUMPDEST PUSH2 0x161D DUP4 PUSH2 0x15EA JUMP JUMPDEST PUSH2 0x1631 PUSH2 0x1629 DUP3 PUSH2 0x160B JUMP JUMPDEST DUP5 DUP5 SLOAD PUSH2 0x1590 JUMP JUMPDEST DUP3 SSTORE POP POP POP POP JUMP JUMPDEST PUSH0 SWAP1 JUMP JUMPDEST PUSH2 0x1645 PUSH2 0x1639 JUMP JUMPDEST PUSH2 0x1650 DUP2 DUP5 DUP5 PUSH2 0x1614 JUMP JUMPDEST POP POP POP JUMP JUMPDEST JUMPDEST DUP2 DUP2 LT ISZERO PUSH2 0x1673 JUMPI PUSH2 0x1668 PUSH0 DUP3 PUSH2 0x163D JUMP JUMPDEST PUSH1 0x1 DUP2 ADD SWAP1 POP PUSH2 0x1656 JUMP JUMPDEST POP POP JUMP JUMPDEST PUSH1 0x1F DUP3 GT ISZERO PUSH2 0x16B8 JUMPI PUSH2 0x1689 DUP2 PUSH2 0x1563 JUMP JUMPDEST PUSH2 0x1692 DUP5 PUSH2 0x1575 JUMP JUMPDEST DUP2 ADD PUSH1 0x20 DUP6 LT ISZERO PUSH2 0x16A1 JUMPI DUP2 SWAP1 POP JUMPDEST PUSH2 0x16B5 PUSH2 0x16AD DUP6 PUSH2 0x1575 JUMP JUMPDEST DUP4 ADD DUP3 PUSH2 0x1655 JUMP JUMPDEST POP POP JUMPDEST POP POP POP JUMP JUMPDEST PUSH0 DUP3 DUP3 SHR SWAP1 POP SWAP3 SWAP2 POP POP JUMP JUMPDEST PUSH0 PUSH2 0x16D8 PUSH0 NOT DUP5 PUSH1 0x8 MUL PUSH2 0x16BD JUMP JUMPDEST NOT DUP1 DUP4 AND SWAP2 POP POP SWAP3 SWAP2 POP POP JUMP JUMPDEST PUSH0 PUSH2 0x16F0 DUP4 DUP4 PUSH2 0x16C9 JUMP JUMPDEST SWAP2 POP DUP3 PUSH1 0x2 MUL DUP3 OR SWAP1 POP SWAP3 SWAP2 POP POP JUMP JUMPDEST PUSH2 0x1709 DUP3 PUSH2 0x11C1 JUMP JUMPDEST PUSH8 0xFFFFFFFFFFFFFFFF DUP2 GT ISZERO PUSH2 0x1722 JUMPI PUSH2 0x1721 PUSH2 0xD8E JUMP JUMPDEST JUMPDEST PUSH2 0x172C DUP3 SLOAD PUSH2 0x1533 JUMP JUMPDEST PUSH2 0x1737 DUP3 DUP3 DUP6 PUSH2 0x1677 JUMP JUMPDEST PUSH0 PUSH1 0x20 SWAP1 POP PUSH1 0x1F DUP4 GT PUSH1 0x1 DUP2 EQ PUSH2 0x1768 JUMPI PUSH0 DUP5 ISZERO PUSH2 0x1756 JUMPI DUP3 DUP8 ADD MLOAD SWAP1 POP JUMPDEST PUSH2 0x1760 DUP6 DUP3 PUSH2 0x16E5 JUMP JUMPDEST DUP7 SSTORE POP PUSH2 0x17C7 JUMP JUMPDEST PUSH1 0x1F NOT DUP5 AND PUSH2 0x1776 DUP7 PUSH2 0x1563 JUMP JUMPDEST PUSH0 JUMPDEST DUP3 DUP2 LT ISZERO PUSH2 0x179D JUMPI DUP5 DUP10 ADD MLOAD DUP3 SSTORE PUSH1 0x1 DUP3 ADD SWAP2 POP PUSH1 0x20 DUP6 ADD SWAP5 POP PUSH1 0x20 DUP2 ADD SWAP1 POP PUSH2 0x1778 JUMP JUMPDEST DUP7 DUP4 LT ISZERO PUSH2 0x17BA JUMPI DUP5 DUP10 ADD MLOAD PUSH2 0x17B6 PUSH1 0x1F DUP10 AND DUP3 PUSH2 0x16C9 JUMP JUMPDEST DUP4 SSTORE POP JUMPDEST PUSH1 0x1 PUSH1 0x2 DUP9 MUL ADD DUP9 SSTORE POP POP POP JUMPDEST POP POP POP POP POP POP JUMP JUMPDEST PUSH32 0x4E487B7100000000000000000000000000000000000000000000000000000000 PUSH0 MSTORE PUSH1 0x32 PUSH1 0x4 MSTORE PUSH1 0x24 PUSH0 REVERT JUMPDEST PUSH0 DUP3 DUP3 MSTORE PUSH1 0x20 DUP3 ADD SWAP1 POP SWAP3 SWAP2 POP POP JUMP JUMPDEST PUSH32 0x566F74696E6720706572696F6420686173206E6F7420656E6465640000000000 PUSH0 DUP3 ADD MSTORE POP JUMP JUMPDEST PUSH0 PUSH2 0x1840 PUSH1 0x1B DUP4 PUSH2 0x17FC JUMP JUMPDEST SWAP2 POP PUSH2 0x184B DUP3 PUSH2 0x180C JUMP JUMPDEST PUSH1 0x20 DUP3 ADD SWAP1 POP SWAP2 SWAP1 POP JUMP JUMPDEST PUSH0 PUSH1 0x20 DUP3 ADD SWAP1 POP DUP2 DUP2 SUB PUSH0 DUP4 ADD MSTORE PUSH2 0x186D DUP2 PUSH2 0x1834 JUMP JUMPDEST SWAP1 POP SWAP2 SWAP1 POP JUMP JUMPDEST PUSH32 0x50726F706F73616C20616C726561647920657865637574656400000000000000 PUSH0 DUP3 ADD MSTORE POP JUMP JUMPDEST PUSH0 PUSH2 0x18A8 PUSH1 0x19 DUP4 PUSH2 0x17FC JUMP JUMPDEST SWAP2 POP PUSH2 0x18B3 DUP3 PUSH2 0x1874 JUMP JUMPDEST PUSH1 0x20 DUP3 ADD SWAP1 POP SWAP2 SWAP1 POP JUMP JUMPDEST PUSH0 PUSH1 0x20 DUP3 ADD SWAP1 POP DUP2 DUP2 SUB PUSH0 DUP4 ADD MSTORE PUSH2 0x18D5 DUP2 PUSH2 0x189C JUMP JUMPDEST SWAP1 POP SWAP2 SWAP1 POP JUMP JUMPDEST PUSH32 0x50726F706F73616C20646964206E6F7420706173730000000000000000000000 PUSH0 DUP3 ADD MSTORE POP JUMP JUMPDEST PUSH0 PUSH2 0x1910 PUSH1 0x15 DUP4 PUSH2 0x17FC JUMP JUMPDEST SWAP2 POP PUSH2 0x191B DUP3 PUSH2 0x18DC JUMP JUMPDEST PUSH1 0x20 DUP3 ADD SWAP1 POP SWAP2 SWAP1 POP JUMP JUMPDEST PUSH0 PUSH1 0x20 DUP3 ADD SWAP1 POP DUP2 DUP2 SUB PUSH0 DUP4 ADD MSTORE PUSH2 0x193D DUP2 PUSH2 0x1904 JUMP JUMPDEST SWAP1 POP SWAP2 SWAP1 POP JUMP JUMPDEST PUSH32 0x50726F706F73616C20646F6573206E6F74206578697374000000000000000000 PUSH0 DUP3 ADD MSTORE POP JUMP JUMPDEST PUSH0 PUSH2 0x1978 PUSH1 0x17 DUP4 PUSH2 0x17FC JUMP JUMPDEST SWAP2 POP PUSH2 0x1983 DUP3 PUSH2 0x1944 JUMP JUMPDEST PUSH1 0x20 DUP3 ADD SWAP1 POP SWAP2 SWAP1 POP JUMP JUMPDEST PUSH0 PUSH1 0x20 DUP3 ADD SWAP1 POP DUP2 DUP2 SUB PUSH0 DUP4 ADD MSTORE PUSH2 0x19A5 DUP2 PUSH2 0x196C JUMP JUMPDEST SWAP1 POP SWAP2 SWAP1 POP JUMP JUMPDEST PUSH32 0x566F74696E672068617320656E64656400000000000000000000000000000000 PUSH0 DUP3 ADD MSTORE POP JUMP JUMPDEST PUSH0 PUSH2 0x19E0 PUSH1 0x10 DUP4 PUSH2 0x17FC JUMP JUMPDEST SWAP2 POP PUSH2 0x19EB DUP3 PUSH2 0x19AC JUMP JUMPDEST PUSH1 0x20 DUP3 ADD SWAP1 POP SWAP2 SWAP1 POP JUMP JUMPDEST PUSH0 PUSH1 0x20 DUP3 ADD SWAP1 POP DUP2 DUP2 SUB PUSH0 DUP4 ADD MSTORE PUSH2 0x1A0D DUP2 PUSH2 0x19D4 JUMP JUMPDEST SWAP1 POP SWAP2 SWAP1 POP JUMP JUMPDEST PUSH32 0x416C726561647920766F74656400000000000000000000000000000000000000 PUSH0 DUP3 ADD MSTORE POP JUMP JUMPDEST PUSH0 PUSH2 0x1A48 PUSH1 0xD DUP4 PUSH2 0x17FC JUMP JUMPDEST SWAP2 POP PUSH2 0x1A53 DUP3 PUSH2 0x1A14 JUMP JUMPDEST PUSH1 0x20 DUP3 ADD SWAP1 POP SWAP2 SWAP1 POP JUMP JUMPDEST PUSH0 PUSH1 0x20 DUP3 ADD SWAP1 POP DUP2 DUP2 SUB PUSH0 DUP4 ADD MSTORE PUSH2 0x1A75 DUP2 PUSH2 0x1A3C JUMP JUMPDEST SWAP1 POP SWAP2 SWAP1 POP JUMP JUMPDEST PUSH32 0x4E487B7100000000000000000000000000000000000000000000000000000000 PUSH0 MSTORE PUSH1 0x11 PUSH1 0x4 MSTORE PUSH1 0x24 PUSH0 REVERT JUMPDEST PUSH0 PUSH2 0x1AB3 DUP3 PUSH2 0xEB2 JUMP JUMPDEST SWAP2 POP PUSH32 0xFFFFFFFFFFFFFFFFFFFFFFFFFFFFFFFFFFFFFFFFFFFFFFFFFFFFFFFFFFFFFFFF DUP3 SUB PUSH2 0x1AE5 JUMPI PUSH2 0x1AE4 PUSH2 0x1A7C JUMP JUMPDEST JUMPDEST PUSH1 0x1 DUP3 ADD SWAP1 POP SWAP2 SWAP1 POP JUMP INVALID LOG2 PUSH5 0x6970667358 0x22 SLT KECCAK256 0xE6 0x28 0xC0 JUMPI 0xA6 SLT 0xB2 KECCAK256 JUMP 0xF8 0xD4 0xDD CREATE2 0xD6 DUP9 PC 0xCB OR SWAP2 0x21 0xA5 0xC6 0xCE 0xAF STATICCALL MLOAD SAR MSTORE8 0x5D SHR 0xAE 0xD3 PUSH5 0x736F6C6343 STOP ADDMOD EQ STOP CALLER "
				},
				"gasEstimates": {
					"creation": {
						"codeDepositCost": "1390000",
						"executionCost": "1449",
						"totalCost": "1391449"
					},
					"external": {
						"createProposal(string,string,uint256)": "infinite",
						"executeProposal(uint256)": "35421",
						"getAllProposals()": "infinite",
						"getProposal(uint256)": "infinite",
						"getProposalCount()": "2440",
						"getProposalVotes(uint256)": "infinite",
						"proposalVotes(uint256,uint256)": "infinite",
						"vote(uint256,bool)": "infinite"
					}
				},
				"methodIdentifiers": {
					"createProposal(string,string,uint256)": "0ce0ebf4",
					"executeProposal(uint256)": "0d61b519",
					"getAllProposals()": "cceb68f5",
					"getProposal(uint256)": "c7f758a8",
					"getProposalCount()": "c08cc02d",
					"getProposalVotes(uint256)": "47c66140",
					"proposalVotes(uint256,uint256)": "0d68eb9e",
					"vote(uint256,bool)": "c9d27afe"
				}
			},
			"storageLayout": {
				"storage": [
					{
						"astId": 29,
						"contract": "CenterDao.sol:CenterDao",
						"label": "proposals",
						"offset": 0,
						"slot": "0",
						"type": "t_array(t_struct(Proposal)18_storage)dyn_storage"
					},
					{
						"astId": 35,
						"contract": "CenterDao.sol:CenterDao",
						"label": "proposalVotes",
						"offset": 0,
						"slot": "1",
						"type": "t_mapping(t_uint256,t_array(t_struct(VoteRecord)25_storage)dyn_storage)"
					}
				],
				"types": {
					"t_address": {
						"encoding": "inplace",
						"label": "address",
						"numberOfBytes": "20"
					},
					"t_array(t_struct(Proposal)18_storage)dyn_storage": {
						"base": "t_struct(Proposal)18_storage",
						"encoding": "dynamic_array",
						"label": "struct CenterDao.Proposal[]",
						"numberOfBytes": "32"
					},
					"t_array(t_struct(VoteRecord)25_storage)dyn_storage": {
						"base": "t_struct(VoteRecord)25_storage",
						"encoding": "dynamic_array",
						"label": "struct CenterDao.VoteRecord[]",
						"numberOfBytes": "32"
					},
					"t_bool": {
						"encoding": "inplace",
						"label": "bool",
						"numberOfBytes": "1"
					},
					"t_mapping(t_uint256,t_array(t_struct(VoteRecord)25_storage)dyn_storage)": {
						"encoding": "mapping",
						"key": "t_uint256",
						"label": "mapping(uint256 => struct CenterDao.VoteRecord[])",
						"numberOfBytes": "32",
						"value": "t_array(t_struct(VoteRecord)25_storage)dyn_storage"
					},
					"t_string_storage": {
						"encoding": "bytes",
						"label": "string",
						"numberOfBytes": "32"
					},
					"t_struct(Proposal)18_storage": {
						"encoding": "inplace",
						"label": "struct CenterDao.Proposal",
						"members": [
							{
								"astId": 3,
								"contract": "CenterDao.sol:CenterDao",
								"label": "id",
								"offset": 0,
								"slot": "0",
								"type": "t_uint256"
							},
							{
								"astId": 5,
								"contract": "CenterDao.sol:CenterDao",
								"label": "title",
								"offset": 0,
								"slot": "1",
								"type": "t_string_storage"
							},
							{
								"astId": 7,
								"contract": "CenterDao.sol:CenterDao",
								"label": "descriptionCID",
								"offset": 0,
								"slot": "2",
								"type": "t_string_storage"
							},
							{
								"astId": 9,
								"contract": "CenterDao.sol:CenterDao",
								"label": "creator",
								"offset": 0,
								"slot": "3",
								"type": "t_address"
							},
							{
								"astId": 11,
								"contract": "CenterDao.sol:CenterDao",
								"label": "deadline",
								"offset": 0,
								"slot": "4",
								"type": "t_uint256"
							},
							{
								"astId": 13,
								"contract": "CenterDao.sol:CenterDao",
								"label": "executed",
								"offset": 0,
								"slot": "5",
								"type": "t_bool"
							},
							{
								"astId": 15,
								"contract": "CenterDao.sol:CenterDao",
								"label": "positiveVotes",
								"offset": 0,
								"slot": "6",
								"type": "t_uint256"
							},
							{
								"astId": 17,
								"contract": "CenterDao.sol:CenterDao",
								"label": "negativeVotes",
								"offset": 0,
								"slot": "7",
								"type": "t_uint256"
							}
						],
						"numberOfBytes": "256"
					},
					"t_struct(VoteRecord)25_storage": {
						"encoding": "inplace",
						"label": "struct CenterDao.VoteRecord",
						"members": [
							{
								"astId": 20,
								"contract": "CenterDao.sol:CenterDao",
								"label": "voter",
								"offset": 0,
								"slot": "0",
								"type": "t_address"
							},
							{
								"astId": 22,
								"contract": "CenterDao.sol:CenterDao",
								"label": "voteTime",
								"offset": 0,
								"slot": "1",
								"type": "t_uint256"
							},
							{
								"astId": 24,
								"contract": "CenterDao.sol:CenterDao",
								"label": "vote",
								"offset": 0,
								"slot": "2",
								"type": "t_bool"
							}
						],
						"numberOfBytes": "96"
					},
					"t_uint256": {
						"encoding": "inplace",
						"label": "uint256",
						"numberOfBytes": "32"
					}
				}
			},
			"userdoc": {
				"kind": "user",
				"methods": {},
				"version": 1
			}
		}
	}
}